:020000040800F2
:1000000068230020D94F0008095000080D5000084F
:100010001150000815500008195000080000000099
:100020000000000000000000000000001D5000085B
:10003000215000080000000025500008414D000834
:10004000295000082D500008315000083550000894
:10005000395000083D500008574D00084D4D00082C
:100060004150000845500008495000084D50000814
:100070005150000855500008595000085D500008C4
:100080006150000865500008695000080000000039
:100090000000000000000000000000006D5000089B
:1000A0007150000875500008795000087D50000814
:1000B0008150000885500008895000088D500008C4
:1000C0009150000895500008995000089D50000874
:1000D000A1500008A5500008614D00080000000074
:1000E000754D0008A9500008AD5000080000000040
:1000F000000000000000000000000000B1500008F7
:1001000000000000B5500008B9500008BD500008BC
:1001100000000000000000000000000000000000DF
:10012000C1500008C5500008C9500008CD50000853
:10013000D150000800000000000000000000000096
:10014000000000000000000000000000D550000882
:10015000D9500008DD500008E1500008E5500008C3
:10016000E9500008ED500008000000000000000009
:10017000000000000000000000000000000000007F
:1001800000000000F1500008000000000000000026
:10019000F550000800221100C9B2022914DA002229
:1001A000C9B20B011A540022C9B210EB01135A60F4
:1001B0000022C9B210EB01139A600022C9B210EB01
:1001C0000113DA60491CE7E7704770B4039C049D93
:1001D000C0B206017254C0B211EB00167360C0B217
:1001E00011EB0016B460C0B211EB0016F56070BCE4
:1001F00070472DE9F04383B004000D0016001F0086
:10020000DDF82880DDF82C90DFF8C40B007800289A
:1002100006D10120DFF8B81B08702800FFF7BAFFED
:10022000CDF80490CDF800803B003200D2B2290016
:100230002000C0B2FFF7C9FFBDE8F783F0B5002684
:10024000330000263500EDB2042D0CDA0026340010
:10025000E4B2022C05DA0026DBB25E545B1C641C9F
:10026000F6E76D1CEFE700263400E4B2022C80F2C2
:100270009A81DFF8186AE4B227013F5C5FF00E0C48
:100280000CFB0766367BE4B26654E4B22601365CAA
:10029000002E2AD0022E61D028D3042E00F09A809E
:1002A0006ED3062E00F0D280C0F0A680082E00F09B
:1002B0001081C0F0E4800A2E00F06B81C0F045810F
:1002C0000C2E00F06881C0F065810E2E00F0658173
:1002D000C0F06281102E00F06281C0F05F81122EAA
:1002E00000F05F81C0F05C815BE15AE1E4B2665CE2
:1002F000DFF8287AE4B210EB041CDCF804C05FF0ED
:10030000140E0EFB0C773F783E43E4B26654DFF8E0
:100310000C6AE4B210EB04177F685FF0140C0CFB5E
:100320000766B67B320001263500EDB2D2B2561C0C
:10033000B54212DAEDB26E0056FA84F6E4B210EB72
:100340000417BF68B2EB050C5FFA8CFC5FEACC0CBB
:1003500037FA0CF777546D1CE7E722E1E4B2665CEC
:10036000DFF8B879E4B210EB041CDCF804C05FF0ED
:10037000140E0EFB0C773F783E43E4B2665410E156
:10038000E4B2665CDFF8807BE4B210EB041CDCF8BE
:1003900004C05FF0090E0EFB0C773F7A3E43E4B2D7
:1003A000665401263500EDB2042D12DAEDB26E006E
:1003B00056FA84F6E4B210EB0417BF68D5F1030CCB
:1003C0005FFA8CFC5FEACC0C37FA0CF777546D1CA3
:1003D000E9E7E6E0E4B2665CDFF82C7BE4B210EB20
:1003E000041CDCF804C05FF0090E0EFB0C773F7AAA
:1003F0003E43E4B26654D4E0E4B2665CDFF8087BC6
:10040000E4B210EB041CDCF804C05FF0090E0EFB34
:100410000C773F7A3E43E4B2665401263500EDB2D4
:10042000042D12DAEDB26E0056FA84F6E4B210EB47
:100430000417BF68D5F1030C5FFA8CFC5FEACC0CA3
:1004400037FA0CF777546D1CE9E7AAE0012635006E
:10045000EDB2042D12DAEDB26E0056FA84F6E4B273
:1004600010EB04177F68D5F1030C5FFA8CFC5FEA90
:10047000CC0C37FA0CF777546D1CE9E791E0E4B245
:10048000665CDFF8847AE4B210EB041CDCF804C08C
:100490005FF0090E0EFB0C773F7A3E43E4B26654E0
:1004A00001263500EDB2042D12DAEDB26E0056FAD7
:1004B00084F6E4B210EB0417BF68D5F1030C5FFAC1
:1004C0008CFC5FEACC0C37FA0CF777546D1CE9E72B
:1004D00067E0E4B2665CDFF8EC79E4B210EB041C90
:1004E000DCF804C05FF0050E0EFB0C773F7956EA8E
:1004F000C706E4B26654E4B2665CDFF80C7AE4B294
:1005000010EB041CDCF808C05FF0090E0EFB0C7742
:100510003F7A3E43E4B2665401263500EDB2042D25
:1005200012DAEDB26E0056FA84F6E4B210EB04175C
:10053000FF68D5F1030C5FFA8CFC5FEACC0C37FA4C
:100540000CF777546D1CE9E72BE0E4B2665CDFF84A
:100550007479E4B210EB041CDCF804C05FF0050E03
:100560000EFB0C773F7956EAC706E4B26654E4B254
:10057000665CDFF89479E4B210EB041CDCF808C088
:100580005FF0090E0EFB0C773F7A3E43E4B26654EF
:1005900007E006E005E004E003E002E001E000E03F
:1005A000FFE7641C61E6F0BDDFED5A0AB4EE600AB5
:1005B000F1EE10FA08D5DFED630A80EE200ABCEEFA
:1005C000C00A10EE100A00E000207047DFED5E0A5E
:1005D000B4EE600AF1EE10FA09D5DFED590A80EEAB
:1005E000200ABDEEC00A10EE100A80B200E0002022
:1005F00070470000DFED540AB4EE600AF1EE10FA25
:1006000009D5DFED4F0A80EE200ABDEEC00A10EEDC
:10061000100A80B200E0002070470000DFED640A9D
:10062000B4EE600AF1EE10FA09D5DFED600A80EE53
:10063000200ABDEEC00A10EE100A80B200E00020D1
:1006400070470000DFED740AB4EE600AF1EE10FAB4
:1006500009D5DFED700A80EE200ABDEEC00A10EE6B
:10066000100A80B200E0002070470000DFED7A0A37
:10067000B4EE600AF1EE10FA0DD5DFEDA10A80EEBE
:10068000200AFEEE000A30EE200ABDEEC00A10EE8F
:10069000100A80B200E0002070470000DFED880AF9
:1006A000B4EE600AF1EE10FA09D5DFED840A80EEAF
:1006B000200ABDEEC00A10EE100A80B200E0002051
:1006C00070470000DFED8F0AB4EE600AF1EE10FA19
:1006D00009D5DFEDAB0A80EE200ABDEEC00A10EEB0
:1006E000100AC0B200E0002070470000DFED850A6C
:1006F000B4EE600AF1EE10FA09D5DFEDA10A80EE42
:10070000200ABDEEC00A10EE100AC0B200E00020C0
:10071000704700001C247446DFED7A0AB4EE600ACC
:10072000F1EE10FA09D5DFED960A80EE200ABDEE53
:10073000C00A10EE100AC0B200E0002070470000AE
:10074000FED468412A24743C72C66847DFEDAE1AB5
:10075000B4EE610AF1EE10FA26D5DFED9A1AC0EE7A
:10076000211AF0EE610AFDEEE01A11EE900AC0B215
:1007700001EE900AF8EE611A70EEE11AB0EE611A1D
:10078000F6EE001AB4EE611AF1EE10FA06D5FDEE9F
:10079000E00A10EE900A401EC0B206E0FDEEE00A4C
:1007A00010EE900AC0B200E0002070470B247441A4
:1007B00003E77346DFEDB51AB4EE610AF1EE10FA05
:1007C00026D5DFEDA21AC0EE211AF0EE610AFDEE89
:1007D000E01A11EE900AC0B201EE900AF8EE611A2A
:1007E00070EEE11AB0EE611AF6EE001AB4EE611A7C
:1007F000F1EE10FA06D5FDEEE00A10EE900A401E6A
:10080000C0B206E0FDEEE00A10EE900AC0B200E0D1
:10081000002070470124743EC01474447CB5040069
:100820000D001600002001900096EDB22B00012271
:10083000DFF8241B2000C0B2FFF7DBFCDFF81C1B35
:10084000DFF8140BFFF7FAFCDFF8141BDFF80C0BD2
:1008500000F06BFB73BD000081E17346F0B583B01F
:1008600004000D000020019000200090EDB22B004C
:100870000222DFF8E41A2000C0B2FFF7BAFCDFF86A
:10088000DC1ADFF8D40AFFF7D9FCDFF8D41ADFF856
:10089000CC0A00F04AFBDFF88404EDB2142101FB1E
:1008A0000500807B06003200D2B2DFF8B41A2000C7
:1008B000C0B200F07BFB07003800FEBDF423743D9E
:1008C000242074447CB504000D0016000020019023
:1008D0000096EDB22B000322DFF87C1A2000C0B294
:1008E000FFF787FCDFF8741ADFF86C0AFFF7A6FC45
:1008F000DFF86C1ADFF8640A00F017FB73BD000024
:1009000000007441DA11833B30B583B004000D0060
:100910000020019000200090EDB22B000422DFF8AF
:10092000381A2000C0B2FFF764FCDFF8301ADFF895
:10093000280AFFF783FCDFF8281ADFF8200A00F006
:10094000F4FA37BD7CB504000D00160000200190BC
:100950000096EDB22B000522DFF8FC192000C0B292
:10096000FFF747FCDFF8F419DFF8EC09FFF766FC46
:10097000DFF8EC19DFF8E40900F0D7FA73BD0000E6
:100980006E95833730B583B004000D00B5F5800F48
:1009900017D200200190002000902B000622DFF8E3
:1009A000B8192000C0B2FFF724FCDFF8B019DFF857
:1009B000A809FFF743FCDFF8A819DFF8A00900F049
:1009C000B4FA37BD0080BB437CB504000D001600AF
:1009D000B6F5800F17D2002001900096EDB22B00E3
:1009E0000722DFF874192000C0B2FFF702FCDFF81D
:1009F0006C19DFF86409FFF721FCDFF86419DFF8F0
:100A00005C0900F092FA73BD0180BB45F0B583B07C
:100A100004000D0016001F000197F6B20096EDB21B
:100A20002B000822DFF830192000C0B2FFF7E1FBED
:100A3000DFF82819DFF82009FFF700FCDFF820199C
:100A4000DFF8180900F071FAF7BD00000000FA4164
:100A50007CB504000D00160000200190F6B200964F
:100A6000EDB22B000922DFF8F0182000C0B2FFF72A
:100A7000C0FBDFF8E818DFF8E008FFF7DFFBDFF87E
:100A8000E018DFF8D80800F050FA73BD01007A458D
:100A90001CB50400002001900020009000230A22D1
:100AA000DFF8B4182000C0B2FFF7A3FBDFF8AC18E2
:100AB000DFF8A408FFF7C2FBDFF8A418DFF89C08F2
:100AC00000F033FA13BD1CB5040000200190002093
:100AD000009000230B22DFF880182000C0B2FFF73F
:100AE00088FBDFF87818DFF87008FFF7A7FBDFF85E
:100AF0007018DFF8680800F018FA13BD1CB5040080
:100B0000002001900020009000230C22DFF84818FC
:100B10002000C0B2FFF76DFBDFF84018DFF838089F
:100B2000FFF78CFBDFF83818DFF8300800F0FDF92C
:100B300013BD1CB50400002001900020009000238C
:100B40000D22DFF814182000C0B2FFF752FBDFF8C7
:100B50000C18DFF80408FFF771FBDFF80418DFF862
:100B6000FC0700F0E2F913BD1CB504000020019061
:100B70000020009000230E22DFF8DC172000C0B216
:100B8000FFF737FBDFF8D417DFF8CC07FFF756FB8A
:100B9000DFF8CC17DFF8C40700F0C7F913BD1CB5A8
:100BA0000400002001900020009000230F22DFF8B5
:100BB000A8172000C0B2FFF71CFBDFF8A017DFF872
:100BC0009807FFF73BFBDFF89817DFF8900700F076
:100BD000ACF913BD1CB5040000200190002000906A
:100BE00000231022DFF870172000C0B2FFF701FBCE
:100BF000DFF86817DFF86007FFF720FBDFF8601702
:100C0000DFF8580700F091F913BD1CB5040000206F
:100C100001900020009000231122DFF83C172000F3
:100C2000C0B2FFF7E6FADFF83417DFF82C07FFF75A
:100C300005FBDFF82C17DFF8240700F076F913BD69
:100C400030B583B004000020019000200090002304
:100C50001222DFF804172000C0B2FFF7CAFADFF84B
:100C6000FC16DFF8F406FFF7E9FADFF8F416DFF810
:100C7000EC0600F05AF90222DFF8E4162000C0B2B8
:100C800000F094F90500280080B23EBD0C4A00082F
:100C90007CB504000D001600002001900096EDB216
:100CA0002B000122DFF8B0162000C0B2FFF7A1FA36
:100CB00073BD30B583B004000D000020019000200A
:100CC0000090EDB22B000222DFF88C162000C0B29B
:100CD000FFF78FFA37BD7CB504000D001600002029
:100CE00001900096EDB22B000322DFF86C16200075
:100CF000C0B2FFF77EFA73BD30B583B004000D00BB
:100D00000020019000200090EDB22B000422DFF8BB
:100D100048162000C0B2FFF76CFA37BD184800082B
:100D20007CB504000D001600002001900096EDB285
:100D30002B000522DFF820162000C0B2FFF759FA79
:100D400073BD30B583B004000D0000200190002079
:100D500000902B000622DFF800162000C0B2FFF73B
:100D600048FA37BD7CB504000D0016000020019044
:100D70000096EDB22B000722DFF8DC152000C0B290
:100D8000FFF737FA73BDF0B583B004000D0016000D
:100D90001F000197F6B20096EDB22B000822DFF893
:100DA000B8152000C0B2FFF724FAF7BD7CB50400E7
:100DB0000D00160000200190F6B20096EDB22B0057
:100DC0000922DFF894152000C0B2FFF712FA73BDB4
:100DD000502400201CB50400002001900020009049
:100DE00000230A22DFF870152000C0B2FFF701FAD5
:100DF00013BD1CB5040000200190002000900023CA
:100E00000B22DFF854152000C0B2FFF7F2F913BD32
:100E10001CB50400002001900020009000230C224B
:100E2000DFF834152000C0B2FFF7E3F913BD1CB59D
:100E30000400002001900020009000230D22DFF824
:100E400018152000C0B2FFF7D4F913BD1CB504007B
:100E5000002001900020009000230E22DFF8F814FB
:100E60002000C0B2FFF7C5F913BD1CB50400002077
:100E700001900020009000230F22DFF8DC142000F6
:100E8000C0B2FFF7B6F913BD1CB5040000200190F5
:100E90000020009000231022DFF8BC142000C0B214
:100EA000FFF7A7F913BD1CB5040000200190002036
:100EB000009000231122DFF8A0142000C0B2FFF739
:100EC00098F913BDE84F00081CB5040000200190FC
:100ED0000020009000231222DFF87C142000C0B212
:100EE000FFF787F913BD80B5DFF87014DFF86804E9
:100EF000FFF7A4F9DFF86814DFF8600400F015F8D4
:100F0000DFF85C0402BD0000844F00080100C9B294
:100F1000002905D0C9B2002905D0C9B2022902DAD8
:100F20000800C0B200E0FF20704770B582B0040036
:100F30000D000020DFF82C14087000200600F6B227
:100F4000042E32DA0022DFF820040189DFF81804C9
:100F5000406800F0E6FB0A2000900223F6B215EB91
:100F60004602F6B214EB4601DFF8000400F011FD72
:100F70000122DFF8F4030189DFF8EC03406800F098
:100F8000D0FB0020DFF8E8130870DFF8E4030078F6
:100F9000142808DA00BFDFF8D8030078401CDFF817
:100FA000D0130870F1E7761CC9E773BD70B4030075
:100FB0000025280001252C00E4B2042C0BDAE4B251
:100FC00011EB4405DBB25D5D161BF6B2F600B540D1
:100FD0002843641CF0E770BC704770B504000D0036
:100FE000002618212000C0B2FFF738FCDFF8841378
:100FF00009680880EDB2002D15D0022D21D019D33B
:10100000042D2CD024D3062D37D02FD3082D44D037
:101010003AD30A2D53D049D30C2D62D058D30E2D7C
:1010200071D067D375E0D3480068007810F00100F4
:1010300006006EE0CF4800680088C0F3400006005C
:1010400067E0CC4800680088C0F38000060060E0DC
:10105000C84800680088C0F3C000060059E0C548D1
:1010600000680088C0F30010060052E0C148006824
:101070000088C0F3411006004BE0BE4800680088BD
:10108000C0F3C010060044E0BA480068008880B28F
:10109000000A10F0010006003BE0B6480068008836
:1010A00080B2400A10F00100060032E0B14800684A
:1010B000008880B2800A10F00100060029E0AD48E7
:1010C0000068008880B2C00A10F00100060020E02D
:1010D000A8480068008880B2000B10F001000600EC
:1010E00017E0A4480068008880B2400B10F00100AF
:1010F00006000EE09F480068008880B2800B10F068
:101100000100060005E09B480068008880B2C00B23
:1011100006003000C0B270BD0100C9B2192906DA5C
:101120009548C9B2142202FB0100401C00E088A0CF
:101130007047000038B504000D0095ED050AFFF773
:1011400045FAA08395ED060AFFF754FAE08395ED82
:10115000070AFFF763FA208495ED080AFFF772FA91
:10116000608495ED090AFFF781FAA08495ED0A0ADB
:10117000DFED780A20EE200AD5ED000A80EE200A85
:10118000BDEEC00A10EE100A84F8260095ED0B0A99
:10119000DFED700A20EE200AD5ED000A80EE200A6D
:1011A000BDEEC00A10EE100A84F8270095ED0C0A77
:1011B000DFED680A20EE200AD5ED000A80EE200A55
:1011C000BDEEC00A10EE100A84F8280095ED0D0A55
:1011D000DFED600A20EE200AD5ED000A80EE200A3D
:1011E000BDEEC00A10EE100A84F8290095ED0E0A33
:1011F000FFF754FA608595ED0F0AFFF763FA84F85C
:101200002C0095ED100AFFF771FA84F82D0095ED8A
:10121000110AFFF781FA84F82E0095F8480084F847
:101220002F0095ED130AFFF791FA84F8310095ED40
:10123000140AFFF7BFFA84F8320095F8540084F8D6
:10124000330095F8550084F83400B5F85600E08670
:10125000A28B04212078A3681B689847E28B0521A4
:101260002078A3681B689847228C06212078A36801
:101270001B689847628C07212078A3681B689847F1
:10128000A28C08212078A3681B68984794F8262030
:1012900009212078A3681B68984794F827200A2121
:1012A0002078A3681B68984794F828200B212078A1
:1012B000A3681B68984794F829200C212078A3681C
:1012C0001B689847628D0D212078A3681B6898479A
:1012D00094F82C200E212078A3681B68984794F876
:1012E0002D200F212078A3681B68984794F82E20A2
:1012F00010212078A3681B68984794F82F201121AB
:101300002078A3681B68984794F83120132120782F
:10131000A3681B68984794F8322014212078A368AA
:101320001B68984794F8332015212078A3681B6820
:10133000984794F8342016212078A3681B689847B2
:10134000E28E17212078A3681B68984731BD000002
:10135000000000000000804300240020382400200A
:1013600040240020502400202C240020682300204A
:101370005124002094000020184800082DE9F8436B
:1013800004000D0000275FF000085FF00009DFF89F
:10139000F403844218D0DFF8F003844214D0DFF85D
:1013A000EC03844210D0DFF8E80384420CD0DFF86D
:1013B000E403844208D0DFF8E003844204D0C5216E
:1013C000DFF8D80300F02DFD2868000404D1C62101
:1013D000DFF8C80300F025FD6868002831D0686890
:1013E00001282ED0686811282BD06868022828D0E0
:1013F0006868122825D06868DFF8A413884220D0D6
:101400006868DFF8A01388421BD06868DFF898137B
:10141000884216D06868DFF89413884211D0686853
:10142000DFF88C1388420CD06868DFF88813884294
:1014300007D06868032804D0C721DFF8600300F0F4
:10144000F0FCA86800280AD0A868012807D0A8687E
:10145000022804D0C821DFF8440300F0E2FC002099
:101460000600102E80F05B810120B0400700286844
:1014700038408046B84540F050816868022802D064
:10148000686812286CD1286900284FD0286909287B
:101490004CD02869002849D02869002846D02869FE
:1014A000002843D02869002840D0286901283DD071
:1014B000286901283AD02869022837D028690228EB
:1014C00034D02869022831D0286904282ED0286910
:1014D00004282BD02869042828D02869052825D07D
:1014E0002869052822D0286906281FD028690528E0
:1014F0001CD02869072819D02869072816D0286920
:10150000082813D028690A2810D0286909280DD086
:10151000286909280AD028690C2807D028690F28CB
:1015200004D0D921DFF8740200F07BFCF00814EB42
:101530008000006A81460F2016F00701C9B28900B9
:10154000884039EA0009286916F00701C9B2890004
:10155000884050EA0909F00814EB8000C0F8209098
:101560002068814603203100C9B24900884039EA29
:101570000009287910F003003100C9B24900884001
:1015800050EA0909C4F800906868012808D0686822
:10159000022805D06868112802D06868122830D166
:1015A000E86800280DD0E86801280AD0E868022819
:1015B00007D0E868032804D0EC21DFF8E00100F050
:1015C00030FCA068814603203100C9B24900884040
:1015D00039EA0009E8683100C9B24900884050EA98
:1015E0000909C4F80890606881460120B04039EAD2
:1015F00000096868C0F30010B04050EA0909C4F857
:101600000490E068814603203100C9B24900884057
:1016100039EA0009A8683100C9B24900884050EA97
:101620000909C4F80C906868C00076D5DFF8880115
:10163000006850F48040DFF880110860DFF878011E
:10164000006810F4804000900098DFF87001B10845
:1016500050F8210081460F2016F00301C9B289001D
:10166000884039EA00094748844201D1002014E04B
:101670004548844201D101200FE04448844201D111
:1016800002200AE04248844201D1032005E041489B
:10169000844201D1042000E00520C0B216F003010D
:1016A000C9B28900884050EA09094448B10840F8A5
:1016B000219043480068814639EA08096868C003F8
:1016C00001D558EA09093E48C0F800903D48006835
:1016D000814639EA08096868800301D558EA090992
:1016E0003848C0F8009038480068814639EA08094F
:1016F0006868C00201D558EA09093348C0F800906B
:1017000032480068814639EA08096868800201D5D4
:1017100058EA09092D48C0F80090761CA1E6BDE8FA
:10172000F18370B504000D001600ADB2002D04D198
:1017300040F2B111194800F074FBF6B2002E07D048
:10174000F6B2012E04D04FF4D971144800F069FBB1
:10175000F6B2002E02D0ADB2A56102E0ADB228040F
:10176000A06170BD10B5040019480068A4B2204201
:1017700006D0A4B216480460200080B200F0F5FC48
:1017800010BD0000000002400004024000080240BA
:10179000000C024000100240001C0240E04B000818
:1017A0000000111000002110000031100000121084
:1017B0000000221000003210443802400838014076
:1017C000003C0140043C0140083C01400C3C01400D
:1017D000143C014010B50400002C01D10120D7E0D9
:1017E0006068002808D06068B0F5827F04D0B82116
:1017F000DFF8240500F015FBA06800280CD0A068D5
:10180000B0F5806F08D0A068B0F5004F04D0B921C2
:10181000DFF8040500F005FBE068B0F5006F07D0C5
:10182000E068002804D0BA21DFF8EC0400F0F9FAEF
:101830002069002807D02069022804D0BB21DFF8E6
:10184000D80400F0EEFA6069002807D0606901282A
:1018500004D0BC21DFF8C00400F0E3FAA069B0F5C1
:10186000007F0BD0A069002808D0A069B0F5802FB8
:1018700004D0BD21DFF8A00400F0D3FAE06900280D
:1018800019D0E069082816D0E069102813D0E06963
:10189000182810D0E06920280DD0E06928280AD047
:1018A000E069302807D0E069382804D0BE21DFF88D
:1018B000680400F0B6FA206A002807D0206A802861
:1018C00004D0BF21DFF8500400F0ABFA606A0028B2
:1018D00007D0606A102804D0C021DFF83C0400F073
:1018E000A0FAA06A002808D0A06AB0F5005F04D072
:1018F000C121DFF8240400F094FAE06A002803D044
:10190000E06AB0F5803F04D3C221DFF80C0400F098
:1019100088FA94F85100002805D1002084F850007E
:10192000200000F07CFC022084F851002068006850
:1019300030F04000216808606068A1680843E168F1
:1019400008432169084361690843A16911F40071E2
:101950000843E1690843216A0843A16A08432168F2
:101960000860A069000C10F00400616A0843216857
:101970004860E06A216808612068C06930F400604E
:101980002168C86100206065012084F851000020B2
:1019900010BD2DE9F04782B004000D0016001F00B5
:1019A000DDF828805FF000095FF0000A94F851002C
:1019B0008146B9F1010F03D0B9F1220F40F0A8819F
:1019C000002D04D0002E02D0BFB2002F01D1012083
:1019D0009FE1A068002805D04FF42671DFF8380396
:1019E00000F01FFA94F85000012801D1022090E184
:1019F000012084F8500094F85100012802D13220CF
:101A000084F8510000206065A663A787E7872563F7
:101A1000A786E7860020A0640020E064A06AB0F5F5
:101A2000005F0BD12068006830F400502168086026
:101A30002068006850F40050216808602068006841
:101A4000400605D42068006850F040002168086016
:101A5000E068B0F5006F40F088806068002806D02C
:101A60006068B0F5827F0CD1E08E012809D1206B2F
:101A700000882168C860206B801C2063E08E401EB7
:101A8000E086E08E00281ED1A06AB0F5005F05D187
:101A90002068006850F480502168086043460022A6
:101AA0000121200000F03AF9002801D0032030E1A4
:101AB0002068C068A16B0880A06B801CA063E08FC9
:101AC000401EE087D0E0E08E002835D0434600225B
:101AD0000221200000F022F9002801D0032018E1A3
:101AE000206B00882168C860206B801C2063E08E1A
:101AF000401EE086E08E002809D1A06AB0F5005FA4
:101B000005D12068006850F4805021680860434681
:101B100000220121200000F001F9002801D003205B
:101B2000F7E02068C068A16B0880A06B801CA063F0
:101B3000E08F401EE087C6E76068002840F0948090
:101B4000434600220121200000F0E8F8002801D0DF
:101B50000320DEE02068C068A16B0880A06B801CB9
:101B6000A063E08F401EE0877EE06068002806D01A
:101B70006068B0F5827F0BD1E08E012808D1206B20
:101B8000411C216300782168C860E08E401EE08619
:101B9000E08E00281BD1A06AB0F5005F05D1206857
:101BA000006850F4805021680860434600220121FB
:101BB000200000F0B3F8002801D00320A9E020683D
:101BC000C068A16B0870E08F401EE0874CE0E08E9B
:101BD000002833D0434600220221200000F09EF866
:101BE000002801D0032094E0206B411C2163007881
:101BF0002168C860E08E401EE086E08E002809D192
:101C0000A06AB0F5005F05D12068006850F48050EC
:101C100021680860434600220121200000F07EF880
:101C2000002801D0032074E0A06B411CA16321684F
:101C3000C9680170E08F401EE087C8E7606800282F
:101C400012D1434600220121200000F067F800284D
:101C500001D003205DE0A06B411CA1632168C9682D
:101C60000170E08F401EE087A06AB0F5005F13D1DD
:101C7000434600220121200000F050F8002805D042
:101C8000606D50F002006065032042E02068C0688B
:101C9000ADF80000BDF8000043460122802120007D
:101CA00000F03CF8002805D0606D50F02000606521
:101CB00003202EE0012084F851002068806800098C
:101CC00010F001008246A06AB0F5005F1BD1BAF1A6
:101CD000000F18D0606D50F002006065A06AB0F58A
:101CE000005F0BD12068006830F400502168086064
:101CF0002068006850F4005021680860002084F8D3
:101D00005000012005E0002084F85000002000E091
:101D10000220BDE8F6870000904C00082DE9F04154
:101D200004000D0016001F005FF0000800F069FBC2
:101D30008046F6B2002E33D1206880682840A84241
:101D400062D017F1010FF7D0002F05D000F059FB3A
:101D5000B0EB08008742EFD22068406830F0E00026
:101D6000216848602068006830F040002168086001
:101D7000A06AB0F5005F0BD12068006830F4005015
:101D8000216808602068006850F4005021680860ED
:101D9000012084F85100002084F85000032034E032
:101DA000206880682840A8422ED117F1010FF7D093
:101DB000002F05D000F025FBB0EB08008742EFD2E2
:101DC0002068406830F0E0002168486020680068C2
:101DD00030F0400021680860A06AB0F5005F0BD1C8
:101DE0002068006830F400502168086020680068AE
:101DF00050F4005021680860012084F85100002050
:101E000084F85000032000E00020BDE8F08180B598
:101E100000F0EEFB00F06BFE00F04CFF00F002F86B
:101E2000FEE770472DE9F04F83B0C549C54800F083
:101E300077FF01F01FF801F09DF800900020804628
:101E40005FFA88F8B8F1000F14D14046C0B200F034
:101E500025FEC0B200F0D3FE060000985FFA88F8B5
:101E6000B02101FB0800070038007168884718F1AD
:101E70000108E5E7B449B34800F052FF00F0FAFF6B
:101E800004200500002000F009FE8346002000F039
:101E900005FE5FFA8BFB584554D35846C0B200F09C
:101EA000AEFE06000020FFF731F882460120FFF762
:101EB0002DF85FFA8AFA504541D300985FFA8BFB00
:101EC0005FEA4B0151FA8AF1582202FB0100070038
:101ED00097F85410022000F039F997ED010ABCEE92
:101EE000C00A10EE101A00FB01F0EDB2B0FBF5F0E5
:101EF0000400002081465FFA89F9EDB2A9451BD2A2
:101F0000230001225146C9B25846C0B2D6F808C0D3
:101F1000DCF810C0E04701225146C9B25846C0B2B1
:101F2000B3689B6C98470028F5D04FF47A7000F0A6
:101F30006BFA19F10109DEE71AF1010AB6E71BF1A4
:101F4000010BA3E740F6C41000F05EFA002000F099
:101F5000A5FD8346002000F0A1FD5FFA8BFB5845EC
:101F60002FD30020FEF7D2FF82460120FEF7CEFFDE
:101F70005FFA8AFA50451ED300985FFA8BFB5FEA3E
:101F80004B0151FA8AF1582202FB0100070097ED3C
:101F9000040AFEF709FB0190019A01215046C0B2E4
:101FA0005FFA8AFA16EB8A03DB689B681B6D984719
:101FB0001AF1010AD9E7B068C06C80471BF1010B28
:101FC000C8E742F2107000F01FFA002000F066FD32
:101FD0008346002000F062FD5FFA8BFB58451ED35C
:101FE0000020FEF793FF82460120FEF78FFF5FFA85
:101FF0008AFA50450DD35046C0B25FFA8AFA16EB02
:102000008A01C9688968D1F8801088471AF1010AE5
:10201000EAE7B068C06C80471BF1010BD9E70820E4
:102020000500002000F03AFD8346002000F036FD58
:102030005FFA8BFB584554D35846C0B200F0DFFD21
:1020400006000020FEF762FF82460120FEF75EFFD9
:102050005FFA8AFA504541D300985FFA8BFB5FEA3A
:102060004B0151FA8AF1582202FB0100070097F850
:102070005410022000F06AF897ED010ABCEEC00A85
:1020800010EE101A00FB01F0EDB2B0FBF5F0040009
:10209000002081465FFA89F9EDB2A9451BD22300E1
:1020A00001225146C9B25846C0B2D6F808C0DCF881
:1020B00010C0E04701225146C9B25846C0B2B368C9
:1020C0009B6C98470028F5D04FF47A7000F09CF98B
:1020D00019F10109DEE71AF1010AB6E71BF1010B5C
:1020E000A3E7002000F0DAFC8346002000F0D6FCD5
:1020F0005FFA8BFB58451ED30020FEF707FF824690
:102100000120FEF703FF5FFA8AFA50450DD35046CF
:10211000C0B25FFA8AFA16EB8A01C9688968D1F8F9
:10212000881088471AF1010AEAE7B068C06C804756
:102130001BF1010BD9E7002000F058FFBDE8F78F35
:10214000B44E0008C0230020D44E000810B4020092
:10215000012000242300DBB2C9B28B4203D2D2B2E9
:1021600050435B1CF7E710BC704710B50400A4B2E5
:102170002000012807D0022808D0B0F5005F07D161
:1021800000F0C8FC04E000F0C1FC01E000F0C0FC7D
:1021900010BDF0B4016844688368091801EB54026B
:1021A000E40748BF4B440C3091422BD011F8014B4F
:1021B00014F0030504BF11F8015BED1C26090F2E76
:1021C00007D111F8016B0F3603E011F8017B03F81A
:1021D000017B6D1EF9D1002EE6D0A40811F8015B39
:1021E00004F00304032C08BF11F8014B05EB042491
:1021F0001C1BB51CD8D014F8016B03F8016B6D1EC5
:10220000F9D1D1E7F0BC704780B5072000F0EFFFAF
:10221000002200215FF0FF3000F0FEFF01BD10B58D
:1022200086B0040020685749884240D1524800686F
:1022300050F00100504908604F48006810F001005C
:10224000009000984C48006850F002004A4908602D
:102250004948006810F00200009000984748006864
:1022600050F48050454908604448006810F480509C
:1022700000900098C020019002200290002003905E
:10228000032004900520059001A93F48FFF776F848
:102290000820019002200290002003900320049067
:1022A0000520059001A93648FFF768F82AE0206864
:1022B0003649884226D13048006850F002002E4945
:1022C00008602D48006810F0020000900098304827
:1022D000006850F480402E4908602D48006810F4D2
:1022E0008040009000984FF46040019002200290DE
:1022F00000200390032004900520059001A92048A8
:10230000FFF73CF806B010BD10B586B00400206899
:10231000204988422DD11848006850F00100164924
:1023200008601548006810F00100009000981848F7
:10233000006850F40030164908601548006810F431
:102340000030009000980C200190022002900020A4
:102350000390032004900720059001A90A48FFF785
:102360000DF800220021262000F056FF262000F064
:1023700074FF06B010BD00003038024044380240FF
:1023800000040240003001400000024000380040DC
:10239000403802400044004080B52248006850F4B4
:1023A0000070204908601F48006850F480601D4993
:1023B00008601C48006850F480701A4908600320C7
:1023C00000F015FF002000F004F8FFF71DFF0020CB
:1023D00002BD10B5040001F035FC4FF47A71B0FB7A
:1023E000F1F000F058FF002221005FF0FF3000F014
:1023F00013FF002010BD0C480068401C0A4908600B
:10240000704709480068704711B581B00024FFF794
:10241000F8FF0400FFF7F5FF001B01998842F9D38C
:1024200013BD0000003C02404C24002000B593B0D6
:102430006848006850F08050664908606548006848
:1024400010F08050009000986348006830F44040DD
:1024500050F40040604908605F48006810F4404054
:1024600000900098022006900120099010200A9008
:1024700002200C9000200D9010200E904FF4A870B8
:102480000F90042010900720119006A800F024FF60
:102490000520019002200290002003904FF480500C
:1024A000049000200590022101A801F078F913B0F2
:1024B00000BD80B50121002000F0B8FD002000F033
:1024C0005DFD01BD80B500F001F801BD38B54348A0
:1024D000434908604FF482704149486000204049F8
:1024E000886000203E49C86002203D490861012003
:1024F0003B4948614FF400703949886100203849F0
:10250000086200203649486200203549886201F09F
:10251000BDFB04003348B4FBF0F00500ADB2022D62
:1025200003DA00202E49C86131E0ADB2042D03DA90
:1025300008202B49C8612AE0ADB2082D03DA10202B
:102540002749C86123E0ADB2102D03DA18202449D1
:10255000C8611CE0ADB2202D03DA20202049C861FB
:1025600015E0ADB2402D03DA28201D49C8610EE008
:10257000ADB2802D03DA30201949C86107E0ADB251
:10258000FF2D03DC38201649C86100E0FEE714483F
:10259000FFF720F931BD80B51348144908605FF496
:1025A000E1301249486000201049886000200F493E
:1025B000C86000200D4908610C200C4948610020CA
:1025C0000A49886100200949C861084801F092FB66
:1025D00001BD000040380240007000400030014062
:1025E00068230020404B4C0000440040C0230020E2
:1025F00080B5FFF7D1FEFFF719FFFFF75AFFFFF78E
:1026000061FFFFF7C8FF40F2EE21032000F001F860
:1026100001BDF8B504000D00280080B24008070095
:1026200000200600F6B2E4B2A6420FD2002000F06D
:10263000DDFCBFB23800FFF7E7FE002000F0E6FC4B
:10264000BFB23800FFF7E0FE761CEBE7F1BD2000DB
:1026500010B586B0DFF8F0050068DFF8F0150968FE
:102660000843DFF8E4150860DFF8E0050089009012
:102670001120019000200290032003906946DFF8AA
:10268000CC054068FEF77AFEDFF8BC050068DFF88D
:10269000C01509680843DFF8B0150860DFF8B00519
:1026A00000890090DFF8AC05019000200290694697
:1026B000DFF89C054068FEF761FE0022002106203D
:1026C00000F0AAFDDFF880050068DFF88C150968C6
:1026D0000843DFF874150860DFF87C050089009076
:1026E000DFF870050190002002906946DFF8680568
:1026F0004068FEF743FE00220021072000F08CFD19
:10270000002000F0CBF90400002000F0C7F9E4B28B
:10271000A04227D3DFF830050068DFF84015E4B2A7
:102720000C2202FB041109680843DFF81C1508603D
:10273000DFF82805E4B20C2101FB040000890090B9
:102740000120019000200290032003906946DFF8E9
:102750000C05E4B20C2202FB04004068FEF70EFEFA
:10276000641CD1E706B010BD38B50022DFF8DC04E8
:102770000189DFF8D8044068FEF7D3FF0122DFF8B3
:10278000CC040189DFF8C4044068FEF7CAFF0020CA
:1027900000F084F90400002000F080F9E4B2A042C7
:1027A00022D32000C0B200F082F90122DFF8B00489
:1027B0000189DFF8AC044068FEF7B3FF0020FEF7A4
:1027C000A5FB05000120FEF7A1FBEDB2A84209D34D
:1027D0002800C0B2FEF7ADF92800C0B2FEF730FA0B
:1027E0006D1CEFE7641CD6E7002000F057F9C0B27B
:1027F00000F05DF931BD10B50400E4B2012C06D142
:10280000062000F02AFD072000F027FD05E0062045
:1028100000F032FD072000F02FFD10BDF8B50400D8
:102820000D0016001F002000C0B200F040F9002883
:1028300006D03A003100C9B22800C0B2FDF7EEFF61
:10284000F1BD70B504000D0016002000C0B200F00C
:102850002EF9002806D03100C9B22800C0B2FDF719
:10286000FDFF00E0FF2070BDF8B504000D0016006C
:102870001F002000C0B200F01AF9002806D03A006C
:102880003100C9B22800C0B2FEF71CF8F1BD70B526
:1028900004000D0016002000C0B200F008F9002866
:1028A00005D03100C9B22800C0B2FEF72DF870BDC6
:1028B000F8B504000D0016001F002000C0B200F0A3
:1028C000F6F8002806D03A003100C9B22800C0B29C
:1028D000FEF738F8F1BD70B504000D0016002000B9
:1028E000C0B200F0E4F8002804D031002800C0B2E3
:1028F000FEF748F870BDF8B504000D0016001F0083
:102900002000C0B200F0D3F8002806D03A00310011
:10291000C9B22800C0B2FEF757F8F1BD2DE9F04169
:1029200004000D0016001F00DDF818802000C0B262
:1029300000F0BDF8002808D043463A00D2B231007A
:10294000C9B22800C0B2FEF761F8BDE8F081F8B561
:1029500004000D0016001F002000C0B200F0A7F810
:10296000002807D03A00D2B23100C9B22800C0B264
:10297000FEF76EF8F1BD38B504000D002000C0B2BE
:1029800000F095F8002803D02800C0B2FEF780F8C8
:1029900031BD38B504000D002000C0B200F087F84A
:1029A000002803D02800C0B2FEF78DF831BD38B53D
:1029B00004000D002000C0B200F079F8002803D018
:1029C0002800C0B2FEF79AF831BD38B504000D00FA
:1029D0002000C0B200F06BF8002803D02800C0B27D
:1029E000FEF7A7F831BD38B504000D002000C0B2D5
:1029F00000F05DF8002803D02800C0B2FEF7B4F85C
:102A000031BD38B504000D002000C0B200F04FF811
:102A1000002803D02800C0B2FEF7C1F831BD38B598
:102A200004000D002000C0B200F041F8002803D0DF
:102A30002800C0B2FEF7CEF831BD38B504000D0055
:102A40002000C0B200F033F8002803D02800C0B244
:102A5000FEF7DBF831BD38B504000D002000C0B230
:102A600000F025F8002804D02800C0B2FEF7E8F8EE
:102A700000E0002032BD70B504000D0016002000FB
:102A8000C0B200F014F8002806D03100C9B2280006
:102A9000C0B2FEF7A2FA00E0FF2070BD0100C9B28B
:102AA000002902D10800C0B200E0FF2070470100F9
:102AB000C9B2002919D16948C9B20C2202FB010030
:102AC0000068674A10606548C9B20C2202FB010029
:102AD0004068634A50606148C9B20C2202FB0100A1
:102AE00000895F4A1081012000E00020704780B516
:102AF0000020FFF7D3FFC0B2FFF7D9FFFFF7A8FD13
:102B0000FFF732FE0120FFF776FE01BD00BF7047E0
:102B100000BF704780B500224C4801894B4840688F
:102B2000FEF7FFFDFEE738B504004E480500210022
:102B3000280000F0AFF831BD38B504004A48050060
:102B40002100280000F0A6F831BD38B50400474840
:102B500005002100280000F09DF831BD38B50400C3
:102B6000434805002100280000F094F831BD38B535
:102B700004004048050021002800FEF7DBFA31BDC3
:102B800038B504003C48050021002800FEF7D2FAC1
:102B900031BD38B504003948050021002800FEF792
:102BA000C9FA31BD38B504003548050021002800B8
:102BB000FEF7C0FA31BD38B50400324805002100E7
:102BC0002800FEF7B7FA31BD38B504002E480500DD
:102BD00021002800FEF7AEFA31BD38B504002B48BD
:102BE000050021002800FEF7A5FA31BD38B5040024
:102BF0002748050021002800FEF79CFA31BD10B5DA
:102C000004000020FFF74AFFE4B2844201D11548D6
:102C100018E00120FFF742FFE4B2844201D11248DC
:102C200010E00220FFF73AFFE4B2844201D10F48DE
:102C300008E00320FFF732FFE4B2844201D10C48E0
:102C400000E0002010BD00003038024034030020B6
:102C500040030020000021104C03002058030020F6
:102C60002C240020D4020020EC02002004030020C9
:102C70001C030020F4000020300100206C01002023
:102C8000A8010020E4010020200200205C020020B6
:102C90009802002038B504000D002078616988474B
:102CA0002800E1684968884715F15800216949689A
:102CB000884731BD80B542A1DFF8880200F030F8C6
:102CC000DFF88412DFF87C0200F02AF8DFF87C12CB
:102CD000DFF8700200F024F8DFF87412DFF8640205
:102CE00000F01EF8DFF86C12DFF8580200F018F858
:102CF000DFF86412DFF84C0200F012F85CA1DFF894
:102D0000440200F00DF8DFF85412DFF8380200F04A
:102D100007F8DFF84C12DFF82C0200F001F801BDD3
:102D200070B504000D00002006003000461CC0B243
:102D3000405D0028F9D1761E0A23F6B2320092B225
:102D40002900200001F066F870BD38B50400206845
:102D500040680500E08D012802D0EDB20D2D2DD187
:102D6000E08D401CE085A06A401EA0620020A16AA0
:102D7000087050A12000FFF7D3FF2068006880068C
:102D8000FBD42068C06830F020002168C86094F847
:102D90003900322803D1122084F839000EE020686F
:102DA000C06830F480702168C860206840694008BD
:102DB000400021684861012084F8390031BD0000DD
:102DC0000A0D0000F8B504000D002000C0B2FFF7A6
:102DD0006EFE00284BD037A15A48FFF7A1FF61498A
:102DE0005848FFF79DFF0021EDB2280000F064F87D
:102DF00001005448FFF794FF5B495248FFF790FFEA
:102E00000021E4B2200000F057F801004D48FFF720
:102E100087FF56494B48FFF783FF00200600F6B2B4
:102E2000192E20DA3100C9B22800C0B2FDF716FD14
:102E300007003000C0B2FEF76FF901004148FFF70C
:102E40006FFF3FA13F48FFF76BFF0321380000F001
:102E500033F801003B48FFF763FF16A13948FFF73D
:102E60005FFF761CDBE713A13648FFF759FFF1BD82
:102E7000200A0D0038B50020FFF710FE04000020E6
:102E8000FFF70CFEE4B2A04213D30020FEF73EF899
:102E900005000120FEF73AF8EDB2A84207D3290059
:102EA000C9B22000C0B2FFF78DFF6D1CF1E7641CB2
:102EB000E5E731BD0A0D000070B40200C9B2002977
:102EC00005D0022909D005D3032909D00AE0012041
:102ED000050007E00220050004E00420050001E0F1
:102EE0000820050000200300DBB2EDB2AB4220D287
:102EF00000201F4EDBB298550F206E1EF61AF6B258
:102F0000B600B04010406E1EF61AF6B2B600F040A1
:102F10000400E4B20A2C05DA14F13000144EDBB2DE
:102F2000985504E014F13700114EDBB298555B1C44
:102F3000DAE700200E4EDBB298550D4870BC7047A2
:102F40003A200000C0230020704F0008C04D000848
:102F5000F04D0008984F0008A84F0008584F00088F
:102F6000F44E0008484E0008B84F00080050000812
:102F700020240020004870475845000810B586B04E
:102F80000400E4B2002C0ED1DFF84C01006850F0D0
:102F90000100DFF844110860DFF83C01006810F020
:102FA000010000900098DFF83401E4B230F814001A
:102FB000019001200290012003900220049001A9B9
:102FC000DFF81C01E4B250F82400FEF7D7F9002224
:102FD000DFF80801E4B230F81410DFF80401E4B2BD
:102FE00050F82400FEF79DFB06B010BD10B504009C
:102FF0000122DFF8E800E4B230F81410DFF8E00056
:10300000E4B250F82400FEF78CFB10BD10B50400AC
:103010000022DFF8C800E4B230F81410DFF8C00076
:10302000E4B250F82400FEF77CFB10BD30B587B049
:1030300004000D00E4B2002C0ED1DFF89C00006803
:1030400050F00400DFF890100860DFF88C00006892
:1030500010F0040000900098EDB2002D13D1DFF8BD
:103060008400E4B230F814000190002002900220A5
:1030700003900220049001A9DFF86C00E4B250F83C
:103080002400FEF77BF9EDB2012D22D1DFF85400C8
:10309000E4B230F81400019000200390DFF84C00F7
:1030A000029001A9DFF84000E4B250F82400FEF7D6
:1030B00065F900220F21DFF83800E4B2205640B253
:1030C00000F0AAF8DFF82800E4B2205640B200F081
:1030D000C4F807B030BD0000303802404E2600086A
:1030E00098000020D63200089C000020000021102B
:1030F000B04E000810F00702DFF8A8311B68190075
:103100004FF6FF031940DFF8A03153EA02231943B9
:10311000DFF8903119607047DFF888010068C0F36C
:1031200002207047012110F01F029140DFF87C213E
:1031300040B2430942F823107047012110F01F02EA
:103140009140DFF86C2140B2430942F823107047E8
:1031500010B440B2002809D50A01DFF8583140B256
:1031600010F00F04E31803F8042C04E00A01DFF860
:10317000483140B2C25410BC704770B4030013F021
:103180000704D4F10706052E01D3042001E0D4F191
:103190000700261D072E01D2002500E0E51E0126AE
:1031A00016FA00F0401E0840A8400121A940491E1F
:1031B0001140084370BC704710B50400601EB0F1A8
:1031C000807F01D3012011E0601EDFF8F01008605D
:1031D0000F215FF0FF30FFF7BBFF0020DFF8E010AA
:1031E00008600720DFF8DC100860002010BD10B573
:1031F0000400072C0CD0062C0AD0052C08D0042C77
:1032000006D0032C04D0A421DFF8BC00FEF709FE91
:103210002000FFF76FFF10BDF8B504000D00160089
:103220000027102E04D3BC21DFF89C00FEF7F9FD27
:10323000102D04D3BD21DFF89000FEF7F2FDFFF75B
:103240006BFF0700320029003800FFF796FF0100EE
:10325000200040B2FFF77CFFF1BD10B5040064B25E
:10326000002C04D5D021DFF86000FEF7DAFD200045
:1032700040B2FFF757FF10BD10B5040064B2002C38
:1032800004D5E021DFF84000FEF7CBFD200040B27E
:10329000FFF753FF10BD10B504002000FFF78CFFAF
:1032A00010BD00000CED00E00000FA0500E100E0B8
:1032B00080E100E018ED00E000E400E014E000E050
:1032C00018E000E010E000E0844B000880B500F05A
:1032D00001F801BD7047002070B582B004000025E0
:1032E0002068102805D34FF48071DFF8C009FEF77D
:1032F00098FD2078C00769D5606800280BD0606809
:10330000012808D06068052805D040F20511DFF8D3
:103310009C09FEF786FDDFF89809006810F00C00A4
:1033200004280BD0DFF88809006810F00C0008288A
:103330000ED1DFF880090068400209D5DFF878096E
:103340000068800342D5606800283FD1012025E253
:103350000020DFF868190870FFF753F80500DFF860
:1033600058090068800308D5FFF74BF8401B41F26D
:1033700089318842F3D3032010E26068DFF83C19FA
:1033800008706068002810D0FFF73BF80500DFF8F0
:1033900028090068800319D4FFF733F8401B41F275
:1033A00089318842F3D30320F8E1FFF72AF80500BA
:1033B000DFF804090068800308D5FFF722F8401BF6
:1033C00041F289318842F3D30320E7E12078800776
:1033D0007BD5E068002808D0E068012805D04FF4CC
:1033E000A371DFF8C808FEF71CFD2069202805D36B
:1033F00040F24711DFF8B408FEF713FDDFF8B0081C
:10340000006810F00C0F0BD0DFF8A408006810F073
:103410000C0008281FD1DFF89C08006840021AD46D
:10342000DFF894080068800704D5E068012801D01F
:103430000120B3E1DFF8800800685FF0F851B1FACD
:1034400081F130F0F800226912FA01F10843DFF847
:103450006818086039E0E068002823D00120DFF810
:1034600060180860FEF7CDFF0500DFF84C08006823
:10347000800706D4FEF7C5FF401B6528F5D303205F
:103480008CE1DFF8340800685FF0F851B1FA81F19F
:1034900030F0F800226912FA01F10843DFF8181839
:1034A000086012E00020DFF818180860FEF7A9FF96
:1034B0000500DFF804080068800706D5FEF7A1FFC5
:1034C000401B6528F5D3032068E12078000734D538
:1034D0006069002808D06069012805D040F2871192
:1034E000DFF8C807FEF79DFC6069002812D00120B4
:1034F000DFF8D0170860FEF784FF0500DFF8C80783
:103500000068800719D4FEF77CFF401B6528F5D3BF
:10351000032043E10020DFF8AC170860FEF771FFDD
:103520000500DFF8A4070068800706D5FEF769FFED
:10353000401B6528F5D3032030E12078400772D581
:10354000A06800280BD0A068012808D0A068052832
:1035500005D040F2B111DFF85407FEF762FCDFF846
:103560006C07006850F08050DFF860170860DFF8E3
:103570005C07006810F0805000900098DFF850075A
:10358000006850F48070DFF848170860FEF739FFD4
:103590000500DFF83C070068C00506D4FEF731FFE0
:1035A000401B6528F5D30320F8E00020DFF824173E
:1035B0000870FEF726FF0500DFF81807006880078F
:1035C00008D5FEF71EFF401B41F289318842F3D334
:1035D0000320E3E0A068DFF8FC160870A06800286C
:1035E00010D0FEF70EFF0500DFF8E8060068800740
:1035F00019D4FEF706FF401B41F289318842F3D30C
:103600000320CBE0FEF7FDFE0500DFF8C8060068EA
:10361000800708D5FEF7F5FE401B41F2893188424C
:10362000F3D30320BAE0A06900280BD0A0690128D9
:1036300008D0A069022805D040F2F511DFF86C0629
:10364000FEF7EFFBA069002800F0A780DFF8600616
:10365000006810F00C00082800F09D80A069022886
:1036600040F08680E069002809D0E069B0F5800F5D
:1036700005D04FF4FF71DFF83406FEF7D2FB206A65
:10368000402805D340F2FF11DFF82006FEF7C9FB02
:10369000606AC02803D3606AB0F5D87F05D94FF4BB
:1036A0000071DFF80806FEF7BCFBA06A02280ED006
:1036B000A06A04280BD0A06A062808D0A06A0828AF
:1036C00005D040F20121DFF8E405FEF7AAFBE06A2D
:1036D000042802D3E06A102805D340F20221DFF863
:1036E000CC05FEF79EFB0020DFF8EC150860FEF726
:1036F00088FE0500DFF8C0050068800106D5FEF7EA
:1037000080FE401B6528F5D3032047E0DFF8CC0599
:10371000B0FA80F24FF44040B0FA80F0F021B1FAF4
:1037200081F1E369266A3343666A16FA02F21A43A4
:10373000A36A5B085B1E13FA00F01043E26A12FAF8
:1037400001F10843DFF86C1508600120DFF88815E7
:103750000860FEF756FE0500DFF85C050068800192
:103760001BD4FEF74EFE401B6528F5D3032015E061
:103770000020DFF864150860FEF743FE0500DFF85F
:1037800038050068800108D5FEF73BFE401B652820
:10379000F5D3032002E0012000E0002076BD70B5E3
:1037A00004000D0000262068002802D020681028A0
:1037B00005D34FF41871DFF8F404FEF732FB002D47
:1037C00013D0012D11D0022D0FD0032D0DD0042DBB
:1037D0000BD0052D09D0062D07D0072D05D040F2BE
:1037E0006121DFF8C804FEF71CFBDFF8F404006871
:1037F00010F00F00A84280F0C280DFF8E4040570EA
:10380000DFF8DC04006810F00F00A84201D00120AE
:10381000C5E1207880072AD5A06800281DD0A068BF
:1038200080281AD0A068902817D0A068A02814D0AB
:10383000A068B02811D0A068C0280ED0A068D028F9
:103840000BD0A068E02808D0A068F02805D040F28E
:103850007721DFF85804FEF7E4FADFF85404006833
:1038600030F0F000A1680843DFF8441408602078C5
:10387000C00740F14381606800280ED060680128CD
:103880000BD06068022808D06068032805D040F299
:103890007E21DFF81804FEF7C4FA6068012806D11B
:1038A000DFF814040068800315D4012077E1606814
:1038B000022802D06068032806D1DFF8FC03006804
:1038C000800108D401206AE1DFF8EC03006880077A
:1038D00001D4012063E1DFF8D8030068800880008C
:1038E00061680843DFF8C8130860FEF78AFD060028
:1038F0006068012810D1DFF8B803006810F00C00F0
:10390000042800F0FB80FEF77CFD801B41F289312A
:103910008842F0D3032042E16068022810D1DFF82A
:103920009003006810F00C00082800F0E780FEF714
:1039300068FD801B41F289318842F0D303202EE1DB
:10394000606803280BD1DFF868030068FEF759FDB3
:10395000801B41F289318842F5D303201FE1DFF853
:103960005003006810F00C0F00F0C880FEF749FD0E
:10397000801B41F289318842F1D303200FE1207886
:1039800080072AD5A06800281DD0A06880281AD0FA
:10399000A068902817D0A068A02814D0A068B028EC
:1039A00011D0A068C0280ED0A068D0280BD0A06885
:1039B000E02808D0A068F02805D040F2D121DFF837
:1039C000EC02FEF72EFADFF8E802006830F0F000B3
:1039D000A1680843DFF8D81208602078C00740F1DA
:1039E0008180606800280ED0606801280BD0606874
:1039F000022808D06068032805D04FF43671DFF83C
:103A0000AC02FEF70EFA6068012806D1DFF8A802C2
:103A10000068800315D40120C1E06068022802D04C
:103A20006068032806D1DFF890020068800108D49E
:103A30000120B4E0DFF880020068800701D4012093
:103A4000ADE0DFF86C020068800880006168084320
:103A5000DFF85C120860FEF7D4FC060060680128FD
:103A60000FD1DFF84C02006810F00C00042839D0A8
:103A7000FEF7C7FC801B41F289318842F1D3032055
:103A80008DE0606802280FD1DFF82402006810F092
:103A90000C00082826D0FEF7B4FC801B41F28931C7
:103AA0008842F1D303207AE0606803280BD1DFF865
:103AB00000020068FEF7A5FC801B41F289318842B4
:103AC000F5D303206BE0DFF8E801006810F00C0F7D
:103AD00008D0FEF796FC801B41F289318842F2D370
:103AE00003205CE0DFF8F8010570DFF8F4010068FE
:103AF00010F00F00A84201D0012050E020784007CC
:103B000022D5E068002815D0E068B0F5805F11D0BC
:103B1000E068B0F5A05F0DD0E068B0F5C05F09D0F7
:103B2000E068B0F5E05F05D040F23231DFF87C01AB
:103B3000FEF777F9DFF87801006830F4E050E168CB
:103B40000843DFF86C1108602078000723D520694E
:103B5000002815D02069B0F5805F11D02069B0F53C
:103B6000A05F0DD02069B0F5C05F09D02069B0F525
:103B7000E05F05D040F23931DFF83001FEF751F94E
:103B8000DFF82C01006830F46040216950EAC10080
:103B9000DFF81C1108600020FEF71BFC002070BD40
:103BA00070B40021002200230020414C246814F04E
:103BB0000C04002C04D0042C05D0082C06D03DE0C9
:103BC000484C20003CE0484C200039E0394C246847
:103BD00014F03F042100374C246864020FD5354CA3
:103BE0002468414DB5FBF1F547F6C07634403B4EB5
:103BF000B6FA86F6F44004FB05F422000EE02D4CE4
:103C00002468384DB5FBF1F547F6C0763440334EA5
:103C1000B6FA86F6F44004FB05F42200254C24682D
:103C200014F440344FF44045B5FA85F5EC40641C7B
:103C300064002300B2FBF3F4200001E0294C2000D3
:103C400070BC704780B5FFF7ABFF194909685FF09A
:103C50007062B2FA82F2254B11F0F001D140C95CDA
:103C6000C840234908602248006802BD80B5FFF7BC
:103C7000E9FF0F4909685FF46012B2FA82F21B4B48
:103C800011F4E051D140C95CC84002BD80B5FFF7D6
:103C9000D9FF074909685FF4E022B2FA82F2134BB8
:103CA00011F46041D140C95CC84002BD384C0008E5
:103CB000083802400438024000380240023802400E
:103CC00000004742800E47427438024040380240AC
:103CD0000070004070380240600047420000FE0360
:103CE000003C02400024F40000127A00C84F000893
:103CF000A000002010B50400002C01D1012088E0B4
:103D0000A069002828D02068DFF8641388420ED00C
:103D10002068DFF86013884209D02068DFF8581364
:103D2000884204D0FC21DFF85403FEF77AF8A0693A
:103D3000002826D0A069B0F5807F22D0A069B0F518
:103D4000007F1ED0A069B0F5407F1AD0FD21DFF8BA
:103D50002C03FEF766F814E02068DFF8141388429D
:103D60000FD02068DFF80C1388420AD02068DFF8F3
:103D70000813884205D040F20111DFF80003FEF776
:103D800050F8A068002809D0A068B0F5805F05D081
:103D900040F20311DFF8E402FEF743F8E06900287F
:103DA00009D0E069B0F5004F05D04FF48271DFF81B
:103DB000CC02FEF736F894F83900002805D100202F
:103DC00084F838002000FEF79FFA022084F83900BA
:103DD0002068C06830F400502168C860200000F0FE
:103DE00083FA2068006930F49040216808612068F7
:103DF000406930F02A00216848612068C06850F4AA
:103E000000502168C8600020E063012084F8390078
:103E1000002010BD2DE9F84304000D0016001F001E
:103E20005FF0000994F839008146B9F1010F02D022
:103E3000B9F1220F69D1002D02D0B6B2002E01D106
:103E4000012063E094F83800012801D102205DE0F0
:103E5000012084F838000020E06394F8390022281B
:103E600003D1322084F8390002E0122084F83900AE
:103E7000A684E684E08C00282DD0E08C401EE084EF
:103E8000A068B0F5805F17D13B00002280212000A0
:103E900000F0F6F8002801D0032037E0A846B8F873
:103EA0000000C005C00D216848602069002801D1CC
:103EB000AD1CDFE76D1CDDE73B0000228021200008
:103EC00000F0DEF8002801D003201FE028782168E8
:103ED00048606D1CCEE73B0000224021200000F02E
:103EE000CFF8002801D0032010E094F839003228E0
:103EF00003D1222084F8390002E0012084F839003F
:103F0000002084F83800002000E00220BDE8F283A1
:103F100070B582B00400002500262068006810F00B
:103F2000010005002068C06810F480700600002DB4
:103F30000CD0002E0AD020680068009020684068ED
:103F400000900098E06B50F00100E063206800688A
:103F5000400810F0010005002068406910F00100E1
:103F60000600002D0CD0002E0AD0206800680090BA
:103F70002068406800900098E06B50F00400E06317
:103F800020680068800810F0010005002068406982
:103F900010F001000600002D0CD0002E0AD0206881
:103FA000006800902068406800900098E06B50F036
:103FB0000200E06320680068C00810F001000500FE
:103FC0002068406910F001000600002D0CD0002E82
:103FD0000AD020680068009020684068009000982F
:103FE000E06B50F00800E06320680068400910F0C2
:103FF000010005002068C06810F020000600002DB8
:1040000004D0002E02D0200000F00CF920680068D7
:10401000C00910F0010005002068C06810F08000A1
:104020000600002D04D0002E02D0200000F099F8E8
:1040300020680068800910F0010005002068C06851
:1040400010F040000600002D04D0002E02D0200009
:1040500000F0C4F8E06B002805D0012084F8390096
:10406000200000F003F873BD7047704770470000F0
:10407000001001400044004000140140E84C0008DA
:104080002DE9F04104000D0016001F005FF000084C
:10409000FEF7B7F98046F6B2002E2FD120680068EF
:1040A0002840A8425AD017F1010FF7D0002F05D0B1
:1040B000FEF7A7F9B0EB08008742EFD22068C0688E
:1040C00030F080002168C8602068C06830F02000AF
:1040D0002168C8602068C06830F480702168C860BA
:1040E000206840694008400021684861012084F848
:1040F0003900002084F83800032030E02068006890
:104100002840A8422AD117F1010FF7D0002F05D07F
:10411000FEF777F9B0EB08008742EFD22068C0685D
:1041200030F080002168C8602068C06830F020004E
:104130002168C8602068C06830F480702168C86059
:10414000206840694008400021684861012084F8E7
:104150003900002084F83800032000E00020BDE88A
:10416000F08110B40100002391F839000300122BF4
:1041700001D0322B2FD18868B0F5805F11D1086A49
:1041800002001088C005C00D0C6860600869002836
:1041900003D1086A801C086209E0086A401C0862B2
:1041A00005E0086A441C0C6200780C686060C88CEA
:1041B000401EC884C88C00280BD10868C06830F045
:1041C00080000C68E0600868C06850F040000C682F
:1041D000E060002000E0022010BC704710B5040031
:1041E0002068C06830F040002168C86094F8390049
:1041F000322803D1222084F839000EE02068C068FC
:1042000030F480702168C860206840694008400030
:1042100021684861012084F839002000FFF724FF5D
:10422000002010BD70B50400002694F83900060087
:10423000222E01D0322E55D1A068B0F5805F15D165
:10424000A06A05002069002808D120684068C005E0
:10425000C00D2880A06A801CA06219E02068406818
:10426000C0B22880A06A401CA06211E0206900282A
:1042700006D1A06A411CA16221684968017007E06B
:10428000A06A411CA1622168496811F07F01017098
:10429000E08D401EE085E08D002821D12068C068B7
:1042A00030F020002168C86094F83900322803D12A
:1042B000122084F839000EE02068C06830F4807065
:1042C0002168C86020684069400840002168486152
:1042D000012084F839002000FFF7C7FE002002E02B
:1042E000002000E0022070BDF8B5040000256068E1
:1042F0009549884204D340F236719248FDF791FD0A
:10430000E068002808D0E068B0F5005F04D040F213
:1043100037718C48FDF785FD206900280CD0206995
:10432000B0F5806F08D02069B0F5C06F04D04FF4AD
:10433000E7618448FDF775FD60694FF6F371084247
:1043400002D16069002804D140F239717D48FDF73F
:1043500068FD20680069050035F44055E0680543B4
:10436000206805612068C068050078480540A0689D
:104370002169084361690843E169084305432068EE
:10438000C56020684069050035F44075A0690543A3
:1043900020684561E069B0F5004F69D120686C493B
:1043A000884203D020686B49884230D1FFF76EFC09
:1043B0000700FFF76BFC0600FFF768FC192101FB03
:1043C00007F162685200B1FBF2F16422B1FBF2F135
:1043D000192202FB06F263685B00B2FBF3F21923B9
:1043E000584363685B00B0FBF3F06423B0FBF3F069
:1043F000642303FB1020000132306422B0FBF2F092
:1044000010F00F0050EA01102168886099E0FFF772
:104410002DFC0700FFF72AFC0600FFF727FC1921F7
:1044200001FB07F162685200B1FBF2F16422B1FBBB
:10443000F2F1192202FB06F263685B00B2FBF3F2B1
:104440001923584363685B00B0FBF3F06423B0FBAF
:10445000F3F0642303FB1020000132306422B0FB30
:10446000F2F010F00F0050EA01102168886068E057
:1044700020683749884203D020683649884230D1C5
:10448000FFF704FC0700FFF701FC0600FFF7FEFB47
:10449000192101FB07F162689200B1FBF2F164227D
:1044A000B1FBF2F1192202FB06F263689B00B2FB3A
:1044B000F3F21923584363689B00B0FBF3F06423C5
:1044C000B0FBF3F0642303FB1020000132306422C0
:1044D000B0FBF2F010F00F0050EA01102168886084
:1044E0002FE0FFF7C3FB0700FFF7C0FB0600FFF755
:1044F000BDFB192101FB07F162689200B1FBF2F1EB
:104500006422B1FBF2F1192202FB06F263689B0000
:10451000B2FBF3F21923584363689B00B0FBF3F03E
:104520006423B0FBF3F0642303FB1020000132305E
:104530006422B0FBF2F010F00F0050EA0110216885
:104540008860F1BDE84C0008A137A000F369FFFFC7
:104550000010014000140140000010410000C84359
:104560009A99D93F0AD74340000096430000FA4386
:104570000000FA430000C84300000000CDAC164420
:104580000AD743400AD743400AD743400AD743409B
:104590007B147642689ACD393598283A3598283A6E
:1045A000000000000060524500403F4507FF882E94
:1045B000000010410000C8439A99D93F0AD74340F0
:1045C000000096430000FA430000FA430000C8438D
:1045D00000000000CDAC16440AD743400AD7434040
:1045E0000AD743400AD743407B147642689ACD39B4
:1045F0003598283A3598283A000000000060524566
:1046000000403F4507FF882E000010410000C843CE
:104610009A99D93F0AD74340000096430000FA43D5
:104620000000FA430000C84300000000CDAC16446F
:104630000AD743400AD743400AD743400AD74340EA
:104640007B147642689ACD393598283A3598283ABD
:10465000000000000060524500403F4507FF882EE3
:10466000000010410000C8439A99D93F0AD743403F
:10467000000096430000FA430000FA430000C843DC
:1046800000000000CDAC16440AD743400AD743408F
:104690000AD743400AD743407B147642689ACD3903
:1046A0003598283A3598283A0000000000605245B5
:1046B00000403F4507FF882E000010410000C8431E
:1046C0009A99D93F0AD74340000096430000FA4325
:1046D0000000FA430000C84300000000CDAC1644BF
:1046E0000AD743400AD743400AD743400AD743403A
:1046F0007B147642689ACD393598283A3598283A0D
:10470000000000000060524500403F4507FF882E32
:10471000000010410000C8439A99D93F0AD743408E
:10472000000096430000FA430000FA430000C8432B
:1047300000000000CDAC16440AD743400AD74340DE
:104740000AD743400AD743407B147642689ACD3952
:104750003598283A3598283A000000000060524504
:1047600000403F4507FF882E000010410000C8436D
:104770009A99D93F0AD74340000096430000FA4374
:104780000000FA430000C84300000000CDAC16440E
:104790000AD743400AD743400AD743400AD7434089
:1047A0007B147642689ACD393598283A3598283A5C
:1047B000000000000060524500403F4507FF882E82
:1047C000000010410000C8439A99D93F0AD74340DE
:1047D000000096430000FA430000FA430000C8437B
:1047E00000000000CDAC16440AD743400AD743402E
:1047F0000AD743400AD743407B147642689ACD39A2
:104800003598283A3598283A000000000060524553
:1048100000403F4507FF882E014142535F504F53F0
:1048200000000000001603000000000002454C5F7D
:10483000504F53000000000000090200000000007B
:10484000034D41524B000000000000000016030021
:1048500000000000045350454544000000000000E3
:104860000014030000000000054143430000000065
:1048700000000000000C02008A00000006444543CE
:104880000000000000000000000C02008A00000090
:10489000074D41585F53504545440000000A02004F
:1048A00041000000084D494E5F535045454400000B
:1048B000000D0200000000001546535F53504400F5
:1048C00000000000000A020027000000094B5641CA
:1048D0004C5F484F4C4400000008010029000000D4
:1048E0000A4B56414C5F52554E0000000008010033
:1048F000290000000B4B56414C5F41434300000030
:1049000000080100290000000C4B56414C5F444553
:104910004300000000080100290000000D494E542A
:104920005F53504545440000000E0200080400009B
:104930000E53545F534C500000000000000801006B
:10494000190000000F464E5F534C505F4143430037
:10495000000801002900000010464E5F534C505FD4
:10496000444543000008010029000000114B5F543A
:104970004845524D00000000000401000000000006
:10498000124144435F4F55540000000000050100F0
:1049900000000000134F43445F5448000000000033
:1049A0000004010008000000145354414C4C5F54B3
:1049B0004800000000070100400000001653544565
:1049C000505F4D4F44450000000801000700000003
:1049D00017414C41524D5F454E0000000008010058
:1049E000FF00000018434F4E4649470000000000FA
:1049F00000100200882E00001953544154555300F2
:104A00000000000000100200000000004E4F5000A7
:104A100000000000000000000000534554504152C7
:104A2000414D000000000002474554504152414DA5
:104A300000000000200152554E0000000000000060
:104A40000000500253544550434C4F434B0000006C
:104A500058014D4F56450000000000000000400284
:104A6000474F544F00000000000000006001474F16
:104A7000544F5F444952000000006802474F554EB2
:104A800054494C0000000000820352454C454153FC
:104A90004553570000009202474F484F4D450000D4
:104AA000000000007000474F4D41524B00000000D5
:104AB000000078005245534554504F530000000009
:104AC000D800524553455444455649434500C0001B
:104AD000534F465453544F5000000000B00048411B
:104AE000524453544F5000000000B800534F4654F6
:104AF00048495A0000000000A0004841524448497B
:104B00005A0000000000A800474554535441545532
:104B100053000000D00000001248006850F47000FC
:104B2000104908601048006850F001000E49086004
:104B300000200E4908600C4800680D4908400A49E9
:104B400008600C480C4908600748006830F4802071
:104B5000054908600020094908605FF000600849C5
:104B60000860704788ED00E00038024008380240D5
:104B7000FFFFF6FE10300024043802400C380240DB
:104B800008ED00E0433A5C53544D3332437562659F
:104B9000457870616E73696F6E5F53504E325F5629
:104BA000312E312E305C447269766572735C5354D9
:104BB0004D3332463478785F48414C5F44726976B1
:104BC00065725C5372635C73746D333266347878EB
:104BD0005F68616C5F636F727465782E63000000BC
:104BE000433A5C53544D3332437562654578706186
:104BF0006E73696F6E5F53504E325F56312E312E99
:104C0000305C447269766572735C53544D3332463E
:104C10003478785F48414C5F4472697665725C53C2
:104C200072635C73746D3332663478785F68616C7C
:104C30005F6770696F2E6300433A5C53544D3332A3
:104C400043756265457870616E73696F6E5F53502E
:104C50004E325F56312E312E305C44726976657269
:104C6000735C53544D3332463478785F48414C5F1F
:104C70004472697665725C5372635C73746D33322F
:104C8000663478785F68616C5F7263632E630000DE
:104C9000433A5C53544D33324375626545787061D5
:104CA0006E73696F6E5F53504E325F56312E312EE8
:104CB000305C447269766572735C53544D3332468E
:104CC0003478785F48414C5F4472697665725C5312
:104CD00072635C73746D3332663478785F68616CCC
:104CE0005F7370692E630000433A5C53544D333256
:104CF00043756265457870616E73696F6E5F53507E
:104D00004E325F56312E312E305C447269766572B8
:104D1000735C53544D3332463478785F48414C5F6E
:104D20004472697665725C5372635C73746D33327E
:104D3000663478785F68616C5F756172742E6300A9
:104D400080B5FDF758FBFEF7C1FA01BD80B5022022
:104D5000FCF708FD01BD80B50120FCF703FD01BD96
:104D600080B50348FFF7D4F80148FDF7EEFF01BD19
:104D7000C023002080B54FF40050FCF7F3FC01BDC8
:104D800019E050F8041BCB0744BFA9F101035918DF
:104D9000121F0023042A41F8043BF9D25FEA827C07
:104DA0000B4604D54FF0000CA1F800C09B1CD107A6
:104DB00044BF0021197050F8042B002AE1D170473C
:104DC000202D2D2D2D2D2D2D2D2D2D2D2D2D2D2D20
:104DD0002D2D2D2D2D2D2D2D2D2D2D2D2D2D2D2D03
:104DE0002D2D2D2D2D2D2D2D2D2D2D2D0A0D000090
:104DF000204475616C204C36343730204578706122
:104E00006E73696F6E20426F61726420666F7220EC
:104E100053544D3332204E55434C454F0A0D00003C
:104E200010B5074979441831064C7C44163404E027
:104E30000A68081D511888470146A142F8D110BDE3
:104E4000500000006C00000056616C756573206FA7
:104E50006620746865207265676973746572732073
:104E60006F66204C363437305F2300004EF6885191
:104E7000CEF20001086840F470000860BFF34F8F65
:104E8000BFF36F8F4FF00070E1EE100A7047000023
:104E9000F1FEFFFFEC00000068230020000000008E
:104EA000F3D2FFFF54020000940200000000002033
:104EB00028000000496E697469616C2076616C7528
:104EC000657320666F7220726567697374657273AB
:104ED0003A0A0D00437573746F6D2076616C7565C9
:104EE0007320666F72207265676973746572733AB6
:104EF0000A0D00002053544D6963726F656C656341
:104F000074726F6E6963732C20323031350A0D0A6A
:104F10000D00000000F00BF8002801D0FFF780FF23
:104F20000020C046C046FCF772FF00F002F80120E6
:104F3000704700F001B800000746384600F002F85C
:104F4000FBE7000080B5C046C046024A11001820A9
:104F5000ABBEFBE72600020020582D435542452DED
:104F600053504E322076312E302E300A0D00000084
:104F700020582D4E55434C454F2D49484D30324118
:104F8000310A0D005245560000000000004657440B
:104F9000000000000001000020537461636B656431
:104FA000206F6E20000000004E55434C454F2D46AB
:104FB0003430315245000000206F66204578704241
:104FC00072645F230000000000000000010203047F
:104FD0000102030406070809014880470148004709
:104FE000194B0008F54F0008525354000043505924
:104FF00000010000C046C046FFF738FFFFF78AFFF8
:105000000A0D0A0D00000000FFF7FEBFFFF7FEBF0C
:10501000FFF7FEBFFFF7FEBFFFF7FEBFFFF7FEBFC4
:10502000FFF7FEBFFFF7FEBFFFF7FEBFFFF7FEBFB4
:10503000FFF7FEBFFFF7FEBFFFF7FEBFFFF7FEBFA4
:10504000FFF7FEBFFFF7FEBFFFF7FEBFFFF7FEBF94
:10505000FFF7FEBFFFF7FEBFFFF7FEBFFFF7FEBF84
:10506000FFF7FEBFFFF7FEBFFFF7FEBFFFF7FEBF74
:10507000FFF7FEBFFFF7FEBFFFF7FEBFFFF7FEBF64
:10508000FFF7FEBFFFF7FEBFFFF7FEBFFFF7FEBF54
:10509000FFF7FEBFFFF7FEBFFFF7FEBFFFF7FEBF44
:1050A000FFF7FEBFFFF7FEBFFFF7FEBFFFF7FEBF34
:1050B000FFF7FEBFFFF7FEBFFFF7FEBFFFF7FEBF24
:1050C000FFF7FEBFFFF7FEBFFFF7FEBFFFF7FEBF14
:1050D000FFF7FEBFFFF7FEBFFFF7FEBFFFF7FEBF04
:1050E000FFF7FEBFFFF7FEBFFFF7FEBFFFF7FEBFF4
:1050F000FFF7FEBFFFF7FEBF10031D0800085D04A9
:1051000012C504100309090008450412850412C9D8
:105110000410030D0A0008510412910412C704126E
:10512000FD041003330B00086904129F0412D50418
:1051300010030B0C0008410412910412B30412D79F
:105140000412F9041003210D00084304126504122F
:10515000870412AD0412D50412F3041003110E00DB
:10516000082F04124D04126B0412890412A70412B2
:10517000C904100CDB0F0008482400200000024086
:10518000000804100324F4001D284C1104126904C3
:10519000128F0412B10412D70412F70410031D2950
:1051A00000084F0412770412930412AF0412CB04C8
:1051B00012E7041003032A00081F04123B041257CD
:1051C0000412770412E764120001336F2B08F31EF8
:1051D000200001120131F226813C2101F22A93784C
:1051E000F22AA578F22AB778F22AC978F22ADB786F
:1051F000F22AED7812273C12A43C12F40414033076
:10520000010020AFFC2154523918126C1452A81816
:10521000120218524B1812E41443200218120318F9
:10522000525D18125C148398023020020004024080
:105230009922040C19A892010C2120211029C412D2
:02524000100854
:0400000508004FF5AB
:00000001FF
