:020000040800F2
:1000000000800120C5390008D1380008D338000825
:10001000D5380008D7380008D9380008000000009B
:10002000000000000000000000000000DB380008B5
:10003000DD38000800000000DF380008E138000863
:10004000153A0008153A0008153A0008153A000854
:10005000153A0008153A0008153A0008153A000844
:10006000153A0008153A0008E5380008ED38000890
:10007000153A0008153A0008153A0008153A000824
:10008000153A0008153A0008153A0008153A000814
:10009000153A0008153A0008153A0008F938000822
:1000A000153A0008153A0008153A0008153A0008F4
:1000B000153A0008153A0008153A0008153A0008E4
:1000C000153A0008153A0008153A0008153A0008D4
:1000D000153A0008153A0008153A0008153A0008C4
:1000E00019390008153A0008153A0008153A0008B1
:1000F000153A0008153A0008153A0008153A0008A4
:10010000153A0008153A0008153A0008153A000893
:10011000153A0008153A0008153A0008153A000883
:10012000153A0008153A0008153A0008153A000873
:10013000153A0008153A0008153A0008153A000863
:10014000153A0008153A0008153A0008153A000853
:10015000153A0008153A0008153A0008153A000843
:10016000153A0008153A0008153A0008153A000833
:10017000153A0008153A00080000000000000000D1
:08018000153A0008153A0008C9
:1001900010B5054C237833B9044B13B10448AFF3C1
:1001A00000800123237010BD6800002000000000C3
:1001B000B842000808B5034B1BB103490348AFF32D
:1001C000008008BD000000006C000020B84200085C
:1001D000034613F8012B002AFBD1181A0138704787
:1001E00001F0FF01102A2BDB10F0070F08D010F8E8
:1001F000013B013A8B422DD010F0070F42B3F6D1EC
:10020000F0B441EA012141EA014122F007047FF004
:1002100000070023F0E80256083C85EA010586EA5B
:10022000010685FA47F5A3FA87F586FA47F6A5FA97
:1002300087F68EB9EED1F0BC01F0FF0102F00702A3
:1002400032B110F8013B013A83EA010313B1F8D14E
:100250000020704701387047002D06BF354603382F
:10026000073815F0010F07D1013015F4807F02BF68
:10027000013015F4C03F0130F0BC0138704700BFB9
:1002800053B94AB9002908BF00281CBF4FF0FF31FD
:100290004FF0FF3000F07AB9ADF1080C6DE904CEF3
:1002A00000F006F8DDF804E0DDE9022304B0704751
:1002B0002DE9F0478C460D460446089E002B51D18F
:1002C0008A4217466DD9B2FA82FEBEF1000F0BD0FA
:1002D000CEF1200C01FA0EF520FA0CFC02FA0EF712
:1002E0004CEA050C00FA0EF44FEA174A250CBCFB49
:1002F000FAF81FFA87F90AFB18CC45EA0C4508FB07
:1003000009F3AB420AD9ED1908F1FF3280F02381DD
:10031000AB4240F22081A8F102083D44ED1AA4B29C
:10032000B5FBFAF00AFB105544EA054400FB09F955
:10033000A14509D9E41900F1FF3380F00A81A145F4
:1003400040F2078102383C44A4EB090440EA08402B
:100350000021002E61D024FA0EF400233460736073
:10036000BDE8F0878B4207D9002E54D0002186E8E3
:1003700021000846BDE8F087B3FA83F1002940F078
:100380008E80AB4202D3824200F2FA80841A65EB7F
:1003900003050120AC46002E3FD086E81010BDE8D2
:1003A000F08712B90127B7FBF2F7B7FA87FEBEF163
:1003B000000F34D1EB1B3A0C1FFA87FC0121B3FB71
:1003C000F2F8250C02FB183345EA03450CFB08F351
:1003D000AB4207D9ED1908F1FF3002D2AB4200F26F
:1003E000D1808046ED1AA3B2B5FBF2F002FB1055A6
:1003F00043EA05440CFB00FCA44507D9E41900F1CD
:10040000FF3302D2A44500F2B8801846A4EB0C04D6
:1004100040EA08409DE731463046BDE8F087CEF11E
:10042000200405FA0EF307FA0EF720FA04F83A0C46
:1004300025FA04F448EA0308B4FBF2F14FEA184540
:1004400002FB11441FFA87FC45EA044501FB0CF34B
:10045000AB4200FA0EF409D9ED1901F1FF3080F03A
:100460008A80AB4240F2878002393D44EB1A1FFA82
:1004700088F5B3FBF2F002FB103345EA034500FBBD
:100480000CF3AB4207D9ED1900F1FF386FD2AB4244
:100490006DD902383D44EB1A40EA01418FE7C1F1C2
:1004A000200722FA07F88B4005FA01F448EA030313
:1004B00020FA07FE4FEA134CFD404EEA040EB5FB4E
:1004C000FCF94FEA1E440CFB19551FFA83F844EA65
:1004D000054509FB08F4AC4202FA01F200FA01FA00
:1004E00008D9ED1809F1FF3043D2AC4241D9A9F146
:1004F00002091D442D1B1FFA8EFEB5FBFCF00CFB00
:1005000010554EEA054400FB08F8A04507D9E41849
:1005100000F1FF3529D2A04527D902381C4440EA12
:100520000940A4EB0804A0FB02894C45C6464D4691
:1005300015D312D056B1BAEB0E0364EB050404FADE
:1005400007F7CB401F43CC40376074600021BDE803
:10055000F0871846F8E69046E0E6C245EAD2B8EBE6
:10056000020E69EB03050138E4E72846D7E7404669
:1005700091E78146BEE7014678E702383C4445E70B
:10058000084608E7A8F102083D442BE7704700BF82
:1005900038B50A4B054618684FF47A73B0FBF3F090
:1005A00000F064FD044638B9024629464FF0FF309A
:1005B00000F01CFD204638BD012038BD00000020A1
:1005C00010B5032000F000FD0020FFF7E1FF044616
:1005D00018B902F085FF204610BD0124FBE700009A
:1005E000024A136801331360704700BFB80000204F
:1005F000014B1868704700BFB800002038B50446AA
:10060000FFF7F6FF631C054618BF0134FFF7F0FF44
:10061000401B8442FAD838BD30B5CC0D04F0040438
:100620001430C1F30451072303FA01F5235802FAE9
:1006300001F123EA05031943215030BD806800F021
:10064000010070478068C0F38000704737B5002311
:1006500001930446002800F08580456D25B902F01D
:1006600057FFA56584F85050206883689B007BD4B1
:100670008368DD007FD58368D90040F18A8000213E
:10068000FFF7E0FF636D13F0100F636D67D1002873
:1006900065D123F4817343F0020363652068FFF79B
:1006A000CDFF98B95248FFF7C9FF03465148FFF7FD
:1006B000C5FF03435048FFF7C1FF034306D14F4A2C
:1006C0006068936823F47C1303439360E068636B72
:1006D00094F820200343A0680343607E012A43EA84
:1006E000403343EA024302BF626A02F1FF3243EA47
:1006F0004243A26A22B1E06A02F4707202431343D9
:1007000020683F4AC5682A401343C360FFF79AFF39
:1007100023689A68120746D52269012A05BF186B1B
:10072000E2691A6B02F1FF3206BF20F00F000243AC
:1007300022F00F021A63636D23F0030343F00103F9
:100740006365084603B030BD019B013B0193019BEB
:10075000002BF9D18FE71A6922F0010245E043F03E
:10076000100363650121ECE7836823F0204323F045
:100770003F0383607CE78368224A23F0104323F021
:100780003F0343F0805383601F4B1B68B3FBF2F3BE
:10079000DCE7636D43F010036365A36D43F0010371
:1007A000A36501216CE70028B6D1D86894F8302001
:1007B000257E520020F4804042EA853220F002007B
:1007C0000243DA6094F83820012AC4D1256CE26B28
:1007D00018692A43656C42F001022A43A56C20F493
:1007E000FF602A4320F0040002431A6194E700BF2F
:1007F00000000450000104500002045000030450A3
:1008000007C0F0FF400D0300000000207047704754
:1008100008B5806AFFF7FBFF08BD7047836A5A6D11
:1008200012F0500F10B55A6D21D142F400725A6582
:100830001A681168080707D5D16811F4406F12D102
:10084000D26812F4005F02E0D26812F0020F0AD1FF
:100850005A6D22F480725A655A6DD1045EBF5A6D8A
:1008600042F001025A651846FFF7D0FF10BDD206CC
:1008700003D51846FFF7D1FF10BDDB6CBDE8104073
:100880005B6B1847806A08B5436D43F040034365CE
:10089000836D43F004038365FFF7BFFF08BD0000CD
:1008A000F7B50023019390F85030012B05460C4614
:1008B00000F08781012380F850300068FFF7C2FE06
:1008C000002840F078814B68052B08D8023B032BA9
:1008D00065D8DFE803F0025D5F610C236360616847
:1008E00028688E0900F1300706F00C0601F01F01A0
:1008F0001F2303FA01F2F35923EA02032268C2F329
:1009000084628A401343F351FFF79CFE2B689A6878
:10091000110740F158812868FFF790FE002840F049
:10092000D780E66828682368C34AD0F8B01006F07C
:10093000180EC3F3120722FA0EF21A4021EA070139
:100940000A43C0F8B020BD4A964240F0C180002F53
:1009500040F093809E0E013606F01F02092A4FF0E8
:1009600001014FEA866640F2A28006F0F846914007
:1009700041EA0602002F40F0CB809B0E013303F0CA
:100980001F0303EB43011E39090541F000719BE091
:100990001223A3E71823A1E74FF480739EE70623F1
:1009A0009CE7DEF86010C3F31200C1F384670EF118
:1009B000640600283AD1C3F38460874240F028815E
:1009C00021F00041CEF860102368DEF86410C3F314
:1009D0001207C1F384609FBBC3F38463834240F07A
:1009E0001C8121F00041316023689168C3F3120734
:1009F00002F10806C1F3846077BBC3F384638342CA
:100A000040F0128121F000413160236802F10C00B6
:100A1000D268C3F31206C2F384614EBBC3F384638E
:100A20008B4204BF22F00042026074E793FAA3F005
:100A3000B0FA80F08742C3D0DEF86410C1F384605E
:100A400093FAA3F3B3FA83F38342CAD0916823687D
:100A500002F10806C1F3846093FAA3F3B3FA83F3B7
:100A60008342CFD002F10C00D2682368C2F38461C4
:100A700093FAA3F3B3FA83F3D2E793FAA3F2B2FAA9
:100A800082F2013202F01F02092A30D893FAA3F64B
:100A9000B6FA86F60136B60606F0F84693FAA3F1E2
:100AA000B1FA81F1013101F01F02012101E006F0EC
:100AB000F846914041EA0602A7B9990E013101F0CA
:100AC0001F0101EB410109051143A268FFF7A4FDD5
:100AD00022685B4B1A4220D10020002385F8503059
:100AE00003B0F0BD93FAA3F1B1FA81F1E6E793FA0E
:100AF000A3F2B2FA82F20132920602F0F84693FAB9
:100B0000A3F1B1FA81F1013101F01F0201212EE7B9
:100B100093FAA3F3B3FA83F330E74A494A4B886860
:100B20009A4200F0E0760C461ED10202D4D42B6823
:100B3000464A934203D002F500729342CCD1A36897
:100B4000434A23F0E073334343F40003A360414B73
:100B50001B68B3FBF2F20C2353430193019B002B60
:100B6000BAD0019B013BF8E73B4B9A4211D1C3013C
:100B7000B2D42B68354A934203D002F500729342F7
:100B8000AAD1A36823F0E073334343F08073A360DA
:100B9000A2E7324B9A429FD110F480009CD12A6880
:100BA0002A4B9A4298D18B6823F0E073334343F485
:100BB00080038B6091E76A6D42F020026A651846F7
:100BC0008BE702208CE700287FF4A5AEA26821689D
:100BD0001846FFF721FD2669D5F800E02368DEF806
:100BE0000C10042E0EF160023FF4DBAEC1F3C10124
:100BF0004800616903F0F843814043F00043194322
:100C000052F82600164B0340194342F8261082E69C
:100C1000DEF86410C1F38460DEE69168236802F1B7
:100C20000806C1F38460E8E602F10C00D26823688C
:100C3000C2F38461F2E600BFFFFF070000007F40BF
:100C40000000088000030450000052C70000045058
:100C5000400D030000000020000084CB0100008054
:100C600000F0FF0370B504460068FFF7E7FC08B129
:100C7000002070BD2268154B9168194209D0636D40
:100C800043F010036365A36D43F00103A3650120E6
:100C900070BD93680E4D2B4043F001039360FFF746
:100CA000A7FC064620680368DB07E1D4FFF7C6FC13
:100CB00028B9226893682B4043F001039360FFF743
:100CC00097FC801B0228EDD9D9E700BF3F000080C8
:100CD000C0FFFF7F394B2DE9F041044600689B6857
:100CE0000E461746FFF7AEFC00285FD194F850205F
:100CF000012A5BD003F01F08B8F1090F4FF0010380
:100D000084F850309EBF40F2212323FA08F3DB43DE
:100D100013F0010544D12046FFF7A4FF00283BD182
:100D2000636D216823F4706323F0010343F480733F
:100D30006365234B99423CD0636D23F48013636554
:100D4000636DE06C13F480531CBFA36D23F00603A6
:100D5000A3651C4BC3621C4B03631C4B43631C23E6
:100D60000B60002384F850304B6843F010034B6055
:100D7000CB6843F00103CB6032463B46403100F084
:100D80008DFA2268936823F0004323F03F0343F079
:100D900004039360BDE8F08184F85050BDE8F08111
:100DA000002384F850300120BDE8F0810220BDE826
:100DB000F081B8F1000FBFD0C2E700BF00030450BC
:100DC000000104501D0800081108000885080008EB
:100DD00038B504460068836803F00203FFF72EFC71
:100DE00008B9002038BD002BFBD12268936803F0BE
:100DF0000D03012B15D1936823F0004323F03F032B
:100E000043F00203936003231360FFF7F1FB0546F1
:100E100023689B68DB07E4D5FFF7EAFB401B022849
:100E2000F6D9636D43F010036365A36D43F00103CE
:100E3000A365012038BD806800F00100704780681C
:100E4000C0F380007047000037B50023019390F88D
:100E50005030012B04460D4634D0012380F8503029
:100E6000FFF7B6FF636D30BB23F4885323F0020312
:100E700043F002036365236816499A6822F08042B2
:100E80002A439A609A6842F000429A609A68002A5F
:100E90001ADA019A01320192019A8A42F6D9636DF7
:100EA00023F0120343F010036365002384F85030ED
:100EB000012003B030BD43F010036365002384F8C4
:100EC0005030F6E70220F4E7636D23F0030343F0AC
:100ED0000103F2E7FF87040030B590F85030012B92
:100EE0009BB0024666D0012380F85030324B006838
:100EF00098420CBF03F5807300230193019840B919
:100F0000536D82F8500043F02003536501201BB05D
:100F100030BDFFF794FF03461068FFF790FF0028ED
:100F200042D1002B40D10B68244C33B3A3684868EE
:100F300023F46043034392F8300043EA4033A36054
:100F40001D48FFF778FF03461D48FFF774FF034372
:100F50001C48FFF770FF184304D00020002382F8DC
:100F60005030D4E70B68A56889680B4325F471619C
:100F700021F00F010B43A360F0E7A3680E4823F4B0
:100F80006043A360FFF757FF03460D48FFF753FF89
:100F900003430C48FFF74FFF1843DED1A36823F447
:100FA000716323F00F03E6E7536D43F020035365AD
:100FB0000120D3E70220AAE70000045000030450F8
:100FC0000001045000020450074AD36823F4E06390
:100FD0001B041B0C43F0BF63000243F4003300F416
:100FE000E0600343D360704700ED00E0174B30B57D
:100FF000DC68C4F30224C4F10703251D042B28BFB9
:101000000423062D4FF0010505FA03F303F1FF3326
:101010008CBF033C00241940A14005FA04F4013CB4
:101020002240002842EA01024FEA0212AFBF00F15B
:10103000604000F00F00064BD2B2A5BF00F5614042
:10104000D2B21A5480F8002330BD00BF00ED00E09A
:1010500014ED00E04209012300F01F0003FA00F044
:10106000014B43F82200704700E100E00138B0F185
:10107000807F0AD2064B074A5860F02182F823107D
:101080000020072298601A6070470120704700BF57
:1010900010E000E000ED00E0144B984217D0203340
:1010A000984216D02033984215D02033984214D05D
:1010B0002033984213D02033984212D020339842E4
:1010C00011D0203398420CBF072000207047002029
:1010D00070470120704702207047032070470420AA
:1010E0007047052070470620704700BF0060014030
:1010F00038B50446002867D00068344DFFF7CCFFB0
:1011000055F82030002B5FD1204602F065FA304BB5
:101110001A6801321A601B68012B19D12D4B1A680D
:1011200022F080421A601A68A1680A431A601A689D
:1011300022F47F021A602279012A05D1E1681A6837
:10114000013942EA01421A601A6842F000421A600C
:1011500020686169036823F47143036023690268AE
:101160000B43A1690B43134303600368216A23F017
:101170000F030360E36902680B4313430360836852
:10118000616AA26A23F45F0383608368013A0B43B8
:1011900043EA024383604368226B03F00703436022
:1011A000436843EAC203E26A43EA022343600368F6
:1011B00043F080030360012384F83430FFF76CFFB1
:1011C00045F82040002038BD012038BD84000020B3
:1011D000A40000200060014030B500284ED0016816
:1011E000274B99424FF0140440D8264A0A44B2FBD8
:1011F000F4F292004264A3F207430364022380F8EE
:1012000025308468C36805690A6823432B43456910
:101210002B4385692B43C5692B43056A22F4FF42A2
:1012200022F070022B431343B4F5804F0B6014D0AF
:10123000026C154B9A420CBF14491549436C0A685D
:1012400003F01C030F249C4022EA04020A60426857
:101250000C6802FA03F323430B6000230122C363EB
:1012600080F8243080F82520184630BD094B0B4407
:10127000B3FBF4F39B004364074BBEE7012030BD92
:1012800007040240F8FFFDBF00000240A800024032
:10129000A8040240F8FBFDBF00040240F0B590F83E
:1012A0002440012C38D090F825500124EDB2A542FD
:1012B00080F824404FF000064FF002042AD180F855
:1012C00025400468C6632668076C26F00106266080
:1012D000466C06F01C06B5407D6063608368056857
:1012E000102B036B0BBFA260A160E160E2604BB109
:1012F000236843F00E0323602B6843F001032B6047
:101300000020F0BD236823F004032360236843F02A
:101310000A03F0E780F824600220F0BD016C426C03
:10132000036870B402F01C020E681D680424944027
:1013300026420ED015F0040F0BD01A6892065EBF3D
:101340001A6822F004021A60036B4C6073B370BC1D
:10135000184702249440264212D015F0020F0FD0F5
:101360001A68950606D41A6822F00A021A60012348
:1013700080F8253000234C6080F82430C36AE5E70C
:1013800008249440344211D02C070FD51C6824F057
:101390000E041C60012303FA02F24A60C36380F862
:1013A0002530002380F82430436BCFE770BC7047B2
:1013B0002DE9F04F85B00B68DFF8A881674C0193E9
:1013C0000023019ADA4002D105B0BDE8F08F012672
:1013D000019A9E4012EA060E00F0B1804A6822F09F
:1013E0001007022F16D14FEAD30900EB890903F049
:1013F000070AD9F820504FEA8A0A4FF00F0C0CFA6E
:101400000AFC25EA0C0C0D6905FA0AF545EA0C05FB
:10141000C9F820504FEA430C0325D0F800B005FA74
:101420000CF5ED4302F0030A0BEA050B0AFA0CF97E
:10143000013F49EA0B09012FC0F8009011D88768D5
:1014400005EA0709CF6807FA0CF747EA090787603A
:10145000476827EA0609C2F300179F4047EA0907D1
:101460004760BAF1030F07D1C76A27EA0606C2F33D
:10147000C0079F403E43C662C66835408E6806FA84
:101480000CF63543C560D50059D5D8F8605045F005
:101490000105C8F86050D8F8605023F0030606F143
:1014A000804605F0010506F58036039503F0030C30
:1014B000039DB5684FEA8C0C0F2707FA0CF7B0F1C3
:1014C000904F25EA07073CD0254DA8423BD005F5B3
:1014D0008065A84239D005F58065A84237D005F56A
:1014E0008065A84235D005F58065A84233D005F562
:1014F0008065A84214BF0725062505FA0CF53D4373
:10150000B56025686FEA0E06D70354BF35404EEA32
:10151000050525606568970354BF35404EEA05050B
:101520006560A568D70254BF35404EEA0505A56041
:10153000E568920254BF35404EEA0505E560013387
:101540003FE70025D9E70125D7E70225D5E70325A1
:10155000D3E70425D1E70525CFE700BF000401400C
:1015600000040048001002400AB1816170478162A6
:101570007047704708B5044B5969014202D0586161
:10158000FFF7F7FF08BD00BF0004014010B5044697
:1015900000284AD090F8413003F0FF021BB980F8D0
:1015A000402002F04BF8242384F841302368E1689E
:1015B0001A6822F001021A60626822F070621A61F1
:1015C0009A68012922F400429A60A26824D142F468
:1015D00000429A605A68616942F0007242F4004227
:1015E0005A60DA6822F40042DA6022690A43A1698B
:1015F00042EA0122DA60216AE2690A431A601A6843
:1016000042F001021A6000202023606484F8413017
:10161000206384F8420010BD42F4044202299A601B
:1016200004BF4FF400625A60D4E7012010BD90F867
:101630004120D2B2202A10B51DD190F84030012BA4
:1016400019D0242380F8413003681C6824F0010479
:101650001C601C6824F480541C601C6821431960C1
:10166000196841F001011960002380F8412080F8D9
:101670004030184610BD022010BD10B590F8414012
:10168000E4B2202C1CD190F84030012B18D0242338
:1016900080F8413003681A6822F001021A601A6863
:1016A00022F4706242EA012119601A6842F00102D4
:1016B0001A60002380F8414080F84030184610BD81
:1016C000022010BD2DE9F04104468AB0002874D0F4
:1016D00090F8BD3303F0FF021BB980F8BC2302F081
:1016E000A7F82546032355F8100B84F8BD3301F005
:1016F0002EFB0FCD6E460FC60FCD0FC695E803002B
:1017000086E8030004F1040898E80E00206801F060
:10171000EFFA0021206801F020FB00212246234639
:1017200004F110050126084683F83C10A3F8421086
:1017300001310F2983F83D6083F83F0058649864B5
:10174000186503F11C03EFD100231F4682F8FC311A
:1017500001330F2B82F8FD7182F8FF71C2F8047219
:10176000C2F80872C2F8107202F11C02EED10FCD5D
:101770006E460FC60FCD0FC695E8030086E803003E
:1017800098E80E00206801F029FB012384F83870E6
:1017900084F8BD33636A012B02D1204600F00FF8B4
:1017A000A36A012B02D1204600F01CF8206801F04A
:1017B000B1FB00200AB0BDE8F0810120FAE7026821
:1017C00003460121C0F8FC13002083F8F403936959
:1017D00043F000639361536D43F0805343F0030380
:1017E0005365704702680123C0F80034936B43F4DB
:1017F0000033936300207047024A136843F48073F8
:101800001360704700700040024B186800F4C0601D
:10181000704700BF00700040174B1A68B0F5007F9A
:1018200002F4C0621CD1B2F5007F15D01A6822F410
:10183000C06242F400721A60104A116832224A43B0
:101840000F49B2FBF1F2194601325869400500D543
:1018500022B94B695B050DD400207047013AF4E7CB
:10186000B2F5806F1FBF1A6822F4C06242F4806232
:101870001A60F1E70320704700700040000000206C
:1018800040420F00024A536843F48063536070473C
:10189000007000402DE9F041069D04460F461646B3
:1018A000984621688A683A4214BF01220022B24257
:1018B00002D10020BDE8F0816B1CF3D0FEF798FE4A
:1018C000A0EB0800854201D3002DEAD1042384F85F
:1018D0003930E36B43F00103E3630120BDE8F0819D
:1018E00037B50446FEF784FE0546002C49D094F82F
:1018F0003830012B47D0012384F8383094F8392050
:1019000002F0FF033AB984F83830204601F0CCFEEB
:1019100041F2883323642068A1680268236C01398E
:1019200022F4706242EA0122026020210093002228
:101930002B462046FFF7AEFFF0B9226865681168B4
:10194000E36821F07F4143EA056321F010010B4376
:101950001360A169636955680B43216943EA014338
:101960000A4929400B435360136843F00103136095
:101970000123E06384F83930002384F8383003B061
:1019800030BD0120FBE70220F9E700BFFEF8E0FFD1
:1019900037B51E4DAB6DDA00044618D5FFF734FF9E
:1019A000B0F5007F23D1802C29D9A02C8CBF022038
:1019B0000120174A136823F00703034313601368D9
:1019C00003F00703181A18BF012003B030BDAB6D38
:1019D00043F08053AB65AB6D03F080530193019BE3
:1019E000FFF712FFAB6D23F08053AB65D8E7802C77
:1019F00007D808D0A4F1700358425841D9E7002015
:101A0000D7E70320D5E70220D3E700BF001002404C
:101A100000200240254B9A68D96812F00C0205D0CC
:101A20000C2A15D101F00301012918D119682048A9
:101A3000090755BFD3F894101968C1F30321C1F306
:101A4000031150F8210082B30C2A09D000207047FE
:101A5000042A29D0082A174818BF00207047002000
:101A6000D968DA6801F00301C2F30212022902F117
:101A7000010205D0032912D0D968C1F3062103E081
:101A8000D9680D48C1F30621DB68B0FBF2F0C3F35F
:101A90004163013348435B00B0FBF3F07047D96802
:101AA0000448C1F30621EFE70348704700100240E5
:101AB0001843000800127A000024F4002DE9F743CF
:101AC000054618B9012003B0BDE8F083A54C0368B2
:101AD000A668E768DB0606F00C0607F003073CD5AE
:101AE0001EB10C2E63D1012F61D12368980702D556
:101AF000AB69002BE6D02368286A190756BFD4F8D3
:101B0000943023681B0903F0F00383423AD2FFF7B5
:101B10003FFF0028D6D1236843F0080323602368E1
:101B20002A6A23F0F003134323606368EA6923F40D
:101B30007F4343EA02236360FFF76CFFA3688A4A8E
:101B4000C3F30313D35C03F01F03D840874B186023
:101B50000020FEF71DFD0028B5D12B68D8075DD405
:101B60002B68990700F19C802B68180700F1D08042
:101B70002B68590700F1FC80AB6A002B40F06581AF
:101B80000020A0E7236843F008032360236823F0C4
:101B9000F003034323606368EA6923F47F4343EA65
:101BA00002236360FFF7F4FE0028C5D08AE7AB6923
:101BB0001BB3236843F001032360FEF719FD804641
:101BC00023689A0711D5236843F00803236023682C
:101BD0002A6A23F0F003134323606368EA6923F45D
:101BE0007F4343EA02236360B7E7FEF701FDA0EB02
:101BF00008000228E4D9032065E7236823F00103E5
:101C00002360FEF7F5FC804623689B07A5D5FEF709
:101C1000EFFCA0EB08000228F6D9ECE7082E03D071
:101C20000C2E08D1032F06D123689A0398D56B6830
:101C3000002B95D146E76B68B3F5803F10D1236840
:101C400043F480332360FEF7D3FC804623689B0374
:101C500086D4FEF7CDFCA0EB08006428F6D9CAE7CD
:101C6000B3F5A02F04D1236843F480232360E6E773
:101C7000226822F480322260226822F480222260CC
:101C8000002BE0D1FEF7B4FC8046236898037FF573
:101C900067AFFEF7ADFCA0EB08006428F5D9AAE712
:101CA000042E03D00C2E10D1022F0ED1236859051B
:101CB00003D5EB68002B3FF405AF63682A6923F076
:101CC000F85343EA026363604EE7EB687BB1236835
:101CD00043F480732360FEF78BFC074623685A05A4
:101CE000EBD4FEF785FCC01B0228F7D983E72368F5
:101CF00023F480732360FEF77BFC074623685B05B3
:101D00007FF532AFFEF774FCC01B0228F6D972E7EC
:101D10006B699BB1D4F8943043F00103C4F894305C
:101D2000FEF766FC0746D4F894309A073FF520AFDB
:101D3000FEF75EFCC01B0228F5D95CE7D4F89430AE
:101D400023F00103C4F89430FEF752FC0746D4F8A0
:101D500094309B077FF50CAFFEF74AFCC01B0228AE
:101D6000F5D948E700100240FF42000800000020BB
:101D7000A36DD80029D4A36D43F08053A365A36D50
:101D800003F080530193019B4FF001085D4F3B68C6
:101D9000D9051DD5AB68012B2BD1D4F8903043F079
:101DA0000103C4F89030FEF723FC41F2883907465E
:101DB000D4F890309B0742D5B8F1000F3FF4DCAE69
:101DC000A36D23F08053A365D6E64FF00008DDE74E
:101DD0003B6843F480733B60FEF70AFC81463B6836
:101DE000DA05D7D4FEF704FCA0EB09000228F6D9E7
:101DF00001E7052B06D1D4F8903043F00403C4F872
:101E00009030CAE7D4F8902022F00102C4F8902064
:101E1000D4F8902022F00402C4F89020002BC2D104
:101E2000FEF7E6FB41F288390746D4F89030980770
:101E3000C2D5FEF7DDFBC01B4845F6D9DBE6FEF751
:101E4000D7FBC01B4845B3D9D5E60C2E3FF43AAEBC
:101E5000022B236823F08073236037D1FEF7C8FB81
:101E60000646236899012BD46A6BEB6A43EA022386
:101E70002A6B013A43EA0213AA6B120943EA42436E
:101E8000EA6B5208013A43EA42532A6C5208013A7B
:101E900043EA4263E360236843F080732360E368AE
:101EA00043F08073E360FEF7A3FB054623689A01C5
:101EB0003FF566AEFEF79CFB401B0228F6D99AE67A
:101EC000FEF796FB801B0228CBD994E6236813F01B
:101ED000205F02BFE36823F00303E360E36823F0BD
:101EE000887323F48033E360FEF782FB05462368A2
:101EF0009B017FF545AEFEF77BFB401B0228F6D920
:101F000079E600BF007000402DE9F0410E4604461E
:101F100010B90120BDE8F081404A136803F00703BF
:101F20008B4229D32368D90731D421688A075BD42F
:101F30003A4A136803F007039E425DD311F0040F81
:101F4000374D64D10B0706D5AB68226923F4605383
:101F500043EAC203AB60FFF75DFDAB68314AC3F3F0
:101F60000313BDE8F041D35C03F01F03D8402E4BB0
:101F700018600020FEF70CBB136823F007030B4327
:101F80001360136803F007039942C2D1CAE762687D
:101F9000234D032A2B681BD113F0007FB9D0AB6807
:101FA00023F003031343AB60FEF722FB41F28838B2
:101FB0000746AB68626803F00C03B3EB820FB4D042
:101FC000FEF716FBC01B4045F3D90320BDE8F081A6
:101FD000022A02D113F4003FE0E712B913F0020F16
:101FE000DCE713F4806FD9E70D4AA068936823F00B
:101FF000F003034393609BE7136823F00703334325
:102000001360136803F007039E4282D196E7AB6822
:10201000E26823F4E0631343AB6093E700200240DF
:1020200000100240FF42000800000020054B064A55
:102030009B68C3F30223D35C044A106803F01F03B8
:10204000D8407047001002400F43000800000020F5
:10205000054B064A9B68C3F3C223D35C044A10684D
:1020600003F01F03D8407047001002400F430008E0
:1020700000000020F8B5454BDA6812F0030F054662
:102080000E461C4600682AD0DA6802F0030282423B
:102090003CD1002A3AD0DB686A68C3F302130133EB
:1020A000934233D1236823F080632360FEF7A0FAC4
:1020B000074623681A0132D4AF68002E36D0012EAD
:1020C00050D12269286922F4C002400822F4FE425D
:1020D000013842EA072242EA4052226132E00228F5
:1020E00010D0032814D0012810D11B689F0738D5C1
:1020F000E3686A6823F07303013A184340EA021068
:10210000E060CFE71B6813F4806FF1D10120F8BDC8
:102110001A689103ECD41B6813F4802FF5E7FEF7DF
:1021200067FAC01B0228C4D90320F8BD2169EB68F7
:1021300021F41F3121F4407141EA07211B0941EAD2
:1021400043412161236843F080632360FEF750FA26
:10215000064623681B0113D52369AA69134323612B
:102160000020F8BD2369686923F0C063400823F4A8
:10217000FE43013843EA072343EA40632361E1E772
:10218000FEF736FA801B0228E3D9CDE700100240A3
:10219000F8B53D4BDA6812F0030F05460E461C46B3
:1021A000006828D0DA6802F0030282423AD1002A9D
:1021B00038D0DB686A68C3F302130133934231D12C
:1021C000236823F080532360FEF712FA0746236842
:1021D0009A0030D4A868002E34D06369296923F0AE
:1021E000C063490823F4FE43013943EA002343EA6C
:1021F0004163636132E0022810D0032814D0012823
:1022000010D11B689F0738D5E3686A6823F0730311
:10221000013A184340EA0210E060D1E71B6813F46A
:10222000806FF1D10120F8BD1A689103ECD41B68CE
:1022300013F4802FF5E7FEF7DBF9C01B0228C6D99F
:102240000320F8BD6269EB6822F41F3222F4407269
:1022500042EA00221B0942EA43426261236843F0DA
:1022600080532360FEF7C4F9064623689B0005D51A
:1022700063696A69134363610020F8BDFEF7B8F92A
:10228000801B0228F1D9DBE7001002402DE9F3475B
:10229000066816F40066044624D0416EB1F5800F3E
:1022A0002CD002D8C1B101261CE0B1F5000F0DD031
:1022B000B1F5400FF7D14D4A616ED2F8883023F462
:1022C00040030B43C2F8883000260BE0474AD3682E
:1022D00043F48033D360EEE70430FFF7CBFE0646CD
:1022E0000028E8D02368D80406D5A16EB1F1807F1C
:1022F00074D008D8A9B10126354621E0002120304C
:10230000FFF746FFEBE7B1F1007F04D0B1F1407F6A
:10231000F1D1354609E0354AD36843F48033D360C0
:10232000F7E7201DFFF7A6FE0546002D5CD12F4ADA
:10233000A16ED2F8883023F040730B43C2F8883086
:102340002368990340F14F81284FBB6DDA0040F1BB
:1023500076814FF00008DFF89890D9F8003043F408
:102360008073C9F80030FEF743F98246D9F800308F
:10237000DB053FD5002D44D1D7F8903013F44073DE
:1023800015D0D4F88420934211D0D7F89030D7F8E4
:10239000902042F48032C7F89020D7F8902023F4A0
:1023A000407322F48032C7F89020C7F89030D807E5
:1023B00009D5FEF71DF941F288390546D7F8903066
:1023C000990740F10981D7F89030D4F8842023F49C
:1023D00040731343C7F89030354612E0002104F1F2
:1023E0002000FFF7D5FE9FE72E46A9E70010024028
:1023F00000700040FEF7FCF8A0EB0A000228B5D9F7
:102400000325B8F1000F03D0BB6D23F08053BB65EB
:102410002368DA0708D59049A06BD1F8882022F00C
:1024200003020243C1F888209F0708D58A49E06B60
:10243000D1F8882022F00C020243C1F888205E0700
:1024400008D58549206CD1F8882022F0300202435B
:10245000C1F88820180708D57F49606CD1F888201A
:1024600022F0C0020243C1F88820D90608D57A4973
:10247000A06CD1F8882022F440720243C1F8882071
:102480009A0608D57449E06CD1F8882022F440629D
:102490000243C1F888209F0508D56F49E06DD1F847
:1024A000882022F440220243C1F888205E0508D526
:1024B0006949206ED1F8882022F440120243C1F805
:1024C0008820580608D56449206DD1F8882022F468
:1024D00040520243C1F88820190608D55E49606D54
:1024E000D1F8882022F440420243C1F88820DA055E
:1024F00008D55949A06DD1F8882022F44032024312
:10250000C1F888209B040FD5534AE16ED2F8883079
:1025100023F040630B43B1F1006FC2F8883064D1FF
:10252000D36843F48013D36023681F030FD54A4A4E
:10253000216FD2F8883023F040630B43B1F1006F74
:10254000C2F888305CD1D36843F48013D360236829
:102550005E030FD5404A616FD2F8883023F04063A4
:102560000B43B1F1006FC2F8883054D1D36843F403
:102570008013D3602368580412D53749A26FD1F86D
:10258000883023F040531343B2F1805FC1F88830A4
:102590004CD10221201DFFF76DFD002818BF054614
:1025A0002268110408D52C49E06FD1F8883023F057
:1025B00080430343C1F88830D30309D5264AD4F8B1
:1025C0008010D2F8883023F000430B43C2F88830E3
:1025D000284602B0BDE8F087FEF70AF8401B4845E0
:1025E0007FF6ECAE0CE7354612E7B1F1806F9BD178
:1025F0000121201DFFF73EFD002818BF054693E787
:10260000B1F1806FA3D10121201DFFF733FD002818
:1026100018BF05469BE7B1F1806FABD10121201DAA
:10262000FFF728FD002818BF0546A3E7B2F1005FB9
:10263000B6D1022104F12000FFF7AAFDADE7BB6D82
:1026400043F08053BB65BB6D03F080530193019B46
:102650004FF001087FE600BF00100240024A1368F5
:1026600043F00403136070470010024070B5044645
:1026700000284AD00023836290F85D3003F0FF0207
:102680001BB980F85C2001F045F80223216884F82A
:102690005D300B68E26823F04003B2F5E06F0B6039
:1026A0004FF000032ED91846B2F5706F18BFA36221
:1026B000236B2BB9B2F5E06F8CBF02230123236398
:1026C000A6686368A5693343266933436669334363
:1026D000E6693343266A3343A66A334305F400763A
:1026E00033430B60636A1A43636B2D0C1A4305F086
:1026F00004052A430243012300204A60206684F82F
:102700005D3070BD4FF48050D0E7012070BD0000F7
:102710000268C169F8B50446836800691568034317
:1027200060690343BA480B4328400343136053686E
:10273000E06823F4405303435360B64BA0699A42C8
:102740001CBF236A1843936823F4306303439360E8
:10275000B14B9A4219D103F55843B04AD3F88830A7
:1027600003F00303B1F5004FD35C40F03881082B30
:1027700000F28F80DFE813F01A01CA00F9008D0023
:1027800014018D008D008D003600A54B9A4207D1B3
:1027900003F5E633A34AD3F8883003F00C03E1E7EE
:1027A000A14B9A4223D103F5E433D3F8883003F0E8
:1027B0003003102B00F0F1800BD8002B00F0F380D9
:1027C000B1F5004F4FF001024FF0000300F0F88028
:1027D000A8E0202B00F0C680302BF1D1B1F5004FDE
:1027E00040F0B8806068430803F58033C3E08F4B46
:1027F0009A421ED103F5E233D3F8883003F0C003C8
:10280000402B00F0BB800AD87BB9824B9A4240F043
:10281000CA80FFF70BFC0023B0BB02463AE0802BD6
:1028200000F09D80C02B00F0B0807A4B9A42C7D157
:102830002FE07F4B9A4211D103F5E033D3F8883073
:1028400003F44073B3F5807F00F09880DCD9B3F5D2
:10285000007F00F08480B3F5407FE4E76D4B9A423F
:10286000AED103F5C833D3F8883003F44063B3F531
:10287000806F00F08380C7D9B3F5006F6FD0B3F5D8
:10288000406FD0E76B480223626802EB420181424D
:1028900005D901220023236663661046F8BDB0EB1C
:1028A000023FF6D8082B2ED8DFE803F0052D1C2DAB
:1028B000242D2D2D2700FFF7B9FB62684FF480719E
:1028C00056080027E1FB0067002330463946FDF734
:1028D000D7FC0022584BA0F540719942D9D8236803
:1028E000D860D7E75548550800230021401941F129
:1028F0000001ECE7FFF78EF8DFE750080021002326
:1029000010F50000F3E701220020E3E7FFF7A0FB4A
:102910004EE0FFF78BFB626800EB5203B3FBF2F370
:102920009BB20022A3F110004FF6EF718842B0D89D
:102930002168CB60AEE7FFF78BFBECE760684308EC
:1029400003F5740303F51053B3FBF0F3E8E7FFF767
:1029500061F8E0E76068430803F50043F4E72D4BB6
:102960009A428FD0B1F5004FE8D16068430803F177
:10297000F47303F59043B3FBF0F31FE0254B9A4249
:102980000BD1FFF747F8042346E7224B9A427FF426
:1029900025AF4FF40040082376E7B1F5004FD6D1BC
:1029A000FFF738F804E0B1F5004FB2D1FFF73EFB76
:1029B00061684A0802EB4003B3FBF1F39BB20022CB
:1029C000A3F110004FF6EF7188423FF662AF23F09B
:1029D0000F012068C3F342030B43C3605AE7082B7F
:1029E0003FF657AF01A252F823F000BF13290008A9
:1029F000372900083D290008932800084F290008BE
:102A000093280008932800089328000855290008F7
:102A1000F369FFEF0080004000380140D042000819
:102A200000440040D442000800480040004C0040F0
:102A3000005000400024F400FFFC0F00000024F4CC
:102A4000436ADA0710B506D50168846A4A6822F439
:102A5000003222434A609C0706D50168C46A4A686E
:102A600022F4803222434A60590706D50168046B7C
:102A70004A6822F4802222434A601A0706D5016878
:102A8000446B4A6822F4004222434A60DC0606D5C1
:102A90000168846B8A6822F4805222438A60990616
:102AA00006D50168C46B8A6822F4005222438A600A
:102AB0005A060FD50168046C4A6822F4801222433A
:102AC000B4F5801F4A6005D14A68446C22F4C00204
:102AD00022434A601B0606D50268816C536823F4C2
:102AE00000230B43536010BD2DE9F041069D0446C1
:102AF0000F46164698462168CA6937EA02030CBF9A
:102B000001220022B24202D00020BDE8F0816B1CFD
:102B1000F2D09DB923681A6822F4D0721A609A68BC
:102B200022F001029A60202384F8713084F8723018
:102B3000002384F870300320BDE8F081FDF758FDD4
:102B4000A0EB08008542D6D2E4E72DE9F3411F4609
:102B500090F87130202B04460D4690464AD100294A
:102B600046D0002A44D090F87030012B42D0012387
:102B700080F8703000234367212380F87130FDF71F
:102B800037FDA4F850800646A4F85280B4F85220CD
:102B9000009792B2334652B940212046FFF7A4FF76
:102BA00058B9202384F8713084F8700006E00022C0
:102BB00080212046FFF798FF18B1032002B0BDE83E
:102BC000F081A3682268B3F5805F0DD123695BB9FA
:102BD00035F8023BC3F308031385B4F85230013BC8
:102BE0009BB2A4F85230D1E72B7813850135F4E776
:102BF0000120E3E70220E1E773B5044600264667BB
:102C0000FDF7F6FC23681B681A07054617D42368EE
:102C10001B685B070AD56FF07E43009300222B46AA
:102C20004FF480012046FFF75FFFA0B9202300206A
:102C300084F8713084F8700084F872300CE06FF022
:102C40007E430093324603464FF400112046FFF7BF
:102C50004BFF0028DBD0032002B070BD10B5044646
:102C600060B390F8713003F0FF021BB980F8702058
:102C700000F084FD2268242384F87130136823F067
:102C8000010313602046FFF743FD012816D0636A55
:102C900013B12046FFF7D4FE23685A6822F490420D
:102CA0005A609A6822F02A029A601A6842F0010279
:102CB00020461A60BDE81040FFF79EBF012010BDFE
:102CC0000A4B013B01D1032070470269002AF8DA60
:102CD0000369064A43F001030361013AF3D0036933
:102CE00013F00103F9D11846704700BF410D0300EE
:102CF00084B038B505AD85E80E000A9B012B04466B
:102D00001BD1836B23F480338363C36823F4840370
:102D100023F04003C360C36823F44013C360119BD6
:102D2000012B02BFC36843F48013C360FFF7C8FFE1
:102D3000BDE83840002004B07047C36843F040034A
:102D4000C360FFF7BDFF4FF48033A363F0E78368F0
:102D500023F0010383600020704708B5C368012990
:102D600023F0C043C36008D1C36843F00053C3607D
:102D70003220FDF743FC002008BD19B9C36843F0B9
:102D80008043F4E7012008BD890141F02001064A93
:102D90000161013A05D0036913F02003F9D1184607
:102DA00070470320704700BF410D03001023064AFF
:102DB0000361013A05D0036913F01003F9D11846F5
:102DC00070470320704700BF410D0300D0F8003862
:102DD0001943C0F8001800207047000084B02DE9A6
:102DE000F041044607A880E80E000023119F8846A2
:102DF000194603F1400204EB820201330F2B5160AC
:102E0000F7D1A36B43F40013A3635FB9A36B23F45F
:102E10000013A363236843F040032360236843F057
:102E2000800323600025C4F8005ED4F80038C4F89D
:102E3000003803212046FFF7C9FF04F50066102182
:102E40002046FFF7A1FF2046FFF7B0FF35612B4674
:102E500075612946F56104F510624FF090404FF01E
:102E600000654FF67F3E43452FD1002104F53062C7
:102E700008464FF090454FF0006E4FF67F3C8B4276
:102E800034D1336923F4807333610023A3616FF07D
:102E900080436361A36943F01003A361A2691C4BE3
:102EA0001343A3610D9B1BB1A36943F00803A36106
:102EB000012F01BFA36943F0804343F00403A361E2
:102EC000BDE8F041002004B07047D2F800C0BCF16A
:102ED000000F09DA33B9156011610133C2F808E057
:102EE0002032C0E71060F7E71160F5E7D2F8008004
:102EF000B8F1000F0ADA39B9C2F800E01061013107
:102F0000C2F808C02032BAE71560F7E71060F5E7AD
:102F100000383C8008B5D0F8043843F00203C0F80C
:102F200004380320FDF76AFB002008BDF0B5B9B0F6
:102F300014244422002105A800F098FD2246002117
:102F4000684600F093FD0021882216A800F08EFD4F
:102F5000FEF752FC234AD2F8903023F01803C2F84F
:102F6000903060230125022605940D930024282328
:102F7000072705A8129307950B950C940F961095AB
:102F80001195139714961596FEF798FD0F220421BC
:102F9000032368468DE80C00029403940494FEF722
:102FA000B3FF114B16934FF0805334934FF080636F
:102FB00031931823199316A84FF088731D93249406
:102FC00026942B943694179518951A971B961C9651
:102FD000FFF75CF94FF40070FEF71EFCFFF73EFBB5
:102FE00039B0F0BD00100240856001002DE9804835
:102FF000B94DDFF80CB3DFF80CA3A1B0FDF7E0FA90
:10300000FFF794FF142200210CA800F02FFDEB6CB9
:10301000B24843F01003EB64EB6C03F0100304932D
:10302000049BEB6C43F00403EB64EB6C03F00403D0
:103030000593059BEB6C43F00103EB64EB6C03F031
:1030400001030693069BEB6C43F00203EB64EB6C0D
:1030500003F002030793079BEB6C43F00803EB6458
:10306000EB6C03F00803089300224FF48A71089B6D
:10307000FEF77AFA002248F204114FF09040FEF772
:1030800073FA00224FF214019548FEF76DFA002200
:1030900041F281019348FEF767FA01224FF4005193
:1030A0009048FEF761FA00224FF410718E48FEF747
:1030B0005BFA012220218A48FEF756FA01221146C6
:1030C00086480024FEF750FA012640F215130CA999
:1030D00082480C930D960E940F94FEF769F96A23BB
:1030E0000CA97E480C93CDF834B00E94FEF760F92D
:1030F0004FF400530CA97C480C9302274FF00308AF
:103100004FF00809CDF834A00E94FEF751F90CA940
:103110004FF09040CDF830800E94CDF83C800D9764
:10312000CDF84090FEF744F948F204130CA94FF093
:1031300090400C930D960E940F94FEF739F90CA95C
:103140004FF090400E940F941096CDF830900D975C
:10315000FEF72EF910230CA94FF090400C93CDF8F8
:1031600034A00E964FF0050AFEF722F9E0230CA9D1
:103170004FF090400C930E94CDF83C800D97CDF815
:1031800040A0FEF715F90CA955480C96CDF834B0BF
:103190000E94FEF70DF94FF234030CA950480C932E
:1031A0000D960E940F94FEF703F94CF604430CA908
:1031B0004C480C93CDF834B00E94FEF7F9F843F276
:1031C00081030CA947480C930D960E940F94FEF7BB
:1031D000EFF84FF410730CA943480C930D960E941E
:1031E0000F94FEF7E5F84FF4C0730CA93E480C931A
:1031F000CDF834B00E94FEF7DBF80CA939480E94E4
:103200004FF0070BCDF83C800C970D97CDF840A000
:10321000FEF7CEF878230CA932480C930E94CDF823
:103220003C80CDF840B00D97FEF7C2F84FF44073E4
:103230001222CDF83C800CA94FF0040828480C93CA
:1032400001930D920E96CDF84080FEF7B1F822461C
:1032500021460A20FDF7CAFE0A20FDF7FBFE2246A2
:1032600021461720FDF7C2FE1720FDF7F3FE224688
:1032700021462820FDF7BAFE2820FDF7EBFEAA6CB8
:103280003243AA64AA6C194D324003922146039A34
:103290000B202246FDF7AAFE0B20FDF7DBFE1448AB
:1032A000144A02604FF480720671846004614461C4
:1032B0008261C46144628662C4620463C760C0F80C
:1032C0002080FDF715FF0C4B0C4AAC60284685E8C2
:1032D0000C00EE6018E000BF001002400010004833
:1032E00000040048000C0048000800487805002051
:1032F000C000002020600140EC9C9010005800406D
:1033000000001110000021102C616C61AC61EC61B7
:103310002C62FEF73BF921462846FEF788F9214644
:103320002846FEF7AAF95E485E498660FF2280E8DB
:103330000600C460066144618461FEF7D1FA5A4810
:103340005A4A019BC3604FF482754FF4007380E8C2
:1033500024008460046144618361C4610462446246
:103360008462C0F82CB00463DFF86CB1C0F834900C
:10337000FFF77CF94E4BCBF808404FF4E1358BE872
:10338000280058460C23CBF80C40CBF81040CBF863
:103390001430CBF81840CBF81C40CBF82040CBF8C9
:1033A0002440FFF75BFC4348434A84600C2380E8D9
:1033B0002400C460046143618461C46104624462A6
:1033C000FFF74CFC3D483E4DC46106234FF0A04240
:1033D00080E80C0001930462446284620463C46266
:1033E000C7608761FEF76EF9214618220CA8099480
:1033F0000A940B9400F03AFB324AAC604FF4002E72
:10340000284685E80440EC602E612C766E7685F8BF
:103410002040AC62EC6285F830606C6385F838401F
:10342000C5F81490EF61FDF711F909A92846099430
:103430007F26FDF751FD244A019B0C920CA92846DA
:103440000D931194CDF838A00F96CDF84080FDF77C
:1034500027FA1E4A0C920C230CA928460D93FDF75F
:103460001FFA31462846FDF7EFFC28463A46184930
:10347000174C184DFDF72EFC6388228829460CA8AE
:1034800000F0FCFA0CA8FCF7A3FE4FF0FF3382B269
:103490000CA95846FFF759FB6420FDF7AFF8EBE79E
:1034A0004C070020001000A0C4050020003C004094
:1034B00000380140F8000020004800407001002062
:1034C00028060020000004500040C03A002090363A
:1034D000BC000020E14200088C060020704700007C
:1034E0000A4B1A6E42F001021A661A6E82B002F09E
:1034F00001020092009A9A6D42F080529A659B6D8B
:1035000003F080530193019B02B07047001002400A
:1035100070B5064688B01422002103A800F0A6FA70
:103520003268284B9A424AD103F17043A3F5F8332D
:103530000B24DA6C244842F40052DA64DA6C02F4A8
:1035400000520092009ADA6C42F00402DA64DA6CFB
:1035500002F004020192019ADA6C42F00202DA648B
:10356000DB6C049403F002030293029B03A93F2344
:1035700000250393FDF71CFF02231448039303A9BE
:1035800004940595124CFDF713FF124BA56084E8D7
:103590002800802323614FF4807363614FF48063BC
:1035A000A3612023E36120464FF48053E56023624A
:1035B000FDF712FE08B1FFF791FFF464A66208B0B0
:1035C00070BD00BF0000045000080048000400481F
:1035D000040700200800024000B589B01422002131
:1035E00003A800F043FA134B1B6803BB03F18043AD
:1035F00003F5043303A91A6E0F4842F080721A666D
:103600001A6E02F080720192019ADA6C42F0100296
:10361000DA64DB6C03F010030293029B4FF4207317
:1036200003930223049306230793FDF7C1FE09B019
:103630005DF804FBA80000200010004810B5044607
:1036400088B01422002103A800F010FA2268134B5E
:103650009A4221D1124C1348E36C43F00203E36415
:10366000E36C03F002030193019B4FF44063039367
:1036700012230493012305930323069303A9042330
:103680000793FDF795FEA36D43F48003A365A36D37
:1036900003F480030293029B08B010BD0058004061
:1036A000001002400004004810B5044688B01422FF
:1036B000002103A800F0DAF92268144B9A4222D1C3
:1036C00003F1204303F5003303A91A6D104842F4B7
:1036D00080721A651A6D02F480720192019ADA6C96
:1036E00042F01002DA64DB6C03F010030293029BD9
:1036F0004FF47C43039302230493032306930A238A
:103700000793FDF755FE08B010BD00BF001000A0E4
:103710000010004810B5044688B01422002103A808
:1037200000F0A4F92268134B9A4220D103F5EA3342
:1037300003A99A6D104842F400429A659A6D02F40A
:1037400000420192019ADA6C42F00402DA64DB6C06
:1037500003F004030293029B4FF4E053039302230C
:1037600004930323069306230793FDF721FE08B075
:1037700010BD00BF003C00400008004810B51422F6
:103780008AB0044600210DEB020000F06FF92368B7
:10379000224A934220D1224B22481A6E42F48042A0
:1037A0001A661A6E02F480420192019ADA6C42F0B3
:1037B0000202DA64DB6C03F002030293029BC02373
:1037C000059302230693032308930723099305A96E
:1037D000FDF7EEFD0AB010BD134A9342FAD1104B2B
:1037E00012489A6D42F480229A659A6D02F4802202
:1037F0000392039ADA6C42F00802DA64DB6C03F09D
:1038000008030493049B4FF440730593022306932B
:10381000032308930723099305A9D9E7003801403A
:10382000001002400004004800480040000C00481E
:1038300010B5044688B01422002103A800F016F940
:103840002368B3F1A04F3CD1204CE36C43F001035B
:10385000E364E36C03F001030093009B03A94FF4BE
:1038600000734FF090400393FDF7A2FD4FF4E05337
:10387000039302230493002305930323069303A9D0
:103880000A234FF090400793FDF792FDE36C43F459
:103890008053E364E36C03F480530193019BA36DB5
:1038A000DB0010D4A36D43F08053A365A36D03F038
:1038B00080530293029BFDF7E5FFA36D23F0805335
:1038C000A36508B010BDFDF7DDFFFAE70010024068
:1038D0007047FEE7FEE7FEE7FEE770477047704778
:1038E000FCF77EBE1020FDF745BE00000148FDF745
:1038F00015BD00BF0407002008B52020FDF73AFEE3
:103900004020FDF737FE8020FDF734FE4FF4807035
:10391000BDE80840FDF72EBE08B54FF48060FDF706
:1039200029FE4FF40060FDF725FE4FF40050FDF72F
:1039300021FE4FF48040FDF71DFE4FF40040BDE82E
:103940000840FDF717BE000008B50A4B196802468B
:1039500009B9094919601868694602448A4206D9BA
:1039600000F05AF80C2303604FF0FF3008BD1A60D6
:1039700008BD00BFAC000020940700200F49D1F81B
:10398000883043F47003C1F888300D4B1A6800206A
:1039900042F001021A6098601A6822F0A85222F4DC
:1039A00010221A604FF48052DA601A6822F48022E2
:1039B0001A6098614FF000638B60704700ED00E083
:1039C00000100240DFF834D0002103E00C4B5B58BC
:1039D000435004310B480C4B42189A42F6D30B4A21
:1039E00002E0002342F8043B094B9A42F9D3FFF767
:1039F000C5FF00F017F8FFF7F9FAFEE70080012095
:103A00008C430008000000206800002068000020AF
:103A100094070020FEE70000014B1868704700BFC4
:103A20000400002070B50D4E0D4CA41BA410002501
:103A3000A54209D10B4E0C4C00F03EFCA41BA41077
:103A40000025A54205D170BD56F8253098470135AF
:103A5000EEE756F8253098470135F2E78443000831
:103A60008443000884430008884300080244034656
:103A7000934200D1704703F8011BF9E70EB400B57B
:103A80009CB04FF402711DABADF81410029006907B
:103A90006FF000410A48049107914FF6FF7153F807
:103AA000042BADF816100068019302A900F066F827
:103AB000029B00221A701CB05DF804EB03B0704743
:103AC000040000202DE9F0478E689E4282460C4695
:103AD0009146984635D88A8912F4906F31D025687E
:103AE00009696F1A6569022305EB450595FBF3F536
:103AF00008F101033B449D4238BF1D46530531D5B3
:103B0000294600F039FB064650B90C23CAF80030AC
:103B1000A38943F04003A3814FF0FF30BDE8F08755
:103B20003A46216900F0B4FAA38923F4906343F084
:103B30008003A381266165613E44ED1B2660A5607C
:103B40004646464528BF464632464946206800F06C
:103B5000AAFAA3689B1BA36023681E44266000206A
:103B6000BDE8F0872A4600F065FB06460028E1D153
:103B70002169504600F0B2FAC7E700002DE9F04F86
:103B80009DB0804603938B891C060D4616460FD5C3
:103B90000B696BB9402100F0EFFA2860286128B961
:103BA0000C23C8F800304FF0FF30C5E040236B61B4
:103BB0000023099320238DF8293030238DF82A30F3
:103BC0004FF0010B37463C4614F8013B002B3CD12B
:103BD000B7EB060A0BD05346324629464046FFF75C
:103BE00071FF013000F0A380099B534409933B7897
:103BF000002B00F09C8000234FF0FF3204930793CA
:103C0000059206938DF853301A9305222178504877
:103C1000FCF7E6FA671C049BD8B9D90644BF2022FA
:103C20008DF853201A0744BF2B228DF85320227899
:103C30002A2A16D0079A00210A20274601343B7809
:103C4000303B092B51D9C9B111E0252BC0D02746F3
:103C5000B9E73F4A801A0BFA00F0184304903C463B
:103C6000D3E7039A111D12680391002A01DB079222
:103C700004E0524243F00203079204933B782E2B58
:103C80000ED17B782A2B07F1010132D1039B1A1D3B
:103C90001B680392002BB8BF4FF0FF330237059328
:103CA0002C4C397803222046FCF79AFA38B140238D
:103CB000001B03FA00F0049B034304930137397897
:103CC00025488DF8281006227E1CFCF789FA00286A
:103CD00035D0224BFBB9039B073323F0070308338E
:103CE0000393099B4B4409936CE700FB02320121CB
:103CF000A3E70023059318460A240F4601313A78BA
:103D0000303A092A03D9002BCAD00590C8E704FB32
:103D100000200123F1E703AB00932A46104B04A9CE
:103D20004046AFF30080B0F1FF3F8146D9D1AB8967
:103D30005B063FF538AF09981DB0BDE8F08F03ABC7
:103D400000932A46064B04A9404600F081F8EAE7B2
:103D5000484300084E43000852430008000000009A
:103D6000C53A00082DE9F04791461F468A680B695D
:103D7000DDF820809342B8BF1346C9F8003091F8AF
:103D8000432006460C4612B10133C9F800302368BF
:103D9000990642BFD9F800300233C9F800302568CF
:103DA00015F0060507D104F1190AE368D9F80020D7
:103DB0009B1A9D4229DB94F843302268003318BFD8
:103DC000012392062ED404F1430239463046C047FF
:103DD000013021D02368E568D9F8002003F00603FC
:103DE000042B08BFAD1AA36822690CBF25EAE5754C
:103DF00000259342C4BF9B1AED184FF000091A34F6
:103E00004D451BD10020BDE8F087012352463946BD
:103E10003046C047013003D14FF0FF30BDE8F08796
:103E20000135C2E7E1185A1C302081F843002244D2
:103E300094F8451082F843100233C4E70123224668
:103E400039463046C0470130E6D009F10109D7E7CD
:103E50002DE9F04317460A7E85B06E2A984606463D
:103E60000C460C9B01F1430E00F0BC801AD8632A6B
:103E70002ED00AD8002A00F0C880582A00F08A8084
:103E800004F1420584F842202AE0642A01D0692A1C
:103E9000F6D121681A6811F0800F23D0111D196026
:103EA000136827E0732A00F0B48008D86F2A2AD05C
:103EB000702AE5D10A6842F020020A6003E0752A00
:103EC00021D0782ADCD1782284F845206E4964E03C
:103ED0001A6801F14205111D1960136884F8423017
:103EE0000123A3E011F0400F02F104011960D7D0C3
:103EF000B2F90030002B03DA2D225B4284F8432014
:103F000062490A2217E02068196810F0800F03D078
:103F1000081D18600B6806E010F0400F01F1040066
:103F20001860F7D00B8859496F2A14BF0A2208225B
:103F3000002084F843006568A560002DC0F29C80D5
:103F4000206820F004002060002B3FD1002D40F0BD
:103F500095807546082A0BD12368DA0708D52369AE
:103F600062689A42DEBF302305F8013C05F1FF3557
:103F7000AEEB05032361CDF800803B4603AA214642
:103F80003046FFF7EFFE013055D14FF0FF3005B05E
:103F9000BDE8F08381F845203C492268186812F09A
:103FA000800F00F104051D6001D0036802E0550692
:103FB000FBD50388D00744BF42F0200222601BB922
:103FC000226822F0200222601022B1E77546B3FB7E
:103FD000F2F002FB1033CB5C05F8013D03460028EC
:103FE000F5D1B7E708681A68496910F0800F04D066
:103FF000101D18601368196007E010F0400F02F1FF
:10400000040018601368F6D01980002323617546F8
:10401000B1E71A68111D1960156862680021284609
:10402000FCF7DEF808B1401B606063682361002381
:1040300084F843309FE723692A4639463046C04713
:104040000130A2D023689B0707D5002504F1190988
:10405000E368039A9B1A9D4205DBE068039B984244
:10406000B8BF184693E701234A4639463046C04751
:1040700001308AD00135EBE7002BA7D10B7884F80B
:10408000423004F1420565E76A43000859430008DD
:1040900010B5431E0A44914200D110BD11F8014BE6
:1040A00003F8014FF7E7884210B501EB020303D88C
:1040B000421E99420CD110BD9842F9D28118D21AF1
:1040C000D34200D110BD13F8014D01F8014DF7E7BF
:1040D00011F8014B02F8014FEBE7000038B5054637
:1040E000002945D051F8043C0C1F002BB8BFE41840
:1040F00000F0D6F81F4A1368104633B963601460A5
:104100002846BDE8384000F0CCB8A3420CD921685D
:104110006218934204BF1A685B68636004BF521858
:1041200022600460ECE713465A680AB1A242FAD949
:1041300019685818A0420BD12068014458188242CF
:104140001960DDD1106852685A6001441960D7E7E0
:1041500002D90C232B60D3E7206821188A4204BFC0
:1041600011685268626004BF091821605C60C7E78B
:1041700038BD00BFB000002070B5CD1C25F0030590
:1041800008350C2D38BF0C25002D064601DBA94251
:1041900003D90C233360002070BD00F081F8234A5E
:1041A0001468214691B9224C23681BB9304600F0AF
:1041B00067F820602946304600F062F8431C26D19B
:1041C0000C233360304600F06CF8E4E70B685B1BAF
:1041D0001AD40B2B0FD90B60CD50CC18304600F001
:1041E00060F804F10B00231D20F00700C31A1BD058
:1041F0005A42E25070BD8C420DBF63684B686360E9
:10420000136018BF0C46E9E70C464968CAE7C41CAE
:1042100024F00304A04205D0211A304600F030F803
:104220000130CDD02560D9E770BD00BFB0000020BF
:10423000B4000020F8B5074614460E4621B91146D1
:10424000BDE8F840FFF798BF22B9FFF747FF2546C2
:104250002846F8BD00F026F884420FD9214638469A
:10426000FFF78AFF05460028F2D031462246FFF7C5
:104270000FFF31463846FFF731FFE9E73546E7E7FC
:1042800038B5064C0023054608462360FFF75CFB63
:10429000431C02D1236803B12B6038BD9007002076
:1042A0007047704751F8040C0028A0F10400BCBF0F
:1042B0000B58C01870470000F8B500BFF8BC08BC28
:1042C0009E467047F8B500BFF8BC08BC9E467047D4
:1042D0000104020800101010041010100210101039
:1042E00008582056616C75653A20256875202D2088
:1042F000592056616C75653A202568750D0A0000D5
:104300000000000000000001020304060708090085
:104310000000000102030400A0860100400D03001C
:10432000801A060000350C0040420F0080841E00F9
:1043300000093D0000127A000024F40000366E01EE
:104340000048E801006CDC02232D302B2000686C53
:104350004C006566674546470030313233343536A8
:1043600037383941424344454600303132333435E1
:0C4370003637383961626364656600000E
:08437C0034BFFF7F01000000C7
:04438400B501000877
:044388009101000897
:10438C0000093D00080000200000000000000000B3
:10439C000000000000000000000000000000000011
:1043AC000000000000000000000000000000000001
:1043BC0000000000000000000000000000000000F1
:1043CC0000000000000000000000000000000000E1
:1043DC0000000000000000000000000000000000D1
:0843EC000000000000000000C9
:04000005080039C5F1
:00000001FF
