:020000040800F2
:10000000680B0020194D0008FB130008FB1F0008B7
:1000100000000000000000000000000000000000E0
:10002000000000000000000000000000AB2B0008F2
:100030000000000000000000272E0008794A000898
:10004000E33E00085B480008574C0008634C00087A
:10005000494D0008854A00084B4D0008954A0008A4
:100060004D4D00084F4D0008514D0008534D0008FC
:10007000554D0008574D0008594D00085B4D0008CC
:100080005D4D00085F4D0008614D0008634D00089C
:10009000654D0008674D0008694D00086B4D00086C
:1000A0006D4D00086F4D0008714D0008734D00083C
:1000B000A14A0008754D0008774D0008794D0008E9
:1000C00000B500221100C9B2022918DA0022C9B213
:1000D00010234B43C2540022C9B210234B43C31810
:1000E0005A600022C9B210234B43C3189A60002201
:1000F000C9B210234B43C318DA60491CE3E700BDC3
:1001000070B4039C049DC0B2102646438A55C0B209
:10011000102646438E197360C0B2102646438E19CE
:10012000B460C0B2102646438E19F56070BC7047AB
:10013000FCB583B006000F000A9D0B9C0A480078AE
:10014000002805D10120084908703800FFF7B8FFE2
:1001500001940095049B6846027B39003000C0B2D0
:10016000FFF7CEFF05B0F0BD8C0C0020F8B50025E0
:100170002A0000252C00E4B2042C0CDA00252B0008
:10018000DBB2022B05DA0025D2B28D54521C5B1C67
:10019000F6E7641CEFE700252B00DBB2022B00DB47
:1001A0009FE1D04DDBB210265E43865D0E277E4375
:1001B000AD192D7BDBB2CD54DBB210255D43455D1F
:1001C000002D2AD0022D63D028D3042D00D19BE02E
:1001D0006FD3062D00D1D4E000D2A7E0082D00D1C6
:1001E00014E100D2E7E00A2D00D170E100D24AE12B
:1001F0000C2D00D16DE100D26AE10E2D00D16AE133
:1002000000D267E1102D00D167E100D264E1122D28
:1002100000D164E100D261E161E160E1DBB2CF5C79
:10022000B94DAC46DBB210255D4345196E68142507
:100230006E436546AD5D3D43DBB2CD54B24DDBB29E
:1002400010265E438619766814277E43AD19AD7B70
:100250006E46357001252C00E4B26D462D786D1C7C
:10026000AC4214DAE4B202256543DBB2EE18DBB22D
:1002700010255D434519AF68BC466D462D782D1B92
:1002800008277D436746EF408F55641CE4E726E16D
:10029000DBB2CF5C9C4DAC46DBB210255D4345190B
:1002A0006E6814256E436546AD5D3D43DBB2CD54AB
:1002B00015E1DBB2CF5CA64DAC46DBB210255D4349
:1002C00045196E6809256E436546AD192D7A3D4383
:1002D000DBB2CD5401252C00E4B2042C13DAE4B2D5
:1002E00002256543DBB2EE18DBB210255D434519EC
:1002F000AF68BC4603252D1B08277D436746EF40AA
:100300008F55641CE8E7EAE0DBB2CF5C904DAC4669
:10031000DBB210255D4345196E6809256E436546BD
:10032000AD192D7A3D43DBB2CD54D8E0DBB2CF5CC2
:10033000874DAC46DBB210255D4345196E68092533
:100340006E436546AD192D7A3D43DBB2CD54012590
:100350002C00E4B2042C13DAE4B202256543DBB2CC
:10036000EE18DBB210255D434519AF68BC46032586
:100370002D1B08277D436746EF408F55641CE8E737
:10038000ADE001252C00E4B2042C13DAE4B202251E
:100390006543DBB2EE18DBB210255D4345196F688B
:1003A000BC4603252D1B08277D436746EF408F552C
:1003B000641CE8E793E0DBB2CF5C654DAC46DBB292
:1003C00010255D4345196E6809256E436546AD19D4
:1003D0002D7A3D43DBB2CD5401252C00E4B2042C30
:1003E00013DAE4B202256543DBB2EE18DBB2102566
:1003F0005D434519AF68BC4603252D1B08277D4387
:100400006746EF408F55641CE8E768E0DBB2CF5CDD
:10041000614DAC46DBB210255D4345196E6805257C
:100420006E436546AD192D79ED003D43DBB2CD54E9
:10043000DBB2CF5C464DAC46DBB210255D434519BF
:10044000AE6809256E436546AD192D7A3D43DBB292
:10045000CD5401252C00E4B2042C13DAE4B20225B9
:100460006543DBB2EE18DBB210255D434519EF683A
:10047000BC4603252D1B08277D436746EF408F555B
:10048000641CE8E72BE0DBB2CF5C434DAC46DBB24B
:1004900010255D4345196E6805256E436546AD1907
:1004A0002D79ED003D43DBB2CD54DBB2CF5C284D5E
:1004B000AC46DBB210255D434519AE6809256E4395
:1004C0006546AD192D7A3D43DBB2CD5407E006E019
:1004D00005E004E003E002E001E000E0FFE75B1C70
:1004E0005BE6F1BD5C48000880B502001000584989
:1004F00000F04AFE06D21000564900F058FE00F007
:10050000ABFE00E0002002BD5045000880B50200AF
:100510001000514900F038FE07D21000644900F085
:1005200046FE00F0ADFE80B200E0002002BD80B5C6
:1005300002001000484900F027FE07D210005C4975
:1005400000F035FE00F09CFE80B200E0002002BD0D
:10055000A44C000880B5020010006B4900F014FEA6
:1005600007D21000754900F022FE00F089FE80B22B
:1005700000E0002002BD80B502001000704900F0CC
:1005800003FE07D21000844900F011FE00F078FE4F
:1005900080B200E0002002BD284D000880B50200B6
:1005A00010007E4900F0F0FD0BD21000954900F0DC
:1005B000FEFDBF21090600F080FE00F061FE80B262
:1005C00000E0002002BD80B5020010008E4900F05E
:1005D000DBFD07D21000994900F0E9FD00F050FE64
:1005E00080B200E0002002BD80B5020010009449F6
:1005F00000F0CAFD07D21000A04900F0D8FD00F0BD
:100600003FFEC0B200E0002002BD80B50200100035
:100610008B4900F0B9FD07D21000984900F0C7FDE2
:1006200000F02EFEC0B200E0002002BD80B5020046
:100630001000834900F0A8FD07D210008F4900F098
:10064000B6FD00F01DFEC0B200E0002002BD0000BB
:100650001C2474462A24743C72C6684770B5040092
:100660002000A24900F090FD20D22000B84900F0FF
:100670009EFD0500280000F003FEC0B200F0AEFEB3
:100680000100280000F051FE06003000FC21890521
:1006900000F07AFD05D2280000F0F2FD401EC0B245
:1006A00005E0280000F0ECFDC0B200E0002070BDC5
:1006B000FED4684170B504002000A64900F064FD36
:1006C00020D22000C74900F072FD0500280000F08C
:1006D000D7FDC0B200F082FE0100280000F025FE28
:1006E00006003000FC21890500F04EFD05D22800EF
:1006F00000F0C6FD401EC0B205E0280000F0C0FDBD
:10070000C0B200E0002070BD03E773467CB5060070
:100710000C001500002001900095E4B22300012296
:10072000A3493000C0B2FFF703FDAF49A048FFF76F
:100730001DFDA049AC4800F009FB73BD0B247441BA
:10074000C0147444F0B583B005000C000020019083
:1007500000200090E4B22300022295492800C0B294
:10076000FFF7E6FCA0499248FFF700FD91499E483B
:1007700000F0ECFA9D48E4B2142161434018807BFC
:1007800007003A00D2B28B492800C0B200F017FB34
:1007900006003000FEBD00000124743E81E1734676
:1007A0007CB506000C001500002001900095E4B215
:1007B000230003227E493000C0B2FFF7B9FC8A490A
:1007C0007B48FFF7D3FC7B49874800F0BFFA73BD35
:1007D00030B583B005000C0000200190002000908F
:1007E000E4B22300042272492800C0B2FFF7A0FC43
:1007F0007D496F48FFF7BAFC6E497B4800F0A6FAC6
:1008000037BD000000007441242074447CB506000C
:100810000C001500002001900095E4B22300052291
:1008200063493000C0B2FFF783FC6F496048FFF7AF
:100830009DFC60496C4800F089FA73BDF423743D57
:10084000DA11833B30B583B005000C008020C00373
:10085000844212D200200190002000902300062242
:1008600053492800C0B2FFF763FC5F495048FFF7C7
:100870007DFC50495C4800F069FA37BD6E958337BE
:100880007CB506000C0015008020C003854212D202
:10089000002001900095E4B2230007224449300073
:1008A000C0B2FFF745FC50494148FFF75FFC4149A2
:1008B0004D4800F04BFA73BDF0B583B007000E0051
:1008C00015001C000194EDB20095F6B23300082229
:1008D00037493800C0B2FFF72BFC43493448FFF7D3
:1008E00045FC3449404800F031FAF7BD0180BB4572
:1008F0007CB506000C00150000200190EDB20095BB
:10090000E4B2230009222A493000C0B2FFF710FCEC
:1009100035492748FFF72AFC2649334800F016FAE4
:1009200073BD1CB50400002001900020009000233E
:100930000A221F492000C0B2FFF7FAFB2A491C48CF
:10094000FFF714FC1B49284800F000FA13BD000013
:100950000080BB4301007A451CB5040000200190D3
:100960000020009000230B2211492000C0B2FFF7A5
:10097000DFFB1D490E48FFF7F9FB0E491A4800F04E
:10098000E5F913BD1CB50400002001900020009083
:1009900000230C2206492000C0B2FFF7C9FB124910
:1009A0000348FFF7E3FB03490F4800F0CFF913BDFD
:1009B0003C0C00207C0C00201CB5040000200190A1
:1009C0000020009000230D22B3492000C0B2FFF7A1
:1009D000AFFB0549B048FFF7C9FBB049024800F03A
:1009E000B5F913BD0000FA41740C00205045000811
:1009F0001CB50400002001900020009000230E226E
:100A0000A5492000C0B2FFF793FBC749A248FFF7F2
:100A1000ADFBA249C44800F099F913BD1CB5040010
:100A2000002001900020009000230F229A4920000E
:100A3000C0B2FFF77DFBBC499748FFF797FB97498A
:100A4000B94800F083F913BD1CB5040000200190E3
:100A500000200090002310228F492000C0B2FFF731
:100A600067FBB1498C48FFF781FB8C49AE4800F029
:100A70006DF913BD1CB5040000200190002000900A
:100A80000023112284492000C0B2FFF751FBA64980
:100A90008148FFF76BFB8149A34800F057F913BD6C
:100AA00030B583B0040000200190002000900023A6
:100AB000122279492000C0B2FFF73AFB9A497648E2
:100AC000FFF754FB7549984800F040F9022273493A
:100AD0002000C0B200F073F90500280080B23EBDCE
:100AE0007CB506000C001500002001900095E4B2D2
:100AF0002300012268493000C0B2FFF719FB73BD23
:100B000030B583B005000C0000200190002000905B
:100B1000E4B22300022260492800C0B2FFF708FBBC
:100B200037BD7CB506000C00150000200190009533
:100B3000E4B22300032258493000C0B2FFF7F8FAAC
:100B400073BD30B583B005000C000020019000207B
:100B50000090E4B2230004224F492800C0B2FFF7FE
:100B6000E7FA37BD7CB506000C00150000200190A7
:100B70000095E4B22300052247493000C0B2FFF7D8
:100B8000D7FA73BD30B583B005000C00002001908A
:100B900000200090230006223F492800C0B2FFF742
:100BA000C7FA37BD7CB506000C0015000020019087
:100BB0000095E4B22300072237493000C0B2FFF7A6
:100BC000B7FA73BDF0B583B007000E0015001C0026
:100BD0000194EDB20095F6B2330008222E49380098
:100BE000C0B2FFF7A5FAF7BD7CB506000C001500F2
:100BF00000200190EDB20095E4B2230009222649BD
:100C00003000C0B2FFF794FA73BD1CB50400002099
:100C100001900020009000230A221F492000C0B24A
:100C2000FFF786FA13BD1CB50400002001900020D8
:100C3000009000230B2218492000C0B2FFF778FA79
:100C400013BD1CB50400002001900020009000237B
:100C50000C2211492000C0B2FFF76AFA13BD1CB57F
:100C60000400002001900020009000230D22C449C0
:100C70002000C0B2FFF75CFA13BD1CB504000020D1
:100C800001900020009000230E22BD492000C0B238
:100C9000FFF74EFA13BD00003C0C00207C0C002036
:100CA0001CB50400002001900020009000230F22BA
:100CB000B3492000C0B2FFF73BFA13BD1CB50400D6
:100CC000002001900020009000231022AC49200059
:100CD000C0B2FFF72DFA13BD1CB50400002001902F
:100CE0000020009000231122A5492000C0B2FFF788
:100CF0001FFA13BD1CB504000020019000200090D5
:100D0000002312229E492000C0B2FFF711FA13BD42
:100D100080B505499A48FFF729FA9A49024800F038
:100D200015F8984802BD0000740C002000B50100C1
:100D3000C9B2002905D0C9B2002905D0C9B202291B
:100D400002DA0800C0B200E0FF2000BD70B582B03A
:100D500006000D0000208C49087000200400E4B259
:100D6000042C2BDA0022894801898848406800F069
:100D700035FC0A2000900223E4B2022060432A18C6
:100D8000E4B2022060433118814800F0D1FC012216
:100D90007E4801897D48406800F020FC00207D49A4
:100DA00008707C480078142806DA00BF794800787B
:100DB000401C78490870F4E7641CD0E773BDF0B5B7
:100DC00004000B000021080001210D00EDB2042DEC
:100DD0000DDAEDB2022169435918E4B2095D561BE0
:100DE00008277E43B140014308006D1CEEE7F0BDCB
:100DF00070B506000C00002518213000C0B2FFF7C6
:100E0000A1FC654909680880E4B2002C17D0022CC7
:100E100027D01CD3042C38D02DD3062C48D03ED359
:100E2000082C59D04ED30A2C6AD05FD30C2C7BD01F
:100E300070D30E2C00D18BE000D27FE08EE05648BC
:100E4000006800780100C907C90F0D0086E052480C
:100E50000068008880B240080100C907C90F0D0072
:100E60007CE04D480068008880B280080100C90716
:100E7000C90F0D0072E048480068008880B2C008C1
:100E80000100C907C90F0D0068E0434800680088E9
:100E900080B200090100C907C90F0D005EE03E489D
:100EA0000068008880B240098007800F050055E087
:100EB00039480068008880B2C0090100C907C90F1D
:100EC0000D004BE034480068008880B2000A010041
:100ED000C907C90F0D0041E02F480068008880B2A3
:100EE000400A0100C907C90F0D0037E02A48006811
:100EF000008880B2800A0100C907C90F0D002DE0EB
:100F000025480068008880B2C00A0100C907C90FDF
:100F10000D0023E020480068008880B2000B01002B
:100F2000C907C90F0D0019E01B480068008880B28E
:100F3000400B0100C907C90F0D000FE016480068FB
:100F4000008880B2800B0100C907C90F0D0005E0C1
:100F500011480068008880B2C00B05002800C0B2AC
:100F600070BD00B50100C9B2192906DA0B48C9B233
:100F7000142251434018401C00E009A000BD0000AD
:100F80003C0C00207C0C00208C0C0020680C002005
:100F9000D80B00208D0C0020940000205045000844
:100FA0000000000038B504000D006869FFF7AEFAD4
:100FB000A083A869FFF7BBFAE083E869FFF7CAFAE4
:100FC0002084286AFFF7D7FA6084686AFFF7E6FA98
:100FD000A084A96A8720C00500F00CFE296800F0F3
:100FE000E6F800F04DF926216054E96A8720C00533
:100FF00000F000FE296800F0DAF800F041F927213E
:101000006054296B8720C00500F0F4FD296800F0CA
:10101000CEF800F035F928216054696B8720C005AF
:1010200000F0E8FD296800F0C2F800F029F9292154
:101030006054A86BFFF7C7FA6085E86BFFF7D4FA36
:101040002C216054286CFFF7E0FA2D216054686C65
:10105000FFF7ECFA2E2160544820285C2F216054C1
:10106000E86CFFF7FBFA31216054286DFFF722FB93
:10107000322160545420285C332160545520285C70
:10108000342160545620285AE086A28B042120780F
:10109000A3681B689847E28B05212078A3681B682A
:1010A0009847228C06212078A3681B689847628C99
:1010B00007212078A3681B689847A28C0821207814
:1010C000A3681B6898472620225C09212078A36822
:1010D0001B6898472720225C0A212078A3681B6898
:1010E00098472820225C0B212078A3681B6898472A
:1010F0002920225C0C212078A3681B689847628D08
:101100000D212078A3681B6898472C20225C0E21B3
:101110002078A3681B6898472D20225C0F21207837
:10112000A3681B6898472E20225C10212078A368B2
:101130001B6898472F20225C11212078A3681B6828
:1011400098473120225C13212078A3681B689847B8
:101150003220225C14212078A3681B689847332032
:10116000225C15212078A3681B6898473420225CF4
:1011700016212078A3681B689847E28E17212078F3
:10118000A3681B68984731BD0CB4012212060318EE
:10119000DA4207D84B18DA4204D802000A43921800
:1011A00002D288420CBC7047FCD08142FAE730B4CE
:1011B00005004D400122D20715404B180418240E9B
:1011C00028D01B0E2FD0FF2C34D0FF2B37D0E41AA1
:1011D000000209021043114343084808D10D1B1AAD
:1011E00002D2641EDB181B18DB18834200D31B1AC3
:1011F0004941F9D37F3426DDFE2C08DAE40548089E
:10120000C907194391416041284330BC7047FF2012
:10121000C005F9E728001B0E03D0FF2BF5D14902CA
:10122000F3D0D043F1E7FF2C01D14002F9D1FF20E8
:10123000C005E9E74002F4D1FF2BF8D1F1E728001F
:101240004902E2D0EDE70B0200202442DCD15B1220
:101250009B1CD9D9D805D7E700180ED2010E7F39CB
:101260000BD449421F3105D4C0010122D2071043DB
:10127000C84070470020401E704700207047200083
:101280000122D2070118090E7F3910D449421F31BB
:101290000FD4001805D2C0011043C84000D5D04378
:1012A0007047C0011043C84005D440427047002039
:1012B00070470042F3D5100070470122D2070300A7
:1012C0004B402ED4431A01D2C01AC91830B44B185F
:1012D0000418240E1B0E22D0FF2C20D0E31A182B4A
:1012E0001DDC09021143C40D641E00021043944624
:1012F0001925ED1A0A00AA40D940451801D36D08F6
:10130000A41CE405D209280A2D062A436546AA41F1
:10131000604103181B0EFF2B01D3C00DC00530BC6C
:101320007047514006E05140CCE70122D20703004C
:101330004B40F8D4431A03D2C01AC9185040514048
:1013400030B44B18090211430418240E1B0E40D070
:10135000FF2C3AD025009D410BD31ED8C50D40026D
:10136000401A0BD3ED050100400AC90591416841BF
:10137000D5E7C50D40024918401AD0D001214008D8
:10138000491C0018FCD58C4204D36D1A000AED05E7
:101390004019C4E7E8051040C1E7182DBFDCAC1CBC
:1013A0000D00E140E5414D40012D4941C40D0002D1
:1013B0001043451A01D46D199543641EE405280AAB
:1013C0002D069541604130BC7047FF2BA7D1D84313
:1013D000A5E72442A3D10020A1E700209D2102001F
:1013E0000AD002D4491E9218FCD5C905100A12066B
:1013F000524100D3012A48417047FEE7F8B5020088
:101400000023002400250868D840002800D1E4E02B
:10141000086801269E4006403400002C00D1DAE026
:101420004868022802D0486812281BD1D808042630
:1014300070431018006A05000F201E007607760F13
:1014400004277E43B040854308691E007607760F67
:1014500004277E43B04028430500D8080426704383
:10146000101805621068050003201E0002277E4345
:10147000B040854308798007800F1E0002277E4315
:10148000B0402843050015604868012808D0486826
:10149000022805D04868112802D0486812281CD1BB
:1014A0009068050003201E0002277E43B04085435C
:1014B000C8681E0002277E43B0402843050095609F
:1014C0005068050001209840854348680600F606EC
:1014D000F60F9E402E4335005560D068050003206E
:1014E0001E0002277E43B040854388681E00022705
:1014F0007E43B04028430500D5604868C0006AD5E7
:101500004348006801260643414806604048006899
:101510000600F607F60F009600983E489E0804273E
:101520007E43805905000F201E00B607B60F042722
:101530007E43B04085439020C005824201D1002007
:1015400014E03548824201D101200FE03348824245
:1015500001D102200AE03248824201D1032005E095
:101560003048824201D1042000E005201E00B60769
:10157000B60F04277E43B0402843050025489E0847
:1015800004277E438551284800680500A543486824
:10159000C00300D5254324480560244800680500A1
:1015A000A5434868800300D52543204805602048AE
:1015B00000680500A5434868C00200D525431C48C3
:1015C00005601C4800680500A5434868800200D5F6
:1015D0002543184805605B1C15E7F1BD00B5D2B284
:1015E000002A02D089B2816101E089B2816200BD26
:1015F00010B5040010480068A4B22040002806D0AE
:10160000A4B20D480460200080B200F0E1FC10BDDF
:10161000181002400800014000040048000800487B
:10162000000C004800100048000401400404014080
:10163000080401400C0401401404014038B50400C2
:10164000002C01D101206EE05D20205C002805D136
:1016500000205C216054200000F0D8FC02205D21B5
:101660006054206800684021884321680860E06871
:101670002D49884202D30020050002E0802040016D
:101680000500E068F0210901884206D0E068E02109
:10169000C900884201D00020A062206B002808D138
:1016A000E0682149884202D30220206301E0012042
:1016B00020636068A16801432069084361690143B0
:1016C000A0698022920010400843E1690143206A2A
:1016D0000843A16A014320680160206B022806D1FB
:1016E0002068006880210901014320680160A06929
:1016F000000C04210840616A0143606B0843E16803
:101700000143294320684160E06A2168086120683C
:10171000C069064901402068C1610020206601209F
:101720005D216054002032BD01070000FFF700007A
:10173000F6B583B004001F000A9D00F057FD01902C
:1017400000265C20205C012801D102207AE10120E2
:101750005C2160545D20205C012802D0022006003C
:1017600068E10398002805D00498002802D0BFB291
:10177000002F02D1012006005CE105205D216054AC
:1017800000202066049820644620275244202752D7
:101790000398A063E787A787A06A80218901884210
:1017A0000CD1206800680D49014020680160206864
:1017B000006880218901014320680160E068A24936
:1017C000884203D24620205A02280BDB206840685A
:1017D00003490140206841600BE000BFFFDF0000CB
:1017E000FFEFFFFF20684068802149010143206826
:1017F000416020680068400605D4206800684021E8
:10180000014320680160E0688F49884248D3E08F37
:10181000002804D14620205A002800D1B2E0E08FF1
:1018200000281CD020688068800718D5A06B00882D
:101830002168C860A06B801CA063E08F401EE08719
:10184000E08F00280BD1A06A80218901884206D14F
:10185000206800688021490101432068016046201A
:10186000205A00280FD020688068C0070BD5206858
:10187000C068216C0880206C801C20644620205A9F
:10188000401E462160520020C0438542BFD000F078
:10189000ADFC0199401AA842B9D303200600C9E063
:1018A000E08F002803D14620205A00286AD0E08F1C
:1018B00000282AD020688068800726D5E08F02287B
:1018C0000ADBA06B00882168C860A06B801CA06345
:1018D000E08F801EE08709E0A06B0100491CA16336
:1018E000007821680873E08F401EE087E08F0028B1
:1018F0000BD1A06A80218901884206D12068006846
:10190000802149010143206801604620205A0028B7
:101910002BD020688068C00727D54620205A02288F
:1019200017DB2068C068216C0880206C801C206454
:101930004620205A801E462160524620205A022806
:1019400013DA206840688021490101432068416022
:101950000BE0206C0100491C21642168097B0170A7
:101960004620205A401E462160520020C043854236
:1019700096D000F03BFC0199401AA84290D3032076
:10198000060057E0A06A80218901884238D12B00E7
:1019900001220121200000F05BF8002806D0206E13
:1019A0000221014321660320060043E0E068F021A4
:1019B0000901884206D12068C068694608806846E7
:1019C00000881DE02068007B694608806846008822
:1019D000206B022814D12B0001220121200000F0ED
:1019E00037F8002806D0206E02210143216603202B
:1019F00006001FE02068007B694608806846008872
:101A000020688068C00608D5206E02210143216647
:101A10000E4821688860012006002900200000F09F
:101A2000C5F8002801D020202066206E002801D0B3
:101A30000120060001205D21605400205C216054DB
:101A40003000C0B205B0F0BD01070000EFFF00009C
:101A5000F2B5040017001D0000F0C8FB0600206866
:101A6000806800990140B9423FD00020C0438542C0
:101A7000F5D0002D04D000F0B9FB801BA842EED3B6
:101A800020684068E02188432168486060688221BE
:101A9000490088420FD1A06880210902884204D001
:101AA000A0688021C900884205D1206800684021D3
:101AB000884321680860A06A8021890188420CD18E
:101AC000206800684A490140206801602068006879
:101AD0008021890101432068016001205D2160545B
:101AE00000205C216054032000E00020F2BD0000D3
:101AF000F2B582B0040017001D0000F077FB06006D
:101B00002068806802990140B9424CD00298C021F7
:101B1000C900884207D1002F05D12068007B6946A3
:101B20000870684600780020C0438542E8D0002D48
:101B300004D000F05BFB801BA842E1D32068406822
:101B4000E02188432168486060688221490088421A
:101B50000FD1A06880210902884204D0A0688021AA
:101B6000C900884205D12068006840218843216867
:101B70000860A06A8021890188420CD12068006831
:101B80001B490140206801602068006880218901AC
:101B900001432068016001205D21605400205C2128
:101BA0006054032000E00020FEBD000038B50400B2
:101BB0000D002B000022C02149012000FFF798FFF3
:101BC000002805D0206E20210143216603200EE06D
:101BD0002B00002280212000FFF73AFF002805D0CB
:101BE000206E202101432166032000E0002032BD49
:101BF000FFDF000030B405004D400122D207154040
:101C00004B180418240E2ED01B0E32D0FF2C34D0CB
:101C1000FF2B3AD0E4180002090210431143000AD6
:101C2000090A9446C2B24A43000AC3B24B43000AAF
:101C30004843110A5B181A43D2B2190A091801D491
:101C40004918641E080A7F3C23DBFE2C08DAE405F1
:101C500009061143634699416041284330BC7047EF
:101C6000FF20C005F9E728001B0EFF2BF6D1D0435B
:101C7000F4E72800FF2CF1D1F9E74002F7D1FF2B60
:101C800001D14902F3D1E005E7E7D8054902E4D0E4
:101C9000EDE743020020641CDFD15B129B1CDCD902
:101CA000D805DAE7F0B587B0BD49BE4800F0D8FAEC
:101CB00000F090FB00F006FC0390002069460871DC
:101CC00068460079002818D16846007900F011FEB6
:101CD000C0B200F0C0FE0090039869460979B022B6
:101CE0005143401802900298009949688847684615
:101CF00069460979491C0171E2E7AB49A94800F03E
:101D0000AFFA00F067FB042069464871002000F03C
:101D1000F0FD0500002000F0ECFDEDB2A8424FD32D
:101D20002800C0B200F097FE00900020FEF7FEFFF2
:101D300004000120FEF7FAFFE4B2A0423ED303986C
:101D4000EDB202216943E4B2091958225143401807
:101D50000290029854300178022000F02BF907001D
:101D600002984068FFF778FA78436946497900F0AD
:101D7000C5FE04900020060068464079F6B286420F
:101D80001AD2049B01222100C9B22800C0B2009FD0
:101D9000BF683F69B84701222100C9B22800C0B21C
:101DA000009B9B689B6C98470028F4D0FA20800029
:101DB00000F01FFA761CDFE7641CBAE76D1CA9E788
:101DC0007A4800F016FA002000F093FD050000208C
:101DD00000F08FFDEDB2A8422DD30020FEF7A6FF44
:101DE00004000120FEF7A2FFE4B2A0421DD3039835
:101DF000EDB202216943E4B2091958225143401857
:101E0000029002980069FEF76FFB0590059A012188
:101E10002000C0B2009BE4B204276743DB19DB68F3
:101E20009B681B6D9847641CDBE700988068C06C5A
:101E300080476D1CCBE75E4800F0DBF9002000F026
:101E400058FD0500002000F054FDEDB2A8421DD35E
:101E50000020FEF76BFF04000120FEF767FFE4B2ED
:101E6000A0420DD32000C0B20099E4B20422624324
:101E70008918C9688968803109688847641CEBE75C
:101E800000988068C06C80476D1CDBE708206946BD
:101E90004871002000F02DFD0500002000F029FD14
:101EA000EDB2A8424FD32800C0B200F0D4FD00909C
:101EB0000020FEF73BFF04000120FEF737FFE4B2ED
:101EC000A0423ED30398EDB202216943E4B209195E
:101ED0005822514340180290029854300178022051
:101EE00000F068F8070002984068FFF7B5F97843FA
:101EF0006946497900F002FE049000200600684619
:101F00004079F6B286421AD2049B01222100C9B25E
:101F10002800C0B2009FBF683F69B8470122210076
:101F2000C9B22800C0B2009B9B689B6C98470028F0
:101F3000F4D0FA20800000F05CF9761CDFE7641C26
:101F4000BAE76D1CA9E7002000F0D3FC05000020D3
:101F500000F0CFFCEDB2A8421DD30020FEF7E6FE54
:101F600004000120FEF7E2FEE4B2A0420DD32000FF
:101F7000C0B20099E4B2042262438918C968896832
:101F8000883109688847641CEBE700988068C06C5A
:101F900080476D1CDBE7002000F032FE07B0F0BD8B
:101FA000BC4B0008680B0020DC4B0008C409000093
:101FB0001027000010B50200012000242300DBB22E
:101FC000C9B28B4203D2D2B250435B1CF7E710BDBB
:101FD00010B50400A4B22000012808D0022809D0BE
:101FE00080218901884207D100F0C0FC04E000F0A4
:101FF000B9FC01E000F0B8FC10BDFEE780B500229E
:1020000000210020C04300F0DCFE01BD10B586B009
:10201000040020685E49884247D15A480068802100
:1020200089020143574801605648006880218902AF
:10203000084000900098534800688021C90201437D
:10204000504801604F4800688021C9020840009054
:1020500000984D4800688021490101434A480160C9
:102060004948006880214901084000900098C0203C
:102070000190022002900020039003200490002091
:10208000059001A99020C005FFF7B8F9082001903C
:10209000022002900020039003200490002005906D
:1020A00001A93A48FFF7AAF92EE020683949884289
:1020B0002AD1344800688021C902014331480160B7
:1020C000304800688021C9020840009000983248DA
:1020D00000688021C90101432F4801602E48006833
:1020E0008021C901084000900098E0200002019082
:1020F000022002900020039003200490002005900D
:1021000001A92248FFF77AF906B010BD10B586B0D4
:10211000040020682149884232D11A480068802191
:10212000890201431748016016480068802189022E
:1021300008400090009818480068802189020143F7
:102140001548016014480068802189020840009009
:1021500000980C200190022002900120039003209F
:1021600004900120059001A99020C005FFF746F9D1
:10217000002200211C2000F024FE1C2000F02BFE79
:1021800006B010BD141002401810024000040048B0
:1021900000300140003800401C1002400044004064
:1021A00080B51A48006810210143184801600020DA
:1021B00000F004F8FFF722FF002002BD10B5040074
:1021C00001F0BAFAFA21890000F098FC00F011FE43
:1021D000002221000020C04300F0F3FD002010BDCC
:1021E0000B480068401C0A490860704708480068AE
:1021F000704711B581B00024FFF7F8FF0400FFF726
:10220000F5FF001B01998842F9D313BD002002405D
:10221000880C002080B53DA11C4800F021F86749DA
:102220001A4800F01DF86649184800F019F8654989
:10223000164800F015F86449144800F011F8634995
:10224000124800F00DF862A1104800F009F8714939
:102250000E4800F005F870490C4800F001F801BD87
:1022600070B505000E000020040020000400641C6E
:10227000C0B2305C0028F8D1641E0A23E4B2220008
:1022800092B23100280001F0C7FA70BD680B00203F
:1022900038B504002068808C05005A20205A012897
:1022A00002D0EDB20D2D2FD15A20205A401C5A21B8
:1022B0006052606D401E60650020616D087013A162
:1022C0002000FFF7CDFF2068C0698006FBD420689E
:1022D000006820218843216808606920205C32283A
:1022E00003D11220692160540EE0206800686D4916
:1022F00001402068016020688068012188432168CE
:10230000886001206921605431BD00000A0D000081
:10231000F8B506000C003000C0B200F0F4FA002856
:102320004BD061A16148FFF79BFF61495F48FFF710
:1023300097FF0021E4B2200000F070F801005B4834
:10234000FFF78EFF5B495948FFF78AFF0021F6B27D
:10235000300000F063F801005448FFF781FF564950
:102360005248FFF77DFF00200500EDB2192D20DA5D
:102370002900C9B22000C0B2FEF7E4F90700280026
:10238000C0B2FEF7EEFD01004848FFF769FF4BA120
:102390004648FFF765FF0321380000F03FF80100D1
:1023A0004248FFF75DFF40A14048FFF759FF6D1C11
:1023B000DBE73DA13D48FFF753FFF1BD904C00081E
:1023C000F04A0008204B0008B84C0008C84C000830
:1023D000200A0D0038B5002000F08BFA050000201F
:1023E00000F087FAEDB2A84213D30020FEF79EFC5E
:1023F00004000120FEF79AFCE4B2A04207D32100BA
:10240000C9B22800C0B2FFF783FF641CF1E76D1C5E
:10241000E5E731BD784C0008FC4B0008F0B5020040
:10242000C9B2002905D0022909D005D3032909D052
:102430000AE00120050007E00220050004E0042076
:10244000050001E00820050000200300DBB2EDB22A
:10245000AB4220D200201A4EDBB2F0540F206E1E89
:10246000F61A04277E43B04010406E1EF61A042769
:102470007E43F0400400E4B20A2C05DA200030303C
:102480000F4EDBB2F05404E0200037300C4EDBB2CC
:10249000F0545B1CDAE70020094EDBB2F054084828
:1024A000F0BD0000FFFEFFFF0A0D0000680B0020DA
:1024B000784B0008D84C0008404D00083A20000036
:1024C0005C0C002000487047183F000810B586B02B
:1024D00059480068594909680143574801605748FD
:1024E00000890090112001900020029003200390A9
:1024F000694652484068FEF781FF4F4800685049DE
:10250000096801434C4801604D48008900904D48DE
:10251000019000200290694649484068FEF76EFF2E
:1025200000220021052000F04CFC43480068464989
:1025300009680143404801604348008900904148D0
:1025400001900020029069463F484068FEF756FF20
:1025500000220021052000F034FC002000F0C9F921
:102560000400002000F0C5F9E4B2A04221D33248B3
:1025700000683649E4B20C226243895801432E4870
:1025800001603248E4B20C21614340180089009098
:1025900001200190002002900320039069462B48FF
:1025A000E4B20C22624380184068FEF727FF641CE7
:1025B000D7E706B010BD38B50022204801891F4872
:1025C0004068FFF70BF801221C4801891B4840684E
:1025D000FFF704F8002000F08CF90500002000F05F
:1025E00088F9EDB2A84220D32800C0B200F08BF9E0
:1025F00001221748018916484068FEF7EFFF0020C6
:10260000FEF794FB04000120FEF790FBE4B2A04229
:1026100009D32000C0B2FEF7CFF92000C0B2FEF708
:102620003FFA641CEFE76D1CD8E7002000F061F969
:10263000C0B200F068F931BD14100240340300202C
:1026400040030020000021104C030020580300200C
:10265000680C002010B50400E4B2012C06D105205E
:1026600000F0B9FB052000F0B6FB05E0052000F006
:10267000B9FB052000F0B6FB10BDF8B506000D0053
:1026800014001F003000C0B200F03DF9002806D051
:102690003A002100C9B22800C0B2FEF737F8F1BDF8
:1026A00070B505000C0016002800C0B200F02BF930
:1026B000002806D03100C9B22000C0B2FEF742F8AF
:1026C00000E0FF2070BDF8B506000D0014001F00EB
:1026D0003000C0B200F017F9002806D03A002100FF
:1026E000C9B22800C0B2FEF75BF8F1BD70B50500B5
:1026F0000C0016002800C0B200F005F9002805D033
:102700003100C9B22000C0B2FEF762F870BDF8B562
:1027100006000D0014001F003000C0B200F0F3F8F6
:10272000002806D03A002100C9B22800C0B2FEF746
:102730006DF8F1BD70B505000C0016002800C0B2A0
:1027400000F0E1F8002804D031002000C0B2FEF70C
:1027500079F870BDF8B506000D0014001F003000B8
:10276000C0B200F0D0F8002806D03A002100C9B26B
:102770002800C0B2FEF784F8F1BDF1B50F001600D5
:102780001D00069C6846007800F0BDF8002808D0BF
:1027900023002A00D2B23100C9B23800C0B2FEF71D
:1027A0008BF8F1BDF8B506000D0014001F003000D5
:1027B000C0B200F0A8F8002807D03A00D2B2210039
:1027C000C9B22800C0B2FEF793F8F1BD38B50500D4
:1027D0000C002800C0B200F096F8002803D02000BA
:1027E000C0B2FEF79EF831BD38B505000C002800D8
:1027F000C0B200F088F8002803D02000C0B2FEF775
:10280000ABF831BD38B505000C002800C0B200F0AF
:102810007AF8002803D02000C0B2FEF7B3F831BD2B
:1028200038B505000C002800C0B200F06CF8002894
:1028300003D02000C0B2FEF7BFF831BD38B50500A7
:102840000C002800C0B200F05EF8002803D0200081
:10285000C0B2FEF7CDF831BD38B505000C00280038
:10286000C0B200F050F8002803D02000C0B2FEF73C
:10287000D5F831BD38B505000C002800C0B200F015
:1028800042F8002803D02000C0B2FEF7DDF831BDC9
:1028900038B505000C002800C0B200F034F800285C
:1028A00003D02000C0B2FEF7E5F831BD38B5050011
:1028B0000C002800C0B200F026F8002804D0200048
:1028C000C0B2FEF7EDF800E0002032BD70B50500A3
:1028D0000C0016002800C0B200F015F8002806D041
:1028E0003100C9B22000C0B2FEF782FA00E0FF203A
:1028F00070BD00B50100C9B2002902D10800C0B204
:1029000000E0FF2000BD00B50100C9B2002918D1C8
:102910006348C9B20C224A438058624A106060483A
:10292000C9B20C224A43801840685E4A50605C4835
:10293000C9B20C224A43801800895A4A10810120EA
:1029400000E0002000BD80B50020FFF7D2FFC0B23C
:10295000FFF7D9FFFFF7BAFDFFF72DFE0120FFF7C4
:1029600079FE01BD00BF704700BF704780B50022EF
:102970004D4801894C484068FEF730FEFEE738B507
:1029800004004A4805002100280000F0A7F831BDE6
:1029900038B50400464805002100280000F09EF8E4
:1029A00031BD38B50400434805002100280000F07F
:1029B00095F831BD38B504003F48050021002800D6
:1029C00000F08CF831BD38B504003C48050021000A
:1029D0002800FEF7E7FA31BD38B504003848050095
:1029E00021002800FEF7DEFA31BD38B50400354875
:1029F000050021002800FEF7D5FA31BD38B50400E6
:102A00003148050021002800FEF7CCFA31BD38B569
:102A100004002E48050021002800FEF7C3FA31BD4E
:102A200038B504002A48050021002800FEF7BAFA4C
:102A300031BD38B504002748050021002800FEF705
:102A4000B1FA31BD38B50400234805002100280043
:102A5000FEF7A8FA31BD10B504000020FFF749FFCA
:102A6000E4B2844201D1114818E00120FFF741FF90
:102A7000E4B2844201D10E4810E00220FFF739FF92
:102A8000E4B2844201D10B4808E00320FFF731FF94
:102A9000E4B2844201D1084800E0002010BD0000EB
:102AA00058030020680C002034030020D4020020CA
:102AB000EC020020040300201C030020F40000208E
:102AC000300100206C010020A8010020E40100205A
:102AD000200200205C0200209802002038B505008A
:102AE0000C002878696988472000E96849688847A8
:102AF0002000583029694968884731BD0022030AFF
:102B00008B420BD203098B4219D243088B422ED23F
:102B1000411A00D20146524110467047FF22090275
:102B20003FD012068B4205D3121209028B4201D309
:102B30001212090203098B4219D300E0090AC309E2
:102B40008B4201D3CB01C01A524183098B4201D37E
:102B50008B01C01A524143098B4201D34B01C01A69
:102B6000524103098B4201D30B01C01A5241C308E1
:102B70008B4201D3CB00C01A524183088B4201D350
:102B80008B00C01A524143088B4201D34B00C01A3C
:102B90005241884200D3401A5241CFD201461046DA
:102BA000704708B501F09CF908BDFEE710B586B086
:102BB0000400E4B2002C0DD146480068802189024F
:102BC000014344480160434800688021890208406D
:102BD000009000984048E4B202216143405A0190BD
:102BE00001200290012003900320049001A93B489A
:102BF000E4B2042262438058FEF700FC06B010BD28
:102C000010B5040001223448E4B202216143415A64
:102C10003248E4B204236343C058FEF7DFFC10BD22
:102C200010B5040000222C48E4B202216143415A4D
:102C30002A48E4B204236343C058FEF7CFFC10BD1A
:102C400030B587B004000D00E4B2002C0DD121484E
:102C500000688021090301431E4801601D48006887
:102C6000802109030840009000981D48E4B2022129
:102C70006143405A01900020039003200490EDB27C
:102C8000002D09D10020029001A91648E4B20422C7
:102C900062438058FEF7B2FBEDB2012D17D1124806
:102CA000029001A90F48E4B2042262438058FEF763
:102CB000A5FB002203210D48E4B2005D40B200F004
:102CC00080F80A48E4B2005D40B200F084F807B032
:102CD00030BD0000141002407E1200089800002051
:102CE000DA1300089C000020000021107A4D000833
:102CF0000121C206D20E9140414A11607047012164
:102D0000C206D20E91403F4A11607047F0B540B202
:102D1000002821D53C4C40B20207120F083A950812
:102D200004225543384A40B203071B0F083B9B0857
:102D300004267343D258FF238607B60F08277E4325
:102D4000B3409A438B01DBB28607B60F08277E4358
:102D5000B340134363511AE02C4A40B28308042461
:102D60006343D258FF238407A40F08256C43A34074
:102D70009A438B01DBB28407A40F08256C43A34060
:102D80001343224A40B2840804256C431351F0BD1A
:102D900010B50400601E80214904884201D301203F
:102DA0000EE0601E1A49086003210020C043FFF7AF
:102DB000ADFF002017490860072017490860002070
:102DC00010BD70B504000D0016002900200040B2AF
:102DD000FFF79CFF70BD10B50400200040B2FFF764
:102DE00087FF10BD10B50400200040B2FFF787FF39
:102DF00010BD10B504002000FFF7CAFF10BD000091
:102E000000E100E080E100E01CED00E000E400E013
:102E100014E000E018E000E010E000E080B500F011
:102E200001F801BD7047FEE738B5040000252078A1
:102E3000C00700D492E0A44800680C210140042996
:102E40000ED0A14800680C210140082911D19E48EC
:102E50000068C0214902014080204002814208D11F
:102E6000BD480068800379D56068002876D10120CC
:102E7000B2E2B9480068B9490140B7480160B648B4
:102E80000068B7490140B4480160FFF7AFF9050099
:102E9000B1480068800307D5FFF7A8F9401BB14986
:102EA0008842F5D3032097E26068012807D1AA4839
:102EB0000068802149020143A74801602DE0606855
:102EC00000280CD1A4480068A4490140A248016030
:102ED000A1480068A24901409F4801601DE0606868
:102EE00005280ED19C4800688021C90201439A48F8
:102EF00001609948006880214902014396480160B9
:102F00000BE095480068954901409348016092485C
:102F100000689349014090480160606800280ED025
:102F2000FFF764F905008C480068800316D4FFF7AA
:102F30005DF9401B8B498842F5D303204CE2FFF733
:102F400055F9050084480068800307D5FFF74EF95E
:102F5000401B84498842F5D303203DE22078800756
:102F60005CD5594800680C21014000290ED0564814
:102F700000680C21014008291BD153480068C0217A
:102F80004902014080200002814212D1724800684B
:102F9000800704D5E068012801D001201CE26E48BA
:102FA0000068F82188432169C90001436A4801602B
:102FB00034E0E06800281DD0674800680121014323
:102FC00065480160FFF712F9050063480068800753
:102FD00006D4FFF70BF9401B6528F6D30320FBE16D
:102FE0005D480068F82188432169C90001435A48B7
:102FF000016013E058480068012188435649086081
:10300000FFF7F4F8050054480068800706D5FFF77D
:10301000EDF8401B6528F6D30320DDE1207800079A
:103020002AD5206A002813D0B9480068012101433D
:10303000B7480160FFF7DAF80500B5480068800777
:103040001AD4FFF7D3F8401B6528F6D30320C3E159
:10305000AF48006801218843AD490860FFF7C6F812
:103060000500AB480068800706D5FFF7BFF8401B96
:103070006528F6D30320AFE12078400700D4A0E014
:10308000A4480068802149050143A2480160A14885
:103090000068802149050840009000989E4800681B
:1030A0008021490001439C480160FFF79FF805001B
:1030B00099480068C00509D4FFF798F8401B6528B7
:1030C000F6D3032088E100BF04100240C348006823
:1030D00001218843C1490860C04800680421884331
:1030E000BE490860FFF782F80500BC480068800709
:1030F00007D5FFF77BF8401B1A498842F5D3032018
:103100006AE1A068012806D1B448006801210143A2
:10311000B248016034E0A06800280CD1AF480068D4
:1031200001218843AD490860AC4800680421884308
:10313000AA49086024E0A068052815D1A7480068BE
:1031400004210143A5480160A4480068012101430E
:10315000A248016014E000BF00100240FFFFFEFF24
:10316000FFFFFBFF891300009C4800680121884392
:103170009A49086099480068042188439749086083
:10318000A06800280ED0FFF731F8050093480068CA
:10319000800716D4FFF72AF8401B91498842F5D3DF
:1031A000032019E1FFF722F805008C48006880072A
:1031B00007D5FFF71BF8401B89498842F5D3032048
:1031C0000AE12078C00655D56069012823D18548D9
:1031D000006804210143834801608248006801219E
:1031E000014380480160FFF701F805007D48006851
:1031F000800706D4FEF7FAFF401B6528F6D30320AC
:10320000EAE078480068F8218843A169C9000143D1
:10321000744801602EE060690421C94388420FD1DF
:1032200070480068042188436E4908606D48006852
:10323000F8218843A169C90001436A48016019E087
:1032400068480068042101436648016065480068D9
:103250000121884363490860FEF7C8FF0500614803
:103260000068800706D5FEF7C1FF401B6528F6D32E
:103270000320B1E02078800650D55B4800680C211F
:1032800001400C290ED0584800680C210140082943
:1032900011D155480068C02149020140C0204002B8
:1032A000814208D14F480068C00337D5E069012842
:1032B00034D0012090E0E069002814D0494800682B
:1032C00080214902014347480160FEF78FFF050056
:1032D00044480068C00321D4FEF788FF401B6528DE
:1032E000F6D3032078E03F480068404901403D485C
:1032F0000160FEF77BFF05003A480068C0030DD56A
:10330000FEF774FF401B6528F6D3032064E000BF7E
:10331000241002401C10024000700040606A002827
:1033200059D0314800680C210140082951D0606A09
:1033300002283AD12E4800682E4901402C480160ED
:10334000FEF754FF05002A480068800106D5FEF705
:103350004DFF401B6528F6D303203DE0264800685A
:103360000F218843216B0143234801601E480068F8
:1033700022490140E06A0843A16A01431A480160FA
:103380001B48006880214904014319480160FEF789
:103390002DFF05001648006880011CD4FEF726FFAB
:1033A000401B6528F6D3032016E011480068114938
:1033B00001400F480160FEF719FF05000C48006846
:1033C000800108D5FEF712FF401B6528F6D30320C5
:1033D00002E0012000E0002032BD00BF20100240CA
:1033E000891300003410024004100240FFFFFEFF6A
:1033F00000100240FFFFFFFE2C100240FF7FC2FFC3
:1034000070B505000C000026994800680100C90746
:10341000C90FA14200D38FE095480068012188437D
:10342000204393490860924800680100C907C90F0A
:10343000A14201D0012019E12878800707D58D48E5
:103440000068F0218843A96801438A480160287810
:10345000C00700D4FBE06868012805D186480068F1
:10346000800319D4012001E16868022805D182484F
:103470000068800110D40120F8E06868032805D1B5
:103480007E480068C00307D40120EFE07A48006856
:10349000800701D40120E9E07648006803218843D1
:1034A0006968014373480160FEF7A0FE0600686882
:1034B00001280ED16F4800680C210140042900D179
:1034C000C5E0FEF793FE801B6D498842F2D30320CE
:1034D000CCE0686802280ED1664800680C210140E3
:1034E000082900D1B3E0FEF781FE801B64498842C1
:1034F000F2D30320BAE0686803280ED15D48006863
:103500000C2101400C2900D1A1E0FEF76FFE801BC9
:103510005B498842F2D30320A8E0564800680C219A
:103520000140002900D192E0FEF760FE801B544963
:103530008842F2D3032099E02878800707D54D48C8
:103540000068F0218843A96801434A48016028784F
:10355000C0076CD56868012805D14748006880031A
:1035600019D4012082E06868022805D14248006829
:10357000800110D4012079E06868032805D13F4814
:103580000068C00307D4012070E03B480068800752
:1035900001D401206AE03748006803218843696844
:1035A000014334480160FEF721FE060068680128E7
:1035B0000DD1304800680C210140042937D0FEF7B6
:1035C00015FE801B2E498842F3D303204EE0686825
:1035D00002280DD1274800680C210140082926D077
:1035E000FEF704FE801B26498842F3D303203DE00A
:1035F000686803280DD11F4800680C2101400C2980
:1036000015D0FEF7F3FD801B1D498842F3D303203C
:103610002CE0184800680C210140002907D0FEF773
:10362000E5FD801B16498842F3D303201EE01048B5
:1036300000680121884320430D4908600C48006858
:103640000100C907C90FA14201D001200EE028786E
:10365000400707D50748006845490140E868084326
:10366000044908600020FEF7A9FD002070BD00009D
:1036700000200240041002400010024034100240BA
:1036800089130000F0B589B005A83B49102200F06D
:1036900029FC01A83949102200F024FC0024002054
:1036A00000900025002600273248006804000C2006
:1036B0002040042804D0082805D00C2834D036E057
:1036C0002F48070035E005A8A10C0907090F405C49
:1036D000060001A82B4909680907090F405C009002
:1036E000C0204002204080214902884206D124485F
:1036F0000099FFF703FA7043050013E0C020400271
:103700002040C0214902884206D11F480099FFF796
:10371000F5F97043050005E019480099FFF7EEF947
:10372000704305002F0004E01748070001E014482B
:103730000700380009B0F0BD80B5FFF7A3FF1349BB
:103740000C4A126812091207120F895CC84010490E
:1037500008600F48006802BD80B5FFF7EDFF0B4918
:10376000044A1268120A5207520F895CC84002BD0F
:10377000FFF8FFFF04100240E84C0008F84C000876
:1037800000127A002C100240006CDC02084D000888
:10379000A000002010B50400002C01D1012037E06A
:1037A000A0690028FFD16920205C002805D10020F5
:1037B000682160542000FEF7A9FC022069216054B2
:1037C000206800680121884321680860200000F01B
:1037D00099F8012801D101201AE0606A002802D07E
:1037E000200000F08DF9206840680A4901402068F7
:1037F0004160206880682A218843216888602068A9
:1038000000680121014320680160200000F0F0F908
:1038100010BD0000FFB7FFFFF8B505000C00160053
:103820001F006920285C012803D06920285C222819
:1038300063D1002C02D0B6B2002E01D101205DE090
:103840006820285C012801D1022057E0012068216E
:1038500068540020E8666920285C222803D13220C1
:103860006921685402E012206921685450202E52C8
:1038700052202E525220285A002824D05220285A52
:10388000401E522168523B0000228021280000F097
:10389000E9F9002801D0032030E0A868802149011F
:1038A00088420BD12869002808D10094009800882C
:1038B000C005C00D29680885A41CDBE720782968AD
:1038C0000885641CD6E73B0000224021280000F058
:1038D000C9F9002801D0032010E06920285C3228B3
:1038E00003D122206921685402E001206921685433
:1038F000002068216854002000E00220F2BD7047DB
:1039000070477047F0B583B0040000200090102588
:1039100000270026002069460871A068216901433C
:1039200060690843E16901430091206800687249B9
:1039300001400098084321680860206840686F498A
:103940000140E068084321684860A069216A01439A
:10395000009120688068A2490140009808432168CE
:10396000886020689F4988421AD19F480068800774
:10397000800F002805D002280CD008D3032803D0DC
:103980000BE00020050042E0022005003FE004209B
:1039900005003CE00820050039E01020050036E075
:1039A00020689249884222D18F480068C02189024C
:1039B000014000290CD08020400281420ED080209E
:1039C000800281420DD0C0208002814203D00BE0F2
:1039D000002005001BE00220050018E0042005007F
:1039E00015E00820050012E0102005000FE0206817
:1039F0009949884202D10020050008E020689749D3
:103A0000884202D10020050001E010200500E06995
:103A10008021090288423AD1EDB22800002806D060
:103A200002280DD0042811D0082818D01EE0FFF776
:103A300093FE022148436168FFF760F8060018E032
:103A400087486168FFF75AF8060012E0FFF71AFE90
:103A5000022148436168FFF751F8060009E0802021
:103A600040026168FFF74AF8060002E0012069465B
:103A70000871B348304007003900300080B2400878
:103A800047077F0F0F43BFB22068C76030E0EDB239
:103A90002800002806D002280DD0042813D00828BA
:103AA0001AD022E0FFF758FE6168FFF727F880B2CE
:103AB0002168C8601CE0A3486168FFF71FF880B266
:103AC0002168C86014E0FFF7DDFD6168FFF716F8B4
:103AD00080B22168C8600BE0802000026168FFF7B7
:103AE0000DF880B22168C86002E0012069460871C3
:103AF00068460079FEBD0000F369FFEFFFCFFFFFCE
:103B000000B52421415CC90707D5016849688E4A80
:103B10000A40816A1143026851602421415C89078F
:103B200007D501684968894A0A40C16A1143026899
:103B300051602421415C490707D501684968844ADE
:103B40000A40016B1143026851602421415C09075E
:103B500007D5016849687F4A0A40416B11430268F2
:103B600051602421415CC90607D5016889687A4AF9
:103B70000A40816B1143026891602421415C8906EF
:103B800007D501688968754A0A40C16B114302680C
:103B900091602421415C490614D501684968704A46
:103BA0000A40016C114302685160016C802252038B
:103BB000914207D1016849686A4A0A40416C114341
:103BC000026851602421415C090607D501684968F3
:103BD000654A0A40816C11430268516000BD0000D3
:103BE000FFF4FFFF00380140301002400044004065
:103BF00010B504000020E06620685C49884203D0CC
:103C000020685B4988421FD12068006800070BD5F7
:103C1000FA239B00002280218903200000F022F873
:103C2000002801D0032016E02068006840070BD56B
:103C3000FA239B0000228021C903200000F012F823
:103C4000002801D0032006E00120692160540020F3
:103C500068216054002010BD00480040004C004026
:103C60000024F400F4B504000F001D00FEF7BEFAB6
:103C700006006846007800282FD12068C0693840C7
:103C8000B8425AD00020C0438542F6D0002D04D05F
:103C9000FEF7ACFA801B8542EFD2206800688021D5
:103CA00088432168086020680068202188432168D3
:103CB0000860206800688949014020680160206828
:103CC000806801218843216888600120692160544F
:103CD000002068216054032030E02068C06938402B
:103CE000B8422AD10020C0438542F6D0002D04D02E
:103CF000FEF77CFA801B8542EFD2206800688021A5
:103D00008843216808602068006820218843216872
:103D100008602068006871490140206801602068DF
:103D200080680121884321688860012069216054EE
:103D3000002068216054032000E00020F2BD000054
:103D4000F0FF000000127A00FFFFFDFFFFFFFEFF03
:103D5000FFFFFBFFFF7FFFFFFFEFFFFFFFDFFFFF27
:103D6000FFFFEFFFFFFF9FFFFFFFF7FF003801405E
:103D70000044004000B501006920085C122803D00F
:103D80006920085C322832D15220085A00280DD10F
:103D900008680068802398430B681860086800680A
:103DA0004023034308680360002021E088688023E3
:103DB0005B0198420DD1086900280AD1C86C020045
:103DC0001088C005C00D0B681885C86C801CC864BD
:103DD00006E0C86C03005B1CCB6400780B68188598
:103DE0005220085A401E5223C852002000E00220F0
:103DF00000BD10B504002068006840218843216898
:103E000008606920205C322803D122206921605497
:103E100008E02068806801218843216888600120CB
:103E2000692160542000FFF76AFD002010BD70B5C5
:103E300004005C20265A6920205C222803D06920D7
:103E4000205C322847D1A0688021490188420CD1EA
:103E50002069002809D1606D05002068808C304001
:103E60002880606D801C606508E0606D0100491C61
:103E700061652168898C32000A4002705A20205AFC
:103E8000401E5A2160525A20205A002821D1206811
:103E9000006820218843216808606920205C32285E
:103EA00003D11220692160540EE0206800680B499C
:103EB00001402068016020688068012188432168F2
:103EC00088600120692160542000FFF719FD00205F
:103ED00002E0002000E0022070BD0000FFFEFFFFB6
:103EE0007047FEE770B4103A03D378C9103A78C02F
:103EF000FBD2530701D318C918C001D508C908C09F
:103F0000D20704D30B880380891C801C002A01D5AA
:103F10000B78037070BC7047000010410000C8436C
:103F20009A99D93F0AD74340000096430000FA43CC
:103F30000000FA430000C84300000000CDAC164466
:103F40000AD743400AD743400AD743400AD74340E1
:103F50007B147642689ACD393598283A3598283AB4
:103F6000000000000060524500403F4507FF882EDA
:103F7000000010410000C8439A99D93F0AD7434036
:103F8000000096430000FA430000FA430000C843D3
:103F900000000000CDAC16440AD743400AD7434086
:103FA0000AD743400AD743407B147642689ACD39FA
:103FB0003598283A3598283A0000000000605245AC
:103FC00000403F4507FF882E000010410000C84315
:103FD0009A99D93F0AD74340000096430000FA431C
:103FE0000000FA430000C84300000000CDAC1644B6
:103FF0000AD743400AD743400AD743400AD7434031
:104000007B147642689ACD393598283A3598283A03
:10401000000000000060524500403F4507FF882E29
:10402000000010410000C8439A99D93F0AD7434085
:10403000000096430000FA430000FA430000C84322
:1040400000000000CDAC16440AD743400AD74340D5
:104050000AD743400AD743407B147642689ACD3949
:104060003598283A3598283A0000000000605245FB
:1040700000403F4507FF882E000010410000C84364
:104080009A99D93F0AD74340000096430000FA436B
:104090000000FA430000C84300000000CDAC164405
:1040A0000AD743400AD743400AD743400AD7434080
:1040B0007B147642689ACD393598283A3598283A53
:1040C000000000000060524500403F4507FF882E79
:1040D000000010410000C8439A99D93F0AD74340D5
:1040E000000096430000FA430000FA430000C84372
:1040F00000000000CDAC16440AD743400AD7434025
:104100000AD743400AD743407B147642689ACD3998
:104110003598283A3598283A00000000006052454A
:1041200000403F4507FF882E000010410000C843B3
:104130009A99D93F0AD74340000096430000FA43BA
:104140000000FA430000C84300000000CDAC164454
:104150000AD743400AD743400AD743400AD74340CF
:104160007B147642689ACD393598283A3598283AA2
:10417000000000000060524500403F4507FF882EC8
:10418000000010410000C8439A99D93F0AD7434024
:10419000000096430000FA430000FA430000C843C1
:1041A00000000000CDAC16440AD743400AD7434074
:1041B0000AD743400AD743407B147642689ACD39E8
:1041C0003598283A3598283A00000000006052459A
:1041D00000403F4507FF882E00B599B002200C90A3
:1041E00001200F90102010900220159080200002D6
:1041F0001690A02080031790012018900CA8FEF7BD
:1042000013FE012001900220029000200390002064
:104210000490012101A8FFF7F3F802200590002087
:10422000089005A800F0E8F85D4800680121014306
:104230005B4801605A4800680100C907C90F009136
:10424000009819B000BD80B501210020FEF7F8FCF0
:104250000020FEF7ABFC01BD80B500F001F801BD08
:1042600038B5504850490860822040004E494860A7
:1042700000204D498860E020C0004B49C860022002
:104280004949086101204849486180208000464929
:1042900088610020444908620020434948620020A8
:1042A00041498862002040494863FFF755FA0500FC
:1042B00028003E49FEF722FC0400A4B2022C03DAD7
:1042C00000203949C86131E0A4B2042C03DA082087
:1042D0003549C8612AE0A4B2082C03DA102032491B
:1042E000C86123E0A4B2102C03DA18202E49C8615B
:1042F0001CE0A4B2202C03DA20202B49C86115E071
:10430000A4B2402C03DA28202749C8610EE0A4B2E9
:10431000802C03DA30202449C86107E0A4B2FF2CC6
:1043200003DC38202049C86100E0FEE71E48FDF7A5
:1043300085F931BD80B51E481E490860E120400264
:104340001C49486000201B49886000201949C8604A
:104350000020184908610C201649486100201549C1
:10436000886100201349C8610020124908620020BA
:10437000104948620F48FFF70DFA01BD80B5FDF7FF
:104380000FFFFFF729FFFFF75EFFFFF765FFFFF75E
:10439000D1FF0949032000F011F801BD0000000021
:1043A0001810024000300140D80B0020404B4C0058
:1043B00000440040680B0020EE020000F8B5040045
:1043C0000F00380080B24008060000200500EDB262
:1043D000E4B2A5420FD20020FEF712FCB6B23000C4
:1043E000FDF707FF0020FEF71BFCB6B23000FDF71B
:1043F00000FF6D1CEBE7F1BD70B582B00400002535
:1044000000262068C0035AD549480068C0218900A9
:1044100001406068C0229200024091424FD045485E
:104420000068802149050143424801604148006815
:10443000802149050840009000983F48006880218D
:10444000490001433C480160FDF7D0FE05003A48B1
:104450000068C00506D4FDF7C9FE401B6528F6D3E9
:10446000032064E032480068344901400E003048BF
:1044700000688021490201432D4801602C480068F2
:104480002F4901402A48016029480660B0070ED52F
:10449000FDF7ACFE050026480068800707D4FDF74D
:1044A000A5FE401B27498842F5D303203FE0204862
:1044B000006822490140606808431D49086020786F
:1044C000C00707D52048006803218843A16801433D
:1044D0001D4801602078800707D51B4800681B49EC
:1044E0000140E0680843184908602078800607D535
:1044F0001548006810218843216901431248016072
:104500002068800307D51048006880218843A1698E
:1045100001430D4801602068400507D50A4800683E
:10452000402188436169014307480160002076BD4E
:10453000201002401C10024000700040FFFCFFFFF2
:10454000FFFFFEFF8913000030100240FFFFFCFF59
:10455000014142535F504F5300000000001603001A
:104560000000000002454C5F504F53000000000067
:104570000009020000000000034D41524B00000002
:104580000000000000160300000000000453504526
:10459000454400000000000000140300000000007B
:1045A000054143430000000000000000000C020031
:1045B0008A0000000644454300000000000000009F
:1045C000000C02008A000000074D41585F5350451F
:1045D00045440000000A020041000000084D494E19
:1045E0005F53504545440000000D020000000000EC
:1045F0001546535F5350440000000000000A0200BB
:1046000027000000094B56414C5F484F4C440000C6
:1046100000080100290000000A4B56414C5F52552A
:104620004E00000000080100290000000B4B56411D
:104630004C5F4143430000000008010029000000D6
:104640000C4B56414C5F44454300000000080100FC
:10465000290000000D494E545F5350454544000069
:10466000000E0200080400000E53545F534C50002B
:104670000000000000080100190000000F464E5F16
:10468000534C505F414343000008010029000000E3
:1046900010464E5F534C505F4445430000080100F4
:1046A00029000000114B5F544845524D00000000A6
:1046B0000004010000000000124144435F4F5554C4
:1046C000000000000005010000000000134F4344FB
:1046D0005F544800000000000004010008000000D2
:1046E000145354414C4C5F54480000000007010033
:1046F0004000000016535445505F4D4F44450000A4
:10470000000801000700000017414C41524D5F4571
:104710004E00000000080100FF00000018434F4E4B
:10472000464947000000000000100200882E0000EB
:10473000195354415455530000000000001002006A
:104740000000000010B504002068C069C0070DD546
:1047500020680068C00509D5012021680862E06E64
:1047600001210143E1660120692160542068C0698C
:1047700080070DD520688068C00709D50220216810
:104780000862E06E04210143E16601206921605462
:104790002068C06940070DD520688068C00709D52A
:1047A000042021680862E06E02210143E1660120D5
:1047B000692160542068C06900070DD520688068B1
:1047C000C00709D5082021680862E06E082101436E
:1047D000E166012069216054E06E002802D02000CB
:1047E000FFF78FF82068C069C0020DD52068806887
:1047F000400209D580204003216808620120692118
:104800006054200000F028F82068C06980060CD5AC
:1048100020680068800608D52000FFF708FB2068A4
:10482000806908210143206881612068C069000611
:1048300006D520680068000602D52000FFF79AFA26
:104840002068C069400606D520680068400602D589
:104850002000FFF7CEFA10BD7047FEE74E4F500024
:104860000000000000000000000053455450415279
:10487000414D000000000002474554504152414D57
:1048800000000000200152554E0000000000000012
:104890000000500253544550434C4F434B0000001E
:1048A00058014D4F56450000000000000000400236
:1048B000474F544F00000000000000006001474FC8
:1048C000544F5F444952000000006802474F554E64
:1048D00054494C0000000000820352454C454153AE
:1048E0004553570000009202474F484F4D45000086
:1048F000000000007000474F4D41524B0000000087
:10490000000078005245534554504F5300000000BA
:10491000D800524553455444455649434500C000CC
:10492000534F465453544F5000000000B0004841CC
:10493000524453544F5000000000B800534F4654A7
:1049400048495A0000000000A0004841524448492C
:104950005A0000000000A8004745545354415455E4
:1049600053000000D00000001948006801210143F5
:104970001748016017480068174901401548016051
:10498000134800681549014011480160104800684B
:10499000134901400E4801600E480068114901406A
:1049A0000C480160104800680F2188430E490860D8
:1049B0000E4800680E4901400C4801600D4800682F
:1049C000012188430B49086000200B4908607047AB
:1049D00000100240041002400CB8FF08FFFFF6FE72
:1049E000FFFFFBFFFFFFC0FF2C1002403010024012
:1049F0002CFEFCFF3410024008100240F8B401689D
:104A000042184468610851188368E40701D54C4690
:104A10001B190C3000908A422BD01578521C0326AB
:104A20002E4002D11678F61C521C28090F2807D1F7
:104A300010780F30521C03E01778521C1F705B1C5B
:104A4000761EF9D10028E6D01678521CAF0803254F
:104A50003D40032D01D11578521C2D0275195D1BA7
:104A6000801CD8D02E786D1C1E705B1C401ED2D0CE
:104A7000F8E70098F2BC704780B5FDF7B1FBFEF790
:104A8000CDF901BD80B50120FCF7B2FD0220FCF795
:104A9000AFFD01BD80B580208001FCF7A9FD01BDFF
:104AA00080B50348FFF74EFE0148FDF7F1FB01BD5D
:104AB000680B002070B40121002313E00468001D7E
:104AC0000C4202D04D466D1E64192360241D121F36
:104AD000042AFAD22500960701D52380AD1C0A408E
:104AE00000D02B700268001D002AE7D170BC70470F
:104AF000202D2D2D2D2D2D2D2D2D2D2D2D2D2D2DF3
:104B00002D2D2D2D2D2D2D2D2D2D2D2D2D2D2D2DD5
:104B10002D2D2D2D2D2D2D2D2D2D2D2D0A0D000062
:104B2000204475616C204C363437302045787061F4
:104B30006E73696F6E20426F61726420666F7220BF
:104B400053544D3332204E55434C454F0A0D00000F
:104B500010B5074979441831064C7C44163404E0FA
:104B6000081D0A68891888470100A142F8D110BDC4
:104B70002C0000004800000056616C756573206FC2
:104B80006620746865207265676973746572732046
:104B90006F66204C363437305F23000019FFFFFF6B
:104BA00028010000680B00200000000051FEFFFFFC
:104BB000CB0100008E02000000000020496E6974E5
:104BC00069616C2076616C75657320666F72207206
:104BD00065676973746572733A0A0D00437573747F
:104BE0006F6D2076616C75657320666F72207265DB
:104BF000676973746572733A0A0D00002053544D4F
:104C00006963726F656C656374726F6E6963732C30
:104C100020323031350A0D0A0D00000000F00BF88B
:104C2000002801D0FFF794FF0020C046C04600F0E6
:104C300004F800F00CF80120704780B5FFF79EFBE8
:104C4000FDF781FEFDF7E6FAFDF72CF8FEE780B5EB
:104C500000F002F801BDFEE70746384600F002F812
:104C6000FBE7FEE780B5C046C046024A11001820A7
:104C7000ABBEFBE72600020020582D435542452DD0
:104C800053504E322076312E302E300A0D00000067
:104C900020582D4E55434C454F2D49484D303241FB
:104CA000310A0D00524556000000000000465744EE
:104CB000000000000001000020537461636B656414
:104CC000206F6E20000000004E55434C454F2D468E
:104CD0003037325242000000206F66204578704223
:104CE00072645F2300000000020304050607080940
:104CF0000A0B0C0D0E0F1010010203040506070825
:104D0000090A0B0C0D0E0F10000000000102030435
:104D100001020304060708090148804701480047CB
:104D200069490008354D000852535400004350595A
:104D300000010000C046C046C046C046FFF76EFFF7
:104D40000A0D0A0D00000000FEE7FEE7FEE7FEE7A1
:104D5000FEE7FEE7FEE7FEE7FEE7FEE7FEE7FEE72B
:104D6000FEE7FEE7FEE7FEE7FEE7FEE7FEE7FEE71B
:104D7000FEE7FEE7FEE7FEE7FEE70710030D07008C
:104D800008450412A10412D104130D0810110412D5
:104D9000810412B90412F104100323090008590414
:104DA00012850412B90412F10410031D0A00084907
:104DB0000412750412A10412E10413010B2C110456
:104DC00012430412650412850412A50412C50412CC
:104DD000E90410030B0C00082704124304125F04BB
:104DE000127B0412A10412BD0412D90412F504109E
:104DF0000CF10D0008840C0020000000480008049D
:104E00001003127A007B2628110412C70412ED0445
:104E100010030F2700083504125504127B0412A555
:104E20000412CD0412E9041003052800082104121D
:104E30003D0412590412750412910412AD0412CDEE
:104E40000412116012000133C72908F31E2000016B
:104E5000120131F226D93C2101F22AEB78F22AFD27
:104E600078F3290F2A78F329212A78F22A3378F265
:104E70002A4578167F2C12A43C12F404100330014A
:104E8000002007102154529118126C1452A81812C5
:104E9000021852A31812E4144320021812031852E5
:104EA000B518125C145298182001000004034248FF
:104EB00099110F19A892010C2150330000061348D4
:024EC0001006DA
:0400000508004D356D
:00000001FF
