:020000040800F2
:1000000000800120D12E0008252E0008272E000890
:10001000292E00082B2E00082D2E000800000000BD
:100020000000000000000000000000002F2E00086B
:10003000312E000800000000332E0008352E000885
:10004000212F0008212F0008212F0008212F000850
:10005000212F0008212F0008212F0008212F000840
:10006000212F0008212F0008212F0008212F000830
:10007000212F0008212F0008212F0008212F000820
:10008000212F0008212F0008212F0008212F000810
:10009000212F0008212F0008212F0008392E0008E9
:1000A000212F0008212F0008212F0008212F0008F0
:1000B000212F0008212F0008212F0008212F0008E0
:1000C000212F0008212F0008212F0008212F0008D0
:1000D000212F0008212F0008212F0008212F0008C0
:1000E000592E0008212F0008212F0008212F000879
:1000F000212F0008212F0008212F0008212F0008A0
:10010000212F0008212F0008212F0008212F00088F
:10011000212F0008212F0008212F0008212F00087F
:10012000212F0008212F0008212F0008212F00086F
:10013000212F0008212F0008212F0008212F00085F
:10014000212F0008212F0008212F0008212F00084F
:10015000212F0008212F0008212F0008212F00083F
:10016000212F0008212F0008212F0008212F00082F
:10017000212F0008212F00080000000000000000CF
:08018000212F0008212F0008C7
:1001880010B5054C237833B9044B13B10448AFF3C9
:1001980000800123237010BD04000020000000002F
:1001A8007C2F000808B5034B1BB103490348AFF384
:1001B800008008BD00000000080000207C2F000817
:1001C80053B94AB9002908BF00281CBF4FF0FF31B6
:1001D8004FF0FF3000F07AB9ADF1080C6DE904CEAC
:1001E80000F006F8DDF804E0DDE9022304B070470A
:1001F8002DE9F0478C460D460446089E002B51D148
:100208008A4217466DD9B2FA82FEBEF1000F0BD0B2
:10021800CEF1200C01FA0EF520FA0CFC02FA0EF7CA
:100228004CEA050C00FA0EF44FEA174A250CBCFB01
:10023800FAF81FFA87F90AFB18CC45EA0C4508FBBF
:1002480009F3AB420AD9ED1908F1FF3280F0238196
:10025800AB4240F22081A8F102083D44ED1AA4B255
:10026800B5FBFAF00AFB105544EA054400FB09F90E
:10027800A14509D9E41900F1FF3380F00A81A145AD
:1002880040F2078102383C44A4EB090440EA0840E4
:100298000021002E61D024FA0EF40023346073602C
:1002A800BDE8F0878B4207D9002E54D0002186E89C
:1002B80021000846BDE8F087B3FA83F1002940F031
:1002C8008E80AB4202D3824200F2FA80841A65EB38
:1002D80003050120AC46002E3FD086E81010BDE88B
:1002E800F08712B90127B7FBF2F7B7FA87FEBEF11C
:1002F800000F34D1EB1B3A0C1FFA87FC0121B3FB2A
:10030800F2F8250C02FB183345EA03450CFB08F309
:10031800AB4207D9ED1908F1FF3002D2AB4200F227
:10032800D1808046ED1AA3B2B5FBF2F002FB10555E
:1003380043EA05440CFB00FCA44507D9E41900F185
:10034800FF3302D2A44500F2B8801846A4EB0C048F
:1003580040EA08409DE731463046BDE8F087CEF1D7
:10036800200405FA0EF307FA0EF720FA04F83A0CFF
:1003780025FA04F448EA0308B4FBF2F14FEA1845F9
:1003880002FB11441FFA87FC45EA044501FB0CF304
:10039800AB4200FA0EF409D9ED1901F1FF3080F0F3
:1003A8008A80AB4240F2878002393D44EB1A1FFA3B
:1003B80088F5B3FBF2F002FB103345EA034500FB76
:1003C8000CF3AB4207D9ED1900F1FF386FD2AB42FD
:1003D8006DD902383D44EB1A40EA01418FE7C1F17B
:1003E800200722FA07F88B4005FA01F448EA0303CC
:1003F80020FA07FE4FEA134CFD404EEA040EB5FB07
:10040800FCF94FEA1E440CFB19551FFA83F844EA1D
:10041800054509FB08F4AC4202FA01F200FA01FAB8
:1004280008D9ED1809F1FF3043D2AC4241D9A9F1FE
:1004380002091D442D1B1FFA8EFEB5FBFCF00CFBB8
:1004480010554EEA054400FB08F8A04507D9E41802
:1004580000F1FF3529D2A04527D902381C4440EACB
:100468000940A4EB0804A0FB02894C45C6464D464A
:1004780015D312D056B1BAEB0E0364EB050404FA97
:1004880007F7CB401F43CC40376074600021BDE8BC
:10049800F0871846F8E69046E0E6C245EAD2B8EB9F
:1004A800020E69EB03050138E4E72846D7E7404622
:1004B80091E78146BEE7014678E702383C4445E7C4
:1004C800084608E7A8F102083D442BE7704700BF3B
:1004D80038B50A4B054618684FF47A73B0FBF3F049
:1004E80000F08CF8044638B9024629464FF0FF3030
:1004F80000F044F8204638BD012038BD0000002037
:1005080010B5032000F028F80020FFF7E1FF0446AB
:1005180018B902F0C9FA204610BD0124FBE7000013
:10052800024A136801331360704700BF4800002077
:10053800014B1868704700BF4800002038B50446D2
:10054800FFF7F6FF631C054618BF0134FFF7F0FFFD
:10055800401B8442FAD838BD074AD36823F4E063C5
:100568001B041B0C43F0BF63000243F4003300F488
:10057800E0600343D360704700ED00E0174B30B5EF
:10058800DC68C4F30224C4F10703251D042B28BF2B
:100598000423062D4FF0010505FA03F303F1FF3399
:1005A8008CBF033C00241940A14005FA04F4013C27
:1005B8002240002842EA01024FEA0212AFBF00F1CE
:1005C800604000F00F00064BD2B2A5BF00F56140B5
:1005D800D2B21A5480F8002330BD00BF00ED00E00D
:1005E80014ED00E04209012300F01F0003FA00F0B7
:1005F800014B43F82200704700E100E00138B0F1F8
:10060800807F0AD2064B074A5860F02182F82310EF
:100618000020072298601A6070470120704700BFC9
:1006280010E000E000ED00E0144B984217D02033B2
:10063800984216D02033984215D02033984214D0CF
:100648002033984213D02033984212D02033984256
:1006580011D0203398420CBF07200020704700209B
:10066800704701207047022070470320704704201C
:100678007047052070470620704700BF00600140A2
:1006880038B50446002867D00068344DFFF7CCFF22
:1006980055F82030002B5FD1204602F01DFA304B70
:1006A8001A6801321A601B68012B19D12D4B1A6880
:1006B80022F080421A601A68A1680A431A601A6810
:1006C80022F47F021A602279012A05D1E1681A68AA
:1006D800013942EA01421A601A6842F000421A607F
:1006E80020686169036823F4714303602369026821
:1006F8000B43A1690B43134303600368216A23F08A
:100708000F030360E36902680B43134303608368C4
:10071800616AA26A23F45F0383608368013A0B432A
:1007280043EA024383604368226B03F00703436094
:10073800436843EAC203E26A43EA02234360036868
:1007480043F080030360012384F83430FFF76CFF23
:1007580045F82040002038BD012038BD2000002089
:1007680040000020006001402DE9F04F85B00B6883
:10077800DFF8A881674C01930023019ADA4002D17F
:1007880005B0BDE8F08F0126019A9E4012EA060ED8
:1007980000F0B1804A6822F01007022F16D14FEA04
:1007A800D30900EB890903F0070AD9F820504FEA6A
:1007B8008A0A4FF00F0C0CFA0AFC25EA0C0C0D699A
:1007C80005FA0AF545EA0C05C9F820504FEA430C2A
:1007D8000325D0F800B005FA0CF5ED4302F0030A42
:1007E8000BEA050B0AFA0CF9013F49EA0B09012F3C
:1007F800C0F8009011D8876805EA0709CF6807FA9A
:100808000CF747EA09078760476827EA0609C2F331
:1008180000179F4047EA09074760BAF1030F07D15D
:10082800C76A27EA0606C2F3C0079F403E43C6626E
:10083800C66835408E6806FA0CF63543C560D500A3
:1008480059D5D8F8605045F00105C8F86050D8F877
:10085800605023F0030606F1804605F0010506F511
:100868008036039503F0030C039DB5684FEA8C0CA2
:100878000F2707FA0CF7B0F1904F25EA07073CD08D
:10088800254DA8423BD005F58065A84239D005F52D
:100898008065A84237D005F58065A84235D005F5B2
:1008A8008065A84233D005F58065A84214BF0725A6
:1008B800062505FA0CF53D43B56025686FEA0E0676
:1008C800D70354BF35404EEA050525606568970390
:1008D80054BF35404EEA05056560A568D70254BF88
:1008E80035404EEA0505A560E568920254BF3540DB
:1008F8004EEA0505E56001333FE70025D9E7012504
:10090800D7E70225D5E70325D3E70425D1E7052551
:10091800CFE700BF00040140000400480010024077
:100928000AB18161704781627047704708B5044B0E
:100938005969014202D05861FFF7F7FF08BD00BFAF
:100948000004014010B5044600284AD090F8413010
:1009580003F0FF021BB980F8402002F0EFF82423CF
:1009680084F841302368E1681A6822F001021A60AD
:10097800626822F070621A619A68012922F40042C2
:100988009A60A26824D142F400429A605A68616968
:1009980042F0007242F400425A60DA6822F40042DF
:1009A800DA6022690A43A16942EA0122DA60216A0F
:1009B800E2690A431A601A6842F001021A600020CC
:1009C8002023606484F84130206384F8420010BD1D
:1009D80042F4044202299A6004BF4FF400625A604C
:1009E800D4E7012010BD90F84120D2B2202A10B5DA
:1009F8001DD190F84030012B19D0242380F84130C4
:100A080003681C6824F001041C601C6824F48054EA
:100A18001C601C6821431960196841F001011960C4
:100A2800002380F8412080F84030184610BD02208D
:100A380010BD10B590F84140E4B2202C1CD190F8BC
:100A48004030012B18D0242380F8413003681A68FD
:100A580022F001021A601A6822F4706242EA012147
:100A680019601A6842F001021A60002380F84140B8
:100A780080F84030184610BD022010BD2DE9F04125
:100A880004468AB0002874D090F8BD3303F0FF0202
:100A98001BB980F8BC2302F071F92546032355F8E9
:100AA800100B84F8BD3301F010FC0FCD6E460FC655
:100AB8000FCD0FC695E8030086E8030004F104088B
:100AC80098E80E00206801F0D1FB0021206801F0B1
:100AD80002FC00212246234604F11005012608469F
:100AE80083F83C10A3F8421001310F2983F83D60C8
:100AF80083F83F0058649864186503F11C03EFD12C
:100B080000231F4682F8FC3101330F2B82F8FD7158
:100B180082F8FF71C2F80472C2F80872C2F8107243
:100B280002F11C02EED10FCD6E460FC60FCD0FC6D7
:100B380095E8030086E8030098E80E00206801F0B5
:100B48000BFC012384F8387084F8BD33636A012BE9
:100B580002D1204600F00FF8A36A012B02D12046EB
:100B680000F01CF8206801F093FC00200AB0BDE8F2
:100B7800F0810120FAE7026803460121C0F8FC135E
:100B8800002083F8F403936943F000639361536D85
:100B980043F0805343F00303536570470268012311
:100BA800C0F80034936B43F400339363002070471C
:100BB800024A136843F48073136070470070004062
:100BC800024B186800F4C060704700BF0070004016
:100BD800174B1A68B0F5007F02F4C0621CD1B2F559
:100BE800007F15D01A6822F4C06242F400721A60BD
:100BF800104A116832224A430F49B2FBF1F21946F2
:100C080001325869400500D522B94B695B050DD4FE
:100C180000207047013AF4E7B2F5806F1FBF1A68E9
:100C280022F4C06242F480621A60F1E70320704740
:100C3800007000400000002040420F00024A536844
:100C480043F4806353607047007000402DE9F04121
:100C5800069D04460F461646984621688A683A4219
:100C680014BF01220022B24202D10020BDE8F08167
:100C78006B1CF3D0FFF75CFCA0EB0800854201D3A6
:100C8800002DEAD1042384F83930E36B43F00103E3
:100C9800E3630120BDE8F08137B50446FFF748FC5F
:100CA8000546002C49D094F83830012B47D0012351
:100CB80084F8383094F8392002F0FF033AB984F800
:100CC8003830204601F070FF41F2883323642068F1
:100CD800A1680268236C013922F4706242EA012299
:100CE80002602021009300222B462046FFF7AEFF2A
:100CF800F0B9226865681168E36821F07F4143EA2A
:100D0800056321F010010B431360A16963695568FD
:100D18000B43216943EA01430A4929400B435360C5
:100D2800136843F0010313600123E06384F839304A
:100D3800002384F8383003B030BD0120FBE70220DF
:100D4800F9E700BFFEF8E0FF37B51E4DAB6DDA00DE
:100D5800044618D5FFF734FFB0F5007F23D1802C67
:100D680029D9A02C8CBF02200120174A136823F030
:100D7800070303431360136803F00703181A18BF27
:100D8800012003B030BDAB6D43F08053AB65AB6D54
:100D980003F080530193019BFFF712FFAB6D23F023
:100DA8008053AB65D8E7802C07D808D0A4F170032E
:100DB80058425841D9E70020D7E70320D5E7022059
:100DC800D3E700BF0010024000200240254B9A687C
:100DD800D96812F00C0205D00C2A15D101F00301D4
:100DE800012918D119682048090755BFD3F894106C
:100DF8001968C1F30321C1F3031150F8210082B32C
:100E08000C2A09D000207047042A29D0082A17483C
:100E180018BF002070470020D968DA6801F0030184
:100E2800C2F30212022902F1010205D0032912D0ED
:100E3800D968C1F3062103E0D9680D48C1F306213A
:100E4800DB68B0FBF2F0C3F34163013348435B0056
:100E5800B0FBF3F07047D9680448C1F30621EFE707
:100E68000348704700100240C02F000800127A00A3
:100E78000024F4002DE9F743054618B9012003B012
:100E8800BDE8F083A54C0368A668E768DB0606F0B2
:100E98000C0607F003073CD51EB10C2E63D1012FB9
:100EA80061D12368980702D5AB69002BE6D0236887
:100EB800286A190756BFD4F8943023681B0903F031
:100EC800F00383423AD2FFF73FFF0028D6D12368C8
:100ED80043F00803236023682A6A23F0F0031343CE
:100EE80023606368EA6923F47F4343EA022363606B
:100EF800FFF76CFFA3688A4AC3F30313D35C03F0BC
:100F08001F03D840874B18600020FFF7E1FA00283C
:100F1800B5D12B68D8075DD42B68990700F19C8060
:100F28002B68180700F1D0802B68590700F1FC8066
:100F3800AB6A002B40F065810020A0E7236843F0EE
:100F480008032360236823F0F003034323606368E6
:100F5800EA6923F47F4343EA02236360FFF7F4FE60
:100F68000028C5D08AE7AB691BB3236843F00103A7
:100F78002360FFF7DDFA804623689A0711D52368B6
:100F880043F00803236023682A6A23F0F00313431D
:100F980023606368EA6923F47F4343EA02236360BA
:100FA800B7E7FFF7C5FAA0EB08000228E4D9032049
:100FB80065E7236823F001032360FFF7B9FA804649
:100FC80023689B07A5D5FFF7B3FAA0EB0800022812
:100FD800F6D9ECE7082E03D00C2E08D1032F06D142
:100FE80023689A0398D56B68002B95D146E76B6800
:100FF800B3F5803F10D1236843F480332360FFF7B3
:1010080097FA804623689B0386D4FFF791FAA0EBF2
:1010180008006428F6D9CAE7B3F5A02F04D12368DD
:1010280043F480232360E6E7226822F480322260BA
:10103800226822F480222260002BE0D1FFF778FAA0
:101048008046236898037FF567AFFFF771FAA0EB36
:1010580008006428F5D9AAE7042E03D00C2E10D175
:10106800022F0ED12368590503D5EB68002B3FF4F6
:1010780005AF63682A6923F0F85343EA02636360A3
:101088004EE7EB687BB1236843F480732360FFF776
:101098004FFA074623685A05EBD4FFF749FAC01BF5
:1010A8000228F7D983E7236823F480732360FFF7C6
:1010B8003FFA074623685B057FF532AFFFF738FA3A
:1010C800C01B0228F6D972E76B699BB1D4F894303B
:1010D80043F00103C4F89430FFF72AFA0746D4F81E
:1010E80094309A073FF520AFFFF722FAC01B022879
:1010F800F5D95CE7D4F8943023F00103C4F89430B0
:10110800FFF716FA0746D4F894309B077FF50CAF23
:10111800FFF70EFAC01B0228F5D948E70010024075
:10112800A52F000800000020A36DD80029D4A36DC6
:1011380043F08053A365A36D03F080530193019B93
:101148004FF001085D4F3B68D9051DD5AB68012BF1
:101158002BD1D4F8903043F00103C4F89030FFF756
:10116800E7F941F288390746D4F890309B0742D511
:10117800B8F1000F3FF4DCAEA36D23F08053A365F4
:10118800D6E64FF00008DDE73B6843F480733B6028
:10119800FFF7CEF981463B68DA05D7D4FFF7C8F9DF
:1011A800A0EB09000228F6D901E7052B06D1D4F8EF
:1011B800903043F00403C4F89030CAE7D4F8902084
:1011C80022F00102C4F89020D4F8902022F0040202
:1011D800C4F89020002BC2D1FFF7AAF941F2883950
:1011E8000746D4F890309807C2D5FFF7A1F9C01B7D
:1011F8004845F6D9DBE6FFF79BF9C01B4845B3D94C
:10120800D5E60C2E3FF43AAE022B236823F0807308
:10121800236037D1FFF78CF90646236899012BD450
:101228006A6BEB6A43EA02232A6B013A43EA021328
:10123800AA6B120943EA4243EA6B5208013A43EAAD
:1012480042532A6C5208013A43EA4263E360236836
:1012580043F080732360E36843F08073E360FFF733
:1012680067F9054623689A013FF566AEFFF760F90E
:10127800401B0228F6D99AE6FFF75AF9801B022884
:10128800CBD994E6236813F0205F02BFE36823F00C
:101298000303E360E36823F0887323F48033E36097
:1012A800FFF746F9054623689B017FF545AEFFF732
:1012B8003FF9401B0228F6D979E600BF00700040CC
:1012C8002DE9F0410E46044610B90120BDE8F08131
:1012D800404A136803F007038B4229D32368D907D0
:1012E80031D421688A075BD43A4A136803F00703AC
:1012F8009E425DD311F0040F374D64D10B0706D51C
:10130800AB68226923F4605343EAC203AB60FFF77A
:101318005DFDAB68314AC3F30313BDE8F041D35C0C
:1013280003F01F03D8402E4B18600020FFF7D0B8F9
:10133800136823F007030B431360136803F00703D4
:101348009942C2D1CAE76268234D032A2B681BD190
:1013580013F0007FB9D0AB6823F003031343AB60ED
:10136800FFF7E6F841F288380746AB68626803F091
:101378000C03B3EB820FB4D0FFF7DAF8C01B40457B
:10138800F3D90320BDE8F081022A02D113F4003F0B
:10139800E0E712B913F0020FDCE713F4806FD9E726
:1013A8000D4AA068936823F0F003034393609BE71A
:1013B800136823F0070333431360136803F007032C
:1013C8009E4282D196E7AB68E26823F4E063134358
:1013D800AB6093E70020024000100240A52F0008F0
:1013E80000000020054B064A9B68C3F30223D35C28
:1013F800044A106803F01F03D840704700100240E9
:10140800B52F000800000020054B064A9B68C3F36F
:10141800C223D35C044A106803F01F03D840704706
:1014280000100240B52F000800000020F8B5454B19
:10143800DA6812F0030F05460E461C4600682AD0EB
:10144800DA6802F0030282423CD1002A3AD0DB6813
:101458006A68C3F302130133934233D1236823F03C
:1014680080632360FFF764F8074623681A0132D4C3
:10147800AF68002E36D0012E50D12269286922F497
:10148800C002400822F4FE42013842EA072242EA3A
:101498004052226132E0022810D0032814D00128DB
:1014A80010D11B689F0738D5E3686A6823F0730377
:1014B800013A184340EA0210E060CFE71B6813F4D2
:1014C800806FF1D10120F8BD1A689103ECD41B6834
:1014D80013F4802FF5E7FFF72BF8C01B0228C4D9B7
:1014E8000320F8BD2169EB6821F41F3121F4407114
:1014F80041EA07211B0941EA43412161236843F07E
:1015080080632360FFF714F8064623681B0113D590
:101518002369AA69134323610020F8BD2369686918
:1015280023F0C063400823F4FE43013843EA07234D
:1015380043EA40632361E1E7FEF7FAFF801B0228D4
:10154800E3D9CDE700100240F8B53D4BDA6812F058
:10155800030F05460E461C46006828D0DA6802F0DC
:10156800030282423AD1002A38D0DB686A68C3F3A2
:1015780002130133934231D1236823F0805323604F
:10158800FEF7D6FF074623689A0030D4A868002ED5
:1015980034D06369296923F0C063490823F4FE4302
:1015A800013943EA002343EA4163636132E00228D8
:1015B80010D0032814D0012810D11B689F0738D5F4
:1015C800E3686A6823F07303013A184340EA02109B
:1015D800E060D1E71B6813F4806FF1D10120F8BDFA
:1015E8001A689103ECD41B6813F4802FF5E7FEF713
:1015F8009FFFC01B0228C6D90320F8BD6269EB68AB
:1016080022F41F3222F4407242EA00221B0942EA05
:1016180043426261236843F080532360FEF788FFEA
:10162800064623689B0005D563696A6913436361AD
:101638000020F8BDFEF77CFF801B0228F1D9DBE70C
:10164800001002402DE9F347066816F400660446C8
:1016580024D0416EB1F5800F2CD002D8C1B101263B
:101668001CE0B1F5000F0DD0B1F5400FF7D14D4A90
:10167800616ED2F8883023F440030B43C2F88830F7
:1016880000260BE0474AD36843F48033D360EEE783
:101698000430FFF7CBFE06460028E8D02368D804BC
:1016A80006D5A16EB1F1807F74D008D8A9B1012602
:1016B800354621E000212030FFF746FFEBE7B1F186
:1016C800007F04D0B1F1407FF1D1354609E0354AB9
:1016D800D36843F48033D360F7E7201DFFF7A6FEF5
:1016E8000546002D5CD12F4AA16ED2F8883023F030
:1016F80040730B43C2F888302368990340F14F8147
:10170800284FBB6DDA0040F176814FF00008DFF812
:101718009890D9F8003043F48073C9F80030FEF788
:1017280007FF8246D9F80030DB053FD5002D44D1AC
:10173800D7F8903013F4407315D0D4F8842093422E
:1017480011D0D7F89030D7F8902042F48032C7F8FB
:101758009020D7F8902023F4407322F48032C7F801
:101768009020C7F89030D80709D5FEF7E1FE41F27E
:1017780088390546D7F89030990740F10981D7F89C
:101788009030D4F8842023F440731343C7F8903082
:10179800354612E0002104F12000FFF7D5FE9FE74F
:1017A8002E46A9E70010024000700040FEF7C0FE78
:1017B800A0EB0A000228B5D90325B8F1000F03D021
:1017C800BB6D23F08053BB652368DA0708D59049C1
:1017D800A06BD1F8882022F003020243C1F88820C8
:1017E8009F0708D58A49E06BD1F8882022F00C02BF
:1017F8000243C1F888205E0708D58549206CD1F8D6
:10180800882022F030020243C1F88820180708D542
:101818007F49606CD1F8882022F0C0020243C1F8E9
:101828008820D90608D57A49A06CD1F8882022F4F6
:1018380040720243C1F888209A0608D57449E06CC2
:10184800D1F8882022F440620243C1F888209F051D
:1018580008D56F49E06DD1F8882022F44022024370
:10186800C1F888205E0508D56949206ED1F888201E
:1018780022F440120243C1F88820580608D564496A
:10188800206DD1F8882022F440520243C1F8882004
:10189800190608D55E49606DD1F8882022F44042C7
:1018A8000243C1F88820DA0508D55949A06DD1F856
:1018B800882022F440320243C1F888209B040FD5C7
:1018C800534AE16ED2F8883023F040630B43B1F1FC
:1018D800006FC2F8883064D1D36843F48013D360B2
:1018E80023681F030FD54A4A216FD2F8883023F0A6
:1018F80040630B43B1F1006FC2F888305CD1D36804
:1019080043F48013D36023685E030FD5404A616FA8
:10191800D2F8883023F040630B43B1F1006FC2F86E
:10192800883054D1D36843F48013D36023685804B3
:1019380012D53749A26FD1F8883023F040531343AA
:10194800B2F1805FC1F888304CD10221201DFFF729
:101958006DFD002818BF05462268110408D52C49DA
:10196800E06FD1F8883023F080430343C1F8883012
:10197800D30309D5264AD4F88010D2F8883023F04A
:1019880000430B43C2F88830284602B0BDE8F08710
:10199800FEF7CEFD401B48457FF6ECAE0CE735461A
:1019A80012E7B1F1806F9BD10121201DFFF73EFDA9
:1019B800002818BF054693E7B1F1806FA3D1012134
:1019C800201DFFF733FD002818BF05469BE7B1F13E
:1019D800806FABD10121201DFFF728FD002818BF1B
:1019E8000546A3E7B2F1005FB6D1022104F1200059
:1019F800FFF7AAFDADE7BB6D43F08053BB65BB6D38
:101A080003F080530193019B4FF001087FE600BF6C
:101A180000100240024A136843F004031360704741
:101A28000010024003685A6822F0E0025A604268D7
:101A3800B2F5827F0AD18268B2F5004F02D0B2F5C2
:101A4800806F03D11A6822F040021A60826AB2F5E8
:101A5800005F07D11A6822F400521A601A6842F42B
:101A680000521A60012380F85D30002380F85C3052
:101A78000320704770B504460D46164623689868DB
:101A880010F0800000D170BD6A1CF8D0FEF750FD40
:101A9800801B8542F2D82046BDE87040FFF7C2BFE0
:101AA800F8B505460C4616461F4629688868204042
:101AB80000D1F8BDB4F5C06F08BF0B7B731CF5D01F
:101AC800FEF736FDC01B8642EFD82846BDE8F84031
:101AD800FFF7A8BF70B513460D4616460A464FF4E1
:101AE800C0510446FFF7DCFF28B1236E43F0200302
:101AF800236603200FE0324629462046FFF7BAFF47
:101B08000028F2D133462A464FF4C0612046FFF739
:101B1800C7FF0028E9D170BD70B5044600284AD037
:101B28000023836290F85D3003F0FF021BB980F850
:101B38005C2001F06FF80223216884F85D300B689F
:101B4800E26823F04003B2F5E06F0B604FF000034A
:101B58002ED91846B2F5706F18BFA362236B2BB944
:101B6800B2F5E06F8CBF022301232363A668636884
:101B7800A56933432669334366693343E6693343CA
:101B8800266A3343A66A334305F4007633430B6071
:101B9800636A1A43636B2D0C1A4305F004052A4344
:101BA8000243012300204A60206684F85D3070BD3E
:101BB8004FF48050D0E7012070BD2DE9F3411E4657
:101BC80090F85C30012B04460D46904600F0B18039
:101BD800012380F85C30FEF7ABFC074694F85D0003
:101BE800C0B2012840F0A380002D5FD0B8F1000FEB
:101BF8005CD0032384F85D300020A368206620644D
:101C0800A4F83E80A4F84400A4F846002065E064E7
:101C18002068A563B3F5004F08BF0368A4F83C80AB
:101C280004BF43F48043036003685B065EBF036838
:101C380043F040030360E368B3F5E06F63683ED99F
:101C480013B1B8F1010F07D135F8023BC360A563A2
:101C5800E38F013B9BB2E387E38F9BB2A3B93A467C
:101C680031462046FFF736FF00285DD1A36833B917
:101C780001932368DA6801929B680193019B206EA7
:101C8800003018BF012011E022689368980705D535
:101C9800A36B33F8021BD160A363D9E7FEF748FCB6
:101CA800C01BB042D8D3711CD6D00320012384F8BE
:101CB8005D30002384F85C3002B0BDE8F08113B1D8
:101CC800B8F1010F13D1E38F9BB2012B06D935F878
:101CD800023BC360A563E38F023B06E02B780373E6
:101CE800A36B0133A363E38F013B9BB2E387E38FCD
:101CF8009BB2002BB3D023689A6892070CD5E28F69
:101D0800A06B92B2012A04D930F8022BDA60A063E2
:101D1800E1E702781A73E3E7FEF70AFCC01B864284
:101D2800E5D8731CE3D0C0E7202323669EE7022092
:101D3800BCE70220C0E700000268C169F8B50446A4
:101D4800836800691568034360690343BA480B4315
:101D58002840034313605368E06823F44053034367
:101D68005360B64BA0699A421CBF236A1843936814
:101D780023F4306303439360B14B9A4219D103F5BE
:101D88005843B04AD3F8883003F00303B1F5004F45
:101D9800D35C40F03881082B00F28F80DFE813F025
:101DA8001A01CA00F9008D0014018D008D008D0004
:101DB8003600A54B9A4207D103F5E633A34AD3F878
:101DC800883003F00C03E1E7A14B9A4223D103F5D5
:101DD800E433D3F8883003F03003102B00F0F1809F
:101DE8000BD8002B00F0F380B1F5004F4FF0010243
:101DF8004FF0000300F0F880A8E0202B00F0C68028
:101E0800302BF1D1B1F5004F40F0B880606843083D
:101E180003F58033C3E08F4B9A421ED103F5E233BA
:101E2800D3F8883003F0C003402B00F0BB800AD8F9
:101E38007BB9824B9A4240F0CA80FFF7D3FA00235D
:101E4800B0BB02463AE0802B00F09D80C02B00F02A
:101E5800B0807A4B9A42C7D12FE07F4B9A4211D17A
:101E680003F5E033D3F8883003F44073B3F5807F8B
:101E780000F09880DCD9B3F5007F00F08480B3F5DA
:101E8800407FE4E76D4B9A42AED103F5C833D3F8EF
:101E9800883003F44063B3F5806F00F08380C7D9BE
:101EA800B3F5006F6FD0B3F5406FD0E76B480223EE
:101EB800626802EB4201814205D9012200232366B0
:101EC80063661046F8BDB0EB023FF6D8082B2ED853
:101ED800DFE803F0052D1C2D242D2D2D2700FFF7FD
:101EE80081FA62684FF4807156080027E1FB0067A9
:101EF800002330463946FEF763F90022584BA0F517
:101F080040719942D9D82368D860D7E75548550811
:101F180000230021401941F10001ECE7FEF756FFCC
:101F2800DFE750080021002310F50000F3E7012245
:101F38000020E3E7FFF768FA4EE0FFF753FA62681C
:101F480000EB5203B3FBF2F39BB20022A3F11000A3
:101F58004FF6EF718842B0D82168CB60AEE7FFF743
:101F680053FAECE76068430803F5740303F510536C
:101F7800B3FBF0F3E8E7FEF729FFE0E76068430802
:101F880003F50043F4E72D4B9A428FD0B1F5004F8B
:101F9800E8D16068430803F1F47303F59043B3FB99
:101FA800F0F31FE0254B9A420BD1FEF70FFF0423F5
:101FB80046E7224B9A427FF425AF4FF400400823AE
:101FC80076E7B1F5004FD6D1FEF700FF04E0B1F592
:101FD800004FB2D1FFF706FA61684A0802EB4003E6
:101FE800B3FBF1F39BB20022A3F110004FF6EF719F
:101FF80088423FF662AF23F00F012068C3F3420323
:102008000B43C3605AE7082B3FF657AF01A252F8BB
:1020180023F000BF431F0008671F00086D1F00085A
:10202800C31E00087F1F0008C31E0008C31E000847
:10203800C31E0008851F0008F369FFEF00800040F9
:1020480000380140942F000800440040982F0008F1
:1020580000480040004C0040005000400024F400BC
:10206800FFFC0F00000024F4436ADA0710B506D518
:102078000168846A4A6822F4003222434A609C0755
:1020880006D50168C46A4A6822F4803222434A604D
:10209800590706D50168046B4A6822F48022224356
:1020A8004A601A0706D50168446B4A6822F4004260
:1020B80022434A60DC0606D50168846B8A6822F4EC
:1020C800805222438A60990606D50168C46B8A68E3
:1020D80022F4005222438A605A060FD50168046C24
:1020E8004A6822F480122243B4F5801F4A6005D161
:1020F8004A68446C22F4C00222434A601B0606D593
:102108000268816C536823F400230B43536010BDAD
:102118002DE9F041069D04460F461646984621686B
:10212800CA6937EA02030CBF01220022B24202D078
:102138000020BDE8F0816B1CF2D09DB923681A68B5
:1021480022F4D0721A609A6822F001029A60202361
:1021580084F8713084F87230002384F870300320DA
:10216800BDE8F081FEF7E4F9A0EB08008542D6D27D
:10217800E4E773B5044600264667FEF7D9F92368F5
:102188001B681A07054617D423681B685B070AD51E
:102198006FF07E43009300222B464FF480012046C7
:1021A800FFF7B6FFA0B92023002084F8713084F827
:1021B800700084F872300CE06FF07E430093324672
:1021C80003464FF400112046FFF7A2FF0028DBD09A
:1021D800032002B070BD10B5044660B390F87130AA
:1021E80003F0FF021BB980F8702000F06DFD226833
:1021F800242384F87130136823F001031360204608
:10220800FFF79AFD012816D0636A13B12046FFF73D
:102218002BFF23685A6822F490425A609A6822F089
:102228002A029A601A6842F0010220461A60BDE844
:102238001040FFF79EBF012010BD00000A4B013B74
:1022480001D1032070470269002AF8DA0369064AB7
:1022580043F001030361013AF3D0036913F001036A
:10226800F9D11846704700BF410D030084B038B556
:1022780005AD85E80E000A9B012B04461BD1836B34
:1022880023F480338363C36823F4840323F0400377
:10229800C360C36823F44013C360119B012B02BFC2
:1022A800C36843F48013C360FFF7C8FFBDE8384034
:1022B800002004B07047C36843F04003C360FFF7D1
:1022C800BDFF4FF48033A363F0E7836823F0010375
:1022D80083600020704708B5C368012923F0C04314
:1022E800C36008D1C36843F00053C3603220FEF7CF
:1022F80025F9002008BD19B9C36843F08043F4E705
:10230800012008BD890141F02001064A0161013A16
:1023180005D0036913F02003F9D11846704703204C
:10232800704700BF410D03001023064A0361013ABC
:1023380005D0036913F01003F9D11846704703203C
:10234800704700BF410D0300D0F800381943C0F8AA
:10235800001800207047000084B02DE9F0410446C1
:1023680007A880E80E000023119F8846194603F14C
:10237800400204EB820201330F2B5160F7D1A36BAB
:1023880043F40013A3635FB9A36B23F40013A3639F
:10239800236843F040032360236843F080032360ED
:1023A8000025C4F8005ED4F80038C4F800380321CA
:1023B8002046FFF7C9FF04F5006610212046FFF705
:1023C800A1FF2046FFF7B0FF35612B46756129460E
:1023D800F56104F510624FF090404FF000654FF63C
:1023E8007F3E43452FD1002104F5306208464FF067
:1023F80090454FF0006E4FF67F3C8B4234D13369E5
:1024080023F4807333610023A3616FF08043636119
:10241800A36943F01003A361A2691C4B1343A36192
:102428000D9B1BB1A36943F00803A361012F01BFF2
:10243800A36943F0804343F00403A361BDE8F0417E
:10244800002004B07047D2F800C0BCF1000F09DAD0
:1024580033B9156011610133C2F808E02032C0E7D2
:102468001060F7E71160F5E7D2F80080B8F1000FC7
:102478000ADA39B9C2F800E010610131C2F808C0BF
:102488002032BAE71560F7E71060F5E700383C80BE
:1024980008B5D0F8043843F00203C0F80438032024
:1024A800FEF74CF8002008BDF0B5B9B0142444225A
:1024B800002105A800F056FD22460021684600F0DC
:1024C80051FD0021882216A800F04CFDFEF770FB94
:1024D800224AD2F8903023F01803C2F890306023D3
:1024E8000125022605940D9300242823072705A813
:1024F800129307950B950C940F96109511951397B9
:1025080014961596FEF7B6FC0F220421032368469D
:102518008DE80C00029403940494FEF7D1FE104B4E
:1025280016934FF0806331931823199316A84FF42C
:1025380080131D93249426942B94369417951895FC
:102548001A971B961C96FFF77DF84FF40070FEF75C
:102558003FFBFFF75FFA39B0F0BD00BF0010024043
:10256800852001002DE9F04F8DB0FDF7C9FFFFF779
:102578009BFF1422002107A800F0F4FCB04BB148DF
:10258800DA6CDFF8F89242F01002DA64DA6C02F0E2
:1025980010020292029ADA6C42F00402DA64DA6CEF
:1025A80002F004020392039ADA6C42F00102DA6440
:1025B800DA6C02F001020492049ADA6C42F0020228
:1025C800DA64DA6C02F002020592059ADA6C42F0DB
:1025D8000802DA64DB6C03F00803069300224FF468
:1025E8008A71069BFEF79CF9002248F214114FF0FD
:1025F8009040FEF795F900224FF214019248FEF739
:102608008FF9002241F281019048FEF789F90122F1
:102618004FF400518D48FEF783F900224FF41071F2
:102628008B48FEF77DF9012220218748FEF778F9CB
:102638000122114683480024FEF772F9012640F270
:10264800151307A97F480793089609940A94FEF77B
:102658008BF86A2307A97B480793CDF82090099443
:10266800FEF782F84FF40053079307A9794B78488F
:1026780008934FF00B0A0994FEF776F83F2307A951
:1026880073480793022703254FF00808CDF820A0C8
:102698000994FEF769F807A94FF0904007950A9545
:1026A800CDF82C8008970994FEF75EF848F21413C9
:1026B80007A94FF090400793089609940A94FEF7EB
:1026C80053F807A94FF09040CDF81C800B96089757
:1026D80009940A94FEF748F807A95B480796CDF8CD
:1026E80020900994FEF740F807A95748CDF820A094
:1026F80007970994FEF738F84FF2340307A95248B0
:102708000793089609940A94FEF72EF84CF60443AA
:1027180007A94E480793CDF820900994FEF724F8AE
:1027280043F2810307A949480793089609940A9434
:10273800FEF71AF84FF4107307A94548079308964F
:1027480009940A94FEF710F84FF4C07307A940489B
:102758000793CDF820900994FEF706F8052307A9FA
:102768003A480A954FF007090B9307970897099479
:10277800FDF7FAFF782307A9344807930A954FF421
:10278800407A08970994CDF82C90FDF7EDFF1223B5
:102798000A9507A904252C48089309960B95CDF8A6
:1027A8001CA0FDF7E1FF224621461720FDF7E6FEB3
:1027B8001720FDF717FF214622462820FDF7DEFEE9
:1027C8002820FDF70FFF2448244B036005624FF4CF
:1027D8008073234D0671836186628460C7600461DB
:1027E8004461C4614462C4620463FDF749FF1D4A41
:1027F8001D4BEE60284685E80C00AC602C616C61CE
:10280800AC61EC612C62FEF79DF821462846FEF784
:10281800EAF821462846FEF70CF914481449154DE4
:102828008660FF2380E80A000661C4604461846111
:10283800FEF732FA104B6E614FF4827B20E000BF46
:10284800001002400010004800040048000C004836
:1028580000080048000021104C00002020600140C2
:102868000405002000580040EC9C901090060020C1
:10287800001000A02C0600200030014000001110BC
:1028880085E808084FF4E0634FF40076EB602846CB
:102898002823AE61EB61AC602F612C626C62AC6284
:1028A800C5F82C902C636C63FFF736F97748784BA2
:1028B800866180E80808C0F834808460C0F80CA0FD
:1028C80004614461C461046244628462C0F82C906B
:1028D8000463FFF721F96F486F4B84600C264FF4AF
:1028E800E13880E808014661C46004618461C4611C
:1028F80004624462FFF76FFC6848694B466180E8F0
:1029080008018460C46004618461C4610462446233
:10291800FFF761FC63484FF0A043062680E84800B3
:10292800C7608761C4610462446284620463C462EC
:10293800FEF7A4F8002450238DF804302246FF2324
:1029480010214FF090408DF805308DF806308DF845
:1029580007308DF81C40FDF7E3FF4FF4FA7307A921
:1029680001222846FFF729F9012210214FF0904053
:10297800FDF7D6FF224610214FF09040FDF7D0FF1B
:102988004FF4FA7301A901222846FFF716F901222C
:1029980010214FF09040FDF7C3FF224610214FF061
:1029A8009040FDF7BDFF4FF4FA7307A901222846AE
:1029B800FFF703F9012210214FF09040FDF7B0FF17
:1029C800224610214FF09040FDF7AAFF4FF4FA730A
:1029D8000DF1050101222846FFF7EFF80122102129
:1029E8004FF09040FDF79CFF224610214FF0904099
:1029F800FDF796FF4FF4FA7307A901222846FFF75F
:102A0800DCF8012210214FF09040FDF789FF2246A3
:102A180010214FF09040FDF783FF4FF4FA730DF14A
:102A2800060101222846FFF7C8F8012210214FF0BD
:102A38009040FDF775FF224610214FF09040FDF7BA
:102A48006FFF4FF4FA7307A901222846FFF7B5F87C
:102A5800012210214FF09040FDF762FF224610211D
:102A68004FF09040FDF75CFF4FF4FA730DF107014A
:102A780001222846FFF7A1F8012210214FF09040CB
:102A8800FDF74EFF6420FDF759FD53E75005002080
:102A9800003C0040B40500200038014084000020BC
:102AA80000480040FC0000200A4B1A6E42F0010268
:102AB8001A661A6E82B002F001020092009A9A6DAC
:102AC80042F080529A659B6D03F080530193019BFD
:102AD80002B070470010024000B589B014220021EE
:102AE80003A800F03FFA134B1B6803BB03F18043B4
:102AF80003F5043303A91A6E0F4842F080721A6670
:102B08001A6E02F080720192019ADA6C42F0100299
:102B1800DA64DB6C03F010030293029B4FF420731A
:102B280003930223049306230793FDF71DFE09B0C0
:102B38005DF804FB440000200010004810B504466E
:102B480088B01422002103A800F00CFA2268134B65
:102B58009A4221D1124C1348E36C43F00203E36418
:102B6800E36C03F002030193019B4FF4406303936A
:102B780012230493012305930323069303A9042333
:102B88000793FDF7F1FDA36D43F48003A365A36DDF
:102B980003F480030293029B08B010BD0058004064
:102BA800001002400004004810B5044688B0142202
:102BB800002103A800F0D6F92268144B9A4222D1CA
:102BC80003F1204303F5003303A91A6D104842F4BA
:102BD80080721A651A6D02F480720192019ADA6C99
:102BE80042F01002DA64DB6C03F010030293029BDC
:102BF8004FF47C43039302230493032306930A238D
:102C08000793FDF7B1FD08B010BD00BF001000A08C
:102C18000010004810B514228AB0044600210DEBBC
:102C2800020000F09FF92368234A934221D1234BE5
:102C38001A6E42F480521A661A6E02F48052019299
:102C4800019ADA6C42F00102DA64DB6C03F00103EA
:102C58000293029BE0230593022306930323089320
:102C68000523099305A94FF09040FDF77DFD0AB0B3
:102C780010BD134A9342FAD1104B12489A6D42F490
:102C880000429A659A6D02F400420392039ADA6C44
:102C980042F00402DA64DB6C03F004030493049B3F
:102CA8004FF4E05305930223069303230893062366
:102CB800099305A9D9E700BF003001400010024080
:102CC800003C00400008004810B514228AB00446B1
:102CD80000210DEB020000F045F92368224A9342D7
:102CE80020D1224B22481A6E42F480421A661A6E8C
:102CF80002F480420192019ADA6C42F00202DA642C
:102D0800DB6C03F002030293029BC02305930223AA
:102D18000693032308930723099305A9FDF724FDC8
:102D28000AB010BD134A9342FAD1104B12489A6D5B
:102D380042F480229A659A6D02F480220392039AE3
:102D4800DA6C42F00802DA64DB6C03F008030493DF
:102D5800049B4FF4407305930223069303230893BF
:102D68000723099305A9D9E700380140001002405C
:102D78000004004800480040000C004810B5044614
:102D880088B01422002103A800F0ECF82368B3F1FE
:102D9800A04F3CD1204CE36C43F00103E364E36CA7
:102DA80003F001030093009B03A94FF400734FF055
:102DB80090400393FDF7D8FC4FF4E05303930223AC
:102DC8000493002305930323069303A90A234FF0D2
:102DD80090400793FDF7C8FCE36C43F48053E36429
:102DE800E36C03F480530193019BA36DDB0010D4C3
:102DF800A36D43F08053A365A36D03F08053029342
:102E0800029BFDF71BFFA36D23F08053A36508B059
:102E180010BDFDF713FFFAE7001002407047FEE708
:102E2800FEE7FEE7FEE7704770477047FDF778BB9F
:102E380008B52020FDF77AFD4020FDF777FD8020BA
:102E4800FDF774FD4FF48070BDE80840FDF76EBDD6
:102E580008B54FF48060FDF769FD4FF40060FDF799
:102E680065FD4FF40050FDF761FD4FF48040FDF71C
:102E78005DFD4FF40040BDE80840FDF757BD000078
:102E88000F49D1F8883043F47003C1F888300D4BEE
:102E98001A68002042F001021A6098601A6822F04D
:102EA800A85222F410221A604FF48052DA601A688D
:102EB80022F480221A6098614FF000638B6070479B
:102EC80000ED00E000100240DFF834D0002103E0FC
:102ED8000C4B5B58435004310B480C4B42189A4238
:102EE800F6D30B4A02E0002342F8043B094B9A420E
:102EF800F9D3FFF7C5FF00F011F8FFF733FBFEE742
:102F0800008001200030000800000020040000209C
:102F180004000020D4060020FEE7000070B50D4E26
:102F28000D4CA41BA4100025A54209D10B4E0C4C36
:102F380000F020F8A41BA4100025A54205D170BDFF
:102F480056F8253098470135EEE756F8253098476A
:102F58000135F2E7F82F0008F82F0008F82F0008CD
:102F6800FC2F000802440346934200D1704703F83F
:102F7800011BF9E7F8B500BFF8BC08BC9E467047CE
:0C2F8800F8B500BFF8BC08BC9E467047BE
:102F94000104020800101010041010100210101088
:102FA40008000000000000000001020304060708F6
:102FB400090000000001020304000000A0860100D3
:102FC400400D0300801A060000350C0040420F003B
:102FD40080841E0000093D0000127A000024F400E1
:0C2FE40000366E010048E801006CDC02C1
:082FF00008D2FF7F0100000080
:042FF800AD0100081F
:042FFC00890100083F
:0430000000093D0086
:0400000508002ED1F0
:00000001FF
