:020000040800F2
:10000000680700206D5800089D580008A158000896
:10001000A5580008A9580008AD58000800000000C5
:10002000000000000000000000000000B1580008BF
:10003000B558000800000000B9580008B555000880
:10004000BD580008C1580008C5580008C958000824
:10005000CD580008D1580008CB550008C1550008FC
:10006000D5580008D9580008DD580008E1580008A4
:10007000E5580008E9580008ED580008F158000854
:10008000F5580008F9580008FD5800080159000803
:1000900005590008095900080D59000811590008B0
:1000A00015590008195900081D5900082159000860
:1000B0002559000800000000000000002959000830
:1000C0002D5900083159000835590008000000007A
:1000D000395900083D590008D55500084159000814
:1000E000E95500084559000849590008000000007A
:1000F0000000000000000000000000000000000000
:100100000000000000000000000000004D59000841
:10011000000000000000000051590008000000002D
:1001200000000000000000000000000000000000CF
:1001300000000000000000000000000000000000BF
:10014000555900085959000800000000000000003F
:10015000000000000000000000000000000000009F
:100160005D5900086159000865590008695900087F
:100170006D590008000000000000000000000000B1
:10018000000000007159000800221100C9B20229C4
:1001900014DA0022C9B20B011A540022C9B210EBC2
:1001A00001135A600022C9B210EB01139A600022B9
:1001B000C9B210EB0113DA60491CE7E7704770B46D
:1001C000039C049DC0B206017254C0B211EB00162C
:1001D0007360C0B211EB0016B460C0B211EB001630
:1001E000F56070BC70472DE9F04383B004000D004A
:1001F00016001F00DDF82880DDF82C90DFF8C40B16
:100200000078002806D10120DFF8B81B087028000C
:10021000FFF7BAFFCDF80490CDF800803B00320024
:10022000D2B229002000C0B2FFF7C9FFBDE8F783B2
:10023000F0B50026330000263500EDB2042D0CDAAF
:1002400000263400E4B2022C05DA0026DBB25E544C
:100250005B1C641CF6E76D1CEFE700263400E4B27B
:10026000022C80F29A81DFF8186AE4B227013F5C21
:100270005FF00E0C0CFB0766367BE4B26654E4B20A
:100280002601365C002E2AD0022E61D028D3042EFF
:1002900000F09A806ED3062E00F0D280C0F0A680C7
:1002A000082E00F01081C0F0E4800A2E00F06B816F
:1002B000C0F045810C2E00F06881C0F065810E2EE3
:1002C00000F06581C0F06281102E00F06281C0F004
:1002D0005F81122E00F05F81C0F05C815BE15AE12A
:1002E000E4B2665CDFF8287AE4B210EB041CDCF8B8
:1002F00004C05FF0140E0EFB0C773F783E43E4B26F
:100300006654DFF80C6AE4B210EB04177F685FF004
:10031000140C0CFB0766B67B320001263500EDB2EB
:10032000D2B2561CB54212DAEDB26E0056FA84F61D
:10033000E4B210EB0417BF68B2EB050C5FFA8CFC5B
:100340005FEACC0C37FA0CF777546D1CE7E722E133
:10035000E4B2665CDFF8B879E4B210EB041CDCF8B8
:1003600004C05FF0140E0EFB0C773F783E43E4B2FE
:10037000665410E1E4B2665CDFF8807BE4B210EB17
:10038000041CDCF804C05FF0090E0EFB0C773F7A0A
:100390003E43E4B2665401263500EDB2042D12DA74
:1003A000EDB26E0056FA84F6E4B210EB0417BF68A3
:1003B000D5F1030C5FFA8CFC5FEACC0C37FA0CF732
:1003C00077546D1CE9E7E6E0E4B2665CDFF82C7B6D
:1003D000E4B210EB041CDCF804C05FF0090E0EFB65
:1003E0000C773F7A3E43E4B26654D4E0E4B2665CF4
:1003F000DFF8087BE4B210EB041CDCF804C05FF00B
:10040000090E0EFB0C773F7A3E43E4B26654012698
:100410003500EDB2042D12DAEDB26E0056FA84F614
:10042000E4B210EB0417BF68D5F1030C5FFA8CFC43
:100430005FEACC0C37FA0CF777546D1CE9E7AAE0B9
:1004400001263500EDB2042D12DAEDB26E0056FA37
:1004500084F6E4B210EB04177F68D5F1030C5FFA61
:100460008CFC5FEACC0C37FA0CF777546D1CE9E78B
:1004700091E0E4B2665CDFF8847AE4B210EB041C2D
:10048000DCF804C05FF0090E0EFB0C773F7A3E43A8
:10049000E4B2665401263500EDB2042D12DAEDB255
:1004A0006E0056FA84F6E4B210EB0417BF68D5F17B
:1004B000030C5FFA8CFC5FEACC0C37FA0CF777542C
:1004C0006D1CE9E767E0E4B2665CDFF8EC79E4B262
:1004D00010EB041CDCF804C05FF0050E0EFB0C777B
:1004E0003F7956EAC706E4B26654E4B2665CDFF8C8
:1004F0000C7AE4B210EB041CDCF808C05FF0090EC3
:100500000EFB0C773F7A3E43E4B266540126350079
:10051000EDB2042D12DAEDB26E0056FA84F6E4B2B2
:1005200010EB0417FF68D5F1030C5FFA8CFC5FEA4F
:10053000CC0C37FA0CF777546D1CE9E72BE0E4B2EA
:10054000665CDFF87479E4B210EB041CDCF804C0DC
:100550005FF0050E0EFB0C773F7956EAC706E4B252
:100560006654E4B2665CDFF89479E4B210EB041CE4
:10057000DCF808C05FF0090E0EFB0C773F7A3E43B3
:10058000E4B2665407E006E005E004E003E002E0C0
:1005900001E000E0FFE7641C61E6F0BDDFED5A0A10
:1005A000B4EE600AF1EE10FA08D5DFED630A80EED2
:1005B000200ABCEEC00A10EE100A00E000207047CE
:1005C000DFED5E0AB4EE600AF1EE10FA09D5DFED58
:1005D000590A80EE200ABDEEC00A10EE100A80B261
:1005E00000E0002070470000DFED540AB4EE600A1E
:1005F000F1EE10FA09D5DFED4F0A80EE200ABDEECC
:10060000C00A10EE100A80B200E00020704700001F
:10061000DFED640AB4EE600AF1EE10FA09D5DFED01
:10062000600A80EE200ABDEEC00A10EE100A80B209
:1006300000E0002070470000DFED740AB4EE600AAD
:10064000F1EE10FA09D5DFED700A80EE200ABDEE5A
:10065000C00A10EE100A80B200E0002070470000CF
:10066000DFED7A0AB4EE600AF1EE10FA0DD5DFED97
:10067000A10A80EE200AFEEE000A30EE200ABDEE4E
:10068000C00A10EE100A80B200E00020704700009F
:10069000DFED880AB4EE600AF1EE10FA09D5DFED5D
:1006A000840A80EE200ABDEEC00A10EE100A80B265
:1006B00000E0002070470000DFED8F0AB4EE600A12
:1006C000F1EE10FA09D5DFEDAB0A80EE200ABDEE9F
:1006D000C00A10EE100AC0B200E00020704700000F
:1006E000DFED850AB4EE600AF1EE10FA09D5DFED10
:1006F000A10A80EE200ABDEEC00A10EE100AC0B2B8
:1007000000E00020704700001C247446DFED7A0AE8
:10071000B4EE600AF1EE10FA09D5DFED960A80EE2C
:10072000200ABDEEC00A10EE100AC0B200E00020A0
:1007300070470000FED468412A24743C72C66847A2
:10074000DFEDAE1AB4EE610AF1EE10FA26D5DFED58
:100750009A1AC0EE211AF0EE610AFDEEE01A11EECF
:10076000900AC0B201EE900AF8EE611A70EEE11A3A
:10077000B0EE611AF6EE001AB4EE611AF1EE10FA5C
:1007800006D5FDEEE00A10EE900A401EC0B206E06B
:10079000FDEEE00A10EE900AC0B200E000207047C3
:1007A0000B24744103E77346DFEDB51AB4EE610A1A
:1007B000F1EE10FA26D5DFEDA21AC0EE211AF0EE06
:1007C000610AFDEEE01A11EE900AC0B201EE900A45
:1007D000F8EE611A70EEE11AB0EE611AF6EE001A48
:1007E000B4EE611AF1EE10FA06D5FDEEE00A10EE55
:1007F000900A401EC0B206E0FDEEE00A10EE900A3C
:10080000C0B200E0002070470124743EC01474445C
:100810007CB504000D001600002001900096EDB29A
:100820002B000122DFF8241B2000C0B2FFF7DBFC05
:10083000DFF81C1BDFF8140BFFF7FAFCDFF8141BC2
:10084000DFF80C0B00F06BFB73BD000081E1734619
:10085000F0B583B004000D0000200190002000904E
:10086000EDB22B000222DFF8E41A2000C0B2FFF73D
:10087000BAFCDFF8DC1ADFF8D40AFFF7D9FCDFF89E
:10088000D41ADFF8CC0A00F04AFBDFF88404EDB29A
:10089000142101FB0500807B06003200D2B2DFF894
:1008A000B41A2000C0B200F07BFB07003800FEBD88
:1008B000F423743D242074447CB504000D0016001C
:1008C000002001900096EDB22B000322DFF87C1A85
:1008D0002000C0B2FFF787FCDFF8741ADFF86C0A5B
:1008E000FFF7A6FCDFF86C1ADFF8640A00F017FBCC
:1008F00073BD000000007441DA11833B30B583B052
:1009000004000D000020019000200090EDB22B00AB
:100910000422DFF8381A2000C0B2FFF764FCDFF8C9
:10092000301ADFF8280AFFF783FCDFF8281ADFF80F
:10093000200A00F0F4FA37BD7CB504000D00160063
:10094000002001900096EDB22B000522DFF8FC1983
:100950002000C0B2FFF747FCDFF8F419DFF8EC091C
:10096000FFF766FCDFF8EC19DFF8E40900F0D7FACE
:1009700073BD00006E95833730B583B004000D0061
:10098000B5F5800F17D200200190002000902B00B9
:100990000622DFF8B8192000C0B2FFF724FCDFF808
:1009A000B019DFF8A809FFF743FCDFF8A819DFF852
:1009B000A00900F0B4FA37BD0080BB437CB5040049
:1009C0000D001600B6F5800F17D20020019000969A
:1009D000EDB22B000722DFF874192000C0B2FFF738
:1009E00002FCDFF86C19DFF86409FFF721FCDFF87F
:1009F0006419DFF85C0900F092FA73BD0180BB4511
:100A0000F0B583B004000D0016001F000197F6B288
:100A10000096EDB22B000822DFF830192000C0B29A
:100A2000FFF7E1FBDFF82819DFF82009FFF700FCEA
:100A3000DFF82019DFF8180900F071FAF7BD00009F
:100A40000000FA417CB504000D0016000020019062
:100A5000F6B20096EDB22B000922DFF8F018200064
:100A6000C0B2FFF7C0FBDFF8E818DFF8E008FFF7D7
:100A7000DFFBDFF8E018DFF8D80800F050FA73BDAC
:100A800001007A451CB50400002001900020009070
:100A900000230A22DFF8B4182000C0B2FFF7A3FB3E
:100AA000DFF8AC18DFF8A408FFF7C2FBDFF8A418E2
:100AB000DFF89C0800F033FA13BD1CB504000020D9
:100AC00001900020009000230B22DFF88018200006
:100AD000C0B2FFF788FBDFF87818DFF87008FFF77F
:100AE000A7FBDFF87018DFF8680800F018FA13BDEC
:100AF0001CB50400002001900020009000230C226F
:100B0000DFF848182000C0B2FFF76DFBDFF840188F
:100B1000DFF83808FFF78CFBDFF83818DFF830080B
:100B200000F0FDF913BD1CB5040000200190002069
:100B3000009000230D22DFF814182000C0B2FFF748
:100B400052FBDFF80C18DFF80408FFF771FBDFF841
:100B50000418DFF8FC0700F0E2F913BD1CB504002F
:100B6000002001900020009000230E22DFF8DC1707
:100B70002000C0B2FFF737FBDFF8D417DFF8CC074F
:100B8000FFF756FBDFF8CC17DFF8C40700F0C7F912
:100B900013BD1CB50400002001900020009000232C
:100BA0000F22DFF8A8172000C0B2FFF71CFBDFF808
:100BB000A017DFF89807FFF73BFBDFF89817DFF87F
:100BC000900700F0ACF913BD1CB5040000200190A3
:100BD0000020009000231022DFF870172000C0B220
:100BE000FFF701FBDFF86817DFF86007FFF720FB6E
:100BF000DFF86017DFF8580700F091F913BD1CB556
:100C00000400002001900020009000231122DFF852
:100C10003C172000C0B2FFF7E6FADFF83417DFF820
:100C20002C07FFF705FBDFF82C17DFF8240700F08F
:100C300076F913BD30B583B0040000200190002088
:100C4000009000231222DFF804172000C0B2FFF743
:100C5000CAFADFF8FC16DFF8F406FFF7E9FADFF866
:100C6000F416DFF8EC0600F05AF90222DFF8E41679
:100C70002000C0B200F094F90500280080B23EBD0B
:100C8000F85100087CB504000D001600002001900A
:100C90000096EDB22B000122DFF8B0162000C0B2A2
:100CA000FFF7A1FA73BD30B583B004000D0000203A
:100CB000019000200090EDB22B000222DFF88C168C
:100CC0002000C0B2FFF78FFA37BD7CB504000D00DD
:100CD0001600002001900096EDB22B000322DFF8F1
:100CE0006C162000C0B2FFF77EFA73BD30B583B03A
:100CF00004000D000020019000200090EDB22B00B8
:100D00000422DFF848162000C0B2FFF76CFA37BDA6
:100D1000045000087CB504000D001600002001906E
:100D20000096EDB22B000522DFF820162000C0B29D
:100D3000FFF759FA73BD30B583B004000D000020F1
:100D40000190002000902B000622DFF80016200002
:100D5000C0B2FFF748FA37BD7CB504000D0016009D
:100D6000002001900096EDB22B000722DFF8DC1581
:100D70002000C0B2FFF737FA73BDF0B583B00400AE
:100D80000D0016001F000197F6B20096EDB22B0081
:100D90000822DFF8B8152000C0B2FFF724FAF7BD2B
:100DA0007CB504000D00160000200190F6B20096FC
:100DB000EDB22B000922DFF894152000C0B2FFF736
:100DC00012FA73BD840800201CB5040000200190B5
:100DD0000020009000230A22DFF870152000C0B226
:100DE000FFF701FA13BD1CB504000020019000209C
:100DF000009000230B22DFF854152000C0B2FFF74B
:100E0000F2F913BD1CB504000020019000200090F1
:100E100000230C22DFF834152000C0B2FFF7E3F9FD
:100E200013BD1CB504000020019000200090002399
:100E30000D22DFF818152000C0B2FFF7D4F913BD5A
:100E40001CB50400002001900020009000230E2219
:100E5000DFF8F8142000C0B2FFF7C5F913BD1CB5C8
:100E60000400002001900020009000230F22DFF8F2
:100E7000DC142000C0B2FFF7B6F913BD1CB50400A6
:100E8000002001900020009000231022DFF8BC1405
:100E90002000C0B2FFF7A7F913BD1CB50400002065
:100EA00001900020009000231122DFF8A014200000
:100EB000C0B2FFF798F913BD7C5800081CB50400B8
:100EC000002001900020009000231222DFF87C1403
:100ED0002000C0B2FFF787F913BD80B5DFF87014AA
:100EE000DFF86804FFF7A4F9DFF86814DFF860049E
:100EF00000F015F8DFF85C0402BD0000F8570008A8
:100F00000100C9B2002905D0C9B2002905D0C9B273
:100F1000022902DA0800C0B200E0FF20704770B575
:100F200082B004000D000020DFF82C1408700020AF
:100F30000600F6B2042E32DA0022DFF8200401891E
:100F4000DFF81804406800F077FB0A2000900223C5
:100F5000F6B215EB4602F6B214EB4601DFF80004D8
:100F600000F012FD0122DFF8F4030189DFF8EC0341
:100F7000406800F061FB0020DFF8E8130870DFF83C
:100F8000E4030078142808DA00BFDFF8D8030078FB
:100F9000401CDFF8D0130870F1E7761CC9E773BD79
:100FA00070B403000025280001252C00E4B2042CB5
:100FB0000BDAE4B211EB4405DBB25D5D161BF6B251
:100FC000F600B5402843641CF0E770BC704770B56C
:100FD00004000D00002618212000C0B2FFF738FCE5
:100FE000DFF8841309680880EDB2002D15D0022DBA
:100FF00021D019D3042D2CD024D3062D37D02FD3B4
:10100000082D44D03AD30A2D53D049D30C2D62D0A9
:1010100058D30E2D71D067D375E0D348006800789F
:1010200010F0010006006EE0CF4800680088C0F3B1
:101030004000060067E0CC4800680088C0F38000EC
:10104000060060E0C84800680088C0F3C0000600E1
:1010500059E0C54800680088C0F30010060052E05F
:10106000C14800680088C0F3411006004BE0BE484C
:1010700000680088C0F3C010060044E0BA48006869
:10108000008880B2000A10F0010006003BE0B6487C
:101090000068008880B2400A10F00100060032E0CB
:1010A000B1480068008880B2800A10F00100060094
:1010B00029E0AD480068008880B2C00A10F0010045
:1010C000060020E0A8480068008880B2000B10F0FD
:1010D0000100060017E0A4480068008880B2400BB9
:1010E00010F0010006000EE09F480068008880B202
:1010F000800B10F00100060005E09B4800680088A6
:1011000080B2C00B06003000C0B270BD0100C9B291
:10111000192906DA9548C9B2142202FB0100401CC5
:1011200000E088A07047000038B504000D0095ED80
:10113000050AFFF745FAA08395ED060AFFF754FA72
:10114000E08395ED070AFFF763FA208495ED080A1E
:10115000FFF772FA608495ED090AFFF781FAA0841F
:1011600095ED0A0ADFED780A20EE200AD5ED000A97
:1011700080EE200ABDEEC00A10EE100A84F82600A8
:1011800095ED0B0ADFED700A20EE200AD5ED000A7E
:1011900080EE200ABDEEC00A10EE100A84F8270087
:1011A00095ED0C0ADFED680A20EE200AD5ED000A65
:1011B00080EE200ABDEEC00A10EE100A84F8280066
:1011C00095ED0D0ADFED600A20EE200AD5ED000A4C
:1011D00080EE200ABDEEC00A10EE100A84F8290045
:1011E00095ED0E0AFFF754FA608595ED0F0AFFF7AB
:1011F00063FA84F82C0095ED100AFFF771FA84F871
:101200002D0095ED110AFFF781FA84F82E0095F86C
:10121000480084F82F0095ED130AFFF791FA84F83F
:10122000310095ED140AFFF7BFFA84F8320095F803
:10123000540084F8330095F8550084F83400B5F86C
:101240005600E086A28B04212078A3681B6898478B
:10125000E28B05212078A3681B689847228C062121
:101260002078A3681B689847628C07212078A368C0
:101270001B689847A28C08212078A3681B689847B0
:1012800094F8262009212078A3681B68984794F8D1
:1012900027200A212078A3681B68984794F8282003
:1012A0000B212078A3681B68984794F829200C210B
:1012B0002078A3681B689847628D0D212078A36869
:1012C0001B68984794F82C200E212078A3681B688F
:1012D000984794F82D200F212078A3681B68984721
:1012E00094F82E2010212078A3681B68984794F862
:1012F0002F2011212078A3681B68984794F831208B
:1013000013212078A3681B68984794F83220142191
:101310002078A3681B68984794F83320152120781B
:10132000A3681B68984794F8342016212078A36896
:101330001B689847E28E17212078A3681B6898479E
:1013400031BD000000000000000080433408002090
:101350006C08002074080020840800206008002029
:10136000D4070020850800209400002004500008C5
:101370002DE9F84304000D0000275FF000085FF03E
:1013800000092868000404D1CE21DFF8080300F02A
:101390007EFD6868002831D0686801282ED0686812
:1013A00011282BD06868022828D06868122825D018
:1013B0006868DFF8E412884220D06868DFF8DC1241
:1013C00088421BD06868DFF8D812884216D0686857
:1013D000DFF8D012884211D06868DFF8CC1288425A
:1013E0000CD06868DFF8C412884207D06868032808
:1013F00004D0CF21DFF89C0200F049FDA868002846
:101400000AD0A868012807D0A868022804D0D021F3
:10141000DFF8800200F03BFD00200600102E80F077
:1014200009810120B0400700286838408046B8454F
:1014300040F0FE806868022802D06868122824D133
:1014400028690D2807D328690F2804D0E121DFF887
:10145000440200F01CFDF00814EB8000006A814695
:101460000F2016F00701C9B28900884039EA000947
:10147000286916F00701C9B28900884050EA0909B5
:10148000F00814EB8000C0F820902068814603200B
:101490003100C9B24900884039EA0009287910F0C2
:1014A00003003100C9B24900884050EA0909C4F874
:1014B00000906868012808D06868022805D068682C
:1014C000112802D0686812282CD1E868002809D0B9
:1014D000E868012806D0E868032803D0F4216D48A5
:1014E00000F0D5FCA068814603203100C9B2490054
:1014F000884039EA0009E8683100C9B249008840EB
:1015000050EA0909C4F80890606881460120B0409B
:1015100039EA00096868C0F30010B04050EA0909D0
:10152000C4F80490E068814603203100C9B2490044
:10153000884039EA0009A8683100C9B249008840EA
:1015400050EA0909C4F80C906868C00070D5584882
:10155000006850F00100564908605648B10850F83C
:10156000210081460F2016F00301C9B2890088408E
:1015700039EA0009B4F1904F01D1002019E04E483A
:10158000844201D1012014E04C48844201D1022060
:101590000FE04B48844201D103200AE049488442CD
:1015A00001D1042005E04848844201D1052000E033
:1015B000062016F00301C9B28900884050EA0909E3
:1015C0003C48B10840F8219040480068814639EA1B
:1015D00008096868C00301D558EA09093B48C0F802
:1015E00000903B480068814639EA08096868800332
:1015F00001D558EA09093648C0F800903548006816
:10160000814639EA08096868C00201D558EA090923
:101610003048C0F8009030480068814639EA08092F
:101620006868800201D558EA09092B48C0F8009083
:10163000761CF3E6BDE8F18370B504000D001600DA
:10164000ADB2002D04D140F2AF11124800F01FFCE2
:10165000F6B2002E07D0F6B2012E04D04FF4D871A6
:101660000C4800F014FCF6B2002E01D0258300E0F7
:10167000658370BD10B5040018480068A4B220420C
:1016800006D0A4B215480460200080B200F0A3FD8B
:1016900010BD00005454000800001110000021107B
:1016A0000000311000001210000022100000321063
:1016B00018100240080001400004004800080048DB
:1016C000000C0048001000480014004800040140CD
:1016D00004040140080401400C04014014040140CA
:1016E00038B50400002C01D101204CE12068DFF85E
:1016F000C815884209D02068DFF8C015884204D098
:10170000E421DFF8BC0500F0C2FB6068002808D0C7
:101710006068B0F5827F04D0E521DFF8A40500F011
:10172000B6FBA06800280CD0A068B0F5806F08D088
:10173000A068B0F5004F04D0E621DFF8840500F082
:10174000A6FBE068B0F5706F34D0E068B0F5606F6C
:1017500030D0E068B0F5506F2CD0E068B0F5406F45
:1017600028D0E068B0F5306F24D0E068B0F5206F85
:1017700020D0E068B0F5106F1CD0E068B0F5006FC5
:1017800018D0E068B0F5E06F14D0E068B0F5C06F35
:1017900010D0E068B0F5A06F0CD0E068B0F5806FB5
:1017A00008D0E068B0F5407F04D0E721DFF81005ED
:1017B00000F06DFB2069002807D02069022804D0C2
:1017C000E821DFF8FC0400F062FB6069002807D024
:1017D0006069012804D0E921DFF8E40400F057FB38
:1017E000A069B0F5007F0BD0A069002808D0A069DF
:1017F000B0F5802F04D0EA21DFF8C40400F047FBE5
:10180000606B082807D0606B002804D0EB21DFF85C
:10181000B00400F03CFBE069002819D0E06908281A
:1018200016D0E069102813D0E069182810D0E069BC
:1018300020280DD0E06928280AD0E069302807D098
:10184000E069382804D0EC21DFF8740400F01FFBB5
:10185000206A002807D0206A802804D0ED21DFF814
:10186000600400F014FB606A002807D0606A10284A
:1018700004D0EE21DFF8480400F009FBA06A00283C
:1018800008D0A06AB0F5005F04D0EF21DFF8300483
:1018900000F0FDFAE06A002803D0E06AB0F5803F6E
:1018A00004D3F021DFF8180400F0F1FA206B0028CF
:1018B0000AD0206B012807D0206B022804D0F12128
:1018C000DFF8FC0300F0E3FA022084F85D0020005A
:1018D00000F0DBFC2068006830F040002168086000
:1018E000E068B0F5E06F02D90020050002E04FF497
:1018F00080500500E068B0F5706F05D0E068B0F585
:10190000E06F01D00020A062206B002808D1E068C1
:10191000B0F5E06F02D90220206301E001202063CE
:101920006068A16808432169084361690843A169A7
:1019300011F400710843E1690843216A0843A16A70
:10194000084321680860206B022805D120680068E0
:1019500050F4006021680860A069000C10F00400D9
:10196000616A0843616B0843E168084328432168C2
:101970004860E06A21680861002084F85E00012068
:1019800084F85D00002032BD2DE9F84304000D000D
:1019900016001F00DDF820800020ADF800005FF089
:1019A0000009A068002805D040F2F321DFF81003F9
:1019B00000F06DFA94F85D00012801D0022079E171
:1019C000002D04D0002E02D0BFB2002F01D1012083
:1019D00070E100F0DEFC814694F85C00012801D142
:1019E000022067E1012084F85C00052084F85D0096
:1019F000002084F85E002664A4F84670A4F84470C1
:101A0000A563E787A787A06AB0F5005F0BD12068C0
:101A1000006830F40050216808602068006850F4C5
:101A2000005021680860E068B0F5E06F03D8B4F8B2
:101A30004600022806DB2068406830F480502168A8
:101A4000486005E02068406850F480502168486094
:101A500020680068400605D42068006850F0400007
:101A600021680860E068B0F5E06F4DD9E08F00288C
:101A700004D1B4F84600002800F0BA80E08F0028B6
:101A80001AD020688068800716D5A06B008821686E
:101A9000C860A06B801CA063E08F401EE087E08FD1
:101AA000002809D1A06AB0F5005F05D12068006860
:101AB00050F4805021680860B4F8460000280FD028
:101AC00020688068C0070BD52068C068216C08803A
:101AD000206C801C2064B4F84600401EA4F8460028
:101AE00018F1010FC2D0B8F1000F05D000F051FC81
:101AF000B0EB09008045B9D2012084F85D000020D8
:101B000084F85C000320D5E0E08F002803D1B4F80E
:101B1000460000286CD0E08F002827D0206880681D
:101B2000800723D5E08F03280ADBA06B008821689B
:101B3000C860A06B801CA063E08F801EE08708E077
:101B4000A06B411CA163007821680873E08F401EE0
:101B5000E087E08F002809D1A06AB0F5005F05D1C9
:101B60002068006850F4805021680860B4F846008E
:101B7000002829D020688068C00725D5B4F8460021
:101B8000022816DB2068C068216C0880206C801C4D
:101B90002064B4F84600801EA4F84600B4F846005D
:101BA000022811DA2068406850F4805021684860AB
:101BB0000AE0206C411C21642168097B0170B4F8A3
:101BC0004600401EA4F8460018F1010F9CD0B8F161
:101BD000000F05D000F0DDFBB0EB0900804593D28B
:101BE000012084F85D00002084F85C00032061E09F
:101BF000A06AB0F5005F35D14346012201212000E3
:101C000000F060F8002805D094F85E0050F0020063
:101C100084F85E00E068B0F5706F06D12068C06897
:101C2000ADF80000BDF800001CE02068007BADF8B6
:101C30000000BDF80000206B022813D143460122AA
:101C40000121200000F03EF8002805D094F85E0045
:101C500050F0020084F85E002068007BADF80000C0
:101C6000BDF800004146200000F0D0F8002801D067
:101C700003201FE0012084F85D0020688068C00612
:101C80000ED594F85E0050F0020084F85E007FF0FC
:101C9000100021688860002084F85C00012009E0C1
:101CA000002084F85C0094F85E00002801D0012038
:101CB00000E00020BDE8F28300380040003C004016
:101CC000045500082DE9F04104000D0016001F0026
:101CD00000F05FFB8046206880682840B0423AD020
:101CE00017F1010FF7D0002F05D000F052FBB0EB39
:101CF00008008742EFD22068406830F0E000216899
:101D000048606068B0F5827F0DD1A068B0F5004FE3
:101D100003D0A068B0F5806F05D12068006830F06E
:101D2000400021680860A06AB0F5005F0BD1206810
:101D3000006830F40050216808602068006850F4A2
:101D4000005021680860012084F85D00002084F8BC
:101D50005C00032000E00020BDE8F0812DE9F041A7
:101D600082B004000D0016001F0000F012FB804638
:101D7000206880682840B04245D0B5F5C06F07D1D3
:101D8000002E05D12068007B8DF800009DF8000032
:101D900017F1010FECD0002F05D000F0FAFAB0EBEC
:101DA00008008742E4D22068406830F0E0002168F3
:101DB00048606068B0F5827F0DD1A068B0F5004F33
:101DC00003D0A068B0F5806F05D12068006830F0BE
:101DD000400021680860A06AB0F5005F0BD1206860
:101DE000006830F40050216808602068006850F4F2
:101DF000005021680860012084F85D00002084F80C
:101E00005C00032000E00020BDE8F68138B5040046
:101E10000D002B0000224FF4C0512000FFF79EFF61
:101E2000002807D094F85E0050F0200084F85E008F
:101E3000032021E02B00002280212000FFF742FF39
:101E4000002807D094F85E0050F0200084F85E006F
:101E5000032011E02B0000224FF4C0612000FFF7A7
:101E60007DFF002807D094F85E0050F0200084F831
:101E70005E00032000E0002032BD80B500F06CFB66
:101E800000F0C5FD00F0A6FE00F002F8FEE7704786
:101E90002DE9F04F83B0C549C54800F0D1FE00F0F0
:101EA0007DFF00F0FBFF0090002080465FFA88F87D
:101EB000B8F1000F14D14046C0B200F07FFDC0B2AF
:101EC00000F02DFE060000985FFA88F8B02101FBB3
:101ED0000800070038007168884718F10108E5E735
:101EE000B449B34800F0ACFE00F058FF04200500F0
:101EF000002000F063FD8346002000F05FFD5FFAE4
:101F00008BFB584554D35846C0B200F008FE06007B
:101F10000020FEF7F5FF82460120FEF7F1FF5FFA91
:101F20008AFA504541D300985FFA8BFB5FEA4B0178
:101F300051FA8AF1582202FB0100070097F8541069
:101F4000022000F039F997ED010ABCEEC00A10EE4C
:101F5000101A00FB01F0EDB2B0FBF5F00400002018
:101F600081465FFA89F9EDB2A9451BD2230001220F
:101F70005146C9B25846C0B2D6F808C0DCF810C005
:101F8000E04701225146C9B25846C0B2B3689B6CC3
:101F900098470028F5D04FF47A7000F0FDF919F158
:101FA0000109DEE71AF1010AB6E71BF1010BA3E70D
:101FB00040F6C41000F0F0F9002000F0FFFC83466A
:101FC000002000F0FBFC5FFA8BFB58452FD300206C
:101FD000FEF796FF82460120FEF792FF5FFA8AFA2B
:101FE00050451ED300985FFA8BFB5FEA4B0151FA14
:101FF0008AF1582202FB0100070097ED040AFEF760
:10200000CDFA0190019A01215046C0B25FFA8AFAD6
:1020100016EB8A03DB689B681B6D98471AF1010A6F
:10202000D9E7B068C06C80471BF1010BC8E742F2EA
:10203000107000F0B1F9002000F0C0FC83460020D1
:1020400000F0BCFC5FFA8BFB58451ED30020FEF766
:1020500057FF82460120FEF753FF5FFA8AFA504588
:102060000DD35046C0B25FFA8AFA16EB8A01C968EE
:102070008968D1F8801088471AF1010AEAE7B06848
:10208000C06C80471BF1010BD9E708200500002038
:1020900000F094FC8346002000F090FC5FFA8BFB7C
:1020A000584554D35846C0B200F039FD0600002010
:1020B000FEF726FF82460120FEF722FF5FFA8AFA2A
:1020C000504541D300985FFA8BFB5FEA4B0151FA10
:1020D0008AF1582202FB0100070097F854100220F1
:1020E00000F06AF897ED010ABCEEC00A10EE101A73
:1020F00000FB01F0EDB2B0FBF5F0040000208146DA
:102100005FFA89F9EDB2A9451BD22300012251469D
:10211000C9B25846C0B2D6F808C0DCF810C0E047D3
:1021200001225146C9B25846C0B2B3689B6C984769
:102130000028F5D04FF47A7000F02EF919F101095A
:10214000DEE71AF1010AB6E71BF1010BA3E7002055
:1021500000F034FC8346002000F030FC5FFA8BFB7B
:1021600058451ED30020FEF7CBFE82460120FEF725
:10217000C7FE5FFA8AFA50450DD35046C0B25FFAE7
:102180008AFA16EB8A01C9688968D1F888108847ED
:102190001AF1010AEAE7B068C06C80471BF1010B35
:1021A000D9E7002000F07EFEBDE8F78F2857000831
:1021B000680700204857000810B4020001200024DE
:1021C0002300DBB2C9B28B4203D2D2B250435B1CB4
:1021D000F7E710BC704710B50400A4B22000012836
:1021E00007D0022808D0B0F5005F07D100F022FC2C
:1021F00004E000F01BFC01E000F01AFC10BDF0B49C
:10220000016844688368091801EB5402E40748BF79
:102210004B440C3091422BD011F8014B14F00305C4
:1022200004BF11F8015BED1C26090F2E07D111F830
:10223000016B0F3603E011F8017B03F8017B6D1E83
:10224000F9D1002EE6D0A40811F8015B04F00304D4
:10225000032C08BF11F8014B05EB04241C1BB51C13
:10226000D8D014F8016B03F8016B6D1EF9D1D1E7DA
:10227000F0BC704780B5072000F0FEFE0022002170
:102280005FF0FF3000F00CFF01BD10B586B0040018
:102290002068284988421AD12448006850F48020D8
:1022A000224908602448006850F4804022490860B0
:1022B0004FF4604000900220019000200290032023
:1022C00003900520049069461948FFF751F806B0BD
:1022D00010BD10B586B0040020681849884222D18C
:1022E0001248006850F40030104908601248006835
:1022F00050F40030104908600C200090022001903A
:1023000000200290032003900720049069465FF0AC
:102310009040FFF72DF800220021262000F0C0FE9B
:10232000262000F0DCFE06B010BD000014100240B4
:1023300000040048003800401C10024000440040E7
:1023400080B51B48006850F0100019490860032050
:1023500000F092FE002000F004F8FFF78BFF002051
:1023600002BD10B5040001F042F94FF47A71B0FBE0
:10237000F1F000F0C2FE002221005FF0FF3000F01B
:102380008FFE002010BD0B480068401C0949086002
:10239000704708480068704711B581B0FFF7F9FF32
:1023A0000400FFF7F6FF001B01998842F9D313BD23
:1023B000002002408008002000B59FB00220059058
:1023C0000120099010200A9002200C9000200D900E
:1023D0005FF460100E9005A801F05AFB05200090F4
:1023E00002200190002002904FF4806003900020B2
:1023F00004900221684600F0A1FE02200F90002008
:1024000012900FA801F036F94D48006850F0010015
:102410004B4908601FB000BD80B50121002000F0CD
:1024200051FD01BD38B54748474908604FF48270F7
:10243000454948600020444988604FF4E0604249C3
:10244000C86002204049086101203F4948614FF4BB
:1024500000703D49886100203B49086200203A49EC
:10246000486200203849886200203749486301F0FB
:10247000D2F804003548B4FBF0F00500ADB2022DEF
:1024800003DA00203049C86131E0ADB2042D03DA2F
:1024900008202D49C8612AE0ADB2082D03DA1020CA
:1024A0002949C86123E0ADB2102D03DA182026496E
:1024B000C8611CE0ADB2202D03DA20202249C8619A
:1024C00015E0ADB2402D03DA28201F49C8610EE0A7
:1024D000ADB2802D03DA30201B49C86107E0ADB2F0
:1024E000FF2D03DC38201849C86100E0FEE71648DC
:1024F000FFF7F6F831BD80B51548164908605FF45E
:10250000E1301449486000201249886000201149D8
:10251000C86000200F4908610C200E494861002066
:102520000C49886100200B49C861002009490862F4
:10253000002008494862074801F0B6FE01BD0000CE
:102540001810024000380040D4070020404B4C00D7
:10255000004400406807002080B5FFF7F1FEFFF758
:102560002BFFFFF759FFFFF75DFFFFF7C4FF01BD2A
:1025700010B586B0DFF8F0050068DFF8F0150968DF
:102580000843DFF8E4150860DFF8E00500890090F3
:102590001120019000200290032003906946DFF88B
:1025A000CC054068FEF7E4FEDFF8BC050068DFF804
:1025B000C01509680843DFF8B0150860DFF8B005FA
:1025C00000890090DFF8AC05019000200290694678
:1025D000DFF89C054068FEF7CBFE002200210620B4
:1025E00000F05EFDDFF880050068DFF88C150968F3
:1025F0000843DFF874150860DFF87C050089009057
:10260000DFF870050190002002906946DFF8680548
:102610004068FEF7ADFE00220021072000F040FDDB
:10262000002000F0CBF90400002000F0C7F9E4B26C
:10263000A04227D3DFF830050068DFF84015E4B288
:102640000C2202FB041109680843DFF81C1508601E
:10265000DFF82805E4B20C2101FB0400008900909A
:102660000120019000200290032003906946DFF8CA
:102670000C05E4B20C2202FB04004068FEF778FE71
:10268000641CD1E706B010BD38B50022DFF8DC04C9
:102690000189DFF8D8044068FEF7CEFF0122DFF899
:1026A000CC040189DFF8C4044068FEF7C5FF0020B0
:1026B00000F084F90400002000F080F9E4B2A042A8
:1026C00022D32000C0B200F082F90122DFF8B0046A
:1026D0000189DFF8AC044068FEF7AEFF0020FEF78A
:1026E0000FFC05000120FEF70BFCEDB2A84209D358
:1026F0002800C0B2FEF717FA2800C0B2FEF79AFA17
:102700006D1CEFE7641CD6E7002000F057F9C0B25B
:1027100000F05DF931BD10B50400E4B2012C06D122
:10272000062000F0DCFC072000F0D9FC05E00620C4
:1027300000F0DCFC072000F0D9FC10BDF8B5040067
:102740000D0016001F002000C0B200F040F9002864
:1027500006D03A003100C9B22800C0B2FEF758F8DE
:10276000F1BD70B504000D0016002000C0B200F0ED
:102770002EF9002806D03100C9B22800C0B2FEF7F9
:1027800067F800E0FF2070BDF8B504000D001600EA
:102790001F002000C0B200F01AF9002806D03A004D
:1027A0003100C9B22800C0B2FEF786F8F1BD70B59D
:1027B00004000D0016002000C0B200F008F9002847
:1027C00005D03100C9B22800C0B2FEF797F870BD3D
:1027D000F8B504000D0016001F002000C0B200F084
:1027E000F6F8002806D03A003100C9B22800C0B27D
:1027F000FEF7A2F8F1BD70B504000D001600200030
:10280000C0B200F0E4F8002804D031002800C0B2C3
:10281000FEF7B2F870BDF8B504000D0016001F00F9
:102820002000C0B200F0D3F8002806D03A003100F2
:10283000C9B22800C0B2FEF7C1F8F1BD2DE9F041E0
:1028400004000D0016001F00DDF818802000C0B243
:1028500000F0BDF8002808D043463A00D2B231005B
:10286000C9B22800C0B2FEF7CBF8BDE8F081F8B5D8
:1028700004000D0016001F002000C0B200F0A7F8F1
:10288000002807D03A00D2B23100C9B22800C0B245
:10289000FEF7D8F8F1BD38B504000D002000C0B235
:1028A00000F095F8002803D02800C0B2FEF7EAF83F
:1028B00031BD38B504000D002000C0B200F087F82B
:1028C000002803D02800C0B2FEF7F7F831BD38B5B4
:1028D00004000D002000C0B200F079F8002803D0F9
:1028E0002800C0B2FEF704F931BD38B504000D0070
:1028F0002000C0B200F06BF8002803D02800C0B25E
:10290000FEF711F931BD38B504000D002000C0B24A
:1029100000F05DF8002803D02800C0B2FEF71EF9D1
:1029200031BD38B504000D002000C0B200F04FF8F2
:10293000002803D02800C0B2FEF72BF931BD38B50E
:1029400004000D002000C0B200F041F8002803D0C0
:102950002800C0B2FEF738F931BD38B504000D00CB
:102960002000C0B200F033F8002803D02800C0B225
:10297000FEF745F931BD38B504000D002000C0B2A6
:1029800000F025F8002804D02800C0B2FEF752F964
:1029900000E0002032BD70B504000D0016002000DC
:1029A000C0B200F014F8002806D03100C9B22800E7
:1029B000C0B2FEF70CFB00E0FF2070BD0100C9B201
:1029C000002902D10800C0B200E0FF2070470100DA
:1029D000C9B2002919D16948C9B20C2202FB010011
:1029E0000068674A10606548C9B20C2202FB01000A
:1029F0004068634A50606148C9B20C2202FB010082
:102A000000895F4A1081012000E00020704780B5F6
:102A10000020FFF7D3FFC0B2FFF7D9FFFFF7A8FDF3
:102A2000FFF732FE0120FFF776FE01BD00BF7047C1
:102A300000BF704780B500224C4801894B48406870
:102A4000FEF7FAFDFEE738B504004E480500210008
:102A5000280000F0AFF831BD38B504004A48050041
:102A60002100280000F0A6F831BD38B50400474821
:102A700005002100280000F09DF831BD38B50400A4
:102A8000434805002100280000F094F831BD38B516
:102A900004004048050021002800FEF745FB31BD39
:102AA00038B504003C48050021002800FEF73CFB37
:102AB00031BD38B504003948050021002800FEF773
:102AC00033FB31BD38B5040035480500210028002E
:102AD000FEF72AFB31BD38B504003248050021005D
:102AE0002800FEF721FB31BD38B504002E48050053
:102AF00021002800FEF718FB31BD38B504002B4833
:102B0000050021002800FEF70FFB31BD38B5040099
:102B10002748050021002800FEF706FB31BD10B54F
:102B200004000020FFF74AFFE4B2844201D11548B7
:102B300018E00120FFF742FFE4B2844201D11248BD
:102B400010E00220FFF73AFFE4B2844201D10F48BF
:102B500008E00320FFF732FFE4B2844201D10C48C1
:102B600000E0002010BD00001410024034030020DB
:102B700040030020000021104C03002058030020D7
:102B800060080020D4020020EC0200200403002092
:102B90001C030020F4000020300100206C01002004
:102BA000A8010020E4010020200200205C02002097
:102BB0009802002038B504000D002078616988472C
:102BC0002800E1684968884715F15800216949687B
:102BD000884731BD80B544A1DFF8900200F030F89D
:102BE000DFF88C12DFF8840200F02AF8DFF8841294
:102BF000DFF8780200F024F8DFF87C12DFF86C02CE
:102C000000F01EF8DFF87412DFF8600200F018F828
:102C1000DFF86C12DFF8540200F012F85EA1DFF862
:102C20004C0200F00DF8DFF85C12DFF8400200F013
:102C300007F8DFF85412DFF8340200F001F801BDA4
:102C400070B504000D00002006003000461CC0B224
:102C5000405D0028F9D1761E0A23F6B2320092B206
:102C60002900200001F086FB70BD38B50400206803
:102C7000808C0500B4F85A00012802D0EDB20D2D69
:102C80002FD1B4F85A00401CA4F85A00606D401EC1
:102C900060650020616D087050A12000FFF7D0FF33
:102CA0002068C0698006FBD42068006830F02000EE
:102CB0002168086094F86900322803D1122084F852
:102CC00069000EE02068006830F4807021680860B8
:102CD000206880684008400021688860012084F8EE
:102CE000690031BD000000000A0D0000F8B50400C5
:102CF0000D002000C0B2FFF76AFE00284BD037A1BC
:102D00005A48FFF79DFF61495848FFF799FF002196
:102D1000EDB2280000F064F801005448FFF790FF7E
:102D20005B495248FFF78CFF0021E4B2200000F01D
:102D300057F801004D48FFF783FF56494B48FFF70E
:102D40007FFF00200600F6B2192E20DA3100C9B24A
:102D50002800C0B2FDF77CFD07003000C0B2FEF7CE
:102D6000D5F901004148FFF76BFF3FA13F48FFF74E
:102D700067FF0321380000F033F801003B48FFF7FC
:102D80005FFF16A13948FFF75BFF761CDBE713A155
:102D90003648FFF755FFF1BD200A0D0038B5002079
:102DA000FFF70CFE04000020FFF708FEE4B2A0428B
:102DB00013D30020FEF7A4F805000120FEF7A0F8C9
:102DC000EDB2A84207D32900C9B22000C0B2FFF774
:102DD0008DFF6D1CF1E7641CE5E731BD0A0D0000B5
:102DE00070B40200C9B2002905D0022909D005D368
:102DF000032909D00AE00120050007E002200500B0
:102E000004E00420050001E0082005000020030084
:102E1000DBB2EDB2AB4220D200201F4EDBB29855A0
:102E20000F206E1EF61AF6B2B600B04010406E1EAD
:102E3000F61AF6B2B600F0400400E4B20A2C05DA45
:102E400014F13000144EDBB2985504E014F1370051
:102E5000114EDBB298555B1CDAE700200E4EDBB258
:102E600098550D4870BC70473A2000006807002054
:102E7000E457000834560008645600080C5800084F
:102E80001C580008CC57000868570008BC560008BA
:102E90002C58000894580008540800200048704737
:102EA000444D000810B504000122DFF8CC00E4B264
:102EB00030F81410DFF8C400E4B250F82400FEF734
:102EC000BBFB10BD30B585B004000D00E4B2002C92
:102ED00008D1DFF8A000006850F40020DFF894105B
:102EE000086000E00020DFF89800006850F0010062
:102EF000DFF88C100860EDB2002D13D1DFF88400EC
:102F0000E4B230F8140000900020019002200290FA
:102F1000032003906946DFF87000E4B250F8240003
:102F2000FEF726FAEDB2012D22D1DFF85800E4B207
:102F300030F81400009000200290DFF8500001905B
:102F40006946DFF84400E4B250F82400FEF710FAB6
:102F500000220F21DFF83800E4B2205640B200F022
:102F60009FF8DFF82C00E4B2205640B200F0B7F82A
:102F700005B030BD141002403A310008980000201E
:102F800018100240424D00089C0000200000111063
:102F90002457000810F007025B4B1B6819004FF61E
:102FA000FF031940594B53EA02231943564B19604A
:102FB000704755480068C0F302207047012110F0A7
:102FC0001F029140524A40B2430942F82310704711
:102FD000012110F01F0291404E4A40B2430942F8CD
:102FE0002310704710B440B2002808D50A014A4B9C
:102FF00040B210F00F04E31803F8042C03E00A01B8
:10300000464B40B2C25410BC704770B4030013F07A
:103010000704D4F10706052E01D3042001E0D4F102
:103020000700261D072E01D2002500E0E51E01261F
:1030300016FA00F0401E0840A8400121A940491E90
:103040001140084370BC704710B50400601EB0F119
:10305000807F01D301200EE0601E314908600F21FE
:103060005FF0FF30FFF7BEFF00202E490860072009
:103070002D490860002010BD10B50400072C0BD0AE
:10308000062C09D0052C07D0042C05D0032C03D026
:10309000BC212648FEF7FBFE2000FFF77BFF10BD9A
:1030A000F8B504000D0016000027102E03D3D4211C
:1030B0001E48FEF7ECFE102D03D3D5211B48FEF76A
:1030C000E6FEFFF776FF0700320029003800FFF721
:1030D0009CFF0100200040B2FFF784FFF1BD10B556
:1030E0000400200040B2FFF769FF10BD10B50400D6
:1030F000200040B2FFF76CFF10BD10B504002000A7
:10310000FFF7A2FF10BD00000CED00E00000FA0583
:1031100000E100E080E100E018ED00E000E400E004
:1031200014E000E018E000E010E000E09C5300082C
:1031300080B500F001F801BD7047002070B50400B3
:103140000D000026002C05D140F21D11DFF81005FE
:10315000FEF79DFE207810F00F0F05D14FF48F7110
:10316000DFF8FC04FEF793FE002D09D0012D07D0F7
:10317000022D05D040F21F11DFF8E404FEF787FEB0
:10318000DFF8E004006810F00700A84280F0F88043
:10319000DFF8D0040068C008C0002843DFF8C4147A
:1031A0000860DFF8C004006810F00700A84201D0F2
:1031B00001201BE2207880072AD5A06800281DD0B6
:1031C000A06880281AD0A068902817D0A068A028EE
:1031D00014D0A068B02811D0A068C0280ED0A06874
:1031E000D0280BD0A068E02808D0A068F02805D02F
:1031F00040F23511DFF86804FEF749FEDFF85C04A1
:10320000006830F0F000A1680843DFF8501408604F
:103210002078C00740F19F81606800280BD060686B
:10322000012808D06068022805D04FF49E71DFF8AD
:103230003004FEF72CFE606801281ED14FF4804058
:10324000B0FA80F0400950F00100012803D1DFF806
:103250000804006806E04FF48040B0FA80F0DFF820
:10326000080400684FF48041B1FA81F111F01F01A8
:10327000C840C0073FD40120B8E1606802281BD1D4
:103280004020B0FA80F0400950F00100012803D13D
:10329000DFF8C403006805E04020B0FA80F0DFF8F2
:1032A000C80300684021B1FA81F111F01F01C84044
:1032B000C00720D4012099E15FF08040B0FA80F08F
:1032C000400950F00100012803D1DFF88C030068A9
:1032D00006E05FF08040B0FA80F0DFF88C03006811
:1032E0005FF08041B1FA81F111F01F01C840C007C1
:1032F00001D401207AE1DFF86403006880088000CF
:1033000061680843DFF854130860FFF742F80600CD
:103310006068012810D1DFF84403006810F00C0049
:10332000042800F01881FFF734F8801B41F289313E
:103330008842F0D3032059E16068022810D1DFF8F9
:103340001C03006810F00C00082800F00481FFF74F
:1033500020F8801B41F289318842F0D3032045E1F7
:10336000DFF8F802006810F00C0F00F0F480FFF7AF
:1033700010F8801B41F289318842F1D3032035E1F6
:10338000207880072AD5A06800281DD0A068802852
:103390001AD0A068902817D0A068A02814D0A068E0
:1033A000B02811D0A068C0280ED0A068D0280BD0BB
:1033B000A068E02808D0A068F02805D04FF4C271BA
:1033C000DFF89C02FEF763FDDFF89002006830F042
:1033D000F000A1680843DFF8841208602078C00775
:1033E00040F1AA80606800280BD06068012808D0EE
:1033F0006068022805D040F28B11DFF86402FEF706
:1034000046FD606801281ED14FF48040B0FA80F07C
:10341000400950F00100012803D1DFF83C020068A8
:1034200006E04FF48040B0FA80F0DFF83C0200681C
:103430004FF48041B1FA81F111F01F01C840C0077B
:103440003DD40120D2E0606802281BD14020B0FAB0
:1034500080F0400950F00100012803D1DFF8F801A5
:10346000006805E04020B0FA80F0DFF8FC01006859
:103470004021B1FA81F111F01F01C840C0071ED4EC
:103480000120B3E05FF08040B0FA80F0400950F0D6
:103490000100012802D17048006805E05FF080401B
:1034A000B0FA80F0704800685FF08041B1FA81F1B5
:1034B00011F01F01C840C00701D4012096E0674801
:1034C0000068800880006168084364490860FEF76E
:1034D00060FF0600606801280ED16048006810F0A7
:1034E0000C00042828D0FEF754FF801B41F28931DC
:1034F0008842F2D3032079E0606802280ED1574851
:10350000006810F00C00082816D0FEF742FF801B60
:1035100041F289318842F2D3032067E04F480068C6
:1035200010F00C0F08D0FEF734FF801B41F28931F8
:103530008842F3D3032059E04A480068C008C0001D
:103540002843484908604748006810F00700A8422F
:1035500001D001204AE0207840071FD5E06800280C
:1035600014D0E068B0F5806F10D0E068B0F5A06FBF
:103570000CD0E068B0F5C06F08D0E068B0F5E06F3F
:1035800004D040F2DB113648FEF781FC3348006876
:1035900030F4E060E16808433049086020780007B3
:1035A00020D52069002814D02069B0F5806F10D094
:1035B0002069B0F5A06F0CD02069B0F5C06F08D0BD
:1035C0002069B0F5E06F04D04FF4F1712448FEF7A4
:1035D0005EFC2248006830F46050216950EAC10066
:1035E0001E4908600020FEF7BCFE002070BD80B5BB
:1035F00000F006FE194909685FF07062B2FA82F2C3
:103600001A4B11F0F001D140C95CC840184908605C
:103610001748006802BD80B5FFF7E9FF0F49096848
:103620005FF46002B2FA82F2104B11F4E061D14013
:10363000C95CC84002BD80B5FFF7D9FF07490968DA
:103640005FF4E012B2FA82F2084B11F46051D140FB
:10365000C95CC84002BD00000010024004100240D6
:10366000AC54000800200240241002403C580008DE
:10367000A000002070B50400002500262068DFF8B7
:10368000641B884204D38221DFF85C0BFEF7FFFB4A
:103690002068C00370D5DFF8540B006850F08050EC
:1036A000DFF8481B0860DFF8480B006850F48070B2
:1036B000DFF83C1B0860FEF76CFE0500DFF8300BFE
:1036C0000068C00506D4FEF764FE401B6528F5D3EC
:1036D0000320DCE1DFF81C0B006810F44070616827
:1036E00011F44071884210D0DFF8080B006830F404
:1036F000407006000120DFF8001B08600020DFF8A2
:10370000F81A0860DFF8EC0A06606068B0F5807FA0
:1037100028D1FEF73EFE05005FF08040B0FA80F051
:103720005FF08040B0FA80F0400950F002000228BB
:1037300003D1DFF8C00A006802E0DFF8C00A0068C1
:103740005FF08041B1FA81F111F01F01C840C0075C
:1037500008D4FEF71EFE401B41F289318842DBD3BC
:10376000032094E1DFF88C0A006830F4407061684F
:103770000843DFF8801A08602078C0071AD5A068CF
:1037800000280DD0A06801280AD0A068022807D020
:10379000A068032804D0BB21DFF84C0AFEF777FBB2
:1037A000DFF8D40A006880088000A1680843DFF8C9
:1037B000C81A0860207880071DD5E068002810D05E
:1037C000E068B0F5803F0CD0E068B0F5003F08D06D
:1037D000E068B0F5403F04D0C521DFF80C0AFEF7E1
:1037E00056FBDFF8940A006830F44030E168084383
:1037F000DFF8841A0860207840071DD5206900286A
:1038000010D02069B0F5802F0CD02069B0F5002FC2
:1038100008D02069B0F5402F04D0CF21DFF8C809C7
:10382000FEF735FBDFF8500A006830F440202169CC
:103830000843DFF8441A08602078800614D56069D0
:10384000002807D06069102804D0D921DFF8980932
:10385000FEF71DFBDFF8200A006830F010006169F8
:103860000843DFF8141A08602068800315D5A06BA0
:10387000B0F5800F07D0A06B002804D0E721DFF857
:103880006809FEF704FBDFF8F409006830F48000F3
:10389000A16B0843DFF8E41908602078400614D5CE
:1038A000A069002807D0A069202804D0FB21DFF8F8
:1038B0003809FEF7ECFADFF8C009006830F02000A4
:1038C000A1690843DFF8B01908602068000415D525
:1038D000E069002808D0E069402805D040F20D11C9
:1038E000DFF80409FEF7D3FADFF88C09006830F03E
:1038F0004000E1690843DFF880190860206880050E
:1039000016D5606A002809D0606AB0F5000F05D0AE
:103910004FF49B71DFF8D008FEF7B9FADFF85C09C5
:10392000006830F40000616A0843DFF8501908604D
:103930002078000642D5206A002835D0206AB0F5EC
:10394000807F31D0206AB0F5887F2DD0206AB0F515
:10395000907F29D0206AB0F5987F25D0206AB0F5F5
:10396000A07F21D0206AB0F5A87F1DD0206AB0F5D5
:10397000B07F19D0206AB0F5B87F15D0206AB0F5B5
:10398000C07F11D0206AB0F5C87F0DD0206AB0F595
:10399000D07F09D0206AB0F5D87F05D04FF4A3714D
:1039A000DFF84408FEF773FADFF8D408006830F453
:1039B000F870216A0843DFF8C81808602068C0045E
:1039C00016D5A06A002809D0A06AB0F5807F05D07E
:1039D00040F28711DFF81008FEF759FADFF898086F
:1039E000006830F48070A16A0843DFF88C18086022
:1039F0002068400316D5E06A002809D0E06AB0F5D7
:103A0000806F05D04FF4D471DFF8DC07FEF73FFA82
:103A1000DFF86408006830F48060E16A0843DFF88A
:103A2000581808602068000316D5206B002809D0BC
:103A3000206BB0F5006F05D04FF4D971DFF8A807FF
:103A4000FEF725FADFF83008006830F40060216BDB
:103A50000843DFF8241808602068C00216D5606BA0
:103A6000002809D0606BB0F5005F05D04FF4DE711F
:103A7000DFF87407FEF70BFADFF8FC07006830F494
:103A80000050616B0843DFF8F0170860002070BD3C
:103A900038B504000025002C05D14FF44371DFF840
:103AA0004807FEF7F4F92068002809D0207810F0C4
:103AB0000F0F05D140F20D31DFF82C07FEF7E7F9C3
:103AC0002078C00740F1D680606800280BD060687D
:103AD000012808D06068052805D040F21231DFF8CF
:103AE0000807FEF7D4F9DFF89407006810F00C001F
:103AF00004280BD0DFF88407006810F00C000828B9
:103B000028D1DFF878070068C00323D54FF4804040
:103B1000B0FA80F0400950F00100012803D1DFF82D
:103B20006407006806E04FF48040B0FA80F0DFF8E8
:103B3000CC0600684FF48041B1FA81F111F01F0109
:103B4000C840C00740F196806068012800F092806C
:103B5000012045E30020DFF830170870FEF719FC5C
:103B600005004FF48040B0FA80F0400950F00100A9
:103B7000012803D1DFF80C07006806E04FF480400D
:103B8000B0FA80F0DFF8740600684FF48041B1FAB3
:103B900081F111F01F01C840C00708D5FEF7F9FBFD
:103BA000401B41F289318842DBD3032018E360686F
:103BB000DFF8D4160870DFF8C806006800090001B5
:103BC000A1680843DFF8B81608606068012828D1AA
:103BD000FEF7DFFB05004FF48040B0FA80F04009AB
:103BE00050F00100012803D1DFF89806006806E0D4
:103BF0004FF48040B0FA80F0DFF8000600684FF420
:103C00008041B1FA81F111F01F01C840C00731D4E1
:103C1000FEF7BFFB401B41F289318842DBD3032012
:103C2000DEE2FEF7B6FB05004FF48040B0FA80F00C
:103C3000400950F00100012803D1DFF84806006870
:103C400006E04FF48040B0FA80F0DFF8B00500687D
:103C50004FF48041B1FA81F111F01F01C840C00753
:103C600008D5FEF796FB401B41F289318842DBD331
:103C70000320B5E22078800740F1C4802069002845
:103C800008D02069012805D040F25E31DFF85805E0
:103C9000FEF7FDF86069202805D340F25F31DFF8B8
:103CA0004805FEF7F4F8DFF8D405006810F00C0FB3
:103CB0000BD0DFF8C805006810F00C00082837D1D9
:103CC000DFF8B8050068C00332D45FF08040B0FA76
:103CD00080F0400950F00100012803D1DFF8A4056D
:103CE000006806E05FF08040B0FA80F0DFF80C0575
:103CF00000685FF08041B1FA81F111F01F01C84006
:103D0000C00704D52069012801D0012068E2DFF84E
:103D1000740500685FF0F851B1FA81F130F0F800F5
:103D2000626912FA01F10843DFF85815086069E08A
:103D3000206900283BD00120DFF850150860FEF70D
:103D400028FB05005FF08040B0FA80F0400950F099
:103D50000100012803D1DFF82C05006806E05FF0C0
:103D60008040B0FA80F0DFF8940400685FF0804192
:103D7000B1FA81F111F01F01C840C00706D4FEF767
:103D800008FB401B6528DDD3032029E2DFF8F4049B
:103D900000685FF0F851B1FA81F130F0F800626923
:103DA00012FA01F10843DFF8DC1408602AE0002071
:103DB000DFF8D8140860FEF7ECFA05005FF08040E9
:103DC000B0FA80F0400950F00100012803D1DFF87B
:103DD000B404006806E05FF08040B0FA80F0DFF8DD
:103DE0001C0400685FF08041B1FA81F111F01F01FD
:103DF000C840C00706D5FEF7CCFA401B6528DDD3C6
:103E00000320EDE12078000752D5A069002808D0F2
:103E1000A069012805D040F29F31DFF8CC03FEF7FE
:103E200036F8A069002821D00120DFF8641408606A
:103E3000FEF7AFFA05005FF08040B0FA80F05FF067
:103E40008040B0FA80F0DFF8B40300685FF0804192
:103E5000B1FA81F111F01F01C840C00728D4FEF764
:103E600098FA401B6528E6D30320B9E10020DFF86B
:103E700020140860FEF78DFA05005FF08040B0FA6C
:103E800080F05FF08040B0FA80F0DFF870030068E7
:103E90005FF08041B1FA81F111F01F01C840C00705
:103EA00006D5FEF776FA401B6528E6D3032097E196
:103EB0002078400740F1AF80E06800280AD0E06831
:103EC000012807D0E068052804D040F2C931C6486F
:103ED000FDF7DDFFC548006850F08050C349086019
:103EE000C348006850F48070C1490860FEF751FA79
:103EF0000500BF480068C00506D4FEF74AFA401B1B
:103F00006528F6D303206BE1BA48006830F005005D
:103F1000B8490860FEF73DFA05005FF08040B0FA4E
:103F200080F05FF08040B0FA80F0400950F002006D
:103F3000022802D1AF48006802E0DFF8C002006842
:103F40005FF08041B1FA81F111F01F01C840C00754
:103F500008D5FEF71EFA401B41F289318842DCD3B6
:103F600003203DE1A348006830F00500E168084304
:103F7000A0490860E068012826D1FEF70AFA05008A
:103F80005FF08040B0FA80F05FF08040B0FA80F0DF
:103F9000400950F00200022802D19648006801E072
:103FA000964800685FF08041B1FA81F111F01F017D
:103FB000C840C0072FD4FEF7ECF9401B41F289310D
:103FC0008842DDD303200BE1FEF7E3F905005FF043
:103FD0008040B0FA80F05FF08040B0FA80F0400995
:103FE00050F00200022802D18248006801E08348B4
:103FF00000685FF08041B1FA81F111F01F01C84003
:10400000C00708D5FEF7C5F9401B41F28931884247
:10401000DDD30320E4E0E06900280AD0E06901284C
:1040200007D0E069022804D040F20D416E48FDF748
:104030002EFFE069002800F0D2809048006810F060
:104040000C00082800F0C980E069022840F0A08038
:10405000206A002808D0206AB0F5803F04D040F2E2
:1040600016416148FDF713FF606A00283CD0606A82
:10407000B0F5802F38D0606AB0F5002F34D0606A78
:10408000B0F5402F30D0606AB0F5801F2CD0606A48
:10409000B0F5A01F28D0606AB0F5C01F24D0606AB8
:1040A000B0F5E01F20D0606AB0F5001F1CD0606A38
:1040B000B0F5101F18D0606AB0F5201F14D0606AE8
:1040C000B0F5301F10D0606AB0F5401F0CD0606AA8
:1040D000B0F5501F08D0606AB0F5601F04D040F200
:1040E00017414148FDF7D3FE00206A490860FEF7FA
:1040F00050F905004020B0FA80F0400950F001006E
:10410000012802D15F48006804E04020B0FA80F046
:104110003A4800684021B1FA81F111F01F01C8400E
:10412000C00706D5FEF735F9401B6528E2D303200A
:1041300056E05248006830F47410616A0843216AFE
:1041400008434E490860012052490860FEF721F9F2
:1041500005004020B0FA80F0400950F0010001282D
:1041600002D14848006804E04020B0FA80F02348BB
:1041700000684021B1FA81F111F01F01C840C00769
:104180002DD4FEF706F9401B6528E2D3032027E073
:10419000002040490860FEF7FCF805004020B0FA16
:1041A00080F0400950F00100012802D13548006834
:1041B00004E04020B0FA80F0104800684021B1FAD5
:1041C00081F111F01F01C840C00708D5FEF7E1F8E2
:1041D000401B6528E2D3032002E0012000E000201C
:1041E00032BD0000E8921F00F85300081C10024086
:1041F000007000402010024040044242241002405F
:10420000F0B4002100220023002400201B4D2D6863
:10421000290011F00C05042D02D0082D03D026E052
:104220001D4D280025E04FF47055B5FA85F51B4E5D
:1042300011F47017EF40BD5D2B00114D2D685FF03C
:104240007046B6FA86F6164F15F00F05F540ED5D8F
:104250002A00CD0305D5104DB5FBF2F55D432C00CA
:1042600003E0104D05FB03F52C00200001E00A4D92
:104270002800F0BC704700003010024004100240DB
:104280002C10024000100240021002400000424286
:10429000800442426000424200127A004C580008FA
:1042A0005C58000800093D0010B50400002C01D145
:1042B000012055E0A069002810D0206829498842D3
:1042C0001CD020682849884218D020682749884295
:1042D00014D0D9212648FDF7DAFD0FE020682149E6
:1042E00088420BD020682049884207D020681F49A7
:1042F000884203D0DE211E48FDF7C9FD94F869000D
:10430000002802D12000FDF7E4FF022084F86900B4
:10431000206800684008400021680860200000F024
:10432000A4F9012801D101201AE0606A002802D016
:10433000200000F026FB2068406830F4904021689F
:1043400048602068806830F02A0021688860206812
:10435000006850F0010021680860200000F005FCB2
:1043600010BD0000003801400044004000480040FB
:104370005C5500082DE9F04104000D0016001F00F7
:1043800094F86900012803D094F86900222863D1C9
:10439000002D02D0B6B2002E01D101205DE094F8CC
:1043A0006800012801D1022057E0012084F868004C
:1043B000002084F86A0094F86900222803D1322092
:1043C00084F8690002E0122084F86900A4F85060C3
:1043D000A4F85260B4F85200002823D0B4F8520078
:1043E000401EA4F852003B0000228021200000F073
:1043F000C9F8002801D003202FE0A068B0F5805F45
:104400000BD12069002808D1A846B8F80000C005E3
:10441000C00D21680885AD1CDCE728782168088577
:104420006D1CD7E73B0000224021200000F0AAF8D5
:10443000002801D0032010E094F86900322803D14D
:10444000222084F8690002E0012084F8690000203D
:1044500084F86800002000E00220BDE8F08110B57B
:1044600004002068C069C0070FD520680068C00537
:104470000BD501202168086294F86A0050F0010011
:1044800084F86A00012084F869002068C069800708
:104490000FD520688068C0070BD50220216808620C
:1044A00094F86A0050F0040084F86A00012084F84F
:1044B00069002068C06940070FD520688068C00780
:1044C0000BD504202168086294F86A0050F00200BD
:1044D00084F86A00012084F869002068C069000738
:1044E0000FD520688068C0070BD5082021680862B6
:1044F00094F86A0050F0080084F86A00012084F8FB
:10450000690094F86A00002802D0200000F0ABF89F
:104510002068C069C0020DD520688068400209D5B6
:104520005FF4801021680862012084F8690020008F
:1045300000F09AF82068C06980060CD520680068F1
:10454000800608D5200000F0A9FB2068806950F0A3
:104550000800216888612068C069000606D52068C7
:104560000068000602D5200000F03EFB2068C0690C
:10457000400606D520680068400602D5200000F0FD
:104580006FFB10BD2DE9F04104000D0016001F0067
:10459000FDF7FFFE8046F6B2002E2FD12068C069DD
:1045A0002840A8425AD017F1010FF7D0002F05D0AC
:1045B000FDF7EFFEB0EB08008742EFD220680068FD
:1045C00030F08000216808602068006830F020002A
:1045D000216808602068006830F4807021680860F5
:1045E000206880684008400021688860032084F8C3
:1045F0006900002084F86800032030E02068C0696A
:104600002840A8422AD117F1010FF7D0002F05D07A
:10461000FDF7BFFEB0EB08008742EFD220680068CC
:1046200030F08000216808602068006830F02000C9
:10463000216808602068006830F480702168086094
:10464000206880684008400021688860032084F862
:104650006900002084F86800032000E00020BDE825
:10466000F08170477047704770472DE9F8430400A8
:10467000002510265FF0000900275FF00008606841
:10468000DFF84015884205D340F27F51DFF8380546
:10469000FDF7FDFBA068B0F1805F0CD0A06800289A
:1046A00009D0A068B0F5805F05D04FF4B061DFF8A5
:1046B0001805FDF7ECFBE068002809D0E068B0F5CC
:1046C000005F05D040F28151DFF8FC04FDF7DFFB0D
:1046D000206900280DD02069B0F5806F09D02069CD
:1046E000B0F5C06F05D040F28251DFF8DC04FDF771
:1046F000CEFB606930F00C00002802D16069002810
:1047000005D140F28351DFF8C004FDF7C0FBA0697A
:10471000002811D0A069B0F5807F0DD0A069B0F558
:10472000007F09D0A069B0F5407F05D040F28451E8
:10473000DFF89404FDF7ABFB206A002809D0206A5B
:10474000B0F5006F05D040F28551DFF87C04FDF72D
:104750009EFBE069002809D0E069B0F5004F05D064
:1047600040F28651DFF86004FDF791FBA0682169F3
:10477000084361690843E16908430500206800684F
:10478000DFF8481408402843216808602068406822
:1047900030F44050E168084321684860A069216A0C
:1047A000084305002068806830F4306028432168A1
:1047B00088602068DFF81814884218D1DFF81404E4
:1047C000006810F00300002805D002280CD008D3A0
:1047D000032803D04EE0012006004BE00220060033
:1047E00048E00420060045E00820060042E020687A
:1047F000DFF8E41388421CD1DFF8D803006810F416
:104800004030002809D0B0F5803F0CD0B0F5003F13
:104810000CD0B0F5403F03D02CE00020060029E08A
:104820000220060026E00420060023E008200600FF
:1048300020E02068DFF8A41388421BD1DFF894033E
:10484000006810F44020002809D0B0F5802F0CD06B
:10485000B0F5002F0CD0B0F5402F03D00AE00020B7
:10486000060007E00220060004E00420060001E044
:1048700008200600E069B0F5004F42D1F6B23000E2
:10488000002808D001280ED0022814D0042819D0FE
:1048900008281FD025E0FEF7BEFE40006168B0FB8F
:1048A000F1F007001FE0FEF7C6FE40006168B0FBB4
:1048B000F1F0070017E0DFF828036168B0FBF1F0C2
:1048C000070010E0FFF79CFC40006168B0FBF1F0CE
:1048D000070008E05FF480306168B0FBF1F007008A
:1048E00001E0012080464FF6F07038408146C7F362
:1048F000420050EA09091FFA89F92068C0F80C90B3
:104900003BE0F6B23000002808D001280FD0022882
:1049100016D004281DD0082824D02CE0FEF77BFEFA
:104920006168B0FBF1F080B22168C86025E0FEF755
:1049300082FE6168B0FBF1F080B22168C8601CE0C3
:10494000DFF8A0026168B0FBF1F080B22168C860B6
:1049500013E0FFF755FC6168B0FBF1F080B221680D
:10496000C8600AE04FF400406168B0FBF1F080B22B
:104970002168C86001E0012080464046C0B2BDE821
:10498000F28310B50400606AFF2804D940F2E951AF
:104990008D48FDF77CFA94F82400C00713D5A06A6F
:1049A000002808D0A06AB0F5003F04D040F2EE51D4
:1049B0008548FDF76CFA2068406830F40030A16A41
:1049C00008432168486094F82400800713D5E06A02
:1049D000002808D0E06AB0F5803F04D040F2F551DD
:1049E0007948FDF754FA2068406830F48030E16A75
:1049F00008432168486094F82400400713D5206BD1
:104A0000002808D0206BB0F5802F04D040F2FC5174
:104A10006D48FDF73CFA2068406830F48020216B37
:104A200008432168486094F82400000713D5606BA0
:104A3000002808D0606BB0F5004F04D040F203614D
:104A40006148FDF724FA2068406830F40040616B4B
:104A500008432168486094F82400C00613D5A06B71
:104A6000002808D0A06BB0F5805F04D040F20A6146
:104A70005548FDF70CFA2068806830F48050A16B2F
:104A800008432168886094F82400800613D5E06B01
:104A9000002808D0E06BB0F5005F04D040F211614F
:104AA0004948FDF7F4F92068806830F40050E16B64
:104AB00008432168886094F8240040063CD52068AB
:104AC0004349884204D04FF4C3613F48FDF7DFF902
:104AD000206C002808D0206CB0F5801F04D040F274
:104AE00019613948FDF7D3F92068406830F4801027
:104AF000216C084321684860206CB0F5801F1BD1F1
:104B0000606C002810D0606CB0F5001F0CD0606C99
:104B1000B0F5800F08D0606CB0F5C00F04D040F243
:104B20001E612948FDF7B3F92068406830F4C000E1
:104B3000616C08432168486094F82400000613D58E
:104B4000A06C002808D0A06CB0F5002F04D040F273
:104B500026611D48FDF79BF92068406830F400206D
:104B6000A16C08432168486010BD10B50400002006
:104B700084F86A002068006800070BD57FF07E4348
:104B800000225FF400112000FFF7FCFC002801D098
:104B9000032016E02068006840070BD57FF07E43B5
:104BA00000225FF480012000FFF7ECFC002801D018
:104BB000032006E0012084F86900002084F86800E2
:104BC000002010BD415489005C550008F369FFEFD7
:104BD00000380140301002400044004000480040CE
:104BE0000024F40000127A00010091F869001228F4
:104BF00003D091F86900322830D1B1F85200002872
:104C00000DD10868006830F080000B6818600868F3
:104C1000006850F040000B68186000201FE08868B2
:104C2000B0F5805F0DD1086900280AD1C86C020078
:104C30001088C005C00D0B681885C86C801CC8643E
:104C400005E0C86C431CCB6400780B681885B1F88C
:104C50005200401EA1F85200002000E002207047E0
:104C600010B504002068006830F04000216808603A
:104C700094F86900322803D1222084F8690008E002
:104C8000206880684008400021688860012084F81E
:104C900069002000FFF7E5FC002010BD70B504009E
:104CA000B4F85C6094F86900222803D094F8690095
:104CB000322844D1A068B0F5805F0CD1206900286B
:104CC00009D1606D05002068808C30402880606DBF
:104CD000801C606506E0606D411C61652168898CFF
:104CE00031400170B4F85A00401EA4F85A00B4F8DC
:104CF0005A00002821D12068006830F02000216887
:104D0000086094F86900322803D1122084F8690001
:104D10000EE02068006830F4807021680860206828
:104D200080684008400021688860012084F869009C
:104D30002000FFF797FC002002E0002000E00220A6
:104D400070BD0020000010410000C8439A99D93F6F
:104D50000AD74340000096430000FA430000FA439C
:104D60000000C84300000000CDAC16440AD7434001
:104D70000AD743400AD743400AD743407B147642C0
:104D8000689ACD393598283A3598283A00000000BD
:104D90000060524500403F4507FF882E000010414B
:104DA0000000C8439A99D93F0AD743400000964370
:104DB0000000FA430000FA430000C843000000006E
:104DC000CDAC16440AD743400AD743400AD74340E4
:104DD0000AD743407B147642689ACD393598283AF1
:104DE0003598283A000000000060524500403F45D9
:104DF00007FF882E000010410000C8439A99D93F50
:104E00000AD74340000096430000FA430000FA43EB
:104E10000000C84300000000CDAC16440AD7434050
:104E20000AD743400AD743400AD743407B1476420F
:104E3000689ACD393598283A3598283A000000000C
:104E40000060524500403F4507FF882E000010419A
:104E50000000C8439A99D93F0AD7434000009643BF
:104E60000000FA430000FA430000C84300000000BD
:104E7000CDAC16440AD743400AD743400AD7434033
:104E80000AD743407B147642689ACD393598283A40
:104E90003598283A000000000060524500403F4528
:104EA00007FF882E000010410000C8439A99D93F9F
:104EB0000AD74340000096430000FA430000FA433B
:104EC0000000C84300000000CDAC16440AD74340A0
:104ED0000AD743400AD743400AD743407B1476425F
:104EE000689ACD393598283A3598283A000000005C
:104EF0000060524500403F4507FF882E00001041EA
:104F00000000C8439A99D93F0AD74340000096430E
:104F10000000FA430000FA430000C843000000000C
:104F2000CDAC16440AD743400AD743400AD7434082
:104F30000AD743407B147642689ACD393598283A8F
:104F40003598283A000000000060524500403F4577
:104F500007FF882E000010410000C8439A99D93FEE
:104F60000AD74340000096430000FA430000FA438A
:104F70000000C84300000000CDAC16440AD74340EF
:104F80000AD743400AD743400AD743407B147642AE
:104F9000689ACD393598283A3598283A00000000AB
:104FA0000060524500403F4507FF882E0000104139
:104FB0000000C8439A99D93F0AD74340000096435E
:104FC0000000FA430000FA430000C843000000005C
:104FD000CDAC16440AD743400AD743400AD74340D2
:104FE0000AD743407B147642689ACD393598283ADF
:104FF0003598283A000000000060524500403F45C7
:1050000007FF882E014142535F504F5300000000BC
:10501000001603000000000002454C5F504F530093
:10502000000000000009020000000000034D415292
:105030004B0000000000000000160300000000000C
:1050400004535045454400000000000000140300D4
:105050000000000005414343000000000000000084
:10506000000C02008A0000000644454300000000D6
:1050700000000000000C02008A000000074D4158AB
:105080005F53504545440000000A02004100000003
:10509000084D494E5F53504545440000000D020045
:1050A000000000001546535F53504400000000000C
:1050B000000A020027000000094B56414C5F484F90
:1050C0004C44000000080100290000000A4B564132
:1050D0004C5F52554E0000000008010029000000FE
:1050E0000B4B56414C5F4143430000000008010058
:1050F000290000000C4B56414C5F44454300000022
:1051000000080100290000000D494E545F5350452E
:1051100045440000000E0200080400000E53545FD6
:10512000534C50000000000000080100190000006E
:105130000F464E5F534C505F41434300000801004F
:105140002900000010464E5F534C505F4445430019
:105150000008010029000000114B5F544845524DE2
:105160000000000000040100000000001241444360
:105170005F4F5554000000000005010000000000D2
:10518000134F43445F544800000000000004010036
:1051900008000000145354414C4C5F544800000078
:1051A000000701004000000016535445505F4D4F6A
:1051B00044450000000801000700000017414C4171
:1051C000524D5F454E00000000080100FF00000046
:1051D00018434F4E464947000000000000100200EF
:1051E000882E00001953544154555300000000000C
:1051F00000100200000000004E4F500000000000B0
:10520000000000000000534554504152414D000041
:1052100000000002474554504152414D000000003B
:10522000200152554E000000000000000000500216
:1052300053544550434C4F434B00000058014D4FD1
:10524000564500000000000000004002474F544F48
:1052500000000000000000006001474F544F5F4411
:105260004952000000006802474F554E54494C0017
:1052700000000000820352454C45415345535700FE
:1052800000009202474F484F4D45000000000000CB
:105290007000474F4D41524B000000000000780065
:1052A0005245534554504F5300000000D80052451A
:1052B00053455444455649434500C000534F465456
:1052C00053544F5000000000B00048415244535422
:1052D0004F5000000000B800534F465448495A0050
:1052E00000000000A0004841524448495A00000014
:1052F0000000A80047455453544154555300000042
:10530000D00000001B48006850F470001949086084
:105310001948006850F001001749086017480068F4
:1053200017490840154908601348006815490840A6
:10533000114908601048006830F480200E49086068
:105340000E48006830F4FE000C4908600E48006802
:10535000000900010C4908600C4800680C4908402D
:105360000A49086000200B4908605FF000600A49A4
:105370000860704788ED00E0001002400410024011
:105380000CC07FF8FFFFF6FE2C10024030100240E8
:10539000CCFC00FF0810024008ED00E0433A5C53EB
:1053A000544D333243756265457870616E73696F31
:1053B0006E5F53504E325F56312E312E305C447248
:1053C00069766572735C53544D3332463378785F37
:1053D00048414C5F4472697665725C5372635C73DA
:1053E000746D3332663378785F68616C5F636F72B7
:1053F0007465782E63000000433A5C53544D333299
:1054000043756265457870616E73696F6E5F535066
:105410004E325F56312E312E305C447269766572A1
:10542000735C53544D3332463378785F48414C5F58
:105430004472697665725C5372635C73746D333267
:10544000663378785F68616C5F7263635F65782E3E
:1054500063000000433A5C53544D33324375626538
:10546000457870616E73696F6E5F53504E325F5650
:10547000312E312E305C447269766572735C535400
:105480004D3332463378785F48414C5F44726976D9
:1054900065725C5372635C73746D33326633787813
:1054A0005F68616C5F6770696F2E6300433A5C539D
:1054B000544D333243756265457870616E73696F20
:1054C0006E5F53504E325F56312E312E305C447237
:1054D00069766572735C53544D3332463378785F26
:1054E00048414C5F4472697665725C5372635C73C9
:1054F000746D3332663378785F68616C5F726363B2
:105500002E630000433A5C53544D33324375626559
:10551000457870616E73696F6E5F53504E325F569F
:10552000312E312E305C447269766572735C53544F
:105530004D3332463378785F48414C5F4472697628
:1055400065725C5372635C73746D33326633787862
:105550005F68616C5F7370692E630000433A5C534F
:10556000544D333243756265457870616E73696F6F
:105570006E5F53504E325F56312E312E305C447286
:1055800069766572735C53544D3332463378785F75
:1055900048414C5F4472697665725C5372635C7318
:1055A000746D3332663378785F68616C5F756172F1
:1055B000742E630080B5FCF7E6FEFDF7B9FD01BD72
:1055C00080B50220FCF756F801BD80B50120FCF73C
:1055D00051F801BD80B50348FEF741FF0148FDF7D2
:1055E00044FB01BD6807002080B54FF40050FCF774
:1055F00041F801BD19E050F8041BCB0744BFA9F1E5
:1056000001035918121F0023042A41F8043BF9D260
:105610005FEA827C0B4604D54FF0000CA1F800C075
:105620009B1CD10744BF0021197050F8042B002A9D
:10563000E1D17047202D2D2D2D2D2D2D2D2D2D2DF2
:105640002D2D2D2D2D2D2D2D2D2D2D2D2D2D2D2D8A
:105650002D2D2D2D2D2D2D2D2D2D2D2D2D2D2D2D7A
:105660000A0D0000204475616C204C363437302020
:10567000457870616E73696F6E20426F617264204D
:10568000666F722053544D3332204E55434C454F74
:105690000A0D000010B5074979441831064C7C44C6
:1056A000163404E00A68081D511888470146A142D3
:1056B000F8D110BD500000006C00000056616C7500
:1056C0006573206F662074686520726567697374FE
:1056D000657273206F66204C363437305F230000CC
:1056E0004EF68851CEF20001086840F47000086060
:1056F000BFF34F8FBFF36F8F4FF00070E1EE100AD2
:1057000070470000F1FEFFFF200100006807002045
:1057100000000000EBCAFFFF5C0200008E020000E8
:105720000000002028000000496E697469616C2047
:1057300076616C75657320666F7220726567697338
:10574000746572733A0A0D00437573746F6D207639
:10575000616C75657320666F72207265676973741A
:105760006572733A0A0D00002053544D6963726FDD
:10577000656C656374726F6E6963732C20323031AF
:10578000350A0D0A0D00000000F00BF8002801D0CA
:10579000FFF780FF0020C046C046FCF76EFB00F01C
:1057A00002F80120704700F001B8000007463846B3
:1057B00000F002F8FBE7000080B5C046C046024A90
:1057C00011001820ABBEFBE72600020020582D4335
:1057D0005542452D53504E322076312E302E300A10
:1057E0000D00000020582D4E55434C454F2D494883
:1057F0004D303241310A0D00524556000000000084
:10580000004657440000000000010000205374616E
:10581000636B6564206F6E20000000004E55434CA2
:10582000454F2D463330325238000000206F66203D
:105830004578704272645F230000000000000000A1
:105840000102030401020304060708090203040518
:10585000060708090A0B0C0D0E0F101001020304B5
:1058600005060708090A0B0C0D0E0F1001488047AA
:105870000148004705530008895800085253540056
:105880000043505900010000C046C046FFF728FF02
:10589000FFF77AFF0A0D0A0D00000000FFF7FEBFB8
:1058A000FFF7FEBFFFF7FEBFFFF7FEBFFFF7FEBF2C
:1058B000FFF7FEBFFFF7FEBFFFF7FEBFFFF7FEBF1C
:1058C000FFF7FEBFFFF7FEBFFFF7FEBFFFF7FEBF0C
:1058D000FFF7FEBFFFF7FEBFFFF7FEBFFFF7FEBFFC
:1058E000FFF7FEBFFFF7FEBFFFF7FEBFFFF7FEBFEC
:1058F000FFF7FEBFFFF7FEBFFFF7FEBFFFF7FEBFDC
:10590000FFF7FEBFFFF7FEBFFFF7FEBFFFF7FEBFCB
:10591000FFF7FEBFFFF7FEBFFFF7FEBFFFF7FEBFBB
:10592000FFF7FEBFFFF7FEBFFFF7FEBFFFF7FEBFAB
:10593000FFF7FEBFFFF7FEBFFFF7FEBFFFF7FEBF9B
:10594000FFF7FEBFFFF7FEBFFFF7FEBFFFF7FEBF8B
:10595000FFF7FEBFFFF7FEBFFFF7FEBFFFF7FEBF7B
:10596000FFF7FEBFFFF7FEBFFFF7FEBFFFF7FEBF6B
:10597000FFF7FEBF100311080008510412B904120A
:10598000FD04100339090008790412BD0410030155
:105990000A0008450412850412BB0412F104100326
:1059A000270B00085D0412930412C90412FF0413AC
:1059B000350C24110412A70412CB0412ED041003B9
:1059C000150D00083704125904127B0412A10412A9
:1059D000C90412E7041003050E0008230412410451
:1059E000125F04127D04129B0412BD04100CCF0F31
:1059F00000087C080020000400480008041006127B
:105A00007A003D270008630412890412AF0412D102
:105A10000412F7041003172800083D04126F041243
:105A2000970412B30412CF0412EB04130729641174
:105A300004123F04125B0412770412970412DB6411
:105A4000120001338F2A08F31E200001120131F2E7
:105A500026A13C2101F22AB378F22AC578F22AD78E
:105A600078F22AE978F22AFB78F3290D2B7812478D
:105A70007812A43C12F404140330010020CFFC215E
:105A800054525918126C1452A818120218526B185A
:105A900012E41443200218120318527D18125C14E9
:105AA0005298181A009D29A04199110F19A8920126
:0B5AB0000C21503300000613481006C4
:04000005080058890E
:00000001FF
