:020000040800F2
:10000000C8160020D500000895330008592E0008B6
:1000100000000000000000000000000000000000E0
:10002000000000000000000000000000D14B0008AC
:100030000000000000000000FF330008C556000863
:10004000E7000008E7000008EB360008E7000008BA
:10005000E70000086D0400087D0400088D04000816
:10006000E7000008E7000008050400081104000884
:10007000E7000008E7000008E7000008E7000008C4
:10008000E7000008E7000008E700000800000000A3
:10009000E7000008E7000008E7000008E7000008A4
:1000A000E7000008E7000008E7000008E700000894
:1000B000E70000088536000800000000E70000089F
:1000C0000348854600F0C4F800480047F95D000881
:1000D000C81600200448804704480047FEE7FEE7B2
:1000E000FEE7FEE7FEE7FEE759570008C1000008FB
:1000F00030B50B46014600202022012409E00D46C0
:10010000D5409D4205D31D469540491B2546954047
:1001100040191546521E002DF1DC30BD70B500248B
:100120002546002801DA01244042002901DA012590
:100130004942FFF7DDFFAC4200D04042002C00D026
:10014000494270BDF0B51FB40646002082B0054696
:100150004024019100901BE0019922460F46304651
:1001600000F065F8049A059B801A994110D3104657
:100170001946224600F04BF8361A8F410197224665
:1001800001200021009F00F042F838184D410090F6
:100190002046641E0028DFDC019B00982946324679
:1001A00007B0F0BD03460B439B0703D009E008C925
:1001B000121F08C0042AFAD203E00B780370401C17
:1001C000491C521EF9D27047D2B201E00270401CA5
:1001D000491EFBD270470022F6E710B513460A46C7
:1001E00004461946FFF7F0FF204610BD421C017877
:1001F000401C0029FBD1801A70470321001D401EBE
:10020000037812021A43491EF9D51046704710B5FB
:10021000202A04DB0146203A9140002010BD914085
:1002200020239C1A0346E3401943904010BD10B5AB
:10023000202A04DB0846203AD040002110BD0B469E
:10024000D340D0402024A21A91400843194610BD43
:10025000064C0125064E05E0E36807CC2B430C3C19
:1002600098471034B442F7D3FFF72EFF74680008A4
:10027000A468000838B50446064805490068FFF739
:1002800037FF604300E0401E00900028FBD138BDDE
:1002900040420F004C000020F8B504460068816819
:1002A0008907890F012902D10168C90722D1816814
:1002B000114A10261140012500290ED181682943D9
:1002C00081600120FFF7D6FF00F00CFD07460CE02F
:1002D00000F008FDC01B0A2807D9A06D3043A065B7
:1002E000E06D2843E0650120F8BD20680068C04348
:1002F000C007EDD10020F8BD1700008010B5022224
:100300001449012386B000281ED0012804D00228F9
:100310001AD0032807D117E0CA6A1A43CA62C96A09
:10032000C907C90F059141000B4A8000515A00913D
:10033000002102910321039108490193085869465D
:1003400000F008FC06B010BDCC6A1443CC62C96A48
:100350001140E7E7001002409066000824000020EA
:1003600010B5054A4100515A044A80001058002235
:1003700000F0B2FC10BD00009066000824000020D0
:1003800010B5054A4100515A044A80001058012214
:1003900000F0A2FC10BD00009066000824000020C0
:1003A0007047000030B587B014216846FFF713FF8F
:1003B000032001900020029003204003104C009085
:1003C000E06A01210843E062E06A084005900520E8
:1003D0006946000700F0BEFBE06A40084000E062AA
:1003E000606B0125AD052843606300F091FA00F0D1
:1003F0009FFA00F095FA606BA843606307B030BDC8
:100400000010024010B502F039FB04F07DFB10BD76
:1004100010B505F0EBFE10BD10B50468636083688D
:10042000102B036803D099600068C26010BD9A6009
:100430000068C16010BD000010B5044605280ED943
:100440000849094805F058FB2146074805F0BCFB60
:10045000054805F0CBFB012003F018FA10BD00F0B1
:1004600040FB10BDDD330008BC05002010B50120A5
:1004700000F064FB022000F061FB10BD10B5042009
:1004800000F05CFB082000F059FB10BD10B51020F7
:1004900000F054FB202000F051FB402000F04EFB08
:1004A000802000F04BFBFF20013000F047FB0120D3
:1004B000400200F043FB0120800200F03FFB0120DE
:1004C000C00200F03BFB0120000300F037FB0120DD
:1004D000400300F033FB0120800300F02FFB0120DC
:1004E000C00300F02BFB10BDFEE7F8B5054604463F
:1004F0004035287D0026012808D001202875206875
:1005000081688907890F01290ED101E00220F8BD19
:100510000168C90708D0A06D20210843A065012605
:10052000002028753046F8BDA16DFF2201329143AD
:1005300002221143A165C1688907890F0091C16832
:1005400089088900C1602068816892071143816031
:1005500000F0C8FB07460EE000F0C4FBC01B0A28F1
:1005600009D9A06D0221884310210843A06500200D
:1005700028750120F8BD206880680028ECDB206821
:10058000C168009A1143C160A06D80088000401CC2
:10059000A065C5E7F8B506460D464036317D012910
:1005A0000DD00121317501688A68520709D5816D26
:1005B000202211438165002030750120F8BD022002
:1005C000F8BD174B6A68D80547109A42154C8A6ADD
:1005D0002B6812D05B035B0B1A438A6229684903BC
:1005E00005D5A1680143A1600A20FFF743FE2868F2
:1005F000800312D5A06838430EE05B035B0B9A437F
:100600008A622968490302D5A1688143A1602868EC
:10061000800302D5A068B843A06000203075F8BD03
:1006200001100000002701400068006C70470000C6
:1006300070B5040006D0A06D26460025403600287F
:1006400002D006E0012070BDE5653575204600F05A
:10065000D1F8A06DC00603D421688868400705D58D
:10066000A06D10210843A0653575EBE7A06DFF2252
:100670000132904302221043A06588688207920FDE
:100680005A48012A02D10A68D2072BD10323626893
:100690009B079A4205D05B429A4202D05B009A4285
:1006A00009D10A69920092080A6121680A6963689F
:1006B0001A430A610CE00A69920092080A61816893
:1006C0000F229204914381608168626811438160C6
:1006D0002168CA6818239A43CA602168CA68A36857
:1006E0001A43CA6081680122520691438160816881
:1006F000228F52061143816020688168C90004D4AA
:10070000816801221207114381602068C168384A5C
:100710001140C1602169E068022923D0002108430B
:10072000216A226B4903520011430843616B08435D
:10073000A16989030843E169C90308432168CA68BC
:100740001043C860A06A0146FF39C23905D0E16A8A
:1007500008432168CA681043C860606A0121012803
:1007600002D00BE00421DAE7206A002823D0A06D34
:1007700020221043A065E06D0843E065206C01284D
:1007800020681FD00169C90703D0016949084900E1
:10079000016120684169C908C90041612068416957
:1007A000E26B11434161E565A06D80088000401C4B
:1007B000A065002070BD2068C26801231B041A4395
:1007C000C260DBE70269FF239B009A430261206855
:1007D0000269636CE66C1A43A36C33431A430261EB
:1007E000206802690A430261D3E700000027014044
:1007F0001902FEFF7047F8B50446406925464035AA
:100800000E4608280BD02068C068C00709D0A06D2C
:1008100020210843A065002028750120F8BD082785
:1008200000E00C2700F05EFA009011E0701C0FD081
:10083000002E05D000F056FA0099401AB04207D9B0
:10084000A06D04210843A065002028750320F8BD91
:10085000206800683842E9D0A06D012149020843B0
:10086000A0652068C16809058A0F0C21002A1AD1E9
:10087000226A002A17D10268120714D5826853072A
:100880000122002B08DB43688B434360A06D1302F9
:1008900098431043A06506E0A06D20231843A0658F
:1008A000E06D1043E065A069002801D12068016077
:1008B0000020F8BD70B5044621680020896849070A
:1008C00021D425464035297D01291CD001212975D7
:1008D000E169012904D02046FFF7DEFC002811D190
:1008E000A16D0A4A1140FF2201321143A165002186
:1008F000E165297522681C21116021688A6804233A
:100900001A438A6070BD022070BD0000FEF1FFFF37
:100910000248416849084900416070470058014059
:1009200002484168042291434160704700580140E9
:1009300002484168022291434160704700580140DB
:10094000F8B504460068016849084900016000F0F4
:10095000C9F900272546064620350EE000F0C2F909
:10096000811B7D20C000814207D9E06B2021084314
:10097000E0632F7103206871F8BD20680068C0072C
:10098000ECD12F71012068710020F8BD70B50028EE
:1009900005D0034620335979002902D003E0012015
:1009A00070BD00211971022159710468226837490C
:1009B000C5680A408168466929430569354329436A
:1009C00085692943C5692943056A29431143216083
:1009D0002F492F4C02687831A24206D18A6A120947
:1009E00012018A628A6A406849E0294C1434A242A2
:1009F00007D18A6AF024A2438A628A6A40680001A9
:100A00003DE0234C2834A24208D18A6A0F242402F4
:100A1000A2438A628A6A4068000230E01C4C3C347F
:100A2000A24208D18A6A0F242403A2438A628A6AF6
:100A30004068000323E0164C5034A24208D18A6A71
:100A40000F242404A2438A628A6A8088000416E084
:100A50000F4C6434A24208D18A6A0F242405A243B1
:100A60008A628A6A8088000509E08A4209D18A6A16
:100A70000F242406A2438A628A6A00790006024390
:100A80008A6201205871002070BD00000FC0FFFF76
:100A900008000240F8B5044620300579012D1ED02B
:100AA000012505710226467120680768AF4307607B
:100AB0002046FFF7B1FC20680168314301602068DF
:100AC0000168042211430160206801680822114373
:100AD000016020680168294301600020F8BD022000
:100AE000F8BD01B5009801F017FE08BD0248416845
:100AF000821511434160704700200240034841685D
:100B00000122114341600020704700000020024094
:100B100005484168C90705D00449C1600449C1605E
:100B2000002070470120704700200240EFCDAB89C4
:100B30000504030210B501F0A1FC10BD10B5044975
:100B40004A69024202D04861FFF7F4FF10BD00007D
:100B500000040140F8B500230124A7E027469F4088
:100B60003A4070D04D68022D01D0122D14D1DD080D
:100B7000AD002D1800952D6A5E07AC46F50E0F26C8
:100B8000AE46AE406546B543AC460E697546AE40CE
:100B900065462E43009D2E624D68012D05D0022D25
:100BA00003D0112D01D0122D16D185680326AC4635
:100BB0005D00AE46AE406546B543AC46CE68754670
:100BC000AE4065462E43866046680D79BE43ED060D
:100BD000ED0F9D403543456006685F000325BD402D
:100BE000AE46AE430D79B446AE07B60FBE4065467D
:100BF0002E430660C6687546AE438D68BD403543DA
:100C0000C5604D68ED0050D52B4D6E6B26436E636D
:100C10009E082A4DB6007519AC46AD689E07360F82
:100C20000F27B740BD4305273F07B84201D1002732
:100C30001AE0234FB84201D1012715E0214FB842F5
:100C400002D1022710E030E01F4FB84201D1032744
:100C50000AE01E4FB84201D1042705E01C4FB842FC
:100C600001D1052700E00627B7402F436546AF6056
:100C7000184D2E684F689643FF0300D516432E602B
:100C80006E684F689643BF0300D516436E60AE682A
:100C90004F689643FF0200D51643AE60EE684F687A
:100CA0009643BF0200D51643EE605B1C0A681546EA
:100CB000DD4000D052E7F8BD0010024000000140C6
:100CC0000004005000080050000C005000100050BC
:100CD000001C005000040140002A01D081617047CF
:100CE0008162704701480068704700005000002092
:100CF00002480168491C0160704700005000002054
:100D000010B506480168022211430160032000F07B
:100D100007F800F007F8002010BD00000020024096
:100D20000020704710B50948816B020411438163AC
:100D300000F03CF800F032F8054801680822114341
:100D4000016000F023F801F009FC10BD0010024022
:100D500000200240C106C90E0120884001490860F8
:100D60007047000000E100E005490968C206D20EA4
:100D700001209040014201D00120704700207047BF
:100D800000E200E010B502F007FB10BD0248016868
:100D9000021511430160704700700040024801686D
:100DA000421511430160704700700040024801681D
:100DB000102291430160704700700040094B1A688F
:100DC0009208920002431A600748026904239A437A
:100DD0000261012903D040BF20BF20BF704730BF50
:100DE000704700000070004000ED00E00548016819
:100DF0000222114301600448016904221143016188
:100E000030BF70470070004000ED00E00A4B1A68E8
:100E10009208920002431A600848036904221343AF
:100E20000361012906D040BF20BF20BF0169914363
:100E30000161704730BFF9E70070004000ED00E04D
:100E4000F8B5044600785E4D800672D55C4E0027EA
:100E5000403EB06BC00004D4B06BA9050843B0633A
:100E6000012758480168C90511D40168821511434A
:100E70000160FFF737FF009005E0FFF733FF0099AF
:100E8000401A642837D84F480068C005F5D5326845
:100E90000321090560680A400140914208D081039E
:100EA000890F032904D13168890301D50120F8BDD8
:100EB0002A69032109040A4022D0084090421FD029
:100EC000207880061CD528692A6988430121C90435
:100ED0000A432A612A698A432A612861C0050FD51D
:100EE000FFF700FF009008E0FFF7FCFE0099411AB1
:100EF0003548814201D90320F8BD28698005F3D522
:100F000061688803800F032805D132680005824399
:100F100001400A43326028690322616812041140CB
:100F200008432861002F04D0B06B012109078843D2
:100F3000B0632078C00705D0E868A1688008800009
:100F40000843E8602078800705D5E8680C218843CD
:100F5000E1680843E8602078400706D5E868032187
:100F60008902884321690843E8602078000706D594
:100F7000E86803210903884361690843E860208821
:100F8000C00506D5E868032109048843A169084320
:100F9000E8602078400606D5E86801218906884384
:100FA000216A0843E8602078000606D5E868032136
:100FB00089048843E1690843E8600020F8BD000027
:100FC000401002400070004088130000F8B505464C
:100FD00053480E460068C007C00FB0420AD25048BE
:100FE000016849084900314301600068C007C00F2B
:100FF000B0426FD128784B4C800705D5E068F021CE
:101000008843A9680843E0602878C00752D0686820
:10101000022817D0032818D02168012818D0890584
:10102000002957DAE168890889000143E160FFF788
:1010300059FE69680746022912D003291CD00129EC
:1010400026D033E021688903EAE721688901E7E7D0
:101050004907E5E7FFF746FEC11B3348814223D825
:10106000E0680007800F0228F4D123E0FFF73AFE82
:10107000C11B2D48814217D8E0680007800F032864
:10108000F4D117E0FFF72EFEC11B274881420BD891
:10109000E0680007800F0128F4D10BE0FFF722FE83
:1010A000C11B2148814201D90320F8BDE068000737
:1010B000800FF3D11A480168C907C90FB1420BD993
:1010C000016849084900314301600068C007C00F4A
:1010D000B04201D00120F8BD2878400706D5E0686D
:1010E000072109028843E9680843E060287800077F
:1010F00007D5E0680721C90288432969C900084368
:10110000E06000F017F8E168084A0906090F515C31
:10111000C840074908600320FFF702FE0020F8BD21
:10112000002002400010024088130000986600086A
:101130004C00002010B5184AD1680C200840042843
:101140000BD0082810D00C2810D050680004410F94
:101150000120C003491C884010BD1068C00601D59D
:101160000E4810BD0E4810BD0E4810BD88020E4B33
:10117000000F185C0902D368890F491CDB0301D5F5
:10118000084A05E01268D20601D5044A00E0044A84
:101190005043FEF7ADFF10BD0010024000093D00B6
:1011A0000024F40000127A00A8660008F8B504468E
:1011B0000078FF4DC0074CD0E8680007800F022878
:1011C00007D0E8680007800F032809D1E868C0034A
:1011D00006D5286880033CD56068002875D038E0C3
:1011E000012062680004824203D12968014329601A
:1011F00011E0052301211B0489049A422A6802D1C7
:101200000A432A60F1E782432A602A68024000927A
:10121000286888432860606800280DD0FFF762FDC9
:101220000646E44F04E0FFF75DFD801BB8427DD821
:1012300028688003F7D50CE0FFF754FD0646DD4F24
:1012400004E0FFF74FFD801BB842F0D82868800308
:10125000F7D42078800741D5E8681F270007800F62
:101260003F02012807D0E8680007800F032809D152
:10127000E868C00306D42868400717D5E06801284D
:1012800023D113E0E068002817D029680922914390
:1012900001432960FFF726FD064604E0FFF722FD23
:1012A000801B0228C3D828684007F7D568682169E1
:1012B000B84309020843686010E02868400840000D
:1012C0002860FFF70FFD064605E090E0FFF70AFDF6
:1012D000801B0228ABD828684007F7D42078C006C6
:1012E00076D5E868B44E0007800F0BD0E06900287F
:1012F0005DD02868FF21013108432860FFF7F2FC28
:10130000074644E02868800502D5E06900286ED0D1
:10131000606A69683140884212D902F0D5F8002825
:10132000AED16868616AB043084300E0E4E06860F9
:101330006868218C0002000A0906084368600FE013
:101340006968B143014369606868218C0002000A42
:10135000090608436860606A02F0B6F800288FD179
:10136000606A410B0120C003491C8840E968934A28
:101370000906090F515CC840914908600320FFF736
:10138000CFFC25E0FFF7AEFCC01B02288AD82868F6
:101390008005F7D56868616AB0430843686068688B
:1013A000218C0002000A09060843686010E02968E1
:1013B000FF20013081432960FFF794FC064604E0DA
:1013C000FFF790FC801B022884D828688005F7D49A
:1013D00020787C4E000723D560690028306910D042
:1013E000012108433061FFF77DFC074605E009E174
:1013F000FFF778FCC01B02287ED830698007F7D53C
:101400000EE0400840003061FFF76CFC074604E046
:10141000FFF768FCC01B02286ED830698007F7D43C
:101420002078400761D5A86B0027C00005D4A86BC1
:10143000012109070843A863012763480168C9051A
:1014400011D40168821511430160FFF74BFC009035
:1014500005E0FFF747FC0099401A64284CD85A4829
:101460000068C005F5D5FF20A2680130824203D193
:1014700031690143316111E001218902002A07D05D
:1014800005231B029A4203D132690A433261EFE716
:10149000326982433261306988433061A068002834
:1014A0000ED0FFF71FFC009006E0FFF71BFC009931
:1014B000411A404881421FD830698005F5D50DE0BA
:1014C000FFF710FC009006E0FFF70CFC0099411AB2
:1014D0003848814210D830698005F5D4002F04D0F7
:1014E000A96B012000078143A9632078800630D5CD
:1014F0003649A0694A1400E07DE0002816D0AB68A8
:1015000001200343AB606B6B03436B63086A1043BA
:101510000862FFF7E7FB064604E0FFF7E3FB801BEA
:10152000022868D8A8688007F7D512E0A8684008A4
:101530004000A860086A90430862FFF7D3FB0646A4
:1015400004E0FFF7CFFB801B022854D8A86880076F
:10155000F7D4A06A002853D0E9680907890F032946
:1015600050D0012636060228286805D0B0432860EE
:10157000FFF7B8FB044640E0B0432860FFF7B2FB3A
:10158000074604E0FFF7AEFBC01B022833D82868EB
:101590008001F7D4216BE06AEA680843616BFD23A0
:1015A0001B049A4311430843E860286830430FE066
:1015B000001002408813000000E000009866000858
:1015C0004C0000204010024000700040000001402C
:1015D0002860FFF787FB044604E0FFF783FB001B4E
:1015E000022808D828688001F7D509E0FFF77AFBC0
:1015F000001B022801D90320F8BD28688001F5D41A
:101600000020F8BD0120F8BD30B5014620310A7830
:10161000012A15D001220A7002234B700468CA23E4
:10162000636204685323636203689C6820252C432B
:101630009C600068FF2343624A700020087030BD40
:10164000022030BD10B504F06DFA10BDF8B50446A7
:1016500002202646203670702168CA204862216820
:1016600053204862204602F024F8FF27002842D188
:101670002168086021682748486020688168490718
:10168000490F8160FFF72EFB05460BE0FFF72AFBB1
:10169000411B7D20C000814204D92068476203209D
:1016A0007070F8BD2068C0684007EFD52068816879
:1016B000002585602168184848612168174808613D
:1016C0002068C561206805622068C5622068C5631E
:1016D00020684564206885642068C56020680564CA
:1016E0002068C5642068806880060AD4204600F01F
:1016F000FBFA002805D020684762042070700120A2
:10170000F8BD20684762204600F008F97570357012
:101710000020F8BD01210000FFFF0000FF007F0056
:10172000F8B5054604462035287801281DD001204B
:101730002870022068702268CA20506222685320F4
:101740005062FF2001300026FF2781421CD1216812
:101750008A6882438A60206881680122120391436B
:101760008160FFF7BFFA009009E00220F8BDFFF7A3
:10177000B9FA0099411A7D20C00081421BD8206827
:10178000C068C007F3D020E02068816801225202BF
:101790009143816020688168120191438160FFF765
:1017A000A1FA00900DE0FFF79DFA0099411A7D2003
:1017B000C000814205D920684762032068702E70FE
:1017C000F8BD2068C0688007EDD520684762012019
:1017D00068702E700020F8BD10B500680B46406898
:1017E000C021C94301400002000ECC04D870E40EB1
:1017F0005C708C06A40E0904490F9C701970002AB5
:101800000AD101F043FFD870587801F03FFF5870BB
:10181000987801F03BFF9870002010BD30B50B4662
:101820000168896A5960016809694904490C99602D
:10183000006804680F482146014088024D04800E6C
:1018400018706D0E49065D70490E99706102490E5F
:1018500040242140D970002A0AD101F017FF1870E6
:10186000587801F013FF5870987801F00FFF9870C6
:10187000002030BD7F7F7F0070B5040005D0254675
:1018800020356878002802D006E0012070BD0020D5
:101890002870204600F04CF8022068702168CA20A9
:1018A0004862216853204862204601F002FFFF2170
:1018B0000028206803D0416204206870E5E7826850
:1018C000154B1A408260226890686368A6691843C5
:1018D00023693343184390602268E06810612068F0
:1018E000026923891B041A4302612068C2688023AD
:1018F0009A43C2602068C26C92089200C264E26996
:10190000606902432068C36C1A43C2642068416264
:1019100001206870002070BDBFFF8FFF0348016980
:10192000012292049143016170470000401002407F
:1019300000B597B00420009000200A90FF200130ED
:1019400002906846FFF732FC002801D0FEF7CCFD7C
:1019500020200E90C0020F900EA8FFF771FA002809
:1019600001D0FEF7C1FD084801690122920411432C
:101970000161002201210220FFF704FA0220FFF793
:10198000E9F917B000BD000040100240FEB5064660
:101990000446203630780B46012842D001203070B2
:1019A0000220707020681D46002720358068002ABC
:1019B00039D0400655D5187801F068FE287801F036
:1019C00065FE19789878090408435978DA7809028D
:1019D000120411430843297809060843D9690843CA
:1019E0005969084305469969586808430090216879
:1019F000CA204862216853204862FF205A6A013099
:101A0000802182424AD1226893688343936022688E
:101A1000D0680840FF388238D060FFF763F9019042
:101A200029E00220FEBD400600D4DF70187801F0E6
:101A300035FE0204587801F031FE00020243987826
:101A400001F02CFE0243D87800040243287801F00C
:101A500025FE00060243D869024358690243154631
:101A6000C1E7DF70AAE7FFF73DF90199411A7D2030
:101A7000C00081422AD82068C068C007F3D020681F
:101A8000C56121680098486420688168FF2201329E
:101A90001143816020688168120130E0206882680B
:101AA00001235B029A4382602068C2680A401D4994
:101AB0005118C160FFF716F901900EE0FFF712F917
:101AC0000199411A7D20C000814206D92168FF207A
:101AD0004862032070703770FEBD2068C0688007C0
:101AE000ECD52068056221680098886420688168C8
:101AF0000122520211438160206881681201114362
:101B0000816009480268012149040A430260826831
:101B10000A4382602168FF2048620120707037709C
:101B20000020FEBD7FFDFFFF00040140F8B5054623
:101B30000446203528780B46012815D0012028704E
:101B4000022068705878002A10D001F09FFD987824
:101B500001F09CFDD8789E780004064358781978E7
:101B600000024903084316E00220F8BDC10603D570
:101B7000EF2108400A305870D87801F08FFD060434
:101B8000587801F08BFD00020643987801F086FD3D
:101B900006431878400306432168CA20486221683A
:101BA00053204862204601F084FD0027002811D10F
:101BB00010480640206846602068C1688022914332
:101BC000C1602068806880060CD4204600F08CF844
:101BD000002807D02168FF204862042068702F7019
:101BE0000120F8BD2168FF204862012068702F7035
:101BF0000020F8BD3FFFFF00F8B50646044620363A
:101C000030780D4601280ED001203070022070700F
:101C1000206800278068002A07D040061AD5287857
:101C200001F034FD17E00220F8BD400600D4EF704B
:101C3000287801F033FD0204687801F02FFD0002DE
:101C40000243A87801F02AFD0243E8780004024329
:101C500000920BE0EF702978A878090408436978AE
:101C6000EA78090212041143084300902168CA204F
:101C70004862216853204862204601F01AFD00287E
:101C80001FD11849009808402168086020688168C1
:101C900001229204914381602969E8680843216820
:101CA0008A68104388602068C16880229143C160BF
:101CB0002068806880060CD4204600F015F80028C3
:101CC00007D02168FF20486204207070377001201F
:101CD000F8BD2168FF204862012070703770002035
:101CE000F8BD00007F7F7F0070B504460068C168C2
:101CF000A0229143C160FEF7F5FF7D260546F60060
:101D000006E0FEF7EFFF401BB04201D9032070BD93
:101D10002068C0688006F4D5002070BD10B5044668
:101D2000006C002801D0FEF70BFE606C002801D08B
:101D3000FEF706FE20684168022291434160206858
:101D40004168490849004160012040346074002026
:101D500010BD704770B5040006D025464035687C3C
:101D60000026002802D005E0012070BD2E74204618
:101D700000F032F802206874206801684022914324
:101D80000160A168606822690843E1681143084363
:101D9000616901220843A169520211400843E169C7
:101DA0000843216A0843A16A084321680860A069C2
:101DB0000421000C0840616A0843216848602168DA
:101DC000E06A08612068C16992009143C16166655B
:101DD00001206874002070BD38B51C490546486B69
:101DE0008A1410434863086B012210430863086B90
:101DF0001040009000F0DAFE154C082060601020C2
:101E0000A0600020E06080202061400060618000D0
:101E1000A0612020E061000220620E482060204680
:101E2000FEF7B4FD2C64002211460A20A562FEF7DD
:101E3000A9FF0A20FEF78EFF002211461920FEF7A7
:101E4000A1FF1920FEF786FF38BD000000100240F8
:101E50001C04002030000240F8B504460027684604
:101E6000078026464036707C012802D0707C2228EC
:101E70007ED100290CD0002A0AD0002B08D0307C5B
:101E8000012875D001203074707C012802D003E055
:101E90000120F8BD322070746765A263A387E387D1
:101EA0002163A386E386A764E7640125A06A6D0326
:101EB000A84207D120680168A94301602068016831
:101EC0002943016020680168490603D40168402263
:101ED000114301600121FF20E268C90205308A42F6
:101EE000616866D1002904D081420CD1E08E0128BE
:101EF00009D1206B21680088C860206B801C20639A
:101F0000E08E401EE086E08E002843D1A06AA84201
:101F100046D12068016801221203114301603FE0AD
:101F20002068C068A16B0880A06B801CA063B0E033
:101F3000002202212046069B02F0BEFC00287DD133
:101F4000206B21680088C860206B801C2063E08EB5
:101F5000401EE086E08E002808D1A06AA84205D184
:101F6000206801680122120311430160002200E091
:101F7000CCE001212046069B02F09EFC00287FD188
:101F80002068C068A16B0880A06B801CA063E08FF4
:101F9000401EE087E08E0028CAD1606800287BD10F
:101FA000002201212046069B02F086FC002867D112
:101FB000B6E7002904D081420BD1E08E012808D178
:101FC000206B411C216321680078C860E08E401EB0
:101FD000E086E08E002845D1A06AA84205D120689D
:101FE00001680122120311430160002201212046F1
:101FF000069B02F061FC002842D12068C068A16BFA
:10200000087046E0002202212046069B02F054FCA4
:10201000002835D1206B411C216321680078C860FD
:10202000E08E401EE086E08E00280AD1A06AA84219
:1020300007D1206802680121090300E020E00A437B
:102040000260002201212046069B02F035FC002898
:1020500016D12068C268A06B411CA1630270E08F9A
:10206000401EE087E08E0028CCD16068002813D1A4
:10207000002201212046069B02F01EFC002802D00F
:102080000320F8BD08E02068C168A06B421CA26371
:102090000170E08F401EE087A06AA8420FD10022A5
:1020A00001212046069B02F007FC002802D0606D4B
:1020B00002210EE02068C068694608800888012275
:1020C00080212046069B02F0F7FB002804D0606DBB
:1020D000202108436065D3E701207074A06AA842FC
:1020E00011D120688168C943C9060CD4616D0222F0
:1020F000114361650168A9430160206801682943B3
:1021000001603774C4E637740020BAE70220B8E7EC
:1021100070B5064604464036707C0025012801D083
:10212000357454E000294FD0002A4DD0307C01286E
:102130004DD0012030741220707465652163A28631
:10214000E286E564A564A563A587E5870121A0680B
:10215000C903884205D12068016801229203114316
:1021600001600120A16A4003814207D121680A6809
:1021700082430A6021680A6802430A60216C15489C
:102180000863216C1448C862216C14484863606C71
:102190000563606CC562606C4563E38E2268216BE9
:1021A0000C32206CFEF776FC206841680222114355
:1021B0004160357420680168490603D401684022F3
:1021C00011430160002070BD3574012070BD0220F4
:1021D00070BD00003F480008494800082148000839
:1021E0007047704770B504462034237D012B0CD016
:1021F0000125257502236375002A08D0042A0AD018
:10220000082A0CD00C2A11D10DE0022070BD006804
:1022100003F007FB0AE0006803F01BFB06E0006820
:1022200003F030FB02E0006803F047FB6575002017
:10223000207570BD70B5040005D025462035687D39
:10224000002802D006E0012070BD0020287520463D
:1022500000F00AF802206875211D206803F0A6FA34
:1022600001206875002070BD0248816B0122114376
:10227000816370470010024010B5044600680122D7
:1022800003F0C4FA206801680122114301600020B4
:1022900010BD000010B504460068002203F0B6FA35
:1022A0002068016A044A114203D1016849084900C3
:1022B0000160002010BD00001111000010B512488F
:1022C000017800291ED10122027011480F490160D6
:1022D00000210164C161D307816143608263816031
:1022E000C160016207234162C3630261C1620422CB
:1022F000426101630748416B421511434163044841
:10230000FEF796F910BD00005500002000240140A2
:102310005C040020001002407CB51E490646097886
:102320000020002934D01C484168C9430907FBD468
:102330001A4C606B65152843606300211848FEF74E
:10234000D4F8184800901848019069461448FEF7E0
:1023500021F9A0140190694600961148FEF71AF978
:102360000F48FEF7A7FA0021C9430D48FEF743FACC
:102370000B48FEF759F90A4980B20A6893680226A9
:1023800033439360096803220A60616BA943616368
:102390007CBD00005500002000700040001002408D
:1023A0005C040020FFFF07000110000010B5094C7D
:1023B0002078AA280CD0FEF7ABFBFEF797FBAA20EB
:1023C000207058220449201DFDF7ECFEFEF796FB15
:1023D00010BD0000000008082467000810B5FEF7D3
:1023E0008DFB10BD10B5FEF793FBFEF77FFB10BD14
:1023F000014600200A0A00D00820084A114201D0F4
:1024000004221043064A114201D002221043054A19
:10241000114201D00121084370470000F0F0000094
:10242000CCCC0000AAAA000038B50B231B07C518A6
:10243000114B0FD01C152D1B18D02D1B19D0A542E8
:10244000DD6A05D108242543DD62DB6A234007E00D
:102450008024F8E7DC6A01252C43DC62DB6A2B4030
:10246000009311601146FEF775FB38BDDD6A02244A
:10247000E9E7DD6A0424E6E70010024010B5FFF743
:10248000B7FF810002484058002800D0804710BDA7
:102490007002002070B51C4615460E460846FFF730
:1024A000A7FF0A49002C0DD080000C50304600F0E8
:1024B00059FF044600222946FEF764FC2046FEF739
:1024C00049FC70BD002280000A5070BD70020020DF
:1024D00010B5D2B2FEF700FC10BD000010B50648E2
:1024E000FFF71AFF011E05D00448054A008B504330
:1024F000FDF7FEFD80B210BD000002446000F81F31
:10250000B80B000070B51148FFF706FF104C010032
:102510001AD0208B0F4A5043FDF7EAFD05460E48BE
:10252000FFF7FAFE68430B49FDF7E2FD618B0522D8
:10253000401A12035043E28B511AFDF7EFFD0F21B1
:102540004902401880B270BD0025E8E7000002444F
:102550006000F81FB80B000000000448F0B587B019
:1025600014216846FDF737FE224CE06A012108433A
:10257000E062E06A08400590E06A02252843E062D4
:10258000E06A28400590E06A04263043E062E06A91
:1025900030400590E06A80273843E062E06A69468F
:1025A00038400590032001900020029012480090CE
:1025B00005200007FEF7CEFA104800906946104843
:1025C000FEF7C8FA69460F48FEF7C4FA69460E4896
:1025D000FEF7C0FAE06A40084000E062E06AA84303
:1025E000E062E06AB043E062E06AB843E06207B0EC
:1025F000F0BD000000100240FF9F0000FFFF000040
:102600000004005000080050001C005010B5114C90
:1026100088B0607800281AD11C216846FDF7DBFDE0
:10262000FFF74CFE00F092FA00F0FAF800F0AAFB77
:1026300003F078FEFDF7B4FE02F04EFB684602F0B0
:10264000D7FA0121402003F00FF80120607008B094
:1026500010BD000055000020F0B587B01421684679
:10266000FDF7B9FD214CE06A01210843E062E06A10
:1026700008400590E06A02252843E062E06A2840AD
:102680000590E06A04263043E062E06A304005903D
:10269000E06A80273843E062E06A69463840059086
:1026A00003200190002002901148009005200007AF
:1026B000FEF750FA69460F48FEF74CFA69460E4895
:1026C000FEF748FA69460D48FEF744FAE06A40080A
:1026D0004000E062E06AA843E062E06AB043E06282
:1026E000E06AB843E06207B0F0BD000000100240AD
:1026F000FFFF00000004005000080050001C0050C4
:1027000010B50349012008700248FEF79FFF10BD75
:1027100054000020B002002070B5410EC0017D229F
:102720000023FDF70FFD054600F072F8044600E0B7
:1027300000BF00F06DF8001BA842F9D370BD000087
:1027400070B505460C4600222048FFF767F80022C6
:1027500029461E486668FFF73FF8002221461B48BD
:10276000FFF75CF86068B042F1D1E878184A01469A
:102770005043C01C8308880726D0164968783D223C
:102780000646504302463C3A7000801EC14088070E
:10279000D10F8918800F4910081AC018A978401E57
:1027A00008180D493C2248436178E12351432278BF
:1027B0001B015A438918A27810180818074A616843
:1027C0008002511A401870BD0549D7E7B0020020B9
:1027D000B5050000A0AA990080510100FF03000088
:1027E00050554400032070470148006870470000BE
:1027F000FC02002000B587B0694605A8FFF7A0FFDE
:102800000249096807B0401A00BD0000FC02002020
:1028100000B587B0694605A8FFF792FF07B000BD75
:1028200010B5084C207800280AD100F041F8FF21AB
:1028300001310548FEF774FF00F06AF801202070AE
:1028400010BD000054000020B002002010B50D4C57
:102850000021042000F07EFC01200B494004486167
:1028600021688868C0040BD5C868C00508D5C86849
:1028700080221040FF388238C8602046FEF7E2FE12
:1028800010BD0000B00200200004014010B5044655
:10289000FFF7B0FF201A032801D9002100E0012131
:1028A000042000F057FC204600F03EF810BD000068
:1028B00010B51449144886B0002412C01F210160CD
:1028C000846004611149446141600838FEF7D4FF17
:1028D0006946CC750120487588750875002205A9E0
:1028E0000948FFF723F900940194049400226946F3
:1028F00005480394FFF780F90348FEF785FE06B00C
:1029000010BD000000280040B0020020FF030000BE
:1029100010B5044C2046211D1830FFF711FF206030
:1029200010BD0000FC020020F0B587B00446142260
:102930003F4901A8FDF736FC3D485038406E0090F5
:1029400000F07EF83B4802993B4A401AA105890DE8
:10295000081887B2A10A68468078534202E08918B5
:10296000401C80B29942FAD26A461579E1221201DE
:1029700002E0891A6D1CADB29142FAD26A465479CE
:1029800002E0641CA4B23C393C29FAD29279511875
:102990008EB20121890203E07A1A761C97B2B6B290
:1029A0008F42F9D203E03C3E641CB6B2A4B23C2E86
:1029B000F9D203E03C3C6D1CA4B2ADB23C2CF9D280
:1029C00003E0183D401CADB280B2182DF9D2694623
:1029D000C978890769464A7827D01849491E515C49
:1029E000814202D2FDF784FB08461249CA1B1049F6
:1029F0002C394A60052252068A618E704C700A4654
:102A00000D70203210706846C079C8700020C8610F
:102A1000FF2248610132C8604A62086102460846E6
:102A20002438FEF7B3FF07B0F0BD04490C31D5E7F9
:102A300000030020FF03000080AEFEFFC066000818
:102A400010B5FF2101310748FEF76AFE054801680D
:102A5000C86880221040FF388238C860024990025E
:102A6000486110BDB00200200004014010B5410EC5
:102A7000C0017D220023FDF765FB10BDF0B529489C
:102A8000294B016C284C284D274E274A08681433DF
:102A900028343C355036904201D102201BE0984248
:102AA00001D1202017E0A04202D10120400212E013
:102AB000A84202D1012040030DE0B04202D1012022
:102AC000400408E0184F6437B84202D101204005A5
:102AD00001E001204006144F083F786008689042EA
:102AE00001D104201BE0984201D1402017E0A04210
:102AF00002D10120800212E0A84202D1012080030D
:102B00000DE0B04202D10120800408E006496431A2
:102B1000884202D10120800501E001208006786012
:102B2000F0BD0000180300200800024001B582B08B
:102B30000020C0430090012301AA02A90248FFF728
:102B40008BF9684680880EBD1803002010B5144824
:102B500012490160144A134B0021126803E0520825
:102B6000491C072901D29A42F9D8C900C161002144
:102B7000816001614161FF22C16005328162426072
:102B8000012201625202826141620548FFF7E2F8C8
:102B9000002801D0FDF7A8FC10BD00000030014066
:102BA000180300200024F4004C00002030B585B04C
:102BB00014216846FDF70FFB0220019002900320CC
:102BC0000390002004906A4608210F48FFF72CFC70
:102BD000052424076A4640212046FFF725FC6A4663
:102BE00080212046FFF720FC01210191CD030291B5
:102BF0006A4629462046FFF717FC0122294620464F
:102C0000FFF766FC05B030BD0004005038B515482C
:102C100001210068C90202688A430A43026012481F
:102C2000C16A01221143C162C06A05241040022218
:102C30009503240700902946204600F04FF960686C
:102C4000A843606002222946204600F05BF9012279
:102C50002946204600F04CF9606A00010009204333
:102C6000606238BD180300200010024038B51248D9
:102C7000006801680122D202914301600F48C16AD5
:102C800001221143C162C06A05241040D503240704
:102C900000902946204600F021F96068A843606052
:102CA00002222946204600F02DF90022294620461E
:102CB00000F01EF9A56138BD180300200010024085
:102CC00070B50C460546FFF7A1FF2246294602488B
:102CD000FFF71EFA70BD00001803002010B5084869
:102CE000046CFFF71BF8206801680422914301601F
:102CF00020680168022291430160FFF7B7FF10BD11
:102D000018030020094801680122120411430160E0
:102D100001688903FCD5C16889088900891CC160E4
:102D2000C1680907890F0229FAD1704700100240D3
:102D300008B5134801680122114301600168490781
:102D4000FCD5016801221206114301600168890166
:102D5000FCD5C16803221143C160C1680907890F0E
:102D60000329FAD10268012109048A43026002683A
:102D70000A4000920168012292049143016008BD5B
:102D8000001002407FB50120134C80072060002511
:102D90006560FF2025619030A560E0602046FFF768
:102DA00049FA6020009002200190029500226946B5
:102DB0002046FFF717FA1020009045200190029559
:102DC000042269462046FFF70DFA2068C1680122F7
:102DD00092021143C1607FBDBC04002010B50122E6
:102DE00006499207401E0A60C860002048600861DA
:102DF00088600846FFF71EFA10BD0000BC040020E2
:102E000010B5064900200968486201460348FFF7EB
:102E100033FA04210148FFF72FFA10BDBC0400204B
:102E200010B50C4C01202168C0430861206801697D
:102E3000C943C907FBD10748FFF72CFA042105480D
:102E4000FFF728FA2168002048622168C01E086147
:102E500010BD0000BC04002000BFFDE7F8B5D46839
:102E600093685569234314692C432343946923438E
:102E7000D4692343946A2343104C6418203CE67FB2
:102E800085590F4F3D401D438551E57F03460C3367
:102E9000EF585668EE50E67F1B1FF7581568F5503F
:102EA000E47F031DE658156A360C36042E43E650BF
:102EB000526A00F007F80120F8BD0000B96600086A
:102EC0000F80FFFF10B589000F24091F8C40803050
:102ED000836A8A40A3431343836210BD10B503681D
:102EE00049434C000C19A34351430B43036010BDED
:102EF00010B5C36849434C000C19A34351430B431D
:102F0000C36010BD10B5836849434C000C19A3433E
:102F100051430B43836010BD70B5044600680E46F4
:102F20000025C007C00F2AD1F168706822680843E5
:102F30003169144B1A40114308432060B16860683E
:102F4000032212039043084360607169A068121164
:102F500090430843A060900000F016F800280ED0BF
:102F60003268002A0BD0010E0602500800233018E8
:102F700001255941FDF7E6F80003000BE060284603
:102F800070BD0000F3E9FFEF10B512490024C968D5
:102F9000014001208002091A12D0091A14D081427E
:102FA00007D100F023F8002801D00124E4032046D3
:102FB00010BD00F049FA00F02DFA00F039FA01E0F6
:102FC00000F042FA0446F2E700F008F80028EED0DC
:102FD000014CECE7401002400024F4000248006875
:102FE0004007C00F7047000000100240024800690F
:102FF0008005C00F704700004010024010B50B481C
:103000000168002904D000F02BF800F068F810BD2A
:103010004068002804D000F029F800F061F810BDE5
:1030200000F006F800F05AF810BD0000780000200B
:1030300010B5EFF3108472B6FFF70EFBFFF760FBDD
:1030400006480169821591430161016902159143A6
:10305000016184F31088FDF7C9FE10BD40100240E5
:1030600010B501210020FDF7A9FE10BD30B585B0D7
:10307000EFF3108472B614216846FDF7ACF8032014
:103080000190002005252D0702906A4680212846E0
:10309000FFF7CAF96A4640212846FFF7C5F96A4694
:1030A00008210C48FFF7C0F901216A46C9032846E8
:1030B000FFF7BAF901F0E2FD074801680422114365
:1030C000016084F3108801210846FDF79FFE05B0DA
:1030D00030BD000000040050007000407047704791
:1030E00010B5EFF3108472B60F4801680122114346
:1030F000016001684907FCD50168012212061143ED
:10310000016001688901FCD5C16803221143C160D7
:10311000C1680907890F0329FAD1FFF747FD01F0BC
:10312000DBFD84F3108810BD0010024010B5EFF3F2
:10313000108272B6064B00295C6803D0012903D1C6
:10314000044300E084435C6082F3108810BD0000FB
:103150007800002010B5EFF3108272B6064B0029FC
:103160001C6803D0012903D1044300E084431C60A0
:1031700082F3108810BD00007800002030B589B0BF
:1031800005460024202214496846FDF70BF8002D5F
:1031900009D0012D10D0022D17D0032D18D01424E2
:1031A000204609B030BD68460078032802D0FF20D1
:1031B000C33007E0322005E0684600780328F9D0E4
:1031C0007D20C000FDF738F9EAE719208001F9E712
:1031D000FF20F530F6E700000800080800207047DF
:1031E000054A0021531840335B7C4354491C042991
:1031F000F8DB0020704700000400080870B5144692
:103200000D460646FFF76AF9308000202880FFF758
:1032100079F90A214843000A2080002070BD00008F
:1032200002460020C82A02D8024A0A6070471120CC
:1032300070470000F404002070B5134C0D460128BF
:103240000CD00220FDF79CF83220FDF74AFC02204A
:10325000FDF786F8A078AA280FD012E00020FDF72D
:103260008FF83220FDF73DFC0020FDF779F8A078BB
:10327000AA2806D1294605A001E0294609A003F0A5
:10328000CDF8002070BD0000040008085258204FFF
:103290004B2E20525353493D2025642064426D0A31
:1032A0000D0000005258204B4F2E20525353493DE1
:1032B0002025642064426D0A0D00000070B50546AB
:1032C0000024074EFFF78EF83019295D4030417415
:1032D000FFF784F8641C042CF4DB002070BD0000B0
:1032E0000400080810B504460749084802F004FC29
:1032F0007D20C00044432146044802F065FC034899
:1033000002F074FC002010BDF5330008D005002049
:1033100010B504460649074802F0EEFB2146054871
:1033200002F052FC034802F061FC002010BD0000D6
:10333000E9330008E405002010B5024802F08EFCD5
:10334000002010BDD005002010B5024802F086FC18
:10335000002010BDE405002010B5022000F096FA10
:10336000002010BDFF220132811A90420CD009DCEE
:1033700008280DD008DC012808D0022806D004282F
:1033800002D105E00F221202072070470520704786
:1033900006207047704700008307FF22DB0E9A402B
:1033A0008907090E994000280BDA0007000F08383A
:1033B000830808489B001818C36993430B43C361F3
:1033C0007047830804489B001B1818689043084303
:1033D0001860704700ED00E000E400E010B5012047
:1033E00000F038FA10BD0000014901204870704714
:1033F0006000002010B5022000F02CFA10BD7047CC
:1034000010B5034901200870022000F023FA10BD16
:10341000600000200449C968F0221140034A0909EC
:10342000515CC840704700000010024098660008D8
:103430000349C968034A4905490F515CC8407047B0
:1034400000100240B166000810B50C49CA680C2093
:1034500002400B4805D0042A09D0082A09D00C2ABA
:1034600009D049680904490F491C884010BD054826
:1034700010BD054810BD00F009F810BD0010024055
:10348000008000000024F40000127A0010B50B4800
:10349000C16801231B040A4A194002D0994200D195
:1034A0005210C168C0680902890F8002054B000FE5
:1034B000185C491C5043FCF71BFE10BD0010024075
:1034C0000024F400A866000870B517490023CA68F4
:1034D0001206120F18D18A6B154CD500134A02D56B
:1034E0001268224009E08E6B01252D072E438E6362
:1034F00012688E6B2240AE438E63A24204D1032138
:103500008903884200D101230A480168490849001B
:10351000194301600068C007C00F984201D0012024
:1035200070BD002070BD000000100240007000401F
:1035300000180000002002400002C9B20843704792
:1035400010B501F09BFA002010BD10B5002806D080
:10355000012807D0022808D0032810D109E000F084
:1035600033FA0CE000F0CEF909E000F0CBF9C82006
:1035700003E000F0C7F9FF202D3000F0DDF9002056
:1035800010BDF8B5074616460D4600240320FCF78B
:10359000F7FE012D02D0022D0AD101E0642201E0E4
:1035A0004B22D2003146384600F0F5F9012800D010
:1035B00031240320FCF7D4FE2046F8BD10B500F0FE
:1035C000E1F9002010BD0000F7B5002584B00646E3
:1035D0001F492F4628466C464200401CA15208282D
:1035E000FADB082E02D3352007B0F0BD01F066FAF1
:1035F00000F0B4F90020FCF7C3FE1EE00120FDF747
:1036000070FA01F047FA69006D1C6052B54200D1B2
:1036100000250022104604E04100615A89180AB2D0
:10362000401CB042F8DB31461046FCF777FD0599A7
:1036300000B2884201DA012703E001F039FA0028DC
:10364000DCD00020FCF78CFE069807700020CBE74A
:10365000FF7F0000F8B514460D46074600F07EF9DE
:1036600001F0A2FA0026012803D02E8026703046F1
:10367000F8BD384600F078F901F026FA28800120DC
:103680002070F4E710B502F0E7FD10BD01090A2231
:1036900000075143000F4018C0B27047002102E0FC
:1036A0000A38C0B2491C0A28FAD20907090E084391
:1036B000704770B504460068C168490613D40021FC
:1036C000C943C160FDF70EFB7D260546F60006E006
:1036D000FDF708FB401BB04201D9032070BD2068F4
:1036E000C0684006F4D5002070BD10B5FFF7AEF8F5
:1036F00010BD000070B5092001F0F0FD0546062060
:1037000001F0ECFD0404072001F0E8FD0002044391
:10371000082001F0E3FD0443200A0102184A611A5F
:10372000514380315043090A46180021092001F015
:103730009BFF3B2001F0D2FD4024204301463B206B
:1037400001F092FF3B2001F0C9FD8006FAD40D483C
:1037500001F078FE3B2001F0C1FD204301463B20F3
:1037600001F082FF3B2001F0B9FD8006FAD4294622
:10377000092001F079FF304601F064FE70BD0000C1
:10378000093D000000A1BC33EFF3108172B60122A5
:10379000824003488368934381F3108883607047B5
:1037A0006400002010B500F017F810BD10B5EFF35D
:1037B000108472B6FFF722FC84F3108810BD00005D
:1037C000EFF3108272B68000024B195082F310881A
:1037D00070470000F805002070B51B4C1FE0002169
:1037E000030C01D110210004030E01D100020831A5
:1037F000030F01D10001091D144B000F185C411883
:10380000EFF3108072B61F23591A01238B409A439D
:1038100080F3108888000E4922600858804722688B
:1038200060681040DBD1EFF3108572B61046616816
:10383000E2680840A1681140084301D1FFF7B6FFD4
:1038400085F3108870BD0000640000207C670008CC
:10385000F8050020EFF3108172B601228240034880
:1038600083681A4381F310888260704764000020E7
:10387000EFF3108172B601228240034803681A43B5
:1038800081F31088026070476400002070B5084C16
:1038900001218140E568E16001E0FFF783FFE16815
:1038A000A0680842F9D0A068E5608843A06070BDB8
:1038B00064000020054A0021531840331B7B435409
:1038C000491C0529F8DB00207047000004000808A7
:1038D00001480079704700002400080870B50546CB
:1038E0000024074EFEF77EFD3019295D403001733C
:1038F000FEF774FD641C052CF4DB002070BD000095
:103900000400080830B58BB001F063F82C22094997
:103910006846FCF747FC00246D4660004119497871
:10392000285C01F0B3F8641C162CF6D301F084F87F
:103930000BB030BDC467000810B50446D7210E2077
:1039400001F0A4F8C82C04D0FF3C2D2C05D1102187
:1039500000E00921122001F099F810BD10B50520F2
:1039600001F090F8012010BD10B50446322001F09E
:1039700081F80F2801D9002010BD214601F074F80C
:10398000012010BD10B501F015F8002001F07AF803
:1039900001F02AF810BDF8B515460E46074600F0AE
:1039A000FFFF0446032001F06DF8F1002B4622468C
:1039B000384601F0B5FF012801D00020F8BD01F024
:1039C00001F90120F8BD000070B586B001F001F8E2
:1039D00000F0E6FF05460E2810DD134B00240FCB48
:1039E000009001A80EC06E46600081194978305CD5
:1039F00001F04CF8641C082CF6D310E00A49182298
:103A000010316846FCF7CEFB00246E466000811939
:103A10004978305C01F03AF8641C0C2CF6D3284647
:103A200000F0C4FF06B070BD9C67000810B500F040
:103A3000DBFB10BD10B5044614F04AFC002801D091
:103A40005B2108E0204614F03EFC040006D014F090
:103A500033FC5B212046FFF76FFD10BD14F02CFCFA
:103A60000028EDD110BD0000FEB5504D0446287869
:103A7000002801D01120FEBD002C09D03B20694652
:103A800008716846FFF7ACFB002803D0102187E0DF
:103A90001320FEBD684600793B2801D01220FEBDF0
:103AA00042496C20091DFFF7BBFB69680029EDD076
:103AB0000028EBD10846643000F096FB060004D0E5
:103AC0006868FFF78BFB3046FEBD68460188686872
:103AD0008184627B0021022A02D0012A18D021E0D1
:103AE0000323334A8360C260016122698262024615
:103AF000267E203216742F4F6669BE4204D1FF2104
:103B0000F531C16253740DE0C1620221517409E0C4
:103B1000294AC16082600161012132221154694643
:103B20004988818621680160616841600146627B45
:103B300040318A75A2688265227B012A02D0022A5E
:103B400002D004E0642201E04B22D2008A83237B6E
:103B500068221354194EA2683C23B24202D1CB838F
:103B6000174812E0174EB24204D10820C8837D20C6
:103B700000010AE0144EB24202D1CB830C4804E0AB
:103B8000124EB24209D11248CB830884607B0428CC
:103B900009D0012028700020FEBDFFF71FFB142173
:103BA000FFF7CAFCFEBD0220F4E70000B0000020D1
:103BB00088130000E0930400FF01000000EE020003
:103BC00008520000D4300000A08C000000770100F3
:103BD000A86100003EB5069D1C46012D06D00023BD
:103BE000002805D00C2905D930203EBD0123F7E778
:103BF00033203EBD002A01D1012D0AD0009202934C
:103C00000246054801940B460121406800F042FA43
:103C10003EBD31203EBD0000B000002070B50D4615
:103C20001B4C0146207801282FD160680A68826009
:103C30004A68C26089680161C90508D5154A816D65
:103C4000914204D114498165144A60210A525621D7
:103C5000095C012907D100F00FFB61680028C886C4
:103C600007D020318D7460685621095C022902D08A
:103C700009E0412070BD8168002902D0C068062893
:103C800001D2402070BD02202070002070BD0000D5
:103C9000B0000020A08C000000EE020008520000DE
:103CA000F0B587B01F4600266B461E7604460546D3
:103CB00040340B0002F002F805110431145070007A
:103CC000002007E0831DDBB25B19115C2033401C30
:103CD0009977C0B2B842F5D35EE0107820715BE00E
:103CE00005AA04A903A8FFF789FA002803D0000257
:103CF000923007B0F0BD082020716846808960715D
:103D0000000AA0716846008AE071000A20726846C5
:103D1000808A60720012A0723EE005AA04A903A87E
:103D2000FFF76CFA002802D000029330E1E7092087
:103D30002071684680896071000AA0716846008A17
:103D4000E071000A20726846808A60720012A072D8
:103D5000608C6430E0721FE0012605AA04A903A864
:103D6000FFF74CFA002802D000029530C1E70A2084
:103D700020716A46C8219089FCF7BAF960716A46D9
:103D8000C821108AFCF7B4F9A0716A4614200A21F0
:103D9000105EFCF7C3F9E07114F09AFA002801D024
:103DA000000212E02A462946334655323E3106A823
:103DB0006E4607C62846394644300C9A14F08AFAF3
:103DC000050004D014F078FA2802903091E714F03E
:103DD00073FA0028E4D16946207D097E08432075E6
:103DE000002086E7490009185C22098B125A836D6E
:103DF000514302685B085118C91A8A4201D801214F
:103E000001E00021C943826AC06A48431018704724
:103E1000FEB50446403017460190827D2346643348
:103E2000002548484E1C0093042A1AD0022A18D0B4
:103E3000A18E002901D0814205D9184600F03BFC33
:103E40004005400DA086A08C002801D07F2805D910
:103E5000009800F030FC4006400EA084012F3CD0BA
:103E60006DE0A18C002901D0814205D9184600F0EF
:103E700022FC4005400DA084012F2BD101212046BA
:103E800000F0A2F805460121204600F0B2F80146F4
:103E9000A08C01232A4600F069FCA08420830199AC
:103EA000C98B42186283401A2FE00021204600F09F
:103EB0008BF807460021204600F09BF80146A08CB5
:103EC00001233A4600F052FC69000919A0846D1CD8
:103ED0000883EDB2B542E8D3FEBDE08E0123401D5C
:103EE00082B2A08E082100F041FCA086A08C0023A5
:103EF0002622042100F03AFCA084A18E21874A1CCE
:103F00006287491EA18720836083A083FEBDE08E67
:103F10000123801D82B2A08E072100F027FCA0861D
:103F2000A08C00232622042100F020FCA08468003D
:103F30000019A18E0187A18C6D1C0183EDB2B542E1
:103F4000E5D3FEBDFF070000F8B505460E46044662
:103F50004035A87D49000F19042822D0022820D01E
:103F6000388F801F81B2204600F055F90090388FBD
:103F70002D8C0621401EFCF7BBF811484B22414313
:103F80004819398BD200514308180E4B009922680A
:103F9000594309185118A26D5208891A002E06D0EB
:103FA0000BE0388BA98B484321680918F3E7626856
:103FB0001018A26D5208801A60610846F8BD000012
:103FC000A8610000E0930400F8B502464032958BEA
:103FD0000C461746806D2946FCF78AF80646388C51
:103FE0002946FCF785F8311AF88B6043081A80B22D
:103FF000F8BD70B5044640340D46A18B208CFCF70B
:1040000077F8E18B6943401880B270BD70B5054602
:1040100014460E460120FFF798FA002801D000024E
:1040200017E02046FFF78CFA040002D0FFF7C6FA2B
:104030000EE03046FFF756F90400F7D1012D0AD102
:1040400014F046F9040006D0FFF7B8FAFFF774F948
:104050002002E03070BD002070BD70B505461E46E0
:1040600014460846FFF771FA00280FD12046FFF7E3
:1040700067FA040007D13021695632460520FFF760
:10408000A3FA040003D0FFF799FA204670BDFFF7AA
:1040900095FA70BDFEB504468C4600250A9809992C
:1040A0002E46012800D101264D480778022F01D065
:1040B0006020FEBD03274A480029077011D0022066
:1040C0000290009061460196204600F067F90028B2
:1040D000EFD1204600F037FB002804D00002613009
:1040E000FEBD0020ECE727464037B87D022804D10A
:1040F0002069E568000A00022061ABB22046029AFE
:104100000A9900F0A4F9002805D07E28E8D1344AA5
:1041100002211170FEBD002E3AD0314E04203070C5
:1041200020460A9A089900F071F9002804D09B28CB
:10413000F0D102213170FEBD0A98012828D1032058
:1041400030700220FFF71AF8002802D00002643015
:10415000FEBD002000900246019008230221204667
:1041600000F01CF90028F3D1204600F0ECFA0028FA
:1041700002D000026230FEBDB87D022800D1194D88
:104180000022ABB220460A9900F061F90028F2D172
:10419000387D01281FD1002038750090024601901B
:1041A00005230421204600F0F9F80028E3D1204639
:1041B00000F0C9FA002802D000026330FEBDB87DCD
:1041C000022800D1E5680222ABB220460A9900F02D
:1041D0003EF90028F2D10249022008700020FEBDFD
:1041E000B0000020280A000010B5044614F070F852
:1041F000002801D0000207E0204614F05FF8040018
:1042000004D014F059F82002993010BD14F054F87D
:104210000028EFD110BDF3B5002081B00A46044656
:1042200000900621501EFBF779FF401C0021C2B20E
:1042300001231DE0019E8D000020AE194D01AC460A
:1042400010E01D46B76885402F4207D0641CE4B2D9
:10425000A24203D165462D18EDB20095401CC0B2B4
:10426000202801D29442ECD1491CC9B2032901D2C1
:104270009442DFD10098FEBD70B500231A46012498
:10428000002195002D18AE6825468D402E4201D0A4
:104290005B1C9BB2491CC9B22029F5D3521CD2B277
:1042A000032AEDD30620434398B270BDF7B58AB018
:1042B00000270A980497623016463C4608970797ED
:1042C000099005AA68460999FFF7C4F905466846AA
:1042D000007D012816D10B98012825D0012200204D
:1042E0006946335C0C5CA34200D00022401CC0B283
:1042F0000F28F6D30A986221415E1046FEF79CFF14
:10430000040000D0012738462843DAD0FFF756F9D9
:1043100006466846007D002802D0FFF70DF8089099
:104320000B98012816D018E006A9684614F0CCF8BE
:1043300004900028E6D16846007E0128E3D10021E0
:104340006A46081DC0B2105C7054491CC9B20829E5
:10435000F7D3D7E713F0B0FF07900498002801D0F7
:1043600000020DE0002D01D0280209E0002E01D04E
:10437000300205E008980028F2D1002C03D020027A
:104380009A300DB0F0BD07980028E9D16846007D4D
:10439000002801D00020F4E79B20F2E7F8B5079D44
:1043A0000E460446069F0095FFF77AFC002826D1AA
:1043B000012E06D91248E08311486230208411484A
:1043C00016E05520005D1049102808D24000401822
:1043D0004038818CE183018E2184808F08E00A3887
:1043E000801040000A5AE283401881892184008BA2
:1043F00060842A4639462046FFF70AFD0020F8BDB2
:1044000067AF0000BEB10000F067000870B5154648
:104410000E460446012A06D1FEF79EFF002802D070
:104420000002983070BD5620005D626902280CD0F1
:1044300019212B460120FFF7E9FD0028F2D1324671
:1044400001212046FFF732FF70BD2221F1E7FFB5C1
:10445000044600208BB00290074608900C98012873
:1044600000D1012725464035A87D26462036012863
:1044700001D0002F04D000210991012803D01AE0B7
:104480000120099017E0B07C012814D10D98002874
:1044900011D0002F0FD00A20FEF724FF002803D0F0
:1044A000000270300FB0F0BDFEF756FF002802D0BA
:1044B00000027130F6E70E98002848D0A87D022847
:1044C0004FD10E98FEF724FF002802D0000277306B
:1044D000E8E700212046FFF785FC0246717C04AB2B
:1044E0002046FFF7BAFD002802D000027630D9E757
:1044F0006846007C002802D001280DD013E0A06897
:104500000299401E88420ED90320FEF737FE00288C
:1045100009D000027930C5E7FEF716FF002802D067
:1045200000027830BEE70298401CC0B20290A16839
:10453000814203D96846007C0128C2D12069410725
:10454000C2080298490F1018C00040182061A87DC9
:10455000022806D16846007C012802D000286FD0CE
:10456000A7E000200A9000900D98401C029000984F
:1045700084E020460099FFF7E7FC024620460099B8
:1045800000F0A3F800288DD1A87D022802D121696E
:10459000491C21610099002927D10C99012902D0D9
:1045A00001280CD021E0022807D01420FEF79AFE43
:1045B00000281AD00002753074E71320F6E7B07CAB
:1045C000012812D10D99E08E491CFBF791FD01469F
:1045D0001420FBF78DFD0890002806D0FEF782FE20
:1045E000002802D0000272305CE70998FEF7C6FD91
:1045F000002802D00002743054E7A87D022839D187
:104600000D990098884235D2002808D17D2080017C
:10461000FEF77EFE002802D000027B3042E70098C1
:10462000401CC1B22046FFF7DDFB0246717C04ABA3
:104630002046FFF712FD002803D000027A3031E750
:1046400035E06846007C00280BD00D980099401E8C
:1046500081420FD1FEF778FE00280BD000027D309A
:1046600020E7FEF771FE002802D000027C3019E737
:1046700001200A900098401CC0B200900299884224
:1046800003D20A98002800D173E7A87D012810D131
:10469000B07C01280DD1089800280AD0002F08D13D
:1046A000FEF75AFE002804D000027330FAE67E209E
:1046B000F8E60020F6E6C1788278090211434278D4
:1046C0000378100218434840704770B5044688B01C
:1046D00015460E460020FEF738FF002801D00002E4
:1046E00029E02846FEF72CFF050003D0FEF766FF01
:1046F000280220E0AA20694608704870700000195E
:10470000C18B25460A0A69468A70807FC870403589
:10471000687D3346001FC2B2A81E01A900F04CF804
:1047200060346A7D217A6846FEF72BFF040005D0CD
:10473000FEF744FF2002973008B070BDFEF73EFF41
:104740000028CCD1F8E708B5818C6A461170090AB7
:1047500051705621095C012904D1818E9170808E9F
:10476000000AD0701046FEF7A9FD08BDF0B5012B78
:1047700007D006237F2507245B1E641E002804D073
:1047800004E009230B4D0B24F6E728460646E640D5
:10479000F707FF0F0646DE40F6074004F60F000C51
:1047A000B74201D00126304328409042E6D88842E3
:1047B000E4D3F0BDFF070000F0B50025844628468D
:1047C0002C4602E00C54401CC0B29042FAD3980030
:1047D000124B0024C6181EE080236046005D0F5D6A
:1047E0001842705D0DD0002809D0002058430743BF
:1047F0000A480F55001F405D801CC5B207E001202C
:10480000F4E75843074305480F55001F455D5B0813
:10481000E3D1641CE4B29442DED3F0BD1868000812
:1048200010B5806A0021C186C187012251210A5436
:10483000416D102211434165FDF78BFA10BD10B593
:10484000806AFDF7CEFC10BD38B5846A0068006848
:10485000800620D40A2300220221204600F02CF8F2
:104860002025002802D0606D2843606520684168DB
:104870000222914341600A2301228021204600F058
:104880001BF8002802D0606D284360650020E08698
:10489000012151200155A068002803D12068C1687A
:1048A00080680090606D0028204602D0FDF751FA24
:1048B00038BDFDF795FC38BDF8B51D4616460F46C8
:1048C0000446FCF70FFA3146264640360090002990
:1048D0001ED043E0681C1BD0002D05D0FCF702FA67
:1048E0000099401AA84213D920684168E0229143F8
:1048F00041602068026840218A43026023E0216809
:104900000A6882430A6021680A6802430A601FE05D
:104910002068816838468843DCD124E0681C1DD0BB
:10492000002D06D0FCF7DEF901460098081AA842CF
:1049300014D920684268E0218A43426020680168F7
:104940004022914301600120A16A40038142D6D0F8
:1049500001207074002030740320F8BD2068816845
:1049600038468843DAD00020F8BD10B5002804D0BE
:1049700001210220FEF7EEFB10BD0021F9E7000047
:1049800010B5112000F076F8034940080988081A8C
:1049900002490D38488010BD04000808600000205E
:1049A00001490320085670470400080810B500F0BC
:1049B000E9FD10BD00B587B01C216846FBF70BFC74
:1049C000684600F015F90121402000F04DFE07B0C7
:1049D00000BD00B587B01C216846FBF7FCFB6846AC
:1049E00000F006F907B000BD10B5114C00230122FC
:1049F00010212046FDF74EFD002301220221204612
:104A0000FDF748FD0122002311462046FDF742FD37
:104A10000122002351030748FDF73CFD0520002338
:104A2000012220210007FDF735FD00F027F910BD18
:104A3000000400500008005010B500F04DF9074B7D
:104A4000012210210648FDF725FD0520054B012216
:104A500020210007FDF71EFD10BD000001340008F5
:104A6000000400508149000810B50246002000F003
:104A70003DFC10BD10B500F031FC10BD10B500F0CC
:104A8000E1FC10BD10B500F03DFD10BD10B500F00B
:104A9000EBFD10BD10B51120FFF7ECFF03494008F6
:104AA0000988081A0D3800B210BD0000040008087B
:104AB0000148407870470000600000200149002054
:104AC000487070476000002001490220085E70476E
:104AD0006000002010B5012802D0FEF713F910BDC8
:104AE000FEF726F910BD10B50020FEF7B3FE10BD8D
:104AF00010B5FEF773F910BD10B5FEF781F910BDC2
:104B000010B5FEF78DF910BD70B5214CA089C20714
:104B1000204600894100002A0DD01E480D18A089AA
:104B2000628990420DD22846FBF755FB60698047A9
:104B3000002802D027E0174DF1E7284600F042FF99
:104B400021E0A08990420ED0A389501C834206D157
:104B50002846FBF740FB284600F066FF13E0A089DB
:104B6000921C904203D12846FBF735FB0BE0FFF780
:104B7000C7FF00F015F80020FFF7F7FE0120FFF750
:104B8000A9FFFFF7B0FFA089401CA08170BD000005
:104B9000800000203806002010B5FEF791F810BD07
:104BA00010B5FEF79BF810BD10B5054C0020207025
:104BB0000220FEF7E9FD0220FEF768FE207810BD16
:104BC0006000002010B50020FEF760FE012010BD3F
:104BD0007047000001494860704700000000002055
:104BE0000E2801D9802070470020704705207047AB
:104BF000F8B51E4D1E4928601E4800F07DFF1D4877
:104C00001B49143000F078FF1A481949283000F089
:104C100073FF686801680120884700F08FFBFEF78A
:104C200069FD002000F06EFC686881682846083045
:104C30008847114E002460002718F05D00F02AFC20
:104C4000B8198178407800F00FFD641CE4B2102C94
:104C5000F1D3002000F01EFC0649002068390871DD
:104C6000686840688047801CF8BD00000000002094
:104C70001552000834020020AC65000810B586B05B
:104C800014216846FBF7A7FA104801900020104C49
:104C900002906A4610212046FDF7C6FB6A460221B3
:104CA0002046FDF7C1FB6A4601212046FDF7BCFB0B
:104CB00001216A4649030748FDF7B6FB05206A460D
:104CC00020210007FDF7B0FB06B010BD0000111059
:104CD000000400500008005030B585B0142168462B
:104CE000FBF779FA1748FFF775FF17480190032083
:104CF000164D0124039002946A4610212846FDF7C0
:104D000093FB6A4602212846FDF78EFB6A46012185
:104D10002846FDF789FB6A4661030D48FDF784FBD1
:104D200005252D076A4620212846FDF77DFB00203A
:104D300002906A46210301942846FDF775FB05B0F1
:104D400030BD0000340000200000111000040050AD
:104D50000008005070B50E4D044603680022102173
:104D60002846FDF797FB0022022128466368FDF7DD
:104D700091FB002201212846A368FDF78BFB01214E
:104D8000002249030348E368FDF784FB70BD00007F
:104D90000004005000080050F8B500206946087073
:104DA000924C2079012809D0022859D12046683038
:104DB00000F054FF607901287ED104E16079002879
:104DC00018D001284CD14021122000F04DFC1220B7
:104DD00000F084FA694608700878844D80064035F2
:104DE00000286ADA2021122000F03EFCA87D00286D
:104DF00079D088E07D4D402620352879012837D1AB
:104E00003F2000F06BFA69460870087880072FD4BD
:104E10000B213E2000F028FC10213F2000F024FC54
:104E200028465C3000F01AFFA879002819D00D2020
:104E300000F054FA304301460D2000F015FC2846DE
:104E4000703000F0D3FE6A480068002803D0006983
:104E5000002800D08047002028746874A0876087ED
:104E6000F8BD6248903000F0F9FE00202071EAE7BA
:104E7000618F604F00290AD1A08F002807D1A87840
:104E8000002831D0322000F029FA6087618FA08F8E
:104E9000091AC9B2C01900F04AFA608FA0875348B6
:104EA0007C3000F0DBFEA879002823D00D2000F034
:104EB00015FA3043014601E089E031E00D2000F0B1
:104EC000D3FB4A48903000F091FE49480068002822
:104ED000C1D08668002EBED01222AA56618F002350
:104EE0004448B047B7E70CE0404801213A3000F0B1
:104EF0001EFACBE7002020713C48903000F0AEFE57
:104F0000E3E70020207139487C3000F0A7FE3848E4
:104F100000680028A4D000690028A1D08047F8BD0F
:104F2000192000F0DBF9314E40B2603630700106D6
:104F300005D5C043401C0006800E474201E0000634
:104F4000870E1A2000F0CAF92B49A268002F09DA4F
:104F50008A4203D901110818C01907E00111081885
:104F6000C01907E08A4203D9011108189D3802E0F0
:104F700001110818A4386884132000F0AFF93071CB
:104F8000102000F0ABF901460D2000F06DFB3179E7
:104F9000184800F0CCF9A87D002800D120711348F2
:104FA0007C3000F05BFE124800680028B7D08468AF
:104FB000002CB4D000232222F356AA5E31790D488A
:104FC000A0470EA00EE00821122000F04DFB0020AB
:104FD0002071074800680028A1D0006800289ED0F2
:104FE000804709A001F01AFAF8BD0000CC010020AA
:104FF00000000020CC00002040DD4A1F7278446F82
:105000006E650A0D000000007478446F6E650A0D2D
:105010000000000070B5304C25462379E61F6A7900
:10502000698FA88FF93E2035012B11D0022B28D192
:10503000002A26D10A1A23469B8FE97F304618188A
:105040008A4243DD00F037FBA08FE97F40183BE048
:10505000002A17D0012A14D11F487C3000F0FEFD31
:105060008021122000F000FB002020711B48006806
:10507000002806D0C068002803D0804718A001F09F
:10508000CDF970BD002908D1002806D1A8780028E4
:105090000FD0322000F022F96087618FA08F0A1AAA
:1050A000A97F8A420BDD801900F041F9A08FA97F0A
:1050B000CCE7094801213A3000F039F9EDE7D1B2E7
:1050C000801900F034F904E0A08770BDD1B200F07F
:1050D000F2FA608FF8E70000CC0100200000002009
:1050E000727854696D654F75740A0D0070B52A4D5C
:1050F0002A4C294608462A7940304979C07C012A41
:1051000004D0022A01D1002902D170BD002916D095
:105110000129FAD10128F8D10221122000F0A4FAC5
:1051200020680028F1D040690028EED01C2000F053
:10513000D5F8216880064969800E884770BD164CF5
:105140002034207C0128F9D1607C0028F6D120464B
:10515000703000F083FD01206074112000F0BEF873
:1051600040084042A0741B2000F0B8F806021C2042
:1051700000F0B4F80643300A0102094A711A51439B
:1051800080315043090A401868630C2000F0A6F8EB
:105190004009207670BD0000CC01002000000020F6
:1051A000093D000010B51248407900281FD00128A1
:1051B0001DD1122000F092F80E4CC0070BD0052133
:1051C000122000F051FA2068002810D081690029CF
:1051D0000DD001200AE00421122000F045FA2068D9
:1051E000002804D08169002901D00020884710BD23
:1051F000CC0100200000002005484079002806D19D
:1052000003482030017C002901D10121017470473D
:10521000CC010020F8B52E4D287901282BD002288A
:1052200028D100F08BF8FEF765FA002000F06AF94B
:10523000284E002460002718F05D00F02BF9B81903
:105240008178407800F010FA641CE4B2102CF1D39D
:10525000002000F01FF91E484030007F00F080F968
:10526000002028711C480068002803D040680028EE
:1052700000D08047F8BD6879002816D1144E00246C
:10528000203634747474AC876C870B213E2000F098
:10529000EBF910213F2000F0E7F9B07901280AD09E
:1052A00030462C71703000F0D9FC0B4800680028A3
:1052B000E0D0C068DBE70D2000F010F8402101438A
:1052C0000D2000F0D1F90248903000F08FFCECE79F
:1052D000CC010020AC6500080000002008B50122C8
:1052E000694600F003F86846007808BDF8B5044642
:1052F000012715460E46FF03052000223946000708
:10530000FDF7E6F86006400EFDF710FC002405E00E
:105310000020FDF70BFC3055641CE4B2AC42F7D31F
:105320000520012239460007FDF7D2F8F8BD0A46EC
:1053300010B501460020FFF7D9FF10BD30B585B08C
:1053400014216846FAF747FF0120019003200E4D13
:105350000024039002946A4601212846FDF764F870
:10536000002201212846FDF7B3F80120FBF7B9FB25
:105370006A46012128460194FDF756F80620FBF7FE
:10538000B0FB05B030BD00000008005070B5044609
:105390000920FFF7A3FF0C4D032C08D00020287034
:1053A0000520012202210007FDF792F870BDC10916
:1053B000064802D00122022101E001220421FDF76A
:1053C00087F80120287070BDCC0100200008005033
:1053D000F0B50525002703242D07194E85B00028B8
:1053E00026D014216846FAF7F6FE01946A46022197
:1053F000284602970394FDF717F800220221284659
:10540000FDF766F86A4602213046FDF70DF80022E6
:1054100002213046FDF75CF86A4604213046FDF76C
:1054200003F8002204213046FDF752F805B0F0BD24
:1054300014216846FAF7CFFE01200190D6E700005C
:105440000008005070B505461048114E8560314681
:105450002846FAF74DFE044630466043281A0002FB
:10546000711040183146FAF743FE21024418200219
:10547000010E062000F0F8F82004010E072000F0CD
:10548000F3F8E1B2082000F0EFF870BDCC01002085
:10549000093D000010B504460120FFF71FFF01067B
:1054A000174801D5012100E000214171C9B2A14294
:1054B00024D04471012C0FD000F0B0F80120FFF788
:1054C0000DFF4106490E012000F0CEF800214020DA
:1054D00000F0CAF830210EE000F0A0F80120FFF73C
:1054E000FDFE80210143012000F0BEF80021402094
:1054F00000F0BAF80021412000F0B6F810BD00001D
:10550000CC01002070B5154C050015D0606801680D
:105510000120884760680169002088476068416908
:10552000284688470120FFF7D9FEC108C900294352
:10553000012000F099F870BD0120FFF7CFFEC108EF
:10554000C900012000F090F86068016901208847D7
:10555000606801680020884770BD000000000020DE
:1055600010B504460120FFF795FF0548002C04778D
:1055700001D0342100E01221392000F075F810BD6F
:105580000C02002070B504460920FFF7A7FE06466E
:105590004D20FFF7A3FE0546E0B2FFF721FB7106A1
:1055A000490E084370210843C1092AD0112C02DD9D
:1055B00007210D4302E0ED08ED002D1DE9434907E9
:1055C00003D0022C0CDA02240DE0052C01DA0524AC
:1055D00002E0142C00DD142401090901641F05E018
:1055E000112C00DD112401090901A41E2007000F60
:1055F0000143092000F038F829464D2000F034F826
:1056000070BD0021C9438C4201DA0C4602E00E2C29
:1056100000DD0E2401090901641CE7E710B5074805
:1056200000F01CFB0548143800F018FB0020FFF7C1
:1056300069FF024900207C39087110BD4802002032
:105640000121052310B509031B07012804D00022FE
:105650001846FCF73DFF10BD01221846FCF738FF45
:105660000520FBF73EFA10BD13B5012201A900F099
:1056700001F81CBDF8B50446012715460E46FF0388
:105680000520002239460007FCF722FF2046802132
:105690000843FDF74BFA002404E0305DFDF746FABD
:1056A000641CE4B2AC42F8D305200122394600075D
:1056B000FCF70EFFF8BD0A4610B501460020FFF7C3
:1056C000D9FF10BD10B5FBF713FB10BD10B594B09A
:1056D00014210EA8FAF77FFD38216846FAF77BFD02
:1056E0000220009001210A90039180040C90002474
:1056F0000001019410210D900B9404916846FBF772
:1057000055FD002801D0FAF7EFFE1148816B020425
:10571000114381630F4801680322D2029143C214EE
:10572000891801604168C943C906FBD50F200E9056
:1057300003200F9010941194012112940EA8FBF7EE
:1057400045FC002801D0FAF7CFFE14B010BD0000D0
:10575000001002400070004010480168821511439B
:105760000160C1680E4A1140C16001680D4A1140D4
:105770000160816849084900816001680122920442
:1057800091430160C168FD2212049143C160002170
:1057900001610549C00388607047000000100240A5
:1057A0000C40FF88F6FFF6FE00ED00E0F0B5026861
:1057B0000124A407124D134E134FA04205D0A84256
:1057C00003D0B04201D0B84204D1134670229343B3
:1057D0004A681A43A04205D0A84203D0B04201D083
:1057E000B84204D103231B029A43CB681A430260D8
:1057F0008A68C2620968816201214161F0BD0000CE
:1058000000040040000801400014014010B50123CD
:10581000046A8B409C430462036A8A401343036218
:1058200010BD30B5026A520852000262026A456831
:1058300083697024A3439C080B68A40023430224BB
:10584000A2438C68456014438361496841630462E4
:1058500030BD30B5026A10239A430262036A45687C
:10586000826973242402A2430C6824021443202278
:1058700093438A68456012011A43846149688163D1
:10588000026230BD30B5026AFF2301339A430262DF
:10589000026A4568C3697024A3439C080B68A4008E
:1058A000234301246402A2438C684560240214430C
:1058B000C3614968C163046230BD30B5026A012327
:1058C0001B039A430262036A4568C2697324240277
:1058D000A2430C68240214430122520393438A68B2
:1058E000456012031A43C46149680164026230BD15
:1058F00001460A390B2901D30020704706490918CF
:105900002039CA7E05490E288A8001DD602000E02A
:105910001020C880012070478C670008800000209C
:10592000F8B5234D1C460E460746642B0CD04B2081
:10593000C000844206D11F4828811046FFF7D8FFD7
:10594000012804D00020F8BD19204001F4E71A48CE
:1059500068612889194A44432146E00F40184010E5
:105960008018FAF7C5FB04460020FFF7B3F820467D
:10597000FFF7BEF82F616E810020A8816880192191
:10598000C9010F48FAF727FC28890D494000401843
:10599000801E00F06FF828894004010C0848FFF7CA
:1059A000FBF8FFF7A9F80120FEF7DFFF0120F8BDA3
:1059B00080000020C7020000D55A00080048E80116
:1059C0003806002070B5164CA2885108511A1309E8
:1059D000CD1A144B11000AD00E461E43B6B20680F3
:1059E000801CA94201D90680801C491EF4D1038085
:1059F00061888026714061805F2464022143418078
:105A00000121001D09E00C461C43A4B20480801C47
:105A1000A94201D90480801C491C9142F3D970BD70
:105A20008000002000C5000010B50F4989884A0891
:105A30008A1A0B09D31AC522120200290AD00C4671
:105A40001443A4B20480801C994201D90480801CB4
:105A5000491EF4D1692102804902418003498180B5
:105A60000349C18010BD000080000020808100003B
:105A7000709E000030B5134B99884A088A1A0C09A9
:105A8000141BC522120200290AD00D461543ADB2DF
:105A90000580801EA14201D90580801E491EF4D1D7
:105AA00002800A48084901810949C18082805988D9
:105AB0005F22520211434180D98869225202114368
:105AC000018030BD80000020838100003806002066
:105AD000089E0000074881894A078189520F4905BD
