:020000040800F2
:1000000000000320792F0008B12E0008BF2E000841
:10001000C52E0008CB2E0008D12E000800000000DD
:10002000000000000000000000000000D72E0008C3
:10003000E52E000800000000F32E0008012F000844
:10004000C92F0008C92F0008C92F0008C92F0008B0
:10005000C92F0008C92F0008C92F0008C92F0008A0
:10006000C92F0008C92F0008C92F0008C92F000890
:10007000C92F0008C92F0008C92F0008C92F000880
:10008000C92F0008C92F0008C92F0008C92F000870
:10009000C92F0008C92F0008C92F0008C92F000860
:1000A000C92F0008C92F0008C92F0008C92F000850
:1000B000C92F0008C92F0008C92F0008C92F000840
:1000C000C92F0008C92F0008C92F0008C92F000830
:1000D000C92F0008C92F0008C92F0008C92F000820
:1000E000C92F0008C92F0008C92F0008C92F000810
:1000F000C92F0008C92F0008C92F0008C92F000800
:10010000C92F0008C92F0008C92F0008C92F0008EF
:10011000C92F0008C92F0008C92F0008C92F0008DF
:10012000C92F0008C92F0008C92F0008C92F0008CF
:10013000C92F0008C92F0008C92F0008C92F0008BF
:10014000C92F0008C92F0008C92F0008C92F0008AF
:10015000C92F0008C92F0008C92F0008C92F00089F
:10016000C92F0008C92F0008C92F0008C92F00088F
:10017000C92F0008C92F0008C92F0008000000007F
:10018000C92F0008C92F0008C92F0008C92F00086F
:10019000C92F0008C92F0008C92F0008C92F00085F
:0C01A000C92F0008C92F0008C92F000853
:1001AC0010B5054C237833B9044B13B10448AFF3A5
:1001BC0000800123237010BD0C0000200000000003
:1001CC002430000808B5034B1BB103490348AFF3B7
:1001DC00008008BD00000000100000202430000842
:1001EC0053B94AB9002908BF00281CBF4FF0FF3192
:1001FC004FF0FF3000F07AB9ADF1080C6DE904CE88
:10020C0000F006F8DDF804E0DDE9022304B07047E5
:10021C002DE9F0478C460D460446089E002B51D123
:10022C008A4217466DD9B2FA82FEBEF1000F0BD08E
:10023C00CEF1200C01FA0EF520FA0CFC02FA0EF7A6
:10024C004CEA050C00FA0EF44FEA174A250CBCFBDD
:10025C00FAF81FFA87F90AFB18CC45EA0C4508FB9B
:10026C0009F3AB420AD9ED1908F1FF3280F0238172
:10027C00AB4240F22081A8F102083D44ED1AA4B231
:10028C00B5FBFAF00AFB105544EA054400FB09F9EA
:10029C00A14509D9E41900F1FF3380F00A81A14589
:1002AC0040F2078102383C44A4EB090440EA0840C0
:1002BC000021002E61D024FA0EF400233460736008
:1002CC00BDE8F0878B4207D9002E54D0002186E878
:1002DC0021000846BDE8F087B3FA83F1002940F00D
:1002EC008E80AB4202D3824200F2FA80841A65EB14
:1002FC0003050120AC46002E3FD086E81010BDE867
:10030C00F08712B90127B7FBF2F7B7FA87FEBEF1F7
:10031C00000F34D1EB1B3A0C1FFA87FC0121B3FB05
:10032C00F2F8250C02FB183345EA03450CFB08F3E5
:10033C00AB4207D9ED1908F1FF3002D2AB4200F203
:10034C00D1808046ED1AA3B2B5FBF2F002FB10553A
:10035C0043EA05440CFB00FCA44507D9E41900F161
:10036C00FF3302D2A44500F2B8801846A4EB0C046B
:10037C0040EA08409DE731463046BDE8F087CEF1B3
:10038C00200405FA0EF307FA0EF720FA04F83A0CDB
:10039C0025FA04F448EA0308B4FBF2F14FEA1845D5
:1003AC0002FB11441FFA87FC45EA044501FB0CF3E0
:1003BC00AB4200FA0EF409D9ED1901F1FF3080F0CF
:1003CC008A80AB4240F2878002393D44EB1A1FFA17
:1003DC0088F5B3FBF2F002FB103345EA034500FB52
:1003EC000CF3AB4207D9ED1900F1FF386FD2AB42D9
:1003FC006DD902383D44EB1A40EA01418FE7C1F157
:10040C00200722FA07F88B4005FA01F448EA0303A7
:10041C0020FA07FE4FEA134CFD404EEA040EB5FBE2
:10042C00FCF94FEA1E440CFB19551FFA83F844EAF9
:10043C00054509FB08F4AC4202FA01F200FA01FA94
:10044C0008D9ED1809F1FF3043D2AC4241D9A9F1DA
:10045C0002091D442D1B1FFA8EFEB5FBFCF00CFB94
:10046C0010554EEA054400FB08F8A04507D9E418DE
:10047C0000F1FF3529D2A04527D902381C4440EAA7
:10048C000940A4EB0804A0FB02894C45C6464D4626
:10049C0015D312D056B1BAEB0E0364EB050404FA73
:1004AC0007F7CB401F43CC40376074600021BDE898
:1004BC00F0871846F8E69046E0E6C245EAD2B8EB7B
:1004CC00020E69EB03050138E4E72846D7E74046FE
:1004DC0091E78146BEE7014678E702383C4445E7A0
:1004EC00084608E7A8F102083D442BE7704700BF17
:1004FC0080B500AF0E4A0E4B1B6843F400731360BB
:10050C000B4A0B4B1B6843F480631360084A084B7F
:10051C001B6843F480731360032000F02DF9002056
:10052C0000F008F802F0ACFB0023184680BD00BFB9
:10053C00003C024080B582B000AF7860124B1A6864
:10054C00124B1B7819464FF47A73B3FBF1F3B2FBE1
:10055C00F3F3184600F037F90346002B01D00123C2
:10056C000EE07B680F2B0AD8002279684FF0FF3021
:10057C0000F00DF9064A7B681360002300E00123AC
:10058C0018460837BD4680BD080000200400002036
:10059C000000002080B400AF064B1B781A46064BB7
:1005AC001B681344044A136000BFBD465DF8047B0E
:1005BC00704700BF040000202800002080B400AF6A
:1005CC00034B1B681846BD465DF8047B704700BFA3
:1005DC002800002080B584B000AF7860FFF7EEFFF4
:1005EC00B8607B68FB60FB68B3F1FF3F05D0094B3B
:1005FC001B781A46FB681344FB6000BFFFF7DEFF55
:10060C000246BB68D21AFB689A42F7D300BF103778
:10061C00BD4680BD0400002080B485B000AF78607A
:10062C007B6803F00703FB600C4BDB68BB60BA68AC
:10063C004FF6FF031340BB60FB681A02BB68134301
:10064C0043F0BF6343F40033BB60044ABB68D36020
:10065C0000BF1437BD465DF8047B704700ED00E029
:10066C0080B400AF044BDB681B0A03F00703184689
:10067C00BD465DF8047B704700ED00E080B483B0AC
:10068C0000AF03463960FB7197F90730002B0ADB8A
:10069C000D4997F907303A68D2B21201D2B20B4425
:1006AC0083F800230AE00949FB7903F00F03043BAC
:1006BC003A68D2B21201D2B20B441A7600BF0C3790
:1006CC00BD465DF8047B704700E100E000ED00E002
:1006DC0080B489B000AFF860B9607A60FB6803F051
:1006EC000703FB61FB69C3F10703042B28BF042339
:1006FC00BB61FB690433062B02D9FB69033B00E0A9
:10070C0000237B610122BB6902FA03F35A1EBB680A
:10071C001A407B699A4001217B6901FA03F3591E47
:10072C007B680B40134318462437BD465DF8047BA9
:10073C007047000080B582B000AF78607B68013BE9
:10074C00B3F1807F01D301230FE00A4A7B68013BA0
:10075C0053600F214FF0FF30FFF790FF054B002245
:10076C009A60044B07221A60002318460837BD46CE
:10077C0080BD00BF10E000E080B582B000AF7860B3
:10078C007868FFF749FF00BF0837BD4680BD80B5CC
:10079C0086B000AF0346B9607A60FB7300237B61BF
:1007AC00FFF75EFF78617A68B9687869FFF790FFA8
:1007BC00024697F90F3011461846FFF75FFF00BF4E
:1007CC001837BD4680BD80B582B000AF78607868C0
:1007DC00FFF7B0FF034618460837BD4680BD000042
:1007EC0080B489B000AF7860396000237B6100234E
:1007FC003B610023BB610023FB6177E10122FB69B4
:10080C0002FA03F37B613B681A687B6913403B6116
:10081C003A697B699A4240F066813B685B68022BBF
:10082C0003D03B685B68122B23D1FB69DA087B6829
:10083C00083253F82230BB61FB6903F007039B00BD
:10084C000F2202FA03F3DB43BA691340BB613B6826
:10085C001A69FB6903F007039B0002FA03F3BA69F8
:10086C001343BB61FB69DA087B680832B96943F84A
:10087C0022107B681B68BB61FB695B00032202FAD8
:10088C0003F3DB43BA691340BB613B685B6803F05D
:10089C000302FB695B0002FA03F3BA691343BB6101
:1008AC007B68BA691A603B685B68012B0BD03B68AC
:1008BC005B68022B07D03B685B68112B03D03B684D
:1008CC005B68122B30D17B689B68BB61FB695B005A
:1008DC00032202FA03F3DB43BA691340BB613B68A2
:1008EC00DA68FB695B0002FA03F3BA691343BB6174
:1008FC007B68BA699A607B685B68BB610122FB69A3
:10090C0002FA03F3DB43BA691340BB613B685B68D3
:10091C001B0903F00102FB6902FA03F3BA691343E2
:10092C00BB617B68BA695A607B68DB68BB61FB6939
:10093C005B00032202FA03F3DB43BA691340BB6189
:10094C003B689A68FB695B0002FA03F3BA691343CC
:10095C00BB617B68BA69DA603B685B6803F0805303
:10096C00002B00F0C0800023FB60654A644B5B6C7D
:10097C0043F480435364624B5B6C03F48043FB6031
:10098C00FB68604AFB699B08023352F82330BB6159
:10099C00FB6903F003039B000F2202FA03F3DB4312
:1009AC00BA691340BB617B68574A934237D07B6866
:1009BC00564A934231D07B68554A93422BD07B6880
:1009CC00544A934225D07B68534A93421FD07B688C
:1009DC00524A934219D07B68514A934213D07B6898
:1009EC00504A93420DD07B684F4A934207D07B68A4
:1009FC004E4A934201D1092312E00A2310E0082346
:100A0C000EE007230CE006230AE0052308E004238C
:100A1C0006E0032304E0022302E0012300E00023AC
:100A2C00FA6902F0030292009340BA691343BB6166
:100A3C003449FB699B080233BA6941F823203C4BCB
:100A4C001B68BB613B69DB43BA691340BB613B6804
:100A5C005B6803F48033002B03D0BA693B69134302
:100A6C00BB61334ABB691360314B5B68BB613B694B
:100A7C00DB43BA691340BB613B685B6803F400332A
:100A8C00002B03D0BA693B691343BB61284ABB698D
:100A9C005360274B9B68BB613B69DB43BA691340CE
:100AAC00BB613B685B6803F48013002B03D0BA690D
:100ABC003B691343BB611E4ABB6993601C4BDB68EB
:100ACC00BB613B69DB43BA691340BB613B685B6844
:100ADC0003F40013002B03D0BA693B691343BB61C9
:100AEC00134ABB69D360FB690133FB61FB690F2BB4
:100AFC007FF684AE00BF2437BD465DF8047B70479B
:100B0C00003802400038014000000240000402405E
:100B1C0000080240000C0240001002400014024089
:100B2C0000180240001C0240002002400024024039
:100B3C00003C014080B485B000AF78600B467B80F0
:100B4C007B681A697B881340002B02D00123FB734E
:100B5C0001E00023FB73FB7B18461437BD465DF8A0
:100B6C00047B704780B483B000AF78600B467B8009
:100B7C0013467B707B78002B03D07A887B689A6154
:100B8C0003E07B881A047B689A6100BF0C37BD4672
:100B9C005DF8047B7047F0B58FB00AAF78607B6866
:100BAC00002B01D1012303E17B6893F8BD33DBB249
:100BBC00002B06D17B68002283F8BC23786802F0F6
:100BCC0017F97B68032283F8BD237B681B681846E2
:100BDC0001F0F7F97B681B683B607E686D4606F197
:100BEC0010040FCC0FC50FCC0FC594E8030085E89B
:100BFC000300331D0ECB386801F082F90346002B3D
:100C0C0005D07B68022283F8BD230123D0E07B68EA
:100C1C001B680021184601F0E5F90023FB734AE03C
:100C2C00FA7B79681346DB009B1A9B000B443D331F
:100C3C0001221A70FA7B79681346DB009B1A9B0021
:100C4C000B443C33FA7B1A70FA7BFB7B98B27968C5
:100C5C001346DB009B1A9B000B44423302461A805E
:100C6C00FA7B79681346DB009B1A9B000B443F33DD
:100C7C0000221A70FA7B79681346DB009B1A9B00E2
:100C8C000B44443300221A60FA7B79681346DB006C
:100C9C009B1A9B000B44483300221A60FA7B79683C
:100CAC001346DB009B1A9B000B44503300221A6046
:100CBC00FB7B0133FB73FA7B7B685B689A42AFD397
:100CCC000023FB7344E0FA7B79681346DB009B1A24
:100CDC009B000B4403F2FD1300221A70FA7B796817
:100CEC001346DB009B1A9B000B4403F5FE73FA7B47
:100CFC001A70FA7B79681346DB009B1A9B000B4435
:100D0C0003F2FF1300221A70FA7B79681346DB009A
:100D1C009B1A9B000B4403F5017300221A60FA7BAB
:100D2C0079681346DB009B1A9B000B4403F5027396
:100D3C0000221A60FA7B79681346DB009B1A9B0031
:100D4C000B4403F5047300221A60FB7B0133FB7325
:100D5C00FA7B7B685B689A42B5D37B681B683B6007
:100D6C007E686D4606F110040FCC0FC50FCC0FC575
:100D7C0094E8030085E80300331D0ECB386801F0BE
:100D8C005BF90346002B05D07B68022283F8BD2358
:100D9C0001230DE07B68002283F838207B68012258
:100DAC0083F8BD237B681B68184601F019FB0023F0
:100DBC0018461437BD46F0BD80B586B000AF7860DC
:100DCC007B68002B01D101232DE27B681B6803F0AB
:100DDC000103002B75D0A34B9B6803F00C03042B71
:100DEC000CD0A04B9B6803F00C03082B12D19D4B2D
:100DFC005B6803F48003B3F5800F0BD1994B1B6830
:100E0C0003F40033002B5BD07B685B68002B57D15D
:100E1C00012308E27B685B68B3F5803F06D1914AF9
:100E2C00904B1B6843F4803313601DE07B685B6858
:100E3C00B3F5A02F0CD18B4A8A4B1B6843F480234B
:100E4C001360884A874B1B6843F4803313600BE0B4
:100E5C00844A844B1B6823F480331360814A814B92
:100E6C001B6823F4802313607B685B68002B13D012
:100E7C00FFF7A4FB386108E0FFF7A0FB02463B69D3
:100E8C00D31A642B01D90323CDE1764B1B6803F4F1
:100E9C000033002BF0D014E0FFF790FB386108E032
:100EAC00FFF78CFB02463B69D31A642B01D9032351
:100EBC00B9E16C4B1B6803F40033002BF0D100E05C
:100ECC0000BF7B681B6803F00203002B63D0654BEB
:100EDC009B6803F00C03002B0BD0624B9B6803F058
:100EEC000C03082B1CD15F4B5B6803F48003002BB5
:100EFC0016D15C4B1B6803F00203002B05D07B68FA
:100F0C00DB68012B01D001238DE15649554B1B6841
:100F1C0023F0F8027B681B69DB0013430B603AE09B
:100F2C007B68DB68002B20D04F4B01221A60FFF747
:100F3C0045FB386108E0FFF741FB02463B69D31AD9
:100F4C00022B01D903236EE1464B1B6803F002030D
:100F5C00002BF0D04349434B1B6823F0F8027B680D
:100F6C001B69DB0013430B6015E03F4B00221A603A
:100F7C00FFF724FB386108E0FFF720FB02463B69D2
:100F8C00D31A022B01D903234DE1364B1B6803F016
:100F9C000203002BF0D17B681B6803F00803002BC5
:100FAC0030D07B685B69002B16D0304B01221A6065
:100FBC00FFF704FB386108E0FFF700FB02463B69D2
:100FCC00D31A022B01D903232DE1264B5B6F03F0BF
:100FDC000203002BF0D015E0244B00221A60FFF71F
:100FEC00EDFA386108E0FFF7E9FA02463B69D31ADB
:100FFC00022B01D9032316E11A4B5B6F03F002039A
:10100C00002BF0D17B681B6803F00403002B00F06D
:10101C00A0800023FB75134B1B6C03F08053002B3B
:10102C000FD10023FB600F4A0E4B1B6C43F0805317
:10103C0013640C4B1B6C03F08053FB60FB680123A7
:10104C00FB750B4B1B6803F48073002B21D1084AF2
:10105C00074B1B6843F480731360FFF7AFFA3861DA
:10106C0011E000BF0038024000004742800E4742AA
:10107C0000700040FFF7A2FA02463B69D31A022B1C
:10108C0001D90323CFE06A4B1B6803F48073002B58
:10109C00F0D07B689B68012B06D1664A654B1B6FB1
:1010AC0043F0010313671CE07B689B68052B0CD194
:1010BC00604A604B1B6F43F0040313675D4A5D4B42
:1010CC001B6F43F0010313670BE05A4A594B1B6F1C
:1010DC0023F001031367574A564B1B6F23F004038D
:1010EC0013677B689B68002B15D0FFF767FA386194
:1010FC000AE0FFF763FA02463B69D31A41F28832E1
:10110C00934201D903238EE04A4B1B6F03F0020379
:10111C00002BEED014E0FFF751FA38610AE0FFF72C
:10112C004DFA02463B69D31A41F28832934201D9F7
:10113C00032378E03F4B1B6F03F00203002BEED12F
:10114C00FB7D012B05D13B4A3A4B1B6C23F08053A2
:10115C0013647B689B69002B64D0364B9B6803F04F
:10116C000C03082B5CD07B689B69022B41D1324B62
:10117C0000221A60FFF722FA386108E0FFF71EFA26
:10118C0002463B69D31A022B01D903234BE0294BAE
:10119C001B6803F00073002BF0D126497B68DA69D9
:1011AC007B681B6A1A437B685B6A9B011A437B68EA
:1011BC009B6A5B08013B1B041A437B68DB6A1B06BA
:1011CC0013434B601C4B01221A60FFF7F7F938618F
:1011DC0008E0FFF7F3F902463B69D31A022B01D959
:1011EC00032320E0134B1B6803F00073002BF0D09B
:1011FC0018E0114B00221A60FFF7E0F9386108E0A3
:10120C00FFF7DCF902463B69D31A022B01D9032301
:10121C0009E0084B1B6803F00073002BF0D101E0D0
:10122C00012300E0002318461837BD4680BD00BFDF
:10123C0000700040003802406000474280B584B026
:10124C0000AF786039607B68002B01D10123CAE0C4
:10125C00674B1B6803F00F023B689A420CD2644B3D
:10126C003A68D2B21A70624B1B6803F00F023B68EB
:10127C009A4201D00123B6E07B681B6803F002039D
:10128C00002B20D07B681B6803F00403002B05D0D7
:10129C00584A584B9B6843F4E05393607B681B6837
:1012AC0003F00803002B05D0524A524B9B6843F4C1
:1012BC00604393604F494F4B9B6823F0F0027B686F
:1012CC009B6813438B607B681B6803F00103002B46
:1012DC0044D07B685B68012B07D1464B1B6803F439
:1012EC000033002B19D101237DE07B685B68022B56
:1012FC0003D07B685B68032B07D13E4B1B6803F064
:10130C000073002B09D101236DE03A4B1B6803F0ED
:10131C000203002B01D1012365E03649354B9B6854
:10132C0023F003027B685B6813438B60FFF746F97D
:10133C00F8600AE0FFF742F90246FB68D31A41F263
:10134C008832934201D903234DE02A4B9B6803F06A
:10135C000C027B685B689B009A42EBD1244B1B68A8
:10136C0003F00F023B689A420CD9214B3A68D2B277
:10137C001A701F4B1B6803F00F023B689A4201D096
:10138C00012330E07B681B6803F00403002B08D0BA
:10139C001849184B9B6823F4E0527B68DB681343B5
:1013AC008B607B681B6803F00803002B09D0114984
:1013BC00104B9B6823F460427B681B69DB00134372
:1013CC008B6000F01DF801460A4B9B681B0903F06B
:1013DC000F03094AD35C21FA03F3084A1360002077
:1013EC00FFF7A8F8002318461037BD4680BD00BF94
:1013FC00003C0240003802404C300008080000203D
:10140C002DE9F04F8FB000AF0023FB6200237B630C
:10141C000023BB6200233B63624B9B6803F00C030D
:10142C00042B07D0082B08D0002B40F0B2805E4B69
:10143C003B63B1E05D4B3B63AEE05A4B5B6803F042
:10144C003F03FB62574B5B6803F48003002B4ED0C9
:10145C00544B5B689B094FF0000440F2FF114FF0B6
:10146C00000201EA030102EA04020B461446600181
:10147C007862786A40EAD36078625B013B62D7E9B4
:10148C0008345B1A64EB02044FEA841949EA936945
:10149C004FEA8318B8EB030869EB04094FEAC90358
:1014AC00FB61FB6943EA5873FB614FEAC803BB61FC
:1014BC00D7E9068918EB010849EB02094FEA4923E1
:1014CC007B617B6943EAD8537B614FEA48233B61DC
:1014DC00D7E9048940464946FB6A4FF000041A4696
:1014EC002346FEF77DFE03460C467B6343E02D4B03
:1014FC005B689B094FF0000440F2FF114FF00002B3
:10150C0001EA030102EA04020B4614466001F8608A
:10151C00F86840EAD360F8605B01BB60D7E902343D
:10152C005B1A64EB0204A60146EA93669D01ED1A70
:10153C0066EB0406F3007B607B6843EA55737B60C3
:10154C00EB003B6097E860006D1846EB02064FEA33
:10155C00862B4BEA955B4FEA852A55465E46284614
:10156C003146FB6A4FF000041A462346FEF738FE5C
:10157C0003460C467B630B4B5B681B0C03F00303AD
:10158C0001335B00BB627A6BBB6AB2FBF3F33B6368
:10159C0002E0054B3B6300BF3B6B18463C37BD4636
:1015AC00BDE8F08F003802400024F40000127A00ED
:1015BC0080B400AF034B1B681846BD465DF8047B36
:1015CC00704700BF0800002080B500AFFFF7F0FFA8
:1015DC000146054B9B689B0A03F00703034AD35C47
:1015EC0021FA03F3184680BD003802405C30000835
:1015FC0080B500AFFFF7DCFF0146054B9B685B0B2A
:10160C0003F00703034AD35C21FA03F3184680BDA9
:10161C00003802405C30000880B582B000AF7860C2
:10162C007B68002B01D1012355E07B6800229A6274
:10163C007B6893F85130DBB2002B06D17B6800221B
:10164C0083F85020786801F043FB7B68022283F812
:10165C0051207B681B687A681268126822F040027D
:10166C001A607B681B687A6851687A6892681143C3
:10167C007A68D26811437A68126911437A685269A0
:10168C0011437A68926902F4007211437A68D26944
:10169C0011437A68126A11437A68926A0A431A6093
:1016AC007B681B687A689269120C02F004017A68F4
:1016BC00526A0A435A607B681B687A681268D2695E
:1016CC0022F40062DA617B6800225A657B68012291
:1016DC0083F85120002318460837BD4680BD80B5DD
:1016EC0088B000AFF860B9603B601346FB80002304
:1016FC00FB77FB6893F85030012B01D102231CE1DE
:10170C00FB68012283F85020FEF758FFB861FB8874
:10171C00FB82FB6893F85130DBB2012B02D0022321
:10172C00FB7701E1BB68002B02D0FB88002B02D1B8
:10173C000123FB77F8E0FB68032283F85120FB6858
:10174C0000225A65FB68BA681A63FB68FA889A86A5
:10175C00FB68FA88DA86FB6800229A63FB68002231
:10176C009A87FB680022DA87FB6800225A64FB68C0
:10177C0000221A64FB689B68B3F5004F07D1FB6825
:10178C001B68FA681268126842F480421A60FB689F
:10179C001B681B6803F04003402B07D0FB681B68D9
:1017AC00FA681268126842F040021A60FB68DB6843
:1017BC00B3F5006F4BD1FB685B68002B02D0FB8A42
:1017CC00012B3ED1FB681B68FA68126B1288DA6039
:1017DC00FB681B6B9A1CFB681A63FB68DB8E9BB265
:1017EC00013B9AB2FB68DA862BE0FB681B689B68AE
:1017FC0003F00203022B12D1FB681B68FA68126B10
:10180C001288DA60FB681B6B9A1CFB681A63FB6816
:10181C00DB8E9BB2013B9AB2FB68DA8611E0FEF7D5
:10182C00CDFE0246BB69D21A3B689A4203D33B6891
:10183C00B3F1FF3F02D13B68002B02D10323FB77AE
:10184C0072E0FB68DB8E9BB2002BCED14CE0FB68C8
:10185C005B68002B02D0FB8A012B40D1FB681B6814
:10186C000C33FA68126B12781A70FB681B6B5A1CDB
:10187C00FB681A63FB68DB8E9BB2013B9AB2FB6878
:10188C00DA862CE0FB681B689B6803F00203022BD2
:10189C0013D1FB681B680C33FA68126B12781A7040
:1018AC00FB681B6B5A1CFB681A63FB68DB8E9BB2D4
:1018BC00013B9AB2FB68DA8611E0FEF77FFE024626
:1018CC00BB69D21A3B689A4203D33B68B3F1FF3F22
:1018DC0002D13B68002B02D10323FB7724E0FB6889
:1018EC00DB8E9BB2002BCDD1BA693968F86800F059
:1018FC0092F80346002B02D0FB6820225A65FB6845
:10190C009B68002B0AD100233B61FB681B68DB68DA
:10191C003B61FB681B689B683B613B69FB685B6DCB
:10192C00002B01D00123FB77FB68012283F85120A7
:10193C00FB68002283F85020FB7F18462037BD46F9
:10194C0080BD80B584B000AFF860B9603B601346D1
:10195C00FB714CE03B68B3F1FF3F48D0FEF72EFE25
:10196C000246BB69D21A3B689A4202D23B68002BF2
:10197C003DD1FB681B68FA681268526822F0E002DD
:10198C005A60FB685B68B3F5827F11D1FB689B687A
:10199C00B3F5004F04D0FB689B68B3F5806F07D19B
:1019AC00FB681B68FA681268126822F040021A6021
:1019BC00FB689B6AB3F5005F0FD1FB681B68FA6884
:1019CC001268126822F400521A60FB681B68FA68ED
:1019DC001268126842F400521A60FB68012283F804
:1019EC005120FB68002283F8502003230FE0FB6892
:1019FC001B689A68BB681A40BB689A420CBF0123EB
:101A0C000023DBB21A46FB799A42A3D10023184675
:101A1C001037BD4680BD80B586B002AFF860B960A6
:101A2C007A607B680093BB6800228021F868FFF71E
:101A3C0088FF0346002B07D0FB685B6D43F0200248
:101A4C00FB685A65032300E0002318461037BD4697
:101A5C0080BD80B582B000AF78607B68002B01D16F
:101A6C0001233FE07B6893F83930DBB2002B06D1C1
:101A7C007B68002283F83820786801F071F97B6864
:101A8C00242283F839207B681B687A681268D26834
:101A9C0022F40052DA60786800F028F87B681B6842
:101AAC007A681268126922F490421A617B681B688A
:101ABC007A681268526922F02A025A617B681B68A4
:101ACC007A681268D26842F40052DA607B680022AD
:101ADC00DA637B68202283F839207B68202283F824
:101AEC003A20002318460837BD4680BDF0B585B0B6
:101AFC0000AF78607B681B687A681268126922F400
:101B0C0040517A68D2680A431A617B689A687B688C
:101B1C001B691A437B685B691A437B68DB69134357
:101B2C00FB607B681A687B681B68DB6823F41643D0
:101B3C0023F00C03F9680B43D3607B681B687A684D
:101B4C001268526922F440717A6892690A435A61A8
:101B5C007B68DB69B3F5004F40F0E4807B681B6861
:101B6C00AB4A934204D07B681B68AA4A93426CD15F
:101B7C007B681C68FFF73CFD024613469B00134430
:101B8C009A001A447B685B685B00B2FBF3F3A24AD1
:101B9C00A2FB03235B091D01FFF72AFD0246134636
:101BAC009B0013449A001A447B685B685B00B2FB91
:101BBC00F3F6FFF71DFD024613469B0013449A00F3
:101BCC001A447B685B685B00B2FBF3F3924AA2FB9E
:101BDC0003235B09642202FB03F3F31ADB003233A9
:101BEC008D4AA2FB03235B095B0003F4F8731D44CD
:101BFC00FFF7FEFC024613469B0013449A001A445E
:101C0C007B685B685B00B2FBF3F6FFF7F1FC024606
:101C1C0013469B0013449A001A447B685B685B0074
:101C2C00B2FBF3F37C4AA2FB03235B09642202FBA5
:101C3C0003F3F31ADB003233774AA2FB03235B096D
:101C4C0003F007032B44A36054E17B681C68FFF787
:101C5C00BBFC024613469B0013449A001A447B6853
:101C6C005B685B00B2FBF3F36B4AA2FB03235B09DB
:101C7C001D01FFF7A9FC024613469B0013449A0072
:101C8C001A447B685B685B00B2FBF3F6FFF79CFCC5
:101C9C00024613469B0013449A001A447B685B6807
:101CAC005B00B2FBF3F35C4AA2FB03235B096422E7
:101CBC0002FB03F3F31ADB003233574AA2FB032374
:101CCC005B095B0003F4F8731D44FFF77DFC0246CF
:101CDC0013469B0013449A001A447B685B685B00B4
:101CEC00B2FBF3F6FFF770FC024613469B0013445D
:101CFC009A001A447B685B685B00B2FBF3F3464ABC
:101D0C00A2FB03235B09642202FB03F3F31ADB003F
:101D1C003233414AA2FB03235B0903F007032B4434
:101D2C00A360E7E07B681B68394A934204D07B6868
:101D3C001B68384A934271D17B681C68FFF758FCCA
:101D4C00024613469B0013449A001A447B685B6856
:101D5C009B00B2FBF3F3304AA2FB03235B091D018A
:101D6C00FFF746FC024613469B0013449A001A44A4
:101D7C007B685B689B00B2FBF3F6FFF739FC02460D
:101D8C0013469B0013449A001A447B685B689B00C3
:101D9C00B2FBF3F3204AA2FB03235B09642202FB90
:101DAC0003F3F31A1B0132331B4AA2FB03235B0917
:101DBC0003F0F0031D44FFF71BFC024613469B0087
:101DCC0013449A001A447B685B689B00B2FBF3F6E1
:101DDC00FFF70EFC024613469B0013449A001A446C
:101DEC007B685B689B00B2FBF3F30B4AA2FB0323FB
:101DFC005B09642202FB03F3F31A1B013233064A1C
:101E0C00A2FB03235B0903F00F032B44A36071E0D7
:101E1C0000100140001401401F85EB517B681C68C9
:101E2C00FFF7D2FB024613469B0013449A001A4458
:101E3C007B685B689B00B2FBF3F3304AA2FB032385
:101E4C005B091D01FFF7C0FB024613469B001344C0
:101E5C009A001A447B685B689B00B2FBF3F6FFF7B1
:101E6C00B3FB024613469B0013449A001A447B684A
:101E7C005B689B00B2FBF3F3204AA2FB03235B09D4
:101E8C00642202FB03F3F31A1B0132331B4AA2FB3D
:101E9C0003235B0903F0F0031D44FFF795FB024697
:101EAC0013469B0013449A001A447B685B689B00A2
:101EBC00B2FBF3F6FFF788FB024613469B00134474
:101ECC009A001A447B685B689B00B2FBF3F30B4AE5
:101EDC00A2FB03235B09642202FB03F3F31A1B012D
:101EEC003233064AA2FB03235B0903F00F032B4496
:101EFC00A360FFE700BF1437BD46F0BD1F85EB5153
:101F0C0084B080B584B000AF786007F11C0080E825
:101F1C000E003B6B012B22D17B689B6B23F4803230
:101F2C007B689A637B68DB6823F4840323F04003AB
:101F3C007A68D3607B68DB6823F440127B68DA60D4
:101F4C00FB6C012B05D17B68DB6843F480127B684A
:101F5C00DA60786800F05EFA0346FB731AE07B687F
:101F6C00DB6843F040027B68DA60786800F052FA74
:101F7C000346FB733B6C002B06D17B689B6B43F4D5
:101F8C0080327B689A6305E07B689B6B23F480321C
:101F9C007B689A63BB6A012B0BD17B689B6843F00F
:101FAC0006027B689A607B689B6843F020027B6822
:101FBC009A60FB7B18461037BD46BDE8804004B0E4
:101FCC00704780B483B000AF78607B689B6823F067
:101FDC0001027B689A60002318460C37BD465DF8F9
:101FEC00047B704780B582B000AF78600B46FB7005
:101FFC007B68DB6823F0C0427B68DA60FB78012BDE
:10200C0006D17B68DB6843F000527B68DA600BE03A
:10201C00FB78002B06D17B68DB6843F080427B6841
:10202C00DA6001E0012303E03220FEF7D3FA00234B
:10203C0018460837BD4680BD84B080B586B000AF69
:10204C00786007F1240080E80E000023FB757B68A4
:10205C00FB6000233B6109E07A683B6940339B00DD
:10206C00134400225A603B6901333B613B690E2BE0
:10207C00F2D9FB6C002B12D17B689B6B43F40012E2
:10208C007B689A637B689B6B23F400227B689A6362
:10209C007B689B6B23F480227B689A630BE07B68E4
:1020AC001B6823F400127B681A607B689B6B43F4FB
:1020BC0000227B689A63FB6803F560631A46002371
:1020CC001360FB6803F500631A46FB6803F50063B5
:1020DC001B681360BB6B012B0CD1FB6A002B04D16A
:1020EC000021786800F062F908E00121786800F0BE
:1020FC005DF903E00321786800F058F91021786845
:10210C0000F00CF90346002B01D00123FB75786815
:10211C0000F02AF90346002B01D00123FB75FB6864
:10212C0003F500631A4600231361FB6803F5006393
:10213C001A4600235361FB6803F500631A4600231B
:10214C00D36100233B6143E03B695A01FB681344B4
:10215C0003F510631B6803F00043B3F1004F18D173
:10216C003B69002B0AD13B695A01FB68134403F508
:10217C0010631A464FF00063136013E03B695A0179
:10218C00FB68134403F510631A464FF09043136039
:10219C0008E03B695A01FB68134403F510631A46C7
:1021AC00002313603B695A01FB68134403F5106369
:1021BC001A46002313613B695A01FB68134403F56B
:1021CC0010631A464FF67F3393603B6901333B61D2
:1021DC007A6A3B699A42B7D800233B6143E03B697A
:1021EC005A01FB68134403F530631B6803F000438A
:1021FC00B3F1004F18D13B69002B0AD13B695A014E
:10220C00FB68134403F530631A464FF00063136008
:10221C0013E03B695A01FB68134403F530631A461B
:10222C004FF09043136008E03B695A01FB6813447C
:10223C0003F530631A46002313603B695A01FB68AF
:10224C00134403F530631A46002313613B695A01AA
:10225C00FB68134403F530631A464FF67F339360E3
:10226C003B6901333B617A6A3B699A42B7D8FB6898
:10227C0003F500631A46FB6803F500631B6923F43E
:10228C00807313613B6B012B12D1FB6803F5006368
:10229C001A46204B1363FB6803F500631A46FB6870
:1022AC0003F500631B6B43F4803343F003031363A8
:1022BC007B6800229A617B686FF080425A613B6BAD
:1022CC00002B05D17B689B6943F010027B689A61F7
:1022DC007B689A69104B13437A689361FB6B002BF4
:1022EC0005D07B689B6943F008027B689A61FB6CA4
:1022FC00012B07D17B689B6943F0804343F00403B7
:10230C007A689361FB7D18461837BD46BDE880405E
:10231C0004B070470001800000383C8080B485B068
:10232C0000AF786039600023FB603B689B0143F091
:10233C0020027B681A61FB680133FB60FB68094A69
:10234C00934201D9032306E07B681B6903F0200349
:10235C00202BF0D0002318461437BD465DF8047BC3
:10236C00704700BF400D030080B485B000AF7860AB
:10237C000023FB607B6810221A61FB680133FB6051
:10238C00FB68094A934201D9032306E07B681B6969
:10239C0003F01003102BF0D0002318461437BD4661
:1023AC005DF8047B704700BF400D030080B485B01E
:1023BC0000AF78600B46FB707B68FB60FB6803F535
:1023CC0000631946FB6803F500631A68FB78134336
:1023DC000B60002318461437BD465DF8047B70472C
:1023EC0080B584B000AF78607B68FB60FB6803F558
:1023FC0000631A46FB6803F500635B6843F0020355
:10240C0053600320FEF7E6F8002318461037BD464C
:10241C0080BD000080B485B000AF78600023FB6005
:10242C00FB680133FB60FB68134A934201D9032319
:10243C001BE07B681B69002BF2DA0023FB607B68D6
:10244C001B6943F001027B681A61FB680133FB6076
:10245C00FB68094A934201D9032306E07B681B6998
:10246C0003F00103012BF0D0002318461437BD46AE
:10247C005DF8047B704700BF400D030080B500AFD2
:10248C00012208210248FEF76DFB00BF80BD00BF92
:10249C000008024080B500AF002208210248FEF778
:1024AC0061FB00BF80BD00BF000802402DE9F04772
:1024BC0088B000AF396011461A460346FB710B46D3
:1024CC00BB7113467B716B469A46BB7901335E0038
:1024DC00731E3B6133461A464FF000034FEAC309A3
:1024EC0049EA52794FEAC20833461A464FF00003C4
:1024FC00DD0045EA5275D40033460733DB08DB00B8
:10250C00ADEB030D6B460033FB600023FB6107E072
:10251C00FA68FB69134400221A70FB690133FB61F2
:10252C003246FB699A42F3D8BB79032B01D90023BD
:10253C0036E07B79C3F10203FB72FB7AFA68F97916
:10254C00D154FB7A0233BB610CE03B681978FA6812
:10255C00BB6913440A461A703B6801333B60BB6984
:10256C000233BB61BB795B005A1CBB699A42ECDA43
:10257C0000237B610EE0FFF78DFFFA687B69D118B1
:10258C00642302220948FFF7AAF8FFF777FF7B695B
:10259C0002337B6133465A087B699A42EBD20123A2
:1025AC00D54618462037BD46BDE8F0877404002098
:1025BC0080B58CB000AF78600B46FB701346BB70D7
:1025CC00002387F82F300023BB6208E007F11002CC
:1025DC00BB6A134400221A70BB6A0133BB62BB6A2C
:1025EC00072BF3D9BB78C3F10203FB7602237B6282
:1025FC000DE07B68D9B207F10C027B6A13440A46E2
:10260C001A707B681B0A7B607B6A013B7B627B6A6E
:10261C00002BEEDAFB7EFA7842F05002D2B207F1D0
:10262C0030010B4403F8202CFB7E02333B6214E098
:10263C0097F82F3007F13002134413F8241C07F1DC
:10264C0010023B6A13440A461A7097F82F30013374
:10265C0087F82F303B6A02333B623B6A092BE7DD7C
:10266C000023FB610FE0FFF715FF07F11002FB6978
:10267C00D118642302220748FFF731F8FFF7FEFE5A
:10268C00FB690233FB61FB69042BECD900BF3037CB
:10269C00BD4680BD7404002080B582B000AF4FF4FD
:1026AC0080610548FEF746FA0346FB80FB88184616
:1026BC000837BD4680BD00BF0014024080B588B00D
:1026CC0000AF404B1B883B8300233B7500237B757D
:1026DC003D4B1B883B8200233B7350237B733B4B4E
:1026EC001B883B813A4A3B1D126811461980023304
:1026FC00120C1A700223FB70FDF7FAFE00F06EF854
:10270C0000F064F900F0D4F800F008F900F030F9AA
:10271C00012208212F48FEF725FA00224FF48041B0
:10272C002D48FEF71FFA0A20FDF754FF01224FF443
:10273C0080412948FEF716FA0A20FDF74BFFF91CD9
:10274C00022301221620FFF7B1FE012301220021F2
:10275C001620FFF7ABFE391D012303220720FFF7DC
:10276C00A5FE391D022303220720FFF79FFE20211F
:10277C001948FEF7DFF90346FB83FFF78DFF03468D
:10278C00BB830122012141F28830FFF711FF0222A5
:10279C0001214FF47A70FFF70BFF41F28830FDF7FF
:1027AC0019FF012200214FF4FA60FFF701FF02220A
:1027BC00002141F28830FFF7FBFE41F28830FDF733
:1027CC0009FFD4E73C3000084030000844300008D2
:1027DC0048300008000802400014024080B594B054
:1027EC0000AF07F1200330220021184600F00CFC4A
:1027FC0007F10C0300221A605A609A60DA601A61C1
:10280C000023BB60284A284B1B6C43F08053136495
:10281C00254B1B6C03F08053BB60BB6800237B60B3
:10282C00224A224B1B6843F4404313601F4B1B6826
:10283C0003F440437B607B6801233B624FF4A0238D
:10284C007B620223BB634FF48003FB6304233B6472
:10285C00A8237B640223BB640723FB6407F12003DA
:10286C001846FEF7A9FA0346002B01D000F000FA37
:10287C000F23FB6002233B6100237B614FF4A053C9
:10288C00BB614FF48053FB6107F10C030521184623
:10289C00FEF7D4FC0346002B01D000F0E9F900BF91
:1028AC005037BD4680BD00BF00380240007000406C
:1028BC0080B500AF174B184A1A60164B4FF4827252
:1028CC005A60144B00229A60124B0022DA60114BB2
:1028DC0002221A610F4B01225A610E4B4FF4007207
:1028EC009A610C4B2022DA610A4B00221A62094BC6
:1028FC0000225A62074B00229A62064B0A22DA62C5
:10290C000448FEF789FE0346002B01D000F0B0F915
:10291C0000BF80BD740400200030014080B500AFC2
:10292C00114B124A1A60104B4FF4E1325A600E4BA5
:10293C0000229A600C4B0022DA600B4B00221A61C9
:10294C00094B0C225A61084B00229A61064B00225B
:10295C00DA610548FFF77DF80346002B01D000F043
:10296C0087F900BF80BD00BF2C000020004800404C
:10297C0080B500AF144B4FF0A0421A60124B0422EA
:10298C005A60114B0222DA600F4B00221A610E4B77
:10299C0002229A610C4B0122DA610B4B00221A6263
:1029AC00094B00225A62084B0122DA62064B0022C4
:1029BC001A630548FEF7EFF80346002B01D000F030
:1029CC0057F900BF80BD00BF6C00002080B58CB0F3
:1029DC0000AF07F11C0300221A605A609A60DA609B
:1029EC001A610023BB619B4A9A4B1B6B43F0040397
:1029FC001363984B1B6B03F00403BB61BB6900238F
:102A0C007B61944A934B1B6B43F020031363914BF4
:102A1C001B6B03F020037B617B6900233B618D4AB8
:102A2C008C4B1B6B43F0800313638A4B1B6B03F0C3
:102A3C0080033B613B690023FB60864A854B1B6B23
:102A4C0043F001031363834B1B6B03F00103FB6027
:102A5C00FB680023BB607F4A7E4B1B6B43F0020379
:102A6C0013637C4B1B6B03F00203BB60BB6800233E
:102A7C007B60784A774B1B6B43F008031363754BF1
:102A8C001B6B03F008037B607B6800233B60714A7F
:102A9C00704B1B6B43F0400313636E4B1B6B03F0CB
:102AAC0040033B603B6800224FF480616A48FEF7AC
:102ABC0059F8012208216948FEF754F801224FF415
:102ACC0080416548FEF74EF800224FF4814164487E
:102ADC00FEF748F8002240216248FEF743F8002236
:102AEC004FF400715D48FEF73DF84FF40053FB6165
:102AFC005D4B3B6200237B6207F11C031946574870
:102B0C00FDF76EFE2023FB6100233B6201237B62F9
:102B1C0007F11C0319465048FDF762FE4FF4806321
:102B2C00FB6101233B6201237B620023BB6207F143
:102B3C001C0319464848FDF753FE3223FB61022360
:102B4C003B6200237B620323BB620B23FB6207F116
:102B5C001C0319464148FDF743FE4FF40273FB6119
:102B6C0001233B6200237B620023BB6207F11C0341
:102B7C0019463A48FDF734FE0623FB6102233B62FB
:102B8C0000237B620323BB620B23FB6207F11C0354
:102B9C0019463648FDF724FE4FF48043FB610123B0
:102BAC003B6200237B620023BB6207F11C031946C6
:102BBC002948FDF715FE4FF40053FB6102233B62DD
:102BCC0000237B620323BB620B23FB6207F11C0314
:102BDC0019462348FDF704FE4FF48143FB610123A2
:102BEC003B6200237B620023BB6207F11C03194686
:102BFC001B48FDF7F5FD4023FB6101233B620023DD
:102C0C007B620023BB6207F11C0319461548FDF7D4
:102C1C00E7FD8023FB6100233B6200237B6207F10D
:102C2C001C0319460F48FDF7DBFD4FF42053FB61E5
:102C3C0002233B6200237B620323BB620B23FB62F8
:102C4C0007F11C0319460748FDF7CAFD00BF3037D2
:102C5C00BD4680BD0038024000140240000802400E
:102C6C000004024000180240000011100000024055
:102C7C0080B400AF00BFBD465DF8047B7047000018
:102C8C0080B483B000AF00237B60104A0F4B5B6CA9
:102C9C0043F4804353640D4B5B6C03F480437B60C3
:102CAC007B6800233B60094A084B1B6C43F0805344
:102CBC001364064B1B6C03F080533B603B6800BFF6
:102CCC000C37BD465DF8047B704700BF00380240EE
:102CDC0080B58AB000AF786007F1140300221A6047
:102CEC005A609A60DA601A617B681B68194A9342D1
:102CFC002BD100233B61184A174B5B6C43F4805378
:102D0C005364154B5B6C03F480533B613B690023AC
:102D1C00FB60114A104B1B6B43F0010313630E4B0A
:102D2C001B6B03F00103FB60FB68E0237B61022358
:102D3C00BB610023FB6103233B6205237B6207F12C
:102D4C00140319460548FDF74BFD00BF2837BD4657
:102D5C0080BD00BF0030014000380240000002403E
:102D6C0080B58AB000AF786007F1140300221A60B6
:102D7C005A609A60DA601A617B681B68194A934240
:102D8C002CD100233B61184A174B1B6C43F4802356
:102D9C001364154B1B6C03F480233B613B690023CC
:102DAC00FB60114A104B1B6B43F0080313630E4B73
:102DBC001B6B03F00803FB60FB684FF440737B61F3
:102DCC000223BB610123FB6103233B6207237B626C
:102DDC0007F1140319460548FDF702FD00BF28371B
:102DEC00BD4680BD0048004000380240000C024047
:102DFC0080B58AB000AF786007F1140300221A6026
:102E0C005A609A60DA601A617B681B68B3F1A04F54
:102E1C003FD100233B61214A204B1B6B43F0010344
:102E2C0013631E4B1B6B03F001033B613B694FF4B7
:102E3C00E8537B610223BB610023FB6103233B62EC
:102E4C000A237B6207F1140319461548FDF7C8FCE9
:102E5C004FF400737B610023BB610023FB6107F11E
:102E6C00140319460E48FDF7BBFC0C4A0B4B5B6B6D
:102E7C0043F0800353630023FB60084A074B5B6CF1
:102E8C0043F480435364054B5B6C03F48043FB6059
:102E9C00FB6800BF2837BD4680BD00BF003802402C
:102EAC000000024080B400AF00BFBD465DF8047B5B
:102EBC00704780B400AFFEE780B400AFFEE780B48B
:102ECC0000AFFEE780B400AFFEE780B400AF00BFF8
:102EDC00BD465DF8047B704780B400AF00BFBD46B3
:102EEC005DF8047B704780B400AF00BFBD465DF851
:102EFC00047B704780B500AFFDF74CFB00BF80BD75
:102F0C0080B400AF164A164BD3F8883043F47003E4
:102F1C00C2F88830134A134B1B6843F0010313604B
:102F2C00104B00229A600F4A0E4B1B6823F08473DF
:102F3C0023F4803313600B4B0B4A5A60094A094B3C
:102F4C001B6823F480231360064B0022DA60044BC9
:102F5C004FF000629A6000BFBD465DF8047B70477D
:102F6C0000ED00E00038024010300024DFF834D0CF
:102F7C00002103E00C4B5B58435004310B480C4BC5
:102F8C0042189A42F6D30B4A02E0002342F8043B63
:102F9C00094B9A42F9D3FFF7B3FF00F011F8FFF792
:102FAC008DFB7047000003207430000800000020E7
:102FBC000C0000200C000020CC040020FEE70000D8
:102FCC0070B50D4E0D4CA41BA4100025A54209D1C3
:102FDC000B4E0C4C00F020F8A41BA4100025A542AD
:102FEC0005D170BD56F8253098470135EEE756F8F7
:102FFC00253098470135F2E76C3000086C3000083A
:10300C006C3000087030000802440346934200D133
:10301C00704703F8011BF9E7F8B500BFF8BC08BC12
:10302C009E467047F8B500BFF8BC08BC9E4670477A
:10303C0040400000055000004141000001FFFF002E
:10304C00000000000000000001020304060708094C
:08305C00000000000102030462
:08306400B8D1FF7F010000005C
:04306C00D101000886
:04307000AD010008A6
:0C30740010000000010000000024F40027
:0400000508002F7947
:00000001FF
