:020000040800F2
:1000000000000320D1C60008CDBE0008DBBE0008FA
:10001000E1BE0008E7BE0008EDBE000800000000D9
:10002000000000000000000000000000F3BE000817
:1000300001BF0008000000000FBF00081DBF00083E
:1000400021C7000821C7000821C7000821C70008F0
:1000500021C7000821C7000821C7000821C70008E0
:1000600021C7000821C7000821C7000821C70008D0
:1000700021C7000821C7000821C7000821C70008C0
:1000800021C7000821C7000821C7000821C70008B0
:1000900021C7000821C7000821C7000821C70008A0
:1000A00021C7000821C7000821C7000821C7000890
:1000B00021C7000821C7000821C7000821C7000880
:1000C00021C7000821C7000821C7000821C7000870
:1000D00021C7000821C7000821C7000829BF000860
:1000E00021C7000821C7000821C7000821C7000850
:1000F00021C7000821C7000821C7000821C7000840
:1001000021C7000821C7000821C7000821C700082F
:1001100021C7000821C7000821C7000821C700081F
:1001200021C7000821C7000821C7000821C700080F
:1001300021C7000821C7000821C7000821C70008FF
:1001400021C7000821C7000821C7000821C70008EF
:1001500021C7000821C7000821C7000821C70008DF
:1001600021C7000821C7000821C7000821C70008CF
:1001700021C7000821C7000821C7000800000000AF
:1001800021C7000821C7000821C7000821C70008AF
:1001900021C7000821C7000821C7000821C700089F
:0C01A00021C7000821C7000821C7000883
:1001B00010B5054C237833B9044B13B10448AFF3A1
:1001C00000800123237010BDDC010020000000002E
:1001D00070D1000808B5034B1BB103490348AFF3C6
:1001E000008008BD00000000E001002070D1000880
:1001F00080B500AF0E4A0E4B1B6843F400731360CA
:100200000B4A0B4B1B6843F480631360084A084B8E
:100210001B6843F480731360032000F0C7FB0020C9
:1002200000F042F80BF0DCFC0023184680BD00BF54
:10023000003C024080B500AF134B4FF0FF321A6212
:10024000114B00221A62104B4FF0FF325A620E4BD4
:1002500000225A620C4B4FF0FF321A610A4B002207
:100260001A61094B4FF0FF325A61074B00225A6165
:10027000054B4FF0FF329A61034B00229A6100F068
:100280000CF80023184680BD0038024080B400AF4F
:1002900000BFBD465DF8047B704780B400AF00BF6F
:1002A000BD465DF8047B704780B582B000AF7860D2
:1002B000124B1A68124B1B7819464FF47A73B3FB32
:1002C000F1F3B2FBF3F3184600F0B7FB0346002B43
:1002D00001D001230EE07B680F2B0AD80022796839
:1002E0004FF0FF3000F06DFB064A7B68136000237F
:1002F00000E0012318460837BD4680BD08000020F5
:10030000040000200000002080B400AF064B1B78E2
:100310001A46064B1B681344044A136000BFBD46CF
:100320005DF8047B704700BF04000020A403002098
:1003300080B400AF034B1B681846BD465DF8047BD4
:10034000704700BFA403002080B400AF034B1B68BC
:100350001846BD465DF8047B704700BF00000020D2
:1003600080B584B000AF0346FB710023FB730A4BDA
:100370001B78FA799A4209D0074AFB791370074B28
:100380001B681846FFF790FF0346FB73FB7B18467C
:100390001037BD4680BD00BF0400002000000020D3
:1003A00080B400AF034B1B781846BD465DF8047B54
:1003B000704700BF0400002080B584B000AF7860B3
:1003C000FFF7B6FFB8607B68FB60FB68B3F1FF3FE7
:1003D00005D0094B1B781A46FB681344FB6000BF2D
:1003E000FFF7A6FF0246BB68D21AFB689A42F7D312
:1003F00000BF1037BD4680BD0400002080B400AFB0
:10040000054A054B1B6823F00203136000BFBD467D
:100410005DF8047B704700BF10E000E080B400AFDF
:10042000054A054B1B6843F00203136000BFBD463D
:100430005DF8047B704700BF10E000E080B400AFBF
:10044000024B1846BD465DF8047B70470005070166
:1004500080B400AF034B1B681B0C1846BD465DF80B
:10046000047B7047002004E080B400AF044B1B689D
:10047000C3F30B031846BD465DF8047B704700BF0D
:10048000002004E080B400AF054A054B5B6843F0F0
:100490000103536000BFBD465DF8047B704700BF99
:1004A000002004E080B400AF054A054B5B6823F0F0
:1004B0000103536000BFBD465DF8047B704700BF79
:1004C000002004E080B400AF054A054B5B6843F0B0
:1004D0000203536000BFBD465DF8047B704700BF58
:1004E000002004E080B400AF054A054B5B6823F0B0
:1004F0000203536000BFBD465DF8047B704700BF38
:10050000002004E080B400AF054A054B5B6843F06F
:100510000403536000BFBD465DF8047B704700BF15
:10052000002004E080B400AF054A054B5B6823F06F
:100530000403536000BFBD465DF8047B704700BFF5
:10054000002004E080B400AF034B01221A6000BF1A
:10055000BD465DF8047B70470004274280B400AFBD
:10056000034B00221A6000BFBD465DF8047B704754
:100570000004274280B400AF034B1B681846BD46F9
:100580005DF8047B704700BF107AFF1F80B400AF96
:10059000034B1B681846BD465DF8047B704700BFDF
:1005A000147AFF1F80B400AF034B1B681846BD468A
:1005B0005DF8047B704700BF187AFF1F80B400AF5E
:1005C000034B01221A6000BFBD465DF8047B7047F3
:1005D0002000274280B400AF034B00221A6000BF06
:1005E000BD465DF8047B70472000274280B485B08B
:1005F00000AF78607B6803F00703FB600C4BDB689F
:10060000BB60BA684FF6FF031340BB60FB681A0279
:10061000BB68134343F0BF6343F40033BB60044A39
:10062000BB68D36000BF1437BD465DF8047B7047DC
:1006300000ED00E080B400AF044BDB681B0A03F060
:1006400007031846BD465DF8047B704700ED00E0E7
:1006500080B483B000AF0346FB7197F90730002BDD
:100660000BDB094997F907305B09FA7902F01F02A1
:10067000012000FA02F241F8232000BF0C37BD46EA
:100680005DF8047B704700BF00E100E080B483B0F8
:1006900000AF0346FB7197F90730002B10DB0B49C5
:1006A00097F907305B09FA7902F01F02012000FA7E
:1006B00002F2203341F82320BFF34F8FBFF36F8F37
:1006C00000BF0C37BD465DF8047B704700E100E0D9
:1006D00080B483B000AF0346FB7197F90730002B5D
:1006E0000EDB0B4A97F907305B09403352F82320A1
:1006F000FB7903F01F0322FA03F303F0010300E088
:10070000002318460C37BD465DF8047B704700BFD8
:1007100000E100E080B483B000AF0346FB7197F9BD
:100720000730002B0CDB094997F907305B09FA7990
:1007300002F01F02012000FA02F2403341F82320A8
:1007400000BF0C37BD465DF8047B704700E100E058
:1007500080B483B000AF0346FB7197F90730002BDC
:100760000CDB094997F907305B09FA7902F01F029F
:10077000012000FA02F2603341F8232000BF0C3759
:10078000BD465DF8047B704700E100E080B483B0B3
:1007900000AF0346FB7197F90730002B0EDB0B4AC5
:1007A00097F907305B09803352F82320FB7903F077
:1007B0001F0322FA03F303F0010300E000231846AD
:1007C0000C37BD465DF8047B704700BF00E100E0D8
:1007D00080B483B000AF03463960FB7197F90730EE
:1007E000002B0ADB0D4997F907303A68D2B21201A3
:1007F000D2B20B4483F800230AE00949FB7903F0E5
:100800000F03043B3A68D2B21201D2B20B441A76FB
:1008100000BF0C37BD465DF8047B704700E100E087
:1008200000ED00E080B483B000AF0346FB7197F9A0
:100830000730002B09DB0D4A97F90730134493F872
:100840000033DBB21B09DBB209E0094AFB7903F094
:100850000F03043B13441B7EDBB21B09DBB21846BB
:100860000C37BD465DF8047B704700BF00E100E037
:1008700000ED00E080B489B000AFF860B9607A6044
:10088000FB6803F00703FB61FB69C3F10703042B5B
:1008900028BF0423BB61FB690433062B02D9FB6923
:1008A000033B00E000237B610122BB6902FA03F3F2
:1008B0005A1EBB681A407B699A4001217B6901FA84
:1008C00003F3591E7B680B40134318462437BD467B
:1008D0005DF8047B704780B489B000AFF860B96000
:1008E0007A603B60BB6803F00703FB61FB69C3F1FF
:1008F0000703042B28BF0423BB61FB690433062BC9
:1009000002D9FB69033B00E000237B61FA687B6945
:10091000DA400121BB6901FA03F3013B1A407B680D
:100920001A6001227B6902FA03F35A1EFB681A401F
:100930003B681A6000BF2437BD465DF8047B7047F2
:1009400080B400AFBFF34F8F0549054BDB6803F45C
:10095000E062044B1343CB60BFF34F8F00BFFDE752
:1009600000ED00E00400FA0580B582B000AF7860C9
:100970007B68013BB3F1807F01D301230FE00A4A7A
:100980007B68013B53600F214FF0FF30FFF720FFE2
:10099000054B00229A60044B07221A600023184678
:1009A0000837BD4680BD00BF10E000E080B582B0D2
:1009B00000AF78607868FFF719FE00BF0837BD46C2
:1009C00080BD80B586B000AF0346B9607A60FB7326
:1009D00000237B61FFF72EFE78617A68B968786939
:1009E000FFF748FF024697F90F3011461846FFF708
:1009F000EFFE00BF1837BD4680BD80B582B000AFA6
:100A00000346FB7197F907301846FFF721FE00BF38
:100A10000837BD4680BD80B582B000AF0346FB718C
:100A200097F907301846FFF731FE00BF0837BD467B
:100A300080BD80B500AFFFF783FF80B582B000AF07
:100A400078607868FFF790FF034618460837BD4680
:100A500080BD80B400AFBFF35F8F074A064B5B6A6F
:100A600023F480335362054B00225A6000BFBD4619
:100A70005DF8047B704700BF00ED00E090ED00E002
:100A800080B483B000AF78600A4A7B6843F001030A
:100A90005360094A084B5B6A43F480335362BFF3E7
:100AA0004F8FBFF36F8F00BF0C37BD465DF8047BDF
:100AB000704700BF90ED00E000ED00E080B483B02F
:100AC00000AF78601E4A7B685B7893607B681B7818
:100AD000002B28D01A4A7B685B68D36018497B6872
:100AE0001B7B1A077B68DB7A1B061A437B689B7AA1
:100AF000DB041A437B685B7B9B041A437B689B7B0C
:100B00005B041A437B68DB7B1B041A437B685B7ABC
:100B10001B021A437B681B7A5B0013437A681278C6
:100B200013430B6105E0064B0022DA60044B002200
:100B30001A6100BF0C37BD465DF8047B704700BFEB
:100B400090ED00E080B500AFFFF774FD0346184656
:100B500080BD80B584B000AFB9607A603B60034669
:100B6000FB7397F90F301846FFF75CFE3B687A6815
:100B7000B968FFF7B0FE00BF1037BD4680BD80B535
:100B800082B000AF0346FB7197F907301846FFF7B4
:100B9000C1FD00BF0837BD4680BD80B582B000AF43
:100BA0000346FB7197F907301846FFF791FD03469E
:100BB00018460837BD4680BD80B582B000AF0346F9
:100BC000FB7197F907301846FFF7C2FD00BF0837E1
:100BD000BD4680BD80B582B000AF0346FB7197F97A
:100BE00007301846FFF7D2FD034618460837BD46C2
:100BF00080BD80B483B000AF78607B68042B06D1E1
:100C0000094A094B1B6843F00403136005E0064AD8
:100C1000054B1B6823F00403136000BF0C37BD466F
:100C20005DF8047B704700BF10E000E080B500AFC6
:100C300000F002F800BF80BD80B400AF00BFBD4629
:100C40005DF8047B704700BF80B586B000AF786068
:100C500000237B61FFF76CFB38617B68002B01D1BF
:100C6000012399E07B68002283F834207B6802220C
:100C700083F835207B681B687A681268126822F056
:100C800001021A600FE0FFF753FB02463B69D31ADB
:100C9000052B08D97B6820225A657B68032283F8DC
:100CA0003520032378E07B681B681B6803F0010391
:100CB000002BE8D17B681B681B687B617A69384B25
:100CC00013407B617B685A687B689B681A437B682A
:100CD000DB681A437B681B691A437B685B691A43AC
:100CE0007B689B691A437B68DB691A437B681B6AD4
:100CF00013437A6913437B617B685B6A042B07D1DA
:100D00007B68DA6A7B681B6B13437A6913437B61E8
:100D10007B681B687A691A607B681B685B697B610A
:100D20007B6923F007037B617B685B6A7A69134305
:100D30007B617B685B6A042B17D17B689B6A7A694D
:100D400013437B617B68DB6A002B0ED0786800F070
:100D500057FD0346002B08D07B6840225A657B680C
:100D6000012283F83520012316E07B681B687A692D
:100D70005A61786800F00EFD0346FB607B68DB6D0E
:100D80003F229A40FB689A607B6800225A657B6824
:100D9000012283F83520002318461837BD4680BD50
:100DA0003F8010F080B584B000AF78607B68002B86
:100DB00001D1012350E07B6893F83530DBB2022B80
:100DC00001D1022348E07B681B687A6812681268C8
:100DD00022F001021A607B681B6800221A607B689F
:100DE0001B6800225A607B681B6800229A607B683F
:100DF0001B680022DA607B681B6800221A617B682E
:100E00001B6821225A61786800F0C4FC0346FB602D
:100E10007B680022DA637B6800221A647B68002208
:100E20005A647B6800229A647B680022DA647B68DB
:100E300000221A657B68DB6D3F229A40FB689A604E
:100E40007B6800225A657B68002283F835207B6826
:100E5000002283F83420002318461037BD4680BD99
:100E600080B586B000AFF860B9607A603B6000235F
:100E7000FB75FB6893F83430012B01D1022326E087
:100E8000FB68012283F83420FB6893F83530DBB22D
:100E9000012B15D1FB68022283F83520FB68002264
:100EA0005A653B687A68B968F86800F045FCFB68E9
:100EB0001B68FA681268126842F001021A6005E0C5
:100EC000FB68002283F834200223FB75FB7D184663
:100ED0001837BD4680BD80B586B000AFF860B960F8
:100EE0007A603B600023FB75FB689B6D3B61FB6890
:100EF00093F83430012B01D1022348E0FB68012232
:100F000083F83420FB6893F83530DBB2012B37D1FE
:100F1000FB68022283F83520FB6800225A653B6893
:100F20007A68B968F86800F007FCFB68DB6D3F225F
:100F30009A403B699A60FB681B68FA6812681268FD
:100F400042F016021A60FB681B68FA681268526960
:100F500042F080025A61FB681B6C002B07D0FB68D3
:100F60001B68FA681268126842F008021A60FB688F
:100F70001B68FA681268126842F001021A6005E004
:100F8000FB68002283F834200223FB75FB7D1846A2
:100F90001837BD4680BD80B584B000AF78607B68EF
:100FA0009B6DFB60FFF7C4F9B8607B6893F8353040
:100FB000DBB2022B08D07B6880225A657B68002256
:100FC00083F83420012352E07B681B687A6812683A
:100FD000126822F016021A607B681B687A68126831
:100FE000526922F080025A617B681B6C002B03D18E
:100FF0007B689B6C002B07D07B681B687A68126843
:10100000126822F008021A607B681B687A6812680E
:10101000126822F001021A6013E0FFF789F9024614
:10102000BB68D31A052B0CD97B6820225A657B68D4
:10103000002283F834207B68032283F835200323C1
:1010400015E07B681B681B6803F00103002BE4D1EB
:101050007B68DB6D3F229A40FB689A607B680022C8
:1010600083F834207B68012283F83520002318465A
:101070001037BD4680BD80B483B000AF78607B6818
:1010800093F83530DBB2022B04D07B6880225A659E
:1010900001230CE07B68052283F835207B681B6800
:1010A0007A681268126822F001021A60002318465A
:1010B0000C37BD465DF8047B704780B58AB000AF41
:1010C000F8600B467A60FB720023FB77FFF730F97C
:1010D000B861FB6893F83530DBB2022B08D0FB68AF
:1010E00080225A65FB68002283F834200123BFE088
:1010F000FB681B681B6803F48073002B05D0FB683A
:101100004FF480725A650123B2E0FB7A002B06D1BE
:10111000FB68DB6D202202FA03F37B6205E0FB68CB
:10112000DB6D102202FA03F37B62FB689B6D7B612F
:101130007B691B683B625AE07B68B3F1FF3F17D0C5
:101140007B68002B07D0FFF7F3F80246BB69D21A81
:101150007B689A420CD9FB6820225A65FB68002202
:1011600083F83420FB68012283F8352003237FE0D5
:101170007B691B683B62FB68DB6D08229A403B6A17
:101180001340002B0BD0FB685B6D43F00102FB6842
:101190005A65FB68DB6D08229A407B699A60FB68A0
:1011A000DB6D01229A403B6A1340002B0BD0FB6899
:1011B0005B6D43F00202FB685A65FB68DB6D012240
:1011C0009A407B699A60FB68DB6D04229A403B6A17
:1011D0001340002B0BD0FB685B6D43F00402FB68EF
:1011E0005A65FB68DB6D04229A407B699A603A6A13
:1011F0007B6A1340002B05D1FB685B6D03F0010394
:10120000002B99D0FB685B6D002B18D0FB685B6DE1
:1012100003F00103002B12D0F868FFF7BCFEFB6857
:10122000DB6D30229A407B699A60FB68002283F86C
:101230003420FB68012283F83520012318E0FB7A73
:10124000002B0ED1FB68DB6D30229A407B699A60DF
:10125000FB68002283F83420FB68012283F83520E4
:1012600005E0FB68DB6D10229A407B699A60FB7F8A
:1012700018462837BD4680BD80B586B000AF78607F
:101280000023BB60924B1B68924AA2FB03239B0A7C
:101290007B617B689B6D3B613B691B68FB607B6886
:1012A000DB6D08229A40FB681340002B1AD07B6844
:1012B0001B681B6803F00403002B13D07B681B68BA
:1012C0007A681268126822F004021A607B68DB6D8B
:1012D00008229A403B699A607B685B6D43F001028B
:1012E0007B685A657B68DB6D01229A40FB6813407E
:1012F000002B12D07B681B685B6903F08003002B16
:101300000BD07B68DB6D01229A403B699A607B6859
:101310005B6D43F002027B685A657B68DB6D0422DB
:101320009A40FB681340002B12D07B681B681B6837
:1013300003F00203002B0BD07B68DB6D04229A4084
:101340003B699A607B685B6D43F004027B685A6579
:101350007B68DB6D10229A40FB681340002B43D062
:101360007B681B681B6803F00803002B3CD07B687C
:10137000DB6D10229A403B699A607B681B681B6892
:1013800003F48023002B18D07B681B681B6803F4D0
:101390000023002B08D17B681B6C002B24D07B68BA
:1013A0001B6C786898471FE07B689B6C002B1BD0F8
:1013B0007B689B6C7868984716E07B681B681B68A5
:1013C00003F48073002B07D17B681B687A6812686E
:1013D000126822F008021A607B681B6C002B03D095
:1013E0007B681B6C786898477B68DB6D20229A408D
:1013F000FB681340002B00F08E807B681B681B6825
:1014000003F01003002B00F086807B68DB6D202248
:101410009A403B699A607B6893F83530DBB2052BC4
:1014200036D17B681B687A681268126822F016024F
:101430001A607B681B687A681268526922F0800221
:101440005A617B681B6C002B03D17B689B6C002B63
:1014500007D07B681B687A681268126822F008025D
:101460001A607B68DB6D3F229A403B699A607B681B
:10147000002283F834207B68012283F835207B68C2
:101480001B6D002B7DD07B681B6D7868984778E0DA
:101490007B681B681B6803F48023002B1CD07B68CF
:1014A0001B681B6803F40023002B08D17B685B6C6E
:1014B000002B30D07B685B6C786898472BE07B68AA
:1014C000DB6B002B27D07B68DB6B7868984722E0CA
:1014D00008000020B5814E1B7B681B681B6803F465
:1014E0008073002B0FD17B681B687A6812681268C2
:1014F00022F010021A607B68002283F834207B6897
:10150000012283F835207B68DB6B002B03D07B68DE
:10151000DB6B786898477B685B6D002B32D07B680B
:101520005B6D03F00103002B22D07B68052283F85A
:1015300035207B681B687A681268126822F0010205
:101540001A60BB680133BB607A69934207D87B6835
:101550001B681B6803F00103002BF2D100E000BF01
:101560007B68002283F834207B68012283F83520D1
:101570007B68DB6C002B05D07B68DB6C7868984758
:1015800000E000BF1837BD4680BD80B487B000AF13
:10159000F8600B467A60FB720023FB75FB6893F8DA
:1015A0003430012B01D102233DE0FB68012283F896
:1015B0003420FB6893F83530DBB2012B2AD1FB7A5B
:1015C000052B2AD801A252F823F000BFE515000828
:1015D000ED150008F5150008FD15000805160008B2
:1015E0000D160008FB687A68DA6317E0FB687A6812
:1015F0001A6413E0FB687A685A640FE0FB687A6843
:101600009A640BE0FB687A68DA6407E0FB687A6842
:101610001A6503E00123FB7500E000BFFB680022B0
:1016200083F83420FB7D18461C37BD465DF8047BEB
:10163000704780B485B000AF78600B46FB70002324
:10164000FB737B6893F83430012B01D1022353E004
:101650007B68012283F834207B6893F83530DBB255
:10166000012B42D1FB78062B3BD801A252F823F084
:101670008D160008951600089D160008A51600088E
:10168000AD160008B5160008BD1600087B680022DC
:10169000DA632CE07B6800221A6428E07B68002271
:1016A0005A6424E07B6800229A6420E07B68002270
:1016B000DA641CE07B6800221A6518E07B6800226F
:1016C000DA637B6800221A647B6800225A647B68B4
:1016D00000229A647B680022DA647B6800221A6523
:1016E00005E00123FB7300BF01E00123FB737B686E
:1016F000002283F83420FB7B18461437BD465DF882
:10170000047B704780B483B000AF78607B6893F847
:101710003530DBB218460C37BD465DF8047B7047A8
:1017200080B483B000AF78607B685B6D18460C377F
:10173000BD465DF8047B704780B485B000AFF860AB
:10174000B9607A603B60FB681B68FA6812681268CF
:1017500022F480221A60FB681B683A685A60FB68B2
:101760009B68402B08D1FB681B687A689A60FB680D
:101770001B68BA68DA6007E0FB681B68BA689A60A1
:10178000FB681B687A68DA6000BF1437BD465DF8F5
:10179000047B704780B485B000AF78607B681B68BD
:1017A000DBB2103B144AA2FB03231B09FB60134A64
:1017B000FB6813441B781A467B68DA65FB68032BC9
:1017C00009D97B681B6823F47F7323F003031A1D78
:1017D0007B689A6507E07B681B6823F47F7323F0BE
:1017E00003037A6893657B689B6D18461437BD4682
:1017F0005DF8047B704700BFABAAAAAA88D1000895
:1018000080B485B000AF78600023FB737B689B6A6F
:10181000BB607B689B69002B1FD1BB68032B55D82D
:1018200001A252F823F000BF391800084B18000835
:1018300039180008CD1800087B68DB6A03F0807354
:10184000002B45D00123FB7342E07B68DB6AB3F1D8
:10185000C07F3FD10123FB733CE07B689B69B3F5FC
:10186000005F21D1BB68032B36D801A252F823F0C8
:1018700081180008871800088118000899180008C6
:101880000123FB732FE07B68DB6A03F08073002B7E
:1018900024D00123FB7321E07B68DB6AB3F1C07FB6
:1018A0001ED10123FB731BE0BB68022B02D9032B63
:1018B00003D018E00123FB7315E07B68DB6A03F0BB
:1018C0008073002B0ED00123FB730BE000BF0AE0F6
:1018D00000BF08E000BF06E000BF04E000BF02E078
:1018E00000BF00E000BFFB7B18461437BD465DF823
:1018F000047B704780B489B000AF78603960002302
:101900007B6100233B610023BB610023FB6177E126
:101910000122FB6902FA03F37B613B681A687B6969
:1019200013403B613A697B699A4240F066813B68AB
:101930005B68022B03D03B685B68122B23D1FB69E9
:10194000DA087B68083253F82230BB61FB6903F088
:1019500007039B000F2202FA03F3DB43BA6913402B
:10196000BB613B681A69FB6903F007039B0002FA3D
:1019700003F3BA691343BB61FB69DA087B68083279
:10198000B96943F822107B681B68BB61FB695B0087
:10199000032202FA03F3DB43BA691340BB613B68DD
:1019A0005B6803F00302FB695B0002FA03F3BA69A8
:1019B0001343BB617B68BA691A603B685B68012BA3
:1019C0000BD03B685B68022B07D03B685B68112B30
:1019D00003D03B685B68122B30D17B689B68BB618E
:1019E000FB695B00032202FA03F3DB43BA6913408D
:1019F000BB613B68DA68FB695B0002FA03F3BA6912
:101A00001343BB617B68BA699A607B685B68BB61A2
:101A10000122FB6902FA03F3DB43BA691340BB619D
:101A20003B685B681B0903F00102FB6902FA03F3E0
:101A3000BA691343BB617B68BA695A607B68DB682B
:101A4000BB61FB695B00032202FA03F3DB43BA6963
:101A50001340BB613B689A68FB695B0002FA03F3C1
:101A6000BA691343BB617B68BA69DA603B685B683B
:101A700003F08053002B00F0C0800023FB60654A18
:101A8000644B5B6C43F480435364624B5B6C03F4C4
:101A90008043FB60FB68604AFB699B08023352F895
:101AA0002330BB61FB6903F003039B000F2202FAA2
:101AB00003F3DB43BA691340BB617B68574A934227
:101AC00037D07B68564A934231D07B68554A93425F
:101AD0002BD07B68544A934225D07B68534A93426B
:101AE0001FD07B68524A934219D07B68514A934277
:101AF00013D07B68504A93420DD07B684F4A934283
:101B000007D07B684E4A934201D1092312E00A2391
:101B100010E008230EE007230CE006230AE005236B
:101B200008E0042306E0032304E0022302E001238B
:101B300000E00023FA6902F0030292009340BA69C0
:101B40001343BB613449FB699B080233BA6941F80E
:101B500023203C4B1B68BB613B69DB43BA691340E4
:101B6000BB613B685B6803F48033002B03D0BA6928
:101B70003B691343BB61334ABB691360314B5B68FC
:101B8000BB613B69DB43BA691340BB613B685B687F
:101B900003F40033002B03D0BA693B691343BB61E4
:101BA000284ABB695360274B9B68BB613B69DB4399
:101BB000BA691340BB613B685B6803F48013002B78
:101BC00003D0BA693B691343BB611E4ABB6993608A
:101BD0001C4BDB68BB613B69DB43BA691340BB61EB
:101BE0003B685B6803F40013002B03D0BA693B69C0
:101BF0001343BB61134ABB69D360FB690133FB61CB
:101C0000FB690F2B7FF684AE00BF2437BD465DF81D
:101C1000047B704700380240003801400000024059
:101C20000004024000080240000C02400010024084
:101C30000014024000180240001C02400020024034
:101C400000240240003C014080B487B000AF7860BF
:101C5000396000233B610023FB600023BB6000234D
:101C60007B61DAE001227B6902FA03F33B613A68A7
:101C70003B691340FB60FA683B699A4240F0CA80B6
:101C80006B4A7B699B08023352F82330BB607B6947
:101C900003F003039B000F2202FA03F3BA68134018
:101CA000BB607B68634A934237D07B68624A934249
:101CB00031D07B68614A93422BD07B68604A934263
:101CC00025D07B685F4A93421FD07B685E4A93426F
:101CD00019D07B685D4A934213D07B685C4A93427B
:101CE0000DD07B685B4A934207D07B685A4A934287
:101CF00001D1092312E00A2310E008230EE0072394
:101D00000CE006230AE0052308E0042306E0032391
:101D100004E0022302E0012300E000237A6902F0DC
:101D20000302920003FA02F2BB689A4232D17B6945
:101D300003F003039B000F2202FA03F3BB603C484D
:101D40007B699B083A497A699208023251F822105D
:101D5000BA68D2430A40023340F823203F493F4B40
:101D60001A68FB68DB4313400B603C493B4B5A68E5
:101D7000FB68DB4313404B603849384B9A68FB687B
:101D8000DB4313408B603549344BDA68FB68DB4337
:101D90001340CB607B681A687B695B00032101FA02
:101DA00003F3DB431A407B681A607B69DA087B69BE
:101DB000D9087B68083153F821107B6903F00703C9
:101DC0009B000F2000FA03F3DB4319407B680832C5
:101DD00043F822107B689A687B695B00032101FA53
:101DE00003F3DB431A407B689A607B685A680121E1
:101DF0007B6901FA03F3DB431A407B685A607B6816
:101E0000DA687B695B00032101FA03F3DB431A40C4
:101E10007B68DA607B6901337B617B690F2B7FF61E
:101E200021AF00BF1C37BD465DF8047B704700BF83
:101E30000038014000000240000402400008024057
:101E4000000C024000100240001402400018024042
:101E5000001C02400020024000240240003C0140DF
:101E600080B485B000AF78600B467B807B681A69D0
:101E70007B881340002B02D00123FB7301E0002379
:101E8000FB73FB7B18461437BD465DF8047B704737
:101E900080B483B000AF78600B467B8013467B70C4
:101EA0007B78002B03D07A887B689A6103E07B887B
:101EB0001A047B689A6100BF0C37BD465DF8047B4D
:101EC000704780B483B000AF78600B467B807B683E
:101ED0005A697B881A407B889A4204D17B881A040D
:101EE0007B689A6102E07A887B689A6100BF0C3750
:101EF000BD465DF8047B704780B485B000AF786064
:101F00000B467B804FF48033FB607A88FB68134379
:101F1000FB60FA687B68DA617A887B68DA61FA6864
:101F20007B68DA617B68DB69FB607B68DB6903F4F3
:101F30008033002B01D0002300E001231846143722
:101F4000BD465DF8047B704780B582B000AF0346A4
:101F5000FB80084B5A69FB881340002B06D0054ACA
:101F6000FB885361FB88184600F006F800BF08376D
:101F7000BD4680BD003C014080B483B000AF034645
:101F8000FB8000BF0C37BD465DF8047B704700BF87
:101F9000F0B58FB00AAF78607B68002B01D10123C8
:101FA00003E17B6893F8BD33DBB2002B06D17B687D
:101FB000002283F8BC23786809F012FF7B680322B3
:101FC00083F8BD237B681B68184606F094FA7B688B
:101FD0001B683B607E686D4606F110040FCC0FC590
:101FE0000FCC0FC594E8030085E80300331D0ECB2A
:101FF000386806F06BF90346002B05D07B68022297
:1020000083F8BD230123D0E07B681B6800211846BC
:1020100006F082FA0023FB734AE0FA7B79681346E4
:10202000DB009B1A9B000B443D3301221A70FA7BA4
:1020300079681346DB009B1A9B000B443C33FA7B08
:102040001A70FA7BFB7B98B279681346DB009B1A07
:102050009B000B44423302461A80FA7B7968134690
:10206000DB009B1A9B000B443F3300221A70FA7B63
:1020700079681346DB009B1A9B000B444433002213
:102080001A60FA7B79681346DB009B1A9B000B44AD
:10209000483300221A60FA7B79681346DB009B1AEA
:1020A0009B000B44503300221A60FB7B0133FB730F
:1020B000FA7B7B685B689A42AFD30023FB7344E0F2
:1020C000FA7B79681346DB009B1A9B000B4403F2F2
:1020D000FD1300221A70FA7B79681346DB009B1A05
:1020E0009B000B4403F5FE73FA7B1A70FA7B796848
:1020F0001346DB009B1A9B000B4403F2FF130022E4
:102100001A70FA7B79681346DB009B1A9B000B441C
:1021100003F5017300221A60FA7B79681346DB002D
:102120009B1A9B000B4403F5027300221A60FA7B92
:1021300079681346DB009B1A9B000B4403F504737C
:1021400000221A60FB7B0133FB73FA7B7B685B68C0
:102150009A42B5D37B681B683B607E686D4606F18A
:1021600010040FCC0FC50FCC0FC594E8030085E811
:102170000300331D0ECB386806F0F8F90346002B38
:1021800005D07B68022283F8BD2301230DE07B6824
:10219000002283F838207B68012283F8BD237B6806
:1021A0001B68184607F015FB002318461437BD4678
:1021B000F0BD80B582B000AF78607B68002B01D1A4
:1021C00001230EE07B68032283F8BD23786800F0CA
:1021D00053F8786809F05EFE7B68002283F8BD231F
:1021E000002318460837BD4680BD80B483B000AFD9
:1021F000786000BF0C37BD465DF8047B704780B443
:1022000083B000AF786000BF0C37BD465DF8047B3B
:10221000704780B584B000AF78607B681B68FB6056
:102220007B6893F8BC33012B01D1022320E07B684B
:10223000012283F8BC237B689B6A012B09D17B6850
:102240009B69012B05D0FB689B6B43F48032FB68D4
:102250009A637B681B68184607F0A2FA7B681B68C4
:10226000184606F037F97B68002283F8BC23002368
:1022700018461037BD4680BD80B582B000AF78608B
:102280007B6893F8BC33012B01D1022320E07B68EB
:10229000012283F8BC237B681B68184606F02BF9E3
:1022A0007B681B68184607F004FA0346002B05D02C
:1022B0007B68002283F8BC23012309E07B681B684C
:1022C000184607F086FA7B68002283F8BC230023B7
:1022D00018460837BD4680BD90B58DB000AF786018
:1022E0007B681B683B623B6AFB6100237B627B6807
:1022F0001B68184607F02AFB0346002B40F09B831F
:102300007B681B68184607F07DFA0346002B00F037
:1023100091837B681B68184607F074FA034603F044
:102320000203022B07D17B681B687A681268526926
:1023300002F002025A617B681B68184607F062FAD5
:10234000034603F40023B3F5002F7BD100237B6207
:102350007B681B68184607F068FAB8626FE0BB6AD2
:1023600003F00103002B64D07B681B687A6AD2B249
:102370001146184607F08DFAB861BB6903F00103F6
:10238000002B0CD07B6A5A01FB69134403F53063C0
:102390001A4601239360796A786800F033FFBB69BD
:1023A00003F00803002B0CD0796A786801F032F84A
:1023B0007B6A5A01FB69134403F530631A4608230C
:1023C0009360BB6903F01003002B08D07B6A5A01AD
:1023D000FB69134403F530631A4610239360BB690D
:1023E00003F02003002B15D07B681B69012B08D15B
:1023F0007B6818687B6803F571731A46012107F042
:10240000EBFA7B6A5A01FB69134403F530631A4601
:1024100020239360BB6903F40053002B09D07B6A2F
:102420005A01FB69134403F530631A464FF4005315
:1024300093607B6A01337B62BB6A5B08BB62BB6AE9
:10244000002B8CD17B681B68184607F0DBF903462C
:1024500003F48023B3F5802F40F0C5807B681B68B0
:10246000184607F0FCF9B86200237B62B7E0BB6A4C
:1024700003F00103002B00F0AC807B681B687A6AD4
:10248000D2B21146184607F022FAB861BB6903F0D0
:102490000103002B5CD07B6A03F00F03012202FAD8
:1024A00003F37B61FB6903F500631946FB6903F5E0
:1024B00000635A6B7B69DB4313404B637B6A5A01B1
:1024C000FB69134403F510631A46012393607B688C
:1024D0001B69012B1BD179687A6A1346DB009B1AB2
:1024E0009B000B444833196878687A6A1346DB000E
:1024F0009B1A9B00034444331B68194478687A6A2A
:102500001346DB009B1A9B000344483319607B6A27
:10251000DBB21946786800F09DFA7B681B69012BD5
:1025200016D17B6A002B13D179687A6A1346DB00D7
:102530009B1A9B000B4450331B68002B08D17B680F
:1025400018687B6803F571731A46012107F044FA95
:10255000BB6903F00803002B08D07B6A5A01FB69B2
:10256000134403F510631A4608239360BB6903F014
:102570001003002B08D07B6A5A01FB69134403F552
:1025800010631A4610239360BB6903F04003002BCD
:1025900008D07B6A5A01FB69134403F510631A469D
:1025A00040239360BB6903F00203002B08D07B6AD1
:1025B0005A01FB69134403F510631A460223936022
:1025C000BB6903F08003002B03D0796A786800F0C0
:1025D0008BFD7B6A01337B62BB6A5B08BB62BB6AB3
:1025E000002B7FF444AF7B681B68184607F00AF99C
:1025F000034603F00043B3F1004F23D1FB6903F519
:1026000000631A46FB6903F500635B6823F001036E
:1026100053607B6893F8F433012B08D17B68002268
:1026200083F8F4230021786800F0ACFF02E07868BA
:1026300000F044FA7B681B687A681268526902F0FD
:1026400000425A617B681B68184607F0DBF80346B6
:1026500003F40063B3F5006F12D1FB6903F5006367
:102660009B6803F00103012B02D1786800F01CFA8B
:102670007B681B687A681268526902F400625A61CA
:102680007B681B68184607F0BDF8034603F48053C7
:10269000B3F5805F40F0B080FB6903F500631A4634
:1026A000FB6903F500635B6823F0010353607B68FB
:1026B0001B681021184606F0CBF80023FB6238E0B7
:1026C000FB6A5A01FB69134403F510631A464FF67F
:1026D0007F339360FB6A5A01FB69134403F510636F
:1026E0001946FB6A5A01FB69134403F510631B6822
:1026F00023F400130B60FB6A5A01FB69134403F5D2
:1027000030631A464FF67F339360FB6A5A01FB69C8
:10271000134403F530631946FB6A5A01FB691344FD
:1027200003F530631B6823F400130B60FB6A01336D
:10273000FB627B685A68FB6A9A42C1D8FB6903F561
:1027400000631A46FB6903F50063DB6943F001137C
:10275000D3617B681B6B002B18D0FB6903F500630A
:102760001A46FB6903F50063D3F8843043F00B038A
:10277000C2F88430FB6903F500631A46FB6903F570
:1027800000635B6C43F00B03536417E0FB6903F5D4
:1027900000631A46FB6903F500635B6943F4005369
:1027A00043F02B035361FB6903F500631A46FB6991
:1027B00003F500631B6943F00B031361FB6903F529
:1027C00000631A46FB6903F500631B6823F4FE638C
:1027D00013607B6818687B681B69D9B27B6803F556
:1027E00071731A4607F0F8F87B681B687A681268FC
:1027F000526902F480525A617B681B68184607F0E0
:1028000001F8034603F40053B3F5005F2AD17B6857
:102810001B68184607F0A8F87B681B68184606F086
:1028200079F80346002B03D17B680022DA6002E0CE
:102830007B680322DA607B681C6801F03FFB01467D
:102840007B68DB68DBB21A46204605F0A0FD78689D
:1028500000F020F97B681B687A681268526902F4FC
:1028600000525A617B681B68184606F0CBFF03468E
:1028700003F01003102B61D17B681B687A68126823
:10288000926922F010029A613B6A1B6A3B613B69C4
:1028900003F00F021346DB009B1A9B0003F5FC7349
:1028A0007A6813440433FB603B695B0C03F00F034D
:1028B000022B24D13A6947F6F0731340002B35D030
:1028C000FB68D9683B691B099BB2C3F30A039BB23F
:1028D0001A46386A06F0E8FDFB68DA683B691B09AE
:1028E000C3F30A031A44FB68DA60FB689A693B6920
:1028F0001B09C3F30A031A44FB689A6116E03B699B
:102900005B0C03F00F03062B10D17B6803F571738A
:1029100008221946386A06F0C7FDFB689A693B69C8
:102920001B09C3F30A031A44FB689A617B681B689E
:102930007A681268926942F010029A617B681B689B
:10294000184606F05FFF034603F00803082B0AD180
:10295000786800F095F87B681B687A68126852699D
:1029600002F008025A617B681B68184606F04AFFAD
:10297000034603F48013B3F5801F0DD17B6ADBB2ED
:102980001946786800F0B0F87B681B687A681268AE
:10299000526902F480125A617B681B68184606F07F
:1029A00031FF034603F40013B3F5001F0DD17B6A1A
:1029B000DBB21946786800F08BF87B681B687A6890
:1029C0001268526902F400125A617B681B6818464B
:1029D00006F018FF034603F08043B3F1804F0AD19D
:1029E000786800F08DF87B681B687A681268526915
:1029F00002F080425A617B681B68184606F002FFAD
:102A0000034603F00403042B15D17B681B685B6845
:102A10003B613B6903F00403002B02D0786800F0AF
:102A200079F87B681B687A68126851683A690A43CA
:102A30005A6000E000BF3437BD4690BD80B483B01B
:102A400000AF78600B46FB7000BF0C37BD465DF8E9
:102A5000047B704780B483B000AF78600B46FB7096
:102A600000BF0C37BD465DF8047B704780B483B06F
:102A700000AF786000BF0C37BD465DF8047B70473F
:102A800080B483B000AF786000BF0C37BD465DF8FE
:102A9000047B704780B483B000AF786000BF0C3710
:102AA000BD465DF8047B704780B483B000AF7860AA
:102AB00000BF0C37BD465DF8047B704780B483B01F
:102AC00000AF786000BF0C37BD465DF8047B7047EF
:102AD00080B483B000AF78600B46FB7000BF0C374A
:102AE000BD465DF8047B704780B483B000AF78606A
:102AF0000B46FB7000BF0C37BD465DF8047B70478A
:102B000080B483B000AF786000BF0C37BD465DF87D
:102B1000047B704780B483B000AF786000BF0C378F
:102B2000BD465DF8047B704780B584B000AF786027
:102B30007B681B68FB607B6893F8BC33012B01D179
:102B400002231BE07B68012283F8BC237B689B6A1D
:102B5000012B09D17B689B69012B05D0FB689B6B1E
:102B600043F48032FB689A637B681B68184606F062
:102B700017FE7B68002283F8BC2300231846103719
:102B8000BD4680BD80B582B000AF78607B6893F8A9
:102B9000BC33012B01D102230DE07B68012283F8B5
:102BA000BC237B681B68184606F013FE7B68002276
:102BB00083F8BC23002318460837BD4680BD80B586
:102BC00082B000AF78600B46FB707B6893F8BC3333
:102BD000012B01D1022313E07B68012283F8BC237F
:102BE0007B68FA7883F838207B681B68FA7811468E
:102BF000184606F0ADFD7B68002283F8BC23002355
:102C000018460837BD4680BD80B584B000AF7860F7
:102C1000084611461A460346FB700B463B80134696
:102C2000BB700023FB7297F90330002B0FDAFB789F
:102C300003F00F021346DB009B1A9B0038337A68BF
:102C400013440433FB60FB6801225A700FE0FB78E9
:102C500003F00F021346DB009B1A9B0003F5FC7385
:102C60007A6813440433FB60FB6800225A70FB78D7
:102C700003F00F03DAB2FB681A703A88FB689A60B7
:102C8000FB68BA78DA70FB685B78002B04D0FB68CD
:102C90001B789AB2FB68DA80BB78022B02D1FB6802
:102CA00000221A717B6893F8BC33012B01D10223F7
:102CB0000EE07B68012283F8BC237B681B68F968FF
:102CC000184605F04CFE7B68002283F8BC23FB7A93
:102CD00018461037BD4680BD80B584B000AF78601F
:102CE0000B46FB7097F90330002B0FDAFB7803F0EB
:102CF0000F021346DB009B1A9B0038337A6813449B
:102D00000433FB60FB6801225A700FE0FB7803F08C
:102D10000F021346DB009B1A9B0003F5FC737A68D5
:102D200013440433FB60FB6800225A70FB7803F005
:102D30000F03DAB2FB681A707B6893F8BC33012B7F
:102D400001D102230EE07B68012283F8BC237B685B
:102D50001B68F968184605F019FF7B68002283F8A4
:102D6000BC23002318461037BD4680BD80B586B011
:102D700000AFF8607A603B600B46FB72FB7A03F0B1
:102D80000F021346DB009B1A9B0003F5FC73FA68E5
:102D9000134404337B617B697A68DA607B693A6843
:102DA0005A617B6900229A617B6900225A70FB7A22
:102DB00003F00F03DAB27B691A70FB681B69012B01
:102DC00002D17A687B691A61FB7A03F00F03002B4A
:102DD00009D1FB681868FB681B69DBB21A46796980
:102DE00006F0DCF908E0FB681868FB681B69DBB2D9
:102DF0001A46796905F0B0FF002318461837BD461A
:102E000080BD80B483B000AF78600B46FB70FB7868
:102E100003F00F0279681346DB009B1A9B000B44FA
:102E200003F505731B6818460C37BD465DF8047B37
:102E3000704780B586B000AFF8607A603B600B46A3
:102E4000FB72FB7A03F00F021346DB009B1A9B0018
:102E50003833FA68134404337B617B697A68DA603B
:102E60007B693A685A617B6900229A617B69012219
:102E70005A70FB7A03F00F03DAB27B691A70FB68B1
:102E80001B69012B02D17A687B691A61FB7A03F016
:102E90000F03002B09D1FB681868FB681B69DBB2C4
:102EA0001A46796906F07AF908E0FB681868FB6849
:102EB0001B69DBB21A46796905F04EFF00231846FC
:102EC0001837BD4680BD80B584B000AF78600B4632
:102ED000FB70FB7803F00F027B685B689A4201D9B4
:102EE000012350E097F90330002B0FDAFB7803F051
:102EF0000F021346DB009B1A9B0038337A68134499
:102F00000433FB60FB6801225A700DE0FA78134627
:102F1000DB009B1A9B0003F5FC737A6813440433AF
:102F2000FB60FB6800225A70FB6801229A70FB78F4
:102F300003F00F03DAB2FB681A707B6893F8BC33B6
:102F4000012B01D102231EE07B68012283F8BC2300
:102F50007B681B68F968184606F0CFFAFB7803F027
:102F60000F03002B0AD17B6818687B681B69D9B2F4
:102F70007B6803F571731A4606F02EFD7B6800220C
:102F800083F8BC23002318461037BD4680BD80B5AA
:102F900084B000AF78600B46FB70FB7803F00F0243
:102FA0007B685B689A4201D9012342E097F90330BC
:102FB000002B0FDAFB7803F00F021346DB009B1A9D
:102FC0009B0038337A6813440433FB60FB680122AA
:102FD0005A700FE0FB7803F00F021346DB009B1AD8
:102FE0009B0003F5FC737A6813440433FB60FB68B1
:102FF00000225A70FB6800229A70FB7803F00F03DE
:10300000DAB2FB681A707B6893F8BC33012B01D1EC
:1030100002230EE07B68012283F8BC237B681B68D7
:10302000F968184606F0DBFA7B68002283F8BC23B7
:10303000002318461037BD4680BD80B582B000AF72
:1030400078600B46FB707B6893F8BC33012B01D191
:1030500002231BE07B68012283F8BC2397F903302D
:10306000002B09DA7B681A68FB7803F00F03194616
:10307000104605F0EDFB04E07B681B68184605F080
:103080000DFC7B68002283F8BC2300231846083718
:10309000BD4680BD80B582B000AF78607B681B689C
:1030A000184607F0EDFA034618460837BD4680BDBE
:1030B00080B582B000AF78607B681B68184607F067
:1030C000FFFA034618460837BD4680BD80B483B07A
:1030D00000AF78607B6893F8BD33DBB218460C37DD
:1030E000BD465DF8047B704780B58AB002AF78605A
:1030F00039607B681B687B617B693B613A6813467A
:10310000DB009B1A9B0038337A6813440433FB605E
:10311000FB689A69FB685B699A4201D901236DE0FB
:10312000FB685A69FB689B69D31AFB61FB689A6864
:10313000FB699A4202D2FB689B68FB61FB6903331F
:103140009B08BB612BE0FB685A69FB689B69D31A3B
:10315000FB61FB689A68FB699A4202D2FB689B6834
:10316000FB61FB6903339B08BB61FB68D9683B6863
:10317000DAB2FB6998B27B681B69DBB20093034645
:10318000786906F05CF9FB68DA68FB691A44FB6849
:10319000DA60FB689A69FB691A44FB689A613B68CC
:1031A0005A013B69134403F510639B699AB2BB69EA
:1031B0009A4209D3FB689A69FB685B699A4203D219
:1031C000FB685B69002BBED1FB685A69FB689B6991
:1031D0009A4212D83B6803F00F03012202FA03F36C
:1031E000BB603B6903F5006319463B6903F5006367
:1031F0005A6BBB68DB4313404B63002318462037F0
:10320000BD4680BD80B586B000AF786039607B6810
:103210001B687B617B693B617B693C3304331B68C2
:10322000FB603B685A013B69134403F530639B68BC
:10323000BB607B681B69012B40F0B380BB6803F067
:103240000803002B28D0FB68704A93420ED9BB6854
:1032500003F40043002B09D03B685A013B69134437
:1032600003F530631A464FF4004393607868FFF724
:10327000FDFB7B6818687B6803F571731A460121B2
:1032800006F0AAFB3B685A013B69134403F530631F
:103290001A4608239360B3E0BB6803F02003002BB9
:1032A00009D03B685A013B69134403F530631A4661
:1032B00020239360A4E0BB6803F02803002B40F0B8
:1032C0009F80FB68514A93420FD9BB6803F40043C7
:1032D000002B0AD03B685A013B69134403F5306365
:1032E0001A464FF4004393608AE079683A681346BF
:1032F000DB009B1A9B000B4403F501731A683B68C3
:1033000059013B690B4403F530631B69C3F3120396
:10331000D11A78683A681346DB009B1A9B00034475
:1033200003F50573196079683A681346DB009B1A48
:103330009B000B4403F50273196878683A681346DA
:10334000DB009B1A9B00034403F501731B681944BF
:1033500078683A681346DB009B1A9B00034403F528
:10336000027319603B68DBB219467868FFF766FBA9
:103370003B68002B44D179683A681346DB009B1AFE
:103380009B000B4403F504731B68002B38D17B684A
:1033900018687B6803F571731A46012106F01CFB5F
:1033A0002EE0FB681A4A934224D1BB6803F4004321
:1033B000002B0AD03B685A013B69134403F5306384
:1033C0001A464FF4004393601AE0BB6803F02003F1
:1033D000002B08D03B685A013B69134403F5306366
:1033E0001A46202393603B68DBB219467868FFF7E2
:1033F00025FB05E03B68DBB219467868FFF71EFB4A
:10340000002318461837BD4680BD00BF0A30544F10
:103410000A31544F80B586B000AF786039607B6860
:103420001B687B617B693B617B693C3304331B68B0
:10343000FB603B685A013B69134403F530639B68AA
:10344000BB607B681B69012B13D1FB681F4A934249
:1034500022D9BB6803F40043002B1DD03B685A01FE
:103460003B69134403F530631A464FF400439360FD
:1034700012E0FB68164A93420ED1BB6803F4004386
:10348000002B09D03B685A013B69134403F53063B4
:103490001A464FF4004393607868FFF7E7FAFB6839
:1034A0000A4A93420CD97B681B69012B08D17B68BF
:1034B00018687B6803F571731A46012106F08CFACF
:1034C000002318461837BD4680BD00BF0A30544F50
:1034D0000A31544F80B485B000AF78600B46FB7062
:1034E00013463B807B681B685B6ABB60FB78002BE4
:1034F00007D17B681B683A881104BA680A439A624C
:1035000028E07B681B689B6A1B0CBA681344BB608D
:103510000023FB730DE07B681A68FB7B40339B0044
:1035200013445B681B0CBA681344BB60FB7B01331C
:10353000FB73FA7BFB78013B9A42ECD37B681968FA
:10354000FB78013B3A881004BA68024340339B0081
:103550000B445A60002318461437BD465DF8047BBF
:10356000704780B483B000AF78600B467B807B6887
:103570001B687A885A62002318460C37BD465DF8EE
:10358000047B704780B483B000AF78600B46FB705B
:1035900000BF0C37BD465DF8047B704780B483B034
:1035A00000AF78600B46FB7000BF0C37BD465DF87E
:1035B000047B704780B400AF00231846BD465DF819
:1035C000047B704780B586B000AF78607B68002BC5
:1035D00001D101232DE27B681B6803F00103002B5E
:1035E00075D0A34B9B6803F00C03042B0CD0A04BAD
:1035F0009B6803F00C03082B12D19D4B5B6803F40E
:103600008003B3F5800F0BD1994B1B6803F4003393
:10361000002B5BD07B685B68002B57D1012308E24D
:103620007B685B68B3F5803F06D1914A904B1B687D
:1036300043F4803313601DE07B685B68B3F5A02F13
:103640000CD18B4A8A4B1B6843F480231360884A51
:10365000874B1B6843F4803313600BE0844A844B30
:103660001B6823F480331360814A814B1B6823F469
:10367000802313607B685B68002B13D0FCF758FE37
:10368000386108E0FCF754FE02463B69D31A642B0C
:1036900001D90323CDE1764B1B6803F40033002BE3
:1036A000F0D014E0FCF744FE386108E0FCF740FE7F
:1036B00002463B69D31A642B01D90323B9E16C4B51
:1036C0001B6803F40033002BF0D100E000BF7B68DF
:1036D0001B6803F00203002B63D0654B9B6803F06B
:1036E0000C03002B0BD0624B9B6803F00C03082BE0
:1036F0001CD15F4B5B6803F48003002B16D15C4B3D
:103700001B6803F00203002B05D07B68DB68012BEC
:1037100001D001238DE15649554B1B6823F0F80277
:103720007B681B69DB0013430B603AE07B68DB6856
:10373000002B20D04F4B01221A60FCF7F9FD3861B5
:1037400008E0FCF7F5FD02463B69D31A022B01D9CC
:1037500003236EE1464B1B6803F00203002BF0D0FD
:103760004349434B1B6823F0F8027B681B69DB006D
:1037700013430B6015E03F4B00221A60FCF7D8FDA5
:10378000386108E0FCF7D4FD02463B69D31A022BEE
:1037900001D903234DE1364B1B6803F00203002BD4
:1037A000F0D17B681B6803F00803002B30D07B68E6
:1037B0005B69002B16D0304B01221A60FCF7B8FD74
:1037C000386108E0FCF7B4FD02463B69D31A022BCE
:1037D00001D903232DE1264B5B6F03F00203002B7D
:1037E000F0D015E0244B00221A60FCF7A1FD3861EF
:1037F00008E0FCF79DFD02463B69D31A022B01D974
:10380000032316E11A4B5B6F03F00203002BF0D188
:103810007B681B6803F00403002B00F0A0800023EA
:10382000FB75134B1B6C03F08053002B0FD100234F
:10383000FB600F4A0E4B1B6C43F0805313640C4B20
:103840001B6C03F08053FB60FB680123FB750B4B83
:103850001B6803F48073002B21D1084A074B1B68B7
:1038600043F480731360FCF763FD386111E000BF1F
:103870000038024000004742800E4742007000407E
:10388000FCF756FD02463B69D31A022B01D90323EC
:10389000CFE06A4B1B6803F48073002BF0D07B6889
:1038A0009B68012B06D1664A654B1B6F43F00103F1
:1038B00013671CE07B689B68052B0CD1604A604B4A
:1038C0001B6F43F0040313675D4A5D4B1B6F43F0AE
:1038D000010313670BE05A4A594B1B6F23F0010396
:1038E0001367574A564B1B6F23F0040313677B681B
:1038F0009B68002B15D0FCF71BFD38610AE0FCF734
:1039000017FD02463B69D31A41F28832934201D92E
:1039100003238EE04A4B1B6F03F00203002BEED013
:1039200014E0FCF705FD38610AE0FCF701FD0246F2
:103930003B69D31A41F28832934201D9032378E0DC
:103940003F4B1B6F03F00203002BEED1FB7D012BDD
:1039500005D13B4A3A4B1B6C23F0805313647B68C0
:103960009B69002B64D0364B9B6803F00C03082B3B
:103970005CD07B689B69022B41D1324B00221A60DC
:10398000FCF7D6FC386108E0FCF7D2FC02463B6944
:10399000D31A022B01D903234BE0294B1B6803F0F8
:1039A0000073002BF0D126497B68DA697B681B6ABB
:1039B0001A437B685B6A9B011A437B689B6A5B08BE
:1039C000013B1B041A437B68DB6A1B0613434B60F5
:1039D0001C4B01221A60FCF7ABFC386108E0FCF7D5
:1039E000A7FC02463B69D31A022B01D9032320E02E
:1039F000134B1B6803F00073002BF0D018E0114B41
:103A000000221A60FCF794FC386108E0FCF790FC97
:103A100002463B69D31A022B01D9032309E0084B64
:103A20001B6803F00073002BF0D101E0012300E0DC
:103A3000002318461837BD4680BD00BF0070004007
:103A4000003802406000474280B584B000AF786023
:103A500039607B68002B01D10123CAE0674B1B68EA
:103A600003F00F023B689A420CD2644B3A68D2B220
:103A70001A70624B1B6803F00F023B689A4201D038
:103A80000123B6E07B681B6803F00203002B20D003
:103A90007B681B6803F00403002B05D0584A584B81
:103AA0009B6843F4E05393607B681B6803F0080352
:103AB000002B05D0524A524B9B6843F460439360FD
:103AC0004F494F4B9B6823F0F0027B689B68134380
:103AD0008B607B681B6803F00103002B44D07B687C
:103AE0005B68012B07D1464B1B6803F40033002BA6
:103AF00019D101237DE07B685B68022B03D07B68D2
:103B00005B68032B07D13E4B1B6803F00073002B4F
:103B100009D101236DE03A4B1B6803F00203002B2F
:103B200001D1012365E03649354B9B6823F0030240
:103B30007B685B6813438B60FCF7FAFBF8600AE074
:103B4000FCF7F6FB0246FB68D31A41F28832934237
:103B500001D903234DE02A4B9B6803F00C027B68DC
:103B60005B689B009A42EBD1244B1B6803F00F0269
:103B70003B689A420CD9214B3A68D2B21A701F4B5B
:103B80001B6803F00F023B689A4201D0012330E02A
:103B90007B681B6803F00403002B08D01849184BFE
:103BA0009B6823F4E0527B68DB6813438B607B687F
:103BB0001B6803F00803002B09D01149104B9B68C8
:103BC00023F460427B681B69DB0013438B6000F0C9
:103BD0009DF801460A4B9B681B0903F00F03094A35
:103BE000D35C21FA03F3084A13600020FCF75CFB66
:103BF000002318461037BD4680BD00BF003C024080
:103C000000380240A0D200080800002080B58CB027
:103C100000AFF860B9607A60FB68002B29D10023FF
:103C2000BB612B4A2A4B1B6B43F001031363284BE8
:103C30001B6B03F00103BB61BB694FF48073FB6135
:103C400002233B620323BB6200237B620023FB62EF
:103C500007F11C0319461F48FDF74CFE1C481C4B7E
:103C60009B6823F0EC62B9687B680B431343836065
:103C700029E000237B61164A154B1B6B43F00403BC
:103C80001363134B1B6B03F004037B617B694FF4DD
:103C90000073FB6102233B620323BB6200237B6250
:103CA0000023FB6207F11C0319460B48FDF722FEB7
:103CB0000748074B9B6823F078427B68D900BB68B4
:103CC0000B431343836000BF3037BD4680BD00BF48
:103CD00000380240000002400008024080B400AFFB
:103CE000034B01221A6000BFBD465DF8047B70479C
:103CF0004C00474280B400AF034B00221A6000BF63
:103D0000BD465DF8047B70474C0047422DE9F04FFB
:103D10008FB000AF0023FB6200237B630023BB62F4
:103D200000233B63624B9B6803F00C03042B07D01A
:103D3000082B08D0002B40F0B2805E4B3B63B1E013
:103D40005D4B3B63AEE05A4B5B6803F03F03FB62A5
:103D5000574B5B6803F48003002B4ED0544B5B68D9
:103D60009B094FF0000440F2FF114FF0000201EAFE
:103D7000030102EA04020B46144660017862786A85
:103D800040EAD36078625B013B62D7E908345B1A92
:103D900064EB02044FEA841949EA93694FEA8318F5
:103DA000B8EB030869EB04094FEAC903FB61FB693F
:103DB00043EA5873FB614FEAC803BB61D7E9068940
:103DC00018EB010849EB02094FEA49237B617B6943
:103DD00043EAD8537B614FEA48233B61D7E9048922
:103DE00040464946FB6A4FF000041A46234608F055
:103DF000E7FA03460C467B6343E02D4B5B689B0967
:103E00004FF0000440F2FF114FF0000201EA0301FD
:103E100002EA04020B4614466001F860F86840EAC2
:103E2000D360F8605B01BB60D7E902345B1A64EBD6
:103E30000204A60146EA93669D01ED1A66EB0406AC
:103E4000F3007B607B6843EA55737B60EB003B606B
:103E500097E860006D1846EB02064FEA862B4BEAA6
:103E6000955B4FEA852A55465E4628463146FB6AF1
:103E70004FF000041A46234608F0A2FA03460C4607
:103E80007B630B4B5B681B0C03F0030301335B008C
:103E9000BB627A6BBB6AB2FBF3F33B6302E0054B98
:103EA0003B6300BF3B6B18463C37BD46BDE8F08F17
:103EB000003802400024F40000127A0080B400AF01
:103EC000034B1B681846BD465DF8047B704700BF76
:103ED0000800002080B500AFFFF7F0FF0146054B5A
:103EE0009B689B0A03F00703034AD35C21FA03F3A0
:103EF000184680BD00380240B0D2000880B500AF3F
:103F0000FFF7DCFF0146054B9B685B0B03F00703E3
:103F1000034AD35C21FA03F3184680BD00380240FF
:103F2000B0D2000880B483B000AF78607B680F2205
:103F30001A60454B1B6803F48023B3F5802F04D12E
:103F40007B684FF4A0225A600EE03F4B1B6803F4DD
:103F50008033B3F5803F04D17B684FF480325A60E0
:103F600002E07B6800225A60374B1B6803F00103B4
:103F7000012B03D17B680122DA6002E07B6800221A
:103F8000DA60314B1B68DB0803F01F027B681A61A3
:103F90002D4B1B6F03F00403042B03D17B68052218
:103FA0009A600CE0284B1B6F03F00103012B03D137
:103FB0007B6801229A6002E07B6800229A60224BB3
:103FC0005B6F03F00103012B03D17B6801225A616F
:103FD00002E07B6800225A611B4B1B6803F0807370
:103FE000B3F1807F03D17B6802229A6102E07B6893
:103FF00001229A61144B5B6803F480027B68DA61EA
:10400000114B5B6803F03F027B681A620E4B5B68E2
:104010009B09C3F308027B685A620B4B5B6803F48D
:10402000403303F580335B001A0C7B689A62064BC1
:104030005B681B0E03F00F027B68DA6200BF0C376F
:10404000BD465DF8047B70470038024080B483B001
:1040500000AF786039607B680F221A60124B9B6852
:1040600003F003027B685A600F4B9B6803F0F00279
:104070007B689A600C4B9B6803F4E0527B68DA60C3
:10408000094B9B68DB0803F4E0527B681A61074B1D
:104090001B6803F00F023B681A6000BF0C37BD4677
:1040A0005DF8047B704700BF00380240003C0240CE
:1040B00080B500AF064BDB6803F08003802B04D192
:1040C00000F00AF8034B80221A7000BF80BD00BFC9
:1040D000003802400E38024080B400AF00BFBD4639
:1040E0005DF8047B704700BF80B582B000AF786098
:1040F0007B68002B01D1012355E07B6800229A6286
:104100007B6893F85130DBB2002B06D17B6800222C
:1041100083F85020786807F08BFD7B68022283F8D3
:1041200051207B681B687A681268126822F040028E
:104130001A607B681B687A6851687A6892681143D4
:104140007A68D26811437A68126911437A685269B1
:1041500011437A68926902F4007211437A68D26955
:1041600011437A68126A11437A68926A0A431A60A4
:104170007B681B687A689269120C02F004017A6805
:10418000526A0A435A607B681B687A681268D2696F
:1041900022F40062DA617B6800225A657B680122A2
:1041A00083F85120002318460837BD4680BD80B5EE
:1041B00082B000AF78607B68002B01D101231AE048
:1041C0007B68022283F851207B681B687A6812683A
:1041D000126822F040021A60786807F071FD7B686F
:1041E00000225A657B68002283F851207B680022F8
:1041F00083F85020002318460837BD4680BD80B4A0
:1042000083B000AF786000BF0C37BD465DF8047B1B
:10421000704780B483B000AF786000BF0C37BD46F4
:104220005DF8047B704780B588B000AFF860B96076
:104230003B601346FB800023FB77FB6893F850300C
:10424000012B01D102231CE1FB68012283F85020DD
:10425000FCF76EF8B861FB88FB82FB6893F851307D
:10426000DBB2012B02D00223FB7701E1BB68002BFC
:1042700002D0FB88002B02D10123FB77F8E0FB681A
:10428000032283F85120FB6800225A65FB68BA6854
:104290001A63FB68FA889A86FB68FA88DA86FB68F4
:1042A00000229A63FB6800229A87FB680022DA8763
:1042B000FB6800225A64FB6800221A64FB689B6852
:1042C000B3F5004F07D1FB681B68FA6812681268E3
:1042D00042F480421A60FB681B681B6803F04003CD
:1042E000402B07D0FB681B68FA681268126842F01E
:1042F00040021A60FB68DB68B3F5006F4BD1FB68C6
:104300005B68002B02D0FB8A012B3ED1FB681B6847
:10431000FA68126B1288DA60FB681B6B9A1CFB68E8
:104320001A63FB68DB8E9BB2013B9AB2FB68DA86AC
:104330002BE0FB681B689B6803F00203022B12D181
:10434000FB681B68FA68126B1288DA60FB681B6BEB
:104350009A1CFB681A63FB68DB8E9BB2013B9AB226
:10436000FB68DA8611E0FBF7E3FF0246BB69D21A6D
:104370003B689A4203D33B68B3F1FF3F02D13B68ED
:10438000002B02D10323FB7772E0FB68DB8E9BB22C
:10439000002BCED14CE0FB685B68002B02D0FB8A7F
:1043A000012B40D1FB681B680C33FA68126B127842
:1043B0001A70FB681B6B5A1CFB681A63FB68DB8E68
:1043C0009BB2013B9AB2FB68DA862CE0FB681B6863
:1043D0009B6803F00203022B13D1FB681B680C33AC
:1043E000FA68126B12781A70FB681B6B5A1CFB6818
:1043F0001A63FB68DB8E9BB2013B9AB2FB68DA86DC
:1044000011E0FBF795FF0246BB69D21A3B689A425E
:1044100003D33B68B3F1FF3F02D13B68002B02D1CD
:104420000323FB7724E0FB68DB8E9BB2002BCDD10E
:10443000BA693968F86801F09EFE0346002B02D085
:10444000FB6820225A65FB689B68002B0AD1002379
:104450003B61FB681B68DB683B61FB681B689B6812
:104460003B613B69FB685B6D002B01D00123FB774F
:10447000FB68012283F85120FB68002283F850205A
:10448000FB7F18462037BD4680BD80B588B002AF9F
:10449000F860B9603B601346FB800023FB75FB6846
:1044A0005B68B3F5827F12D1FB689B68002B0ED14D
:1044B000FB68042283F85120FA883B680093134676
:1044C000BA68B968F86800F0E6F80346DFE0FB6810
:1044D00093F85030012B01D10223D8E0FB68012270
:1044E00083F85020FBF724FF3861FB6893F85130C4
:1044F000DBB2012B02D00223FB75BFE0BB68002BAF
:1045000002D0FB88002B02D10123FB75B6E0FB68CB
:10451000042283F85120FB6800225A65FB68BA68C0
:104520009A63FB68FA889A87FB68FA88DA87FB68DF
:1045300000221A63FB6800229A86FB680022DA8652
:10454000FB6800221A64FB6800225A64FB689B68BF
:10455000B3F5004F07D1FB681B68FA681268126850
:1045600022F480421A60FB681B681B6803F040035A
:10457000402B07D0FB681B68FA681268126842F08B
:1045800040021A60FB68DB68002B61D12DE0FB68FC
:104590001B689B6803F00103012B14D1FB689B6B24
:1045A000FA6812680C321278D2B21A70FB689B6BF0
:1045B0005A1CFB689A63FB68DB8F9BB2013B9AB283
:1045C000FB68DA8711E0FBF7B3FE02463B69D21ABB
:1045D0003B689A4203D33B68B3F1FF3F02D13B688B
:1045E000002B02D10323FB7548E0FB68DB8F9BB2F5
:1045F000002BCCD131E0FB681B689B6803F0010302
:10460000012B13D1FB689B6BFA681268D26892B2D7
:104610001A80FB689B6B9A1CFB689A63FB68DB8FB4
:104620009BB2013B9AB2FB68DA8711E0FBF780FE90
:1046300002463B69D21A3B689A4203D33B68B3F106
:10464000FF3F02D13B68002B02D10323FB7515E02D
:10465000FB68DB8F9BB2002BCDD13A693968F868D3
:1046600001F054FD0346002B02D0FB6820225A655E
:10467000FB685B6D002B01D00123FB75FB680122F9
:1046800083F85120FB68002283F85020FB7D1846F8
:104690001837BD4680BD80B58CB000AFF860B960FA
:1046A0007A607B800123FB62002387F82B30FB6854
:1046B00093F85030012B01D1022388E1FB680122DD
:1046C00083F85020FBF734FE7862FB6893F8513092
:1046D00087F82330FB685B68FB617B887B8397F8F6
:1046E0002330012B0FD0FB69B3F5827F07D1FB6824
:1046F0009B68002B03D197F82330042B03D00223AF
:1047000087F82B3059E1BB68002B05D07B68002B64
:1047100002D07B88002B03D1012387F82B304CE19A
:10472000FB6893F85130DBB2042B03D0FB68052201
:1047300083F85120FB6800225A65FB687A689A6307
:10474000FB687A88DA87FB687A889A87FB68BA6898
:104750001A63FB687A88DA86FB687A889A86FB682F
:1047600000221A64FB6800225A64FB681B681B68FD
:1047700003F04003402B07D0FB681B68FA681268FF
:10478000126842F040021A60FB68DB68B3F5006F04
:1047900078D1FB685B68002B02D07B8B012B66D144
:1047A000FB681B68FA68126B1288DA60FB681B6B87
:1047B0009A1CFB681A63FB68DB8E9BB2013B9AB2C2
:1047C000FB68DA8653E0FB681B689B6803F0020312
:1047D000022B1BD1FB68DB8E9BB2002B16D0FB6A31
:1047E000012B13D1FB681B68FA68126B1288DA6020
:1047F000FB681B6B9A1CFB681A63FB68DB8E9BB221
:10480000013B9AB2FB68DA860023FB62FB681B68F7
:104810009B6803F00103012B19D1FB68DB8F9BB26E
:10482000002B14D0FB689B6BFA681268D26892B2B6
:104830001A80FB689B6B9A1CFB689A63FB68DB8F92
:104840009BB2013B9AB2FB68DA870123FB62FBF75C
:104850006FFD02467B6AD21ABB6B9A4207D3BB6BD1
:10486000B3F1FF3F03D0032387F82B30A5E0FB68AB
:10487000DB8E9BB2002BA6D1FB68DB8F9BB2002B9B
:10488000A1D17CE0FB685B68002B02D07B8B012B05
:104890006BD1FB681B680C33FA68126B12781A70C4
:1048A000FB681B6B5A1CFB681A63FB68DB8E9BB2B0
:1048B000013B9AB2FB68DA8657E0FB681B689B688D
:1048C00003F00203022B1CD1FB68DB8E9BB2002B92
:1048D00017D0FB6A012B14D1FB681B680C33FA68F4
:1048E000126B12781A70FB681B6B5A1CFB681A63F8
:1048F000FB68DB8E9BB2013B9AB2FB68DA86002331
:10490000FB62FB681B689B6803F00103012B19D154
:10491000FB68DB8F9BB2002B14D0FB689B6BFA68A3
:104920001268D268D2B21A70FB689B6B5A1CFB6883
:104930009A63FB68DB8F9BB2013B9AB2FB68DA8714
:104940000123FB62FBF7F4FC02467B6AD21ABB6BC5
:104950009A4203D3BB6BB3F1FF3F02D1BB6B002B79
:1049600003D1032387F82B3027E0FB68DB8E9BB253
:10497000002BA2D1FB68DB8F9BB2002B9DD17A6A02
:10498000B96BF86801F0F7FB0346002B06D0012352
:1049900087F82B30FB6820225A650EE0FB689B6885
:1049A000002B0AD100237B61FB681B68DB687B61FD
:1049B000FB681B689B687B617B69FB68012283F84D
:1049C0005120FB68002283F8502097F82B301846BE
:1049D0003037BD4680BD80B487B000AFF860B960A5
:1049E0001346FB800023FB75FB6893F85030012BC6
:1049F00001D1022365E0FB68012283F85020BB68E7
:104A0000002B02D0FB88002B02D10123FB7553E061
:104A1000FB6893F85130DBB2012B02D00223FB7507
:104A20004AE0FB68032283F85120FB6800225A65A4
:104A3000FB68BA681A63FB68FA889A86FB68FA888A
:104A4000DA86FB6800229A63FB6800229A87FB687B
:104A50000022DA87FB6800221A64FB68DB68002BFF
:104A600003D0FB681A4A5A6402E0FB68194A5A6488
:104A7000FB689B68B3F5004F07D1FB681B68FA68B9
:104A80001268126842F480421A60FB681B68FA6878
:104A90001268526842F0A0025A60FB681B681B68EB
:104AA00003F04003402B07D0FB681B68FA681268CC
:104AB000126842F040021A60FB68002283F850201E
:104AC000FB7D18461C37BD465DF8047B704700BF70
:104AD000F55F0008AF5F000880B586B000AFF860F2
:104AE000B9601346FB800023FB75FB689B68002BB5
:104AF00010D1FB685B68B3F5827F0BD1FB680422A1
:104B000083F85120FB88BA68B968F86800F078F833
:104B100003466CE0FB6893F85030012B01D102236F
:104B200065E0FB68012283F85020FB6893F8513060
:104B3000DBB2012B02D00223FB7553E0BB68002BD4
:104B400002D0FB88002B02D10123FB754AE0FB68F1
:104B5000042283F85120FB6800225A65FB68BA687A
:104B60009A63FB68FA889A87FB68FA88DA87FB6899
:104B700000221A63FB6800229A86FB680022DA860C
:104B8000FB6800225A64FB68DB68002B03D0FB68DB
:104B9000194A1A6402E0FB68184A1A64FB689B68A9
:104BA000B3F5004F07D1FB681B68FA6812681268FA
:104BB00022F480421A60FB681B68FA681268526827
:104BC00042F060025A60FB681B681B6803F04003F8
:104BD000402B07D0FB681B68FA681268126842F025
:104BE00040021A60FB68002283F85020FB7D1846C3
:104BF0001837BD4680BD00BF695F0008215F00080F
:104C000080B487B000AFF860B9607A607B80002321
:104C1000FB75FB6893F85030012B01D1022373E040
:104C2000FB68012283F85020FB6893F85130BB7574
:104C3000FB685B683B61BB7D012B0DD03B69B3F525
:104C4000827F06D1FB689B68002B02D1BB7D042BC1
:104C500002D00223FB7552E0BB68002B05D07B68B5
:104C6000002B02D07B88002B02D10123FB7546E08C
:104C7000FB6893F85130DBB2042B03D0FB680522AC
:104C800083F85120FB6800225A65FB68BA681A63F2
:104C9000FB687A889A86FB687A88DA86FB687A6885
:104CA0009A63FB687A889A87FB687A88DA87FB6858
:104CB000DB68002B06D0FB68164A1A64FB68164AAC
:104CC0005A6405E0FB68154A1A64FB68144A5A6482
:104CD000FB681B68FA681268526842F0E0025A608A
:104CE000FB681B681B6803F04003402B07D0FB6880
:104CF0001B68FA681268126842F040021A60FB688A
:104D0000002283F85020FB7D18461C37BD465DF815
:104D1000047B7047635E0008C35E0008A15D000865
:104D2000035E000880B586B000AFF860B960134636
:104D3000FB800023FB75FB6893F85030012B01D1F9
:104D4000022393E0FB68012283F85020FB6893F86C
:104D50005130DBB2012B02D00223FB7581E0BB682E
:104D6000002B02D0FB88002B02D10123FB7578E0D9
:104D7000FB68032283F85120FB6800225A65FB6818
:104D8000BA681A63FB68FA889A86FB68FA88DA863A
:104D9000FB6800229A63FB6800225A64FB680022C9
:104DA0001A64FB6800229A87FB680022DA87FB6896
:104DB0009B68B3F5004F07D1FB681B68FA6812685F
:104DC000126842F480421A60FB689B6C294A1A649C
:104DD000FB689B6C284ADA63FB689B6C274ADA64A1
:104DE000FB689B6C00221A65FB68986CFB681B6B68
:104DF0001946FB681B680C331A46FB68DB8E9BB2B6
:104E0000FCF769F80346002B0CD0FB685B6D43F0A0
:104E10001002FB685A650123FB75FB68012283F8C9
:104E200051201EE0FB681B681B6803F04003402B09
:104E300007D0FB681B68FA681268126842F04002EB
:104E40001A60FB681B68FA681268526842F0200218
:104E50005A60FB681B68FA681268526842F00202E6
:104E60005A60FB68002283F85020FB7D18461837F3
:104E7000BD4680BD515B000895590008A55B000840
:104E800080B586B000AFF860B9601346FB800023A0
:104E9000FB75FB689B68002B10D1FB685B68B3F562
:104EA000827F0BD1FB68042283F85120FB88BA680B
:104EB000B968F86800F0A4F8034697E0FB6893F837
:104EC0005030012B01D1022390E0FB68012283F8CE
:104ED0005020FB6893F85130DBB2012B02D0022343
:104EE000FB757EE0BB68002B02D0FB88002B02D153
:104EF0000123FB7575E0FB68042283F85120FB68F1
:104F000000225A65FB68BA689A63FB68FA889A8738
:104F1000FB68FA88DA87FB6800221A64FB680022C3
:104F20005A64FB6800229A86FB680022DA86FB68D6
:104F30009B68B3F5004F07D1FB681B68FA681268DD
:104F4000126822F480421A60FB68DB6C294A1A64FA
:104F5000FB68DB6C284ADA63FB68DB6C274ADA649F
:104F6000FB68DB6C00221A65FB68D86CFB681B6869
:104F70000C331946FB689B6B1A46FB68DB8F9BB2B0
:104F8000FBF7A9FF0346002B0CD0FB685B6D43F0D9
:104F90001002FB685A650123FB75FB68012283F848
:104FA00051201EE0FB681B681B6803F04003402B88
:104FB00007D0FB681B68FA681268126842F040026A
:104FC0001A60FB681B68FA681268526842F0200297
:104FD0005A60FB681B68FA681268526842F0010266
:104FE0005A60FB68002283F85020FB7D1846183772
:104FF000BD4680BD6D5B00083D5A0008A55B0008FA
:1050000080B586B000AFF860B9607A607B8000231D
:10501000FB75FB6893F85030012B01D10223E3E0CC
:10502000FB68012283F85020FB6893F85130BB7570
:10503000FB685B683B61BB7D012B0DD03B69B3F521
:10504000827F06D1FB689B68002B02D1BB7D042BBD
:1050500002D00223FB75C2E0BB68002B05D07B6841
:10506000002B02D07B88002B02D10123FB75B6E018
:10507000FB6893F85130DBB2042B03D0FB680522A8
:1050800083F85120FB6800225A65FB68BA681A63EE
:10509000FB687A889A86FB687A88DA86FB687A6881
:1050A0009A63FB687A889A87FB687A88DA87FB6854
:1050B00000221A64FB6800225A64FB6893F851309E
:1050C000DBB2042B08D1FB68DB6C494A1A64FB682D
:1050D000DB6C484ADA6307E0FB68DB6C464A1A641B
:1050E000FB68DB6C454ADA63FB68DB6C444ADA64D4
:1050F000FB68DB6C00221A65FB68D86CFB681B68D8
:105100000C331946FB689B6B1A46FB68DB8F9BB21E
:10511000FBF7E1FE0346002B0CD0FB685B6D43F010
:105120001002FB685A650123FB75FB68012283F8B6
:10513000512054E0FB681B68FA681268526842F01C
:1051400001025A60FB689B6C00221A64FB689B6C2E
:105150000022DA63FB689B6C0022DA64FB689B6CBC
:1051600000221A65FB68986CFB681B6B1946FB688C
:105170001B680C331A46FB68DB8E9BB2FBF7ABFE59
:105180000346002B0CD0FB685B6D43F01002FB68FC
:105190005A650123FB75FB68012283F851201EE04C
:1051A000FB681B681B6803F04003402B07D0FB68BB
:1051B0001B68FA681268126842F040021A60FB68C5
:1051C0001B68FA681268526842F020025A60FB6855
:1051D0001B68FA681268526842F002025A60FB6863
:1051E000002283F85020FB7D18461837BD4680BD4D
:1051F0006D5B00083D5A0008895B0008C15A000831
:10520000A55B000880B588B000AF78600023FB770D
:105210006E4B1B686E4AA2FB03235B0A642202FBEF
:1052200003F37B617B69BB617B681B687A681268EA
:10523000526822F020025A607B681B685B6803F0AA
:105240008003802B17D17B68624A5A64BB69002BAC
:1052500006D17B685B6D43F040027B685A6508E0CD
:10526000BB69013BBB617B6893F85130DBB2072B14
:10527000ECD17B69BB617B681B685B6803F0400312
:10528000402B17D17B68544A1A64BB69002B06D1A6
:105290007B685B6D43F040027B685A6508E0BB6940
:1052A000013BBB617B6893F85130DBB2072BECD13B
:1052B0007B69BB617B681B685B6803F00203022BA0
:1052C0002ED17B689B6C002B2AD07B689B6C0022C4
:1052D0001A657B689B6C1846FBF75DFE0346002B46
:1052E00002D07B6840225A657B681B687A68126826
:1052F000526822F002025A60BB69002B06D17B681B
:105300005B6D43F040027B685A6509E0BB69013B75
:10531000BB617B681B689B6803F00203002BEBD02A
:105320007B681B685B6803F00103012B22D17B685B
:10533000DB6C002B1ED07B68DB6C00221A657B685F
:10534000DB6C1846FBF727FE0346002B02D07B6878
:1053500040225A657B681B687A681268126822F0DE
:1053600040021A607B681B687A681268526822F0F3
:1053700001025A607B680022DA877B680022DA86A5
:105380007B685B6D402B02D10123FB7702E07B68D9
:1053900000225A6500233B617B681B68DB683B6128
:1053A0007B681B689B683B613B690023FB607B68F3
:1053B0001B689B68FB60FB687B68012283F85120B7
:1053C000FB7F18462037BD4680BD00BF0800002087
:1053D000F119760561640008D963000880B588B0CA
:1053E00000AF78600023FB770123BB61724B1B6821
:1053F000724AA2FB03235B0A642202FB03F33B61B4
:105400003B697B617B681B687A681268526822F08E
:1054100020025A607B681B685B6803F08003802B66
:1054200017D17B68664A5A647B69002B06D17B687A
:105430005B6D43F040027B685A6508E07B69013B85
:105440007B617B6893F85130DBB2072BECD13B6971
:105450007B617B681B685B6803F04003402B17D1BE
:105460007B68584A1A647B69002B06D17B685B6DA8
:1054700043F040027B685A6508E07B69013B7B6131
:105480007B6893F85130DBB2072BECD13B697B6131
:105490007B689B6C002B0FD07B681B685B6803F0FC
:1054A0000203022B04D17B689B6C474A1A6503E018
:1054B0007B689B6C00221A657B68DB6C002B0FD02D
:1054C0007B681B685B6803F00103012B04D17B68D8
:1054D000DB6C3E4A1A6503E07B68DB6C00221A65D0
:1054E0007B681B685B6803F00203022B15D17B68A5
:1054F0009B6C002B11D07B689B6C1846FBF7BBFDA7
:105500000346002B07D07B689B6C00221A657B68E2
:1055100040225A6501E00023BB617B681B685B6821
:1055200003F00103012B15D17B68DB6C002B11D03C
:105530007B68DB6C1846FBF79EFD0346002B07D00B
:105540007B68DB6C00221A657B6840225A6501E0AB
:105550000023BB61BB69012B28D17B680022DA875D
:105560007B680022DA867B685B6D402B02D10123C9
:10557000FB7702E07B6800225A650023FB607B68B2
:105580001B68DB68FB607B681B689B68FB60FB68D3
:105590000023BB607B681B689B68BB60BB687B6843
:1055A000012283F85120786800F0D0F9FB7F18467B
:1055B0002037BD4680BD00BF08000020F1197605E8
:1055C00061640008D96300080D5C0008E15C000814
:1055D00080B483B000AF78607B6893F85030012BC3
:1055E00001D1022310E07B68012283F850207B6800
:1055F0001B687A681268526822F003025A607B685E
:10560000002283F85020002318460C37BD465DF871
:10561000047B704780B483B000AF78607B6893F8F8
:105620005030012B01D1022310E07B68012283F866
:1056300050207B681B687A681268526842F0030247
:105640005A607B68002283F85020002318460C37EC
:10565000BD465DF8047B704780B584B000AF7860CC
:105660000023FB737B689B6C002B0FD07B689B6CCB
:105670001846FBF790FC0346002B07D07B685B6D58
:1056800043F010027B685A650123FB737B68DB6C77
:10569000002B0FD07B68DB6C1846FBF77CFC0346C5
:1056A000002B07D07B685B6D43F010027B685A6566
:1056B0000123FB737B681B687A681268526822F0CA
:1056C00003025A607B68012283F85120FB7B184655
:1056D0001037BD4680BD80B588B000AF78607B686C
:1056E0001B685B68FB617B681B689B68BB61BB696F
:1056F00003F04003002B0ED1BB6903F00103002B24
:1057000009D0FB6903F04003002B04D07B681B6CBD
:1057100078689847CFE0BB6903F00203002B09D0FB
:10572000FB6903F08003002B04D07B685B6C786816
:105730009847C0E0BB6903F02003002B0AD1BB6986
:1057400003F04003002B05D1BB6903F48073002BE9
:1057500000F0B180FB6903F02003002B00F0AB8068
:10576000BB6903F04003002B23D07B6893F85130D2
:10577000DBB2032B11D07B685B6D43F004027B68C6
:105780005A6500237B617B681B68DB687B617B68F3
:105790001B689B687B617B690BE000233B617B6836
:1057A0001B68DB683B617B681B689B683B613B69EE
:1057B00081E0BB6903F02003002B14D07B685B6D94
:1057C00043F001027B685A650023FB607B681B681D
:1057D0009B68FB607B681B687A681268126822F01D
:1057E00040021A60FB68BB6903F48073002B0CD085
:1057F0007B685B6D43F008027B685A650023BB60E1
:105800007B681B689B68BB60BB687B685B6D002B1B
:1058100050D07B681B687A681268526822F0E002F8
:105820005A607B68012283F85120FB6903F0020370
:10583000002B04D1FB6903F00103002B34D07B68FB
:105840001B687A681268526822F003025A607B680B
:10585000DB6C002B11D07B68DB6C184A1A657B6807
:10586000DB6C1846FBF707FC0346002B05D07B6872
:105870005B6D43F040027B685A657B689B6C002B34
:1058800016D07B689B6C0D4A1A657B689B6C18462A
:10589000FBF7F1FB0346002B0AD07B685B6D43F0FE
:1058A00040027B685A6503E0786800F045F800E044
:1058B00000BF00BF00BF2037BD4680BDE55B0008CC
:1058C00080B483B000AF786000BF0C37BD465DF890
:1058D000047B704780B483B000AF786000BF0C37A2
:1058E000BD465DF8047B704780B483B000AF78603C
:1058F00000BF0C37BD465DF8047B704780B483B0B1
:1059000000AF786000BF0C37BD465DF8047B704780
:1059100080B483B000AF786000BF0C37BD465DF83F
:10592000047B704780B483B000AF786000BF0C3751
:10593000BD465DF8047B704780B483B000AF7860EB
:1059400000BF0C37BD465DF8047B704780B483B060
:1059500000AF786000BF0C37BD465DF8047B704730
:1059600080B483B000AF78607B6893F85130DBB2CD
:1059700018460C37BD465DF8047B704780B483B091
:1059800000AF78607B685B6D18460C37BD465DF8EC
:10599000047B704780B586B000AF78607B689B6BF6
:1059A0007B61FAF7C5FC38617B681B681B6803F4F0
:1059B0008073B3F5807F3BD07B691B687A6912687E
:1059C000526822F020025A607B691B687A6912686B
:1059D000526822F002025A603A696421786900F044
:1059E000CAFB0346002B05D07B695B6D43F02002A8
:1059F0007B695A657B699B68002B0AD10023FB6099
:105A00007B691B68DB68FB607B691B689B68FB60CC
:105A1000FB687B690022DA867B69012283F85120CA
:105A20007B695B6D002B03D07869FFF785FF02E08F
:105A30007869FFF745FF1837BD4680BD80B584B053
:105A400000AF78607B689B6BFB60FAF771FCB86015
:105A50007B681B681B6803F48073B3F5807F29D0D3
:105A6000FB681B68FA681268526822F020025A60CC
:105A7000FB681B68FA681268526822F003025A60D9
:105A8000BA686421F86800F041FB0346002B02D09D
:105A9000FB6820225A65FB680022DA87FB68012236
:105AA00083F85120FB685B6D002B03D0F868FFF78B
:105AB00043FF02E0F868FFF70DFF1037BD4680BDD9
:105AC00080B584B000AF78607B689B6BFB60FAF7B1
:105AD0002FFCB8607B681B681B6803F48073B3F508
